{
  "_format": "hh-sol-artifact-1",
  "contractName": "Scenes",
  "sourceName": "contracts/Scenes.sol",
  "abi": [
    {
      "inputs": [],
      "stateMutability": "nonpayable",
      "type": "constructor"
    },
    {
      "inputs": [
        {
          "internalType": "address",
          "name": "sender",
          "type": "address"
        },
        {
          "internalType": "uint256",
          "name": "tokenId",
          "type": "uint256"
        },
        {
          "internalType": "address",
          "name": "owner",
          "type": "address"
        }
      ],
      "name": "ERC721IncorrectOwner",
      "type": "error"
    },
    {
      "inputs": [
        {
          "internalType": "address",
          "name": "operator",
          "type": "address"
        },
        {
          "internalType": "uint256",
          "name": "tokenId",
          "type": "uint256"
        }
      ],
      "name": "ERC721InsufficientApproval",
      "type": "error"
    },
    {
      "inputs": [
        {
          "internalType": "address",
          "name": "approver",
          "type": "address"
        }
      ],
      "name": "ERC721InvalidApprover",
      "type": "error"
    },
    {
      "inputs": [
        {
          "internalType": "address",
          "name": "operator",
          "type": "address"
        }
      ],
      "name": "ERC721InvalidOperator",
      "type": "error"
    },
    {
      "inputs": [
        {
          "internalType": "address",
          "name": "owner",
          "type": "address"
        }
      ],
      "name": "ERC721InvalidOwner",
      "type": "error"
    },
    {
      "inputs": [
        {
          "internalType": "address",
          "name": "receiver",
          "type": "address"
        }
      ],
      "name": "ERC721InvalidReceiver",
      "type": "error"
    },
    {
      "inputs": [
        {
          "internalType": "address",
          "name": "sender",
          "type": "address"
        }
      ],
      "name": "ERC721InvalidSender",
      "type": "error"
    },
    {
      "inputs": [
        {
          "internalType": "uint256",
          "name": "tokenId",
          "type": "uint256"
        }
      ],
      "name": "ERC721NonexistentToken",
      "type": "error"
    },
    {
      "inputs": [
        {
          "internalType": "address",
          "name": "owner",
          "type": "address"
        }
      ],
      "name": "OwnableInvalidOwner",
      "type": "error"
    },
    {
      "inputs": [
        {
          "internalType": "address",
          "name": "account",
          "type": "address"
        }
      ],
      "name": "OwnableUnauthorizedAccount",
      "type": "error"
    },
    {
      "anonymous": false,
      "inputs": [
        {
          "indexed": true,
          "internalType": "address",
          "name": "owner",
          "type": "address"
        },
        {
          "indexed": true,
          "internalType": "address",
          "name": "approved",
          "type": "address"
        },
        {
          "indexed": true,
          "internalType": "uint256",
          "name": "tokenId",
          "type": "uint256"
        }
      ],
      "name": "Approval",
      "type": "event"
    },
    {
      "anonymous": false,
      "inputs": [
        {
          "indexed": true,
          "internalType": "address",
          "name": "owner",
          "type": "address"
        },
        {
          "indexed": true,
          "internalType": "address",
          "name": "operator",
          "type": "address"
        },
        {
          "indexed": false,
          "internalType": "bool",
          "name": "approved",
          "type": "bool"
        }
      ],
      "name": "ApprovalForAll",
      "type": "event"
    },
    {
      "anonymous": false,
      "inputs": [
        {
          "indexed": false,
          "internalType": "uint256",
          "name": "newFee",
          "type": "uint256"
        }
      ],
      "name": "BaseFeeUpdated",
      "type": "event"
    },
    {
      "anonymous": false,
      "inputs": [
        {
          "indexed": false,
          "internalType": "uint256",
          "name": "_fromTokenId",
          "type": "uint256"
        },
        {
          "indexed": false,
          "internalType": "uint256",
          "name": "_toTokenId",
          "type": "uint256"
        }
      ],
      "name": "BatchMetadataUpdate",
      "type": "event"
    },
    {
      "anonymous": false,
      "inputs": [
        {
          "indexed": false,
          "internalType": "uint256",
          "name": "_tokenId",
          "type": "uint256"
        }
      ],
      "name": "MetadataUpdate",
      "type": "event"
    },
    {
      "anonymous": false,
      "inputs": [
        {
          "indexed": true,
          "internalType": "address",
          "name": "previousOwner",
          "type": "address"
        },
        {
          "indexed": true,
          "internalType": "address",
          "name": "newOwner",
          "type": "address"
        }
      ],
      "name": "OwnershipTransferred",
      "type": "event"
    },
    {
      "anonymous": false,
      "inputs": [
        {
          "indexed": true,
          "internalType": "uint256",
          "name": "tokenId",
          "type": "uint256"
        },
        {
          "indexed": false,
          "internalType": "string",
          "name": "name",
          "type": "string"
        }
      ],
      "name": "SceneKilled",
      "type": "event"
    },
    {
      "anonymous": false,
      "inputs": [
        {
          "indexed": true,
          "internalType": "uint256",
          "name": "tokenId",
          "type": "uint256"
        },
        {
          "indexed": false,
          "internalType": "string",
          "name": "name",
          "type": "string"
        },
        {
          "indexed": false,
          "internalType": "string",
          "name": "image",
          "type": "string"
        },
        {
          "indexed": false,
          "internalType": "string",
          "name": "artisticStyle",
          "type": "string"
        }
      ],
      "name": "SceneMinted",
      "type": "event"
    },
    {
      "anonymous": false,
      "inputs": [
        {
          "indexed": true,
          "internalType": "address",
          "name": "from",
          "type": "address"
        },
        {
          "indexed": true,
          "internalType": "address",
          "name": "to",
          "type": "address"
        },
        {
          "indexed": true,
          "internalType": "uint256",
          "name": "tokenId",
          "type": "uint256"
        }
      ],
      "name": "Transfer",
      "type": "event"
    },
    {
      "inputs": [],
      "name": "SCENE_FEE",
      "outputs": [
        {
          "internalType": "uint256",
          "name": "",
          "type": "uint256"
        }
      ],
      "stateMutability": "view",
      "type": "function"
    },
    {
      "inputs": [
        {
          "internalType": "address",
          "name": "to",
          "type": "address"
        },
        {
          "internalType": "uint256",
          "name": "tokenId",
          "type": "uint256"
        }
      ],
      "name": "approve",
      "outputs": [],
      "stateMutability": "nonpayable",
      "type": "function"
    },
    {
      "inputs": [
        {
          "internalType": "address",
          "name": "owner",
          "type": "address"
        }
      ],
      "name": "balanceOf",
      "outputs": [
        {
          "internalType": "uint256",
          "name": "",
          "type": "uint256"
        }
      ],
      "stateMutability": "view",
      "type": "function"
    },
    {
      "inputs": [],
      "name": "baseURI",
      "outputs": [
        {
          "internalType": "string",
          "name": "",
          "type": "string"
        }
      ],
      "stateMutability": "view",
      "type": "function"
    },
    {
      "inputs": [
        {
          "internalType": "uint256",
          "name": "tokenId",
          "type": "uint256"
        }
      ],
      "name": "checkIsAlive",
      "outputs": [
        {
          "internalType": "bool",
          "name": "",
          "type": "bool"
        }
      ],
      "stateMutability": "view",
      "type": "function"
    },
    {
      "inputs": [
        {
          "internalType": "uint256",
          "name": "tokenId",
          "type": "uint256"
        }
      ],
      "name": "getApproved",
      "outputs": [
        {
          "internalType": "address",
          "name": "",
          "type": "address"
        }
      ],
      "stateMutability": "view",
      "type": "function"
    },
    {
      "inputs": [],
      "name": "getMintPrice",
      "outputs": [
        {
          "internalType": "uint256",
          "name": "",
          "type": "uint256"
        }
      ],
      "stateMutability": "view",
      "type": "function"
    },
    {
      "inputs": [
        {
          "internalType": "uint256",
          "name": "tokenId",
          "type": "uint256"
        }
      ],
      "name": "getScene",
      "outputs": [
        {
          "components": [
            {
              "internalType": "string",
              "name": "name",
              "type": "string"
            },
            {
              "internalType": "string",
              "name": "image",
              "type": "string"
            },
            {
              "internalType": "string",
              "name": "artisticStyle",
              "type": "string"
            },
            {
              "internalType": "uint256",
              "name": "createdAt",
              "type": "uint256"
            }
          ],
          "internalType": "struct Scenes.Scene",
          "name": "",
          "type": "tuple"
        }
      ],
      "stateMutability": "view",
      "type": "function"
    },
    {
      "inputs": [
        {
          "internalType": "uint256",
          "name": "",
          "type": "uint256"
        }
      ],
      "name": "isAlive",
      "outputs": [
        {
          "internalType": "bool",
          "name": "",
          "type": "bool"
        }
      ],
      "stateMutability": "view",
      "type": "function"
    },
    {
      "inputs": [
        {
          "internalType": "address",
          "name": "owner",
          "type": "address"
        },
        {
          "internalType": "address",
          "name": "operator",
          "type": "address"
        }
      ],
      "name": "isApprovedForAll",
      "outputs": [
        {
          "internalType": "bool",
          "name": "",
          "type": "bool"
        }
      ],
      "stateMutability": "view",
      "type": "function"
    },
    {
      "inputs": [
        {
          "internalType": "uint256",
          "name": "tokenId",
          "type": "uint256"
        }
      ],
      "name": "killScene",
      "outputs": [],
      "stateMutability": "nonpayable",
      "type": "function"
    },
    {
      "inputs": [
        {
          "internalType": "string",
          "name": "name",
          "type": "string"
        },
        {
          "internalType": "string",
          "name": "image",
          "type": "string"
        },
        {
          "internalType": "string",
          "name": "artisticStyle",
          "type": "string"
        }
      ],
      "name": "mintScene",
      "outputs": [
        {
          "internalType": "uint256",
          "name": "",
          "type": "uint256"
        }
      ],
      "stateMutability": "payable",
      "type": "function"
    },
    {
      "inputs": [],
      "name": "name",
      "outputs": [
        {
          "internalType": "string",
          "name": "",
          "type": "string"
        }
      ],
      "stateMutability": "view",
      "type": "function"
    },
    {
      "inputs": [
        {
          "internalType": "string",
          "name": "",
          "type": "string"
        }
      ],
      "name": "nameToTokenId",
      "outputs": [
        {
          "internalType": "uint256",
          "name": "",
          "type": "uint256"
        }
      ],
      "stateMutability": "view",
      "type": "function"
    },
    {
      "inputs": [],
      "name": "owner",
      "outputs": [
        {
          "internalType": "address",
          "name": "",
          "type": "address"
        }
      ],
      "stateMutability": "view",
      "type": "function"
    },
    {
      "inputs": [
        {
          "internalType": "uint256",
          "name": "tokenId",
          "type": "uint256"
        }
      ],
      "name": "ownerOf",
      "outputs": [
        {
          "internalType": "address",
          "name": "",
          "type": "address"
        }
      ],
      "stateMutability": "view",
      "type": "function"
    },
    {
      "inputs": [],
      "name": "renounceOwnership",
      "outputs": [],
      "stateMutability": "nonpayable",
      "type": "function"
    },
    {
      "inputs": [
        {
          "internalType": "address",
          "name": "from",
          "type": "address"
        },
        {
          "internalType": "address",
          "name": "to",
          "type": "address"
        },
        {
          "internalType": "uint256",
          "name": "tokenId",
          "type": "uint256"
        }
      ],
      "name": "safeTransferFrom",
      "outputs": [],
      "stateMutability": "nonpayable",
      "type": "function"
    },
    {
      "inputs": [
        {
          "internalType": "address",
          "name": "from",
          "type": "address"
        },
        {
          "internalType": "address",
          "name": "to",
          "type": "address"
        },
        {
          "internalType": "uint256",
          "name": "tokenId",
          "type": "uint256"
        },
        {
          "internalType": "bytes",
          "name": "data",
          "type": "bytes"
        }
      ],
      "name": "safeTransferFrom",
      "outputs": [],
      "stateMutability": "nonpayable",
      "type": "function"
    },
    {
      "inputs": [
        {
          "internalType": "uint256",
          "name": "",
          "type": "uint256"
        }
      ],
      "name": "scenes",
      "outputs": [
        {
          "internalType": "string",
          "name": "name",
          "type": "string"
        },
        {
          "internalType": "string",
          "name": "image",
          "type": "string"
        },
        {
          "internalType": "string",
          "name": "artisticStyle",
          "type": "string"
        },
        {
          "internalType": "uint256",
          "name": "createdAt",
          "type": "uint256"
        }
      ],
      "stateMutability": "view",
      "type": "function"
    },
    {
      "inputs": [
        {
          "internalType": "address",
          "name": "operator",
          "type": "address"
        },
        {
          "internalType": "bool",
          "name": "approved",
          "type": "bool"
        }
      ],
      "name": "setApprovalForAll",
      "outputs": [],
      "stateMutability": "nonpayable",
      "type": "function"
    },
    {
      "inputs": [
        {
          "internalType": "bytes4",
          "name": "interfaceId",
          "type": "bytes4"
        }
      ],
      "name": "supportsInterface",
      "outputs": [
        {
          "internalType": "bool",
          "name": "",
          "type": "bool"
        }
      ],
      "stateMutability": "view",
      "type": "function"
    },
    {
      "inputs": [],
      "name": "symbol",
      "outputs": [
        {
          "internalType": "string",
          "name": "",
          "type": "string"
        }
      ],
      "stateMutability": "view",
      "type": "function"
    },
    {
      "inputs": [
        {
          "internalType": "uint256",
          "name": "tokenId",
          "type": "uint256"
        }
      ],
      "name": "tokenURI",
      "outputs": [
        {
          "internalType": "string",
          "name": "",
          "type": "string"
        }
      ],
      "stateMutability": "view",
      "type": "function"
    },
    {
      "inputs": [
        {
          "internalType": "address",
          "name": "from",
          "type": "address"
        },
        {
          "internalType": "address",
          "name": "to",
          "type": "address"
        },
        {
          "internalType": "uint256",
          "name": "tokenId",
          "type": "uint256"
        }
      ],
      "name": "transferFrom",
      "outputs": [],
      "stateMutability": "nonpayable",
      "type": "function"
    },
    {
      "inputs": [
        {
          "internalType": "address",
          "name": "newOwner",
          "type": "address"
        }
      ],
      "name": "transferOwnership",
      "outputs": [],
      "stateMutability": "nonpayable",
      "type": "function"
    },
    {
      "inputs": [
        {
          "internalType": "uint256",
          "name": "_newFee",
          "type": "uint256"
        }
      ],
      "name": "updateBaseFee",
      "outputs": [],
      "stateMutability": "nonpayable",
      "type": "function"
    },
    {
      "inputs": [],
      "name": "withdraw",
      "outputs": [],
      "stateMutability": "nonpayable",
      "type": "function"
    }
  ],
  "bytecode": "0x60806040526000600a553480156200001657600080fd5b50336040518060400160405280601381526020017f576f726c6420436f6d696373205363656e6573000000000000000000000000008152506040518060400160405280600381526020017f57435300000000000000000000000000000000000000000000000000000000008152508160009081620000959190620004be565b508060019081620000a79190620004be565b505050600073ffffffffffffffffffffffffffffffffffffffff168173ffffffffffffffffffffffffffffffffffffffff16036200011f5760006040517f1e4fbdf7000000000000000000000000000000000000000000000000000000008152600401620001169190620005ea565b60405180910390fd5b62000130816200017e60201b60201c565b506040518060400160405280601d81526020017f646174613a6170706c69636174696f6e2f6a736f6e3b6261736536342c000000815250600d9081620001779190620004be565b5062000607565b6000600760009054906101000a900473ffffffffffffffffffffffffffffffffffffffff16905081600760006101000a81548173ffffffffffffffffffffffffffffffffffffffff021916908373ffffffffffffffffffffffffffffffffffffffff1602179055508173ffffffffffffffffffffffffffffffffffffffff168173ffffffffffffffffffffffffffffffffffffffff167f8be0079c531659141344cd1fd0a4f28419497f9722a3daafe3b4186f6b6457e060405160405180910390a35050565b600081519050919050565b7f4e487b7100000000000000000000000000000000000000000000000000000000600052604160045260246000fd5b7f4e487b7100000000000000000000000000000000000000000000000000000000600052602260045260246000fd5b60006002820490506001821680620002c657607f821691505b602082108103620002dc57620002db6200027e565b5b50919050565b60008190508160005260206000209050919050565b60006020601f8301049050919050565b600082821b905092915050565b600060088302620003467fffffffffffffffffffffffffffffffffffffffffffffffffffffffffffffffff8262000307565b62000352868362000307565b95508019841693508086168417925050509392505050565b6000819050919050565b6000819050919050565b60006200039f6200039962000393846200036a565b62000374565b6200036a565b9050919050565b6000819050919050565b620003bb836200037e565b620003d3620003ca82620003a6565b84845462000314565b825550505050565b600090565b620003ea620003db565b620003f7818484620003b0565b505050565b5b818110156200041f5762000413600082620003e0565b600181019050620003fd565b5050565b601f8211156200046e576200043881620002e2565b6200044384620002f7565b8101602085101562000453578190505b6200046b6200046285620002f7565b830182620003fc565b50505b505050565b600082821c905092915050565b6000620004936000198460080262000473565b1980831691505092915050565b6000620004ae838362000480565b9150826002028217905092915050565b620004c98262000244565b67ffffffffffffffff811115620004e557620004e46200024f565b5b620004f18254620002ad565b620004fe82828562000423565b600060209050601f83116001811462000536576000841562000521578287015190505b6200052d8582620004a0565b8655506200059d565b601f1984166200054686620002e2565b60005b82811015620005705784890151825560018201915060208501945060208101905062000549565b868310156200059057848901516200058c601f89168262000480565b8355505b6001600288020188555050505b505050505050565b600073ffffffffffffffffffffffffffffffffffffffff82169050919050565b6000620005d282620005a5565b9050919050565b620005e481620005c5565b82525050565b6000602082019050620006016000830184620005d9565b92915050565b61434b80620006176000396000f3fe6080604052600436106101b75760003560e01c8063715018a6116100ec578063c87b56dd1161008a578063dd00125411610064578063dd0012541461063a578063e985e9c514610677578063f2fde38b146106b4578063fb426c79146106dd576101b7565b8063c87b56dd14610595578063cd684536146105d2578063d84b2361146105fd576101b7565b806395d89b41116100c657806395d89b41146104ed578063a22cb46514610518578063a7f93ebd14610541578063b88d4fde1461056c576101b7565b8063715018a6146104825780638da5cb5b146104995780638e690186146104c4576101b7565b806323b872dd1161015957806342842e0e1161013357806342842e0e146103b45780636352211e146103dd5780636c0360eb1461041a57806370a0823114610445576101b7565b806323b872dd1461033457806332c57cec1461035d5780633ccfd60b1461039d576101b7565b8063095ea7b311610195578063095ea7b3146102615780630eb597451461028a5780631054a94c146102c757806322d7642e146102f7576101b7565b806301ffc9a7146101bc57806306fdde03146101f9578063081812fc14610224575b600080fd5b3480156101c857600080fd5b506101e360048036038101906101de9190612ce0565b610706565b6040516101f09190612d28565b60405180910390f35b34801561020557600080fd5b5061020e610767565b60405161021b9190612dd3565b60405180910390f35b34801561023057600080fd5b5061024b60048036038101906102469190612e2b565b6107f9565b6040516102589190612e99565b60405180910390f35b34801561026d57600080fd5b5061028860048036038101906102839190612ee0565b610815565b005b34801561029657600080fd5b506102b160048036038101906102ac9190612e2b565b61082b565b6040516102be9190612d28565b60405180910390f35b6102e160048036038101906102dc9190613055565b61087e565b6040516102ee919061310b565b60405180910390f35b34801561030357600080fd5b5061031e60048036038101906103199190612e2b565b610b36565b60405161032b91906131f0565b60405180910390f35b34801561034057600080fd5b5061035b60048036038101906103569190613212565b610d6b565b005b34801561036957600080fd5b50610384600480360381019061037f9190612e2b565b610e6d565b6040516103949493929190613265565b60405180910390f35b3480156103a957600080fd5b506103b2611035565b005b3480156103c057600080fd5b506103db60048036038101906103d69190613212565b61108d565b005b3480156103e957600080fd5b5061040460048036038101906103ff9190612e2b565b6110ad565b6040516104119190612e99565b60405180910390f35b34801561042657600080fd5b5061042f6110bf565b60405161043c9190612dd3565b60405180910390f35b34801561045157600080fd5b5061046c600480360381019061046791906132bf565b61114d565b604051610479919061310b565b60405180910390f35b34801561048e57600080fd5b50610497611207565b005b3480156104a557600080fd5b506104ae61121b565b6040516104bb9190612e99565b60405180910390f35b3480156104d057600080fd5b506104eb60048036038101906104e69190612e2b565b611245565b005b3480156104f957600080fd5b5061050261128e565b60405161050f9190612dd3565b60405180910390f35b34801561052457600080fd5b5061053f600480360381019061053a9190613318565b611320565b005b34801561054d57600080fd5b50610556611336565b604051610563919061310b565b60405180910390f35b34801561057857600080fd5b50610593600480360381019061058e91906133f9565b611340565b005b3480156105a157600080fd5b506105bc60048036038101906105b79190612e2b565b611365565b6040516105c99190612dd3565b60405180910390f35b3480156105de57600080fd5b506105e76113e1565b6040516105f4919061310b565b60405180910390f35b34801561060957600080fd5b50610624600480360381019061061f9190612e2b565b6113e7565b6040516106319190612d28565b60405180910390f35b34801561064657600080fd5b50610661600480360381019061065c919061347c565b611407565b60405161066e919061310b565b60405180910390f35b34801561068357600080fd5b5061069e600480360381019061069991906134c5565b611435565b6040516106ab9190612d28565b60405180910390f35b3480156106c057600080fd5b506106db60048036038101906106d691906132bf565b6114c9565b005b3480156106e957600080fd5b5061070460048036038101906106ff9190612e2b565b61154f565b005b6000634906490660e01b7bffffffffffffffffffffffffffffffffffffffffffffffffffffffff1916827bffffffffffffffffffffffffffffffffffffffffffffffffffffffff19161480610760575061075f826115b7565b5b9050919050565b60606000805461077690613534565b80601f01602080910402602001604051908101604052809291908181526020018280546107a290613534565b80156107ef5780601f106107c4576101008083540402835291602001916107ef565b820191906000526020600020905b8154815290600101906020018083116107d257829003601f168201915b5050505050905090565b600061080482611699565b5061080e82611721565b9050919050565b610827828261082261175e565b611766565b5050565b600061083682611778565b80156108775750600073ffffffffffffffffffffffffffffffffffffffff1661085e836110ad565b73ffffffffffffffffffffffffffffffffffffffff1614155b9050919050565b6000600a543410156108c5576040517f08c379a00000000000000000000000000000000000000000000000000000000081526004016108bc906135b1565b60405180910390fd5b6000845111610909576040517f08c379a00000000000000000000000000000000000000000000000000000000081526004016109009061361d565b60405180910390fd5b600083511161094d576040517f08c379a000000000000000000000000000000000000000000000000000000000815260040161094490613689565b60405180910390fd5b6000825111610991576040517f08c379a0000000000000000000000000000000000000000000000000000000008152600401610988906136f5565b60405180910390fd5b600860008154809291906109a490613744565b919050555060006008549050600960008154809291906109c390613744565b9190505550604051806080016040528086815260200185815260200184815260200142815250600b60008381526020019081526020016000206000820151816000019081610a119190613938565b506020820151816001019081610a279190613938565b506040820151816002019081610a3d9190613938565b506060820151816003015590505080600c86604051610a5c9190613a46565b9081526020016040518091039020819055506000858585610a7c426117b9565b604051602001610a8f9493929190613dc7565b60405160208183030381529060405290506000610aab82611887565b9050610ab783826118b4565b610ac13384611910565b6001600e600085815260200190815260200160002060006101000a81548160ff021916908315150217905550827f880c6a85209d3832d846970f54cfd2383161b5f94f16e3685c13171a21be7a18888888604051610b2193929190613e7e565b60405180910390a28293505050509392505050565b610b3e612bef565b610b4782611778565b610b86576040517f08c379a0000000000000000000000000000000000000000000000000000000008152600401610b7d90613f16565b60405180910390fd5b600b6000838152602001908152602001600020604051806080016040529081600082018054610bb490613534565b80601f0160208091040260200160405190810160405280929190818152602001828054610be090613534565b8015610c2d5780601f10610c0257610100808354040283529160200191610c2d565b820191906000526020600020905b815481529060010190602001808311610c1057829003601f168201915b50505050508152602001600182018054610c4690613534565b80601f0160208091040260200160405190810160405280929190818152602001828054610c7290613534565b8015610cbf5780601f10610c9457610100808354040283529160200191610cbf565b820191906000526020600020905b815481529060010190602001808311610ca257829003601f168201915b50505050508152602001600282018054610cd890613534565b80601f0160208091040260200160405190810160405280929190818152602001828054610d0490613534565b8015610d515780601f10610d2657610100808354040283529160200191610d51565b820191906000526020600020905b815481529060010190602001808311610d3457829003601f168201915b505050505081526020016003820154815250509050919050565b600073ffffffffffffffffffffffffffffffffffffffff168273ffffffffffffffffffffffffffffffffffffffff1603610ddd5760006040517f64a0ae92000000000000000000000000000000000000000000000000000000008152600401610dd49190612e99565b60405180910390fd5b6000610df18383610dec61175e565b611a09565b90508373ffffffffffffffffffffffffffffffffffffffff168173ffffffffffffffffffffffffffffffffffffffff1614610e67578382826040517f64283d7b000000000000000000000000000000000000000000000000000000008152600401610e5e93929190613f36565b60405180910390fd5b50505050565b600b602052806000526040600020600091509050806000018054610e9090613534565b80601f0160208091040260200160405190810160405280929190818152602001828054610ebc90613534565b8015610f095780601f10610ede57610100808354040283529160200191610f09565b820191906000526020600020905b815481529060010190602001808311610eec57829003601f168201915b505050505090806001018054610f1e90613534565b80601f0160208091040260200160405190810160405280929190818152602001828054610f4a90613534565b8015610f975780601f10610f6c57610100808354040283529160200191610f97565b820191906000526020600020905b815481529060010190602001808311610f7a57829003601f168201915b505050505090806002018054610fac90613534565b80601f0160208091040260200160405190810160405280929190818152602001828054610fd890613534565b80156110255780601f10610ffa57610100808354040283529160200191611025565b820191906000526020600020905b81548152906001019060200180831161100857829003601f168201915b5050505050908060030154905084565b61103d611cfd565b61104561121b565b73ffffffffffffffffffffffffffffffffffffffff166108fc479081150290604051600060405180830381858888f1935050505015801561108a573d6000803e3d6000fd5b50565b6110a883838360405180602001604052806000815250611340565b505050565b60006110b882611699565b9050919050565b600d80546110cc90613534565b80601f01602080910402602001604051908101604052809291908181526020018280546110f890613534565b80156111455780601f1061111a57610100808354040283529160200191611145565b820191906000526020600020905b81548152906001019060200180831161112857829003601f168201915b505050505081565b60008073ffffffffffffffffffffffffffffffffffffffff168273ffffffffffffffffffffffffffffffffffffffff16036111c05760006040517f89c62b640000000000000000000000000000000000000000000000000000000081526004016111b79190612e99565b60405180910390fd5b600360008373ffffffffffffffffffffffffffffffffffffffff1673ffffffffffffffffffffffffffffffffffffffff168152602001908152602001600020549050919050565b61120f611cfd565b6112196000611d84565b565b6000600760009054906101000a900473ffffffffffffffffffffffffffffffffffffffff16905090565b61124d611cfd565b80600a819055507f803bee7e92bbc6ae7a1551f9f4ed3e31a8ea8df32e93332f41b0028f1091f9c381604051611283919061310b565b60405180910390a150565b60606001805461129d90613534565b80601f01602080910402602001604051908101604052809291908181526020018280546112c990613534565b80156113165780601f106112eb57610100808354040283529160200191611316565b820191906000526020600020905b8154815290600101906020018083116112f957829003601f168201915b5050505050905090565b61133261132b61175e565b8383611e4a565b5050565b6000600a54905090565b61134b848484610d6b565b61135f61135661175e565b85858585611fb9565b50505050565b606061137082611778565b6113af576040517f08c379a00000000000000000000000000000000000000000000000000000000081526004016113a690613fdf565b60405180910390fd5b600d6113ba8361216a565b6040516020016113cb929190614082565b6040516020818303038152906040529050919050565b600a5481565b600e6020528060005260406000206000915054906101000a900460ff1681565b600c818051602081018201805184825260208301602085012081835280955050505050506000915090505481565b6000600560008473ffffffffffffffffffffffffffffffffffffffff1673ffffffffffffffffffffffffffffffffffffffff16815260200190815260200160002060008373ffffffffffffffffffffffffffffffffffffffff1673ffffffffffffffffffffffffffffffffffffffff16815260200190815260200160002060009054906101000a900460ff16905092915050565b6114d1611cfd565b600073ffffffffffffffffffffffffffffffffffffffff168173ffffffffffffffffffffffffffffffffffffffff16036115435760006040517f1e4fbdf700000000000000000000000000000000000000000000000000000000815260040161153a9190612e99565b60405180910390fd5b61154c81611d84565b50565b611557611cfd565b61156081611778565b61159f576040517f08c379a000000000000000000000000000000000000000000000000000000000815260040161159690613f16565b60405180910390fd5b6115b36000826115ae846110ad565b611a09565b5050565b60007f80ac58cd000000000000000000000000000000000000000000000000000000007bffffffffffffffffffffffffffffffffffffffffffffffffffffffff1916827bffffffffffffffffffffffffffffffffffffffffffffffffffffffff1916148061168257507f5b5e139f000000000000000000000000000000000000000000000000000000007bffffffffffffffffffffffffffffffffffffffffffffffffffffffff1916827bffffffffffffffffffffffffffffffffffffffffffffffffffffffff1916145b8061169257506116918261227d565b5b9050919050565b6000806116a5836122e7565b9050600073ffffffffffffffffffffffffffffffffffffffff168173ffffffffffffffffffffffffffffffffffffffff160361171857826040517f7e27328900000000000000000000000000000000000000000000000000000000815260040161170f919061310b565b60405180910390fd5b80915050919050565b60006004600083815260200190815260200160002060009054906101000a900473ffffffffffffffffffffffffffffffffffffffff169050919050565b600033905090565b6117738383836001612324565b505050565b60008073ffffffffffffffffffffffffffffffffffffffff1661179a836122e7565b73ffffffffffffffffffffffffffffffffffffffff1614159050919050565b6060600060016117c8846124e9565b01905060008167ffffffffffffffff8111156117e7576117e6612f2a565b5b6040519080825280601f01601f1916602001820160405280156118195781602001600182028036833780820191505090505b509050600082602001820190505b60011561187c578080600190039150507f3031323334353637383961626364656600000000000000000000000000000000600a86061a8153600a85816118705761186f6140a6565b5b04945060008503611827575b819350505050919050565b60606118ad826040518060600160405280604081526020016142d660409139600161263c565b9050919050565b806006600084815260200190815260200160002090816118d49190613938565b507ff8e1a15aba9398e019f0b49df1a4fde98ee17ae345cb5f6b5e2c27f5033e8ce782604051611904919061310b565b60405180910390a15050565b600073ffffffffffffffffffffffffffffffffffffffff168273ffffffffffffffffffffffffffffffffffffffff16036119825760006040517f64a0ae920000000000000000000000000000000000000000000000000000000081526004016119799190612e99565b60405180910390fd5b600061199083836000611a09565b9050600073ffffffffffffffffffffffffffffffffffffffff168173ffffffffffffffffffffffffffffffffffffffff1614611a045760006040517f73c6ac6e0000000000000000000000000000000000000000000000000000000081526004016119fb9190612e99565b60405180910390fd5b505050565b60008073ffffffffffffffffffffffffffffffffffffffff168473ffffffffffffffffffffffffffffffffffffffff1603611cea576000600b6000858152602001908152602001600020604051806080016040529081600082018054611a6e90613534565b80601f0160208091040260200160405190810160405280929190818152602001828054611a9a90613534565b8015611ae75780601f10611abc57610100808354040283529160200191611ae7565b820191906000526020600020905b815481529060010190602001808311611aca57829003601f168201915b50505050508152602001600182018054611b0090613534565b80601f0160208091040260200160405190810160405280929190818152602001828054611b2c90613534565b8015611b795780601f10611b4e57610100808354040283529160200191611b79565b820191906000526020600020905b815481529060010190602001808311611b5c57829003601f168201915b50505050508152602001600282018054611b9290613534565b80601f0160208091040260200160405190810160405280929190818152602001828054611bbe90613534565b8015611c0b5780601f10611be057610100808354040283529160200191611c0b565b820191906000526020600020905b815481529060010190602001808311611bee57829003601f168201915b505050505081526020016003820154815250509050600b600085815260200190815260200160002060008082016000611c449190612c17565b600182016000611c549190612c17565b600282016000611c649190612c17565b60038201600090555050600c8160000151604051611c829190613a46565b90815260200160405180910390206000905560096000815480929190611ca7906140d5565b9190505550837fb9cf55837317b75a54e99509918b391aa4c9c6f525c1f76f62b1ef948680a9758260000151604051611ce09190612dd3565b60405180910390a2505b611cf58484846127d0565b509392505050565b611d0561175e565b73ffffffffffffffffffffffffffffffffffffffff16611d2361121b565b73ffffffffffffffffffffffffffffffffffffffff1614611d8257611d4661175e565b6040517f118cdaa7000000000000000000000000000000000000000000000000000000008152600401611d799190612e99565b60405180910390fd5b565b6000600760009054906101000a900473ffffffffffffffffffffffffffffffffffffffff16905081600760006101000a81548173ffffffffffffffffffffffffffffffffffffffff021916908373ffffffffffffffffffffffffffffffffffffffff1602179055508173ffffffffffffffffffffffffffffffffffffffff168173ffffffffffffffffffffffffffffffffffffffff167f8be0079c531659141344cd1fd0a4f28419497f9722a3daafe3b4186f6b6457e060405160405180910390a35050565b600073ffffffffffffffffffffffffffffffffffffffff168273ffffffffffffffffffffffffffffffffffffffff1603611ebb57816040517f5b08ba18000000000000000000000000000000000000000000000000000000008152600401611eb29190612e99565b60405180910390fd5b80600560008573ffffffffffffffffffffffffffffffffffffffff1673ffffffffffffffffffffffffffffffffffffffff16815260200190815260200160002060008473ffffffffffffffffffffffffffffffffffffffff1673ffffffffffffffffffffffffffffffffffffffff16815260200190815260200160002060006101000a81548160ff0219169083151502179055508173ffffffffffffffffffffffffffffffffffffffff168373ffffffffffffffffffffffffffffffffffffffff167f17307eab39ab6107e8899845ad3d59bd9653f200f220920489ca2b5937696c3183604051611fac9190612d28565b60405180910390a3505050565b60008373ffffffffffffffffffffffffffffffffffffffff163b1115612163578273ffffffffffffffffffffffffffffffffffffffff1663150b7a02868685856040518563ffffffff1660e01b81526004016120189493929190614153565b6020604051808303816000875af192505050801561205457506040513d601f19601f8201168201806040525081019061205191906141b4565b60015b6120d8573d8060008114612084576040519150601f19603f3d011682016040523d82523d6000602084013e612089565b606091505b5060008151036120d057836040517f64a0ae920000000000000000000000000000000000000000000000000000000081526004016120c79190612e99565b60405180910390fd5b805181602001fd5b63150b7a0260e01b7bffffffffffffffffffffffffffffffffffffffffffffffffffffffff1916817bffffffffffffffffffffffffffffffffffffffffffffffffffffffff19161461216157836040517f64a0ae920000000000000000000000000000000000000000000000000000000081526004016121589190612e99565b60405180910390fd5b505b5050505050565b606061217582611699565b50600060066000848152602001908152602001600020805461219690613534565b80601f01602080910402602001604051908101604052809291908181526020018280546121c290613534565b801561220f5780601f106121e45761010080835404028352916020019161220f565b820191906000526020600020905b8154815290600101906020018083116121f257829003601f168201915b5050505050905060006122206129ea565b90506000815103612235578192505050612278565b60008251111561226a5780826040516020016122529291906141e1565b60405160208183030381529060405292505050612278565b61227384612a01565b925050505b919050565b60007f01ffc9a7000000000000000000000000000000000000000000000000000000007bffffffffffffffffffffffffffffffffffffffffffffffffffffffff1916827bffffffffffffffffffffffffffffffffffffffffffffffffffffffff1916149050919050565b60006002600083815260200190815260200160002060009054906101000a900473ffffffffffffffffffffffffffffffffffffffff169050919050565b808061235d5750600073ffffffffffffffffffffffffffffffffffffffff168273ffffffffffffffffffffffffffffffffffffffff1614155b1561249157600061236d84611699565b9050600073ffffffffffffffffffffffffffffffffffffffff168373ffffffffffffffffffffffffffffffffffffffff16141580156123d857508273ffffffffffffffffffffffffffffffffffffffff168173ffffffffffffffffffffffffffffffffffffffff1614155b80156123eb57506123e98184611435565b155b1561242d57826040517fa9fbf51f0000000000000000000000000000000000000000000000000000000081526004016124249190612e99565b60405180910390fd5b811561248f57838573ffffffffffffffffffffffffffffffffffffffff168273ffffffffffffffffffffffffffffffffffffffff167f8c5be1e5ebec7d5bd14f71427d1e84f3dd0314c0f7b2291e5b200ac8c7c3b92560405160405180910390a45b505b836004600085815260200190815260200160002060006101000a81548173ffffffffffffffffffffffffffffffffffffffff021916908373ffffffffffffffffffffffffffffffffffffffff16021790555050505050565b600080600090507a184f03e93ff9f4daa797ed6e38ed64bf6a1f0100000000000000008310612547577a184f03e93ff9f4daa797ed6e38ed64bf6a1f010000000000000000838161253d5761253c6140a6565b5b0492506040810190505b6d04ee2d6d415b85acef81000000008310612584576d04ee2d6d415b85acef8100000000838161257a576125796140a6565b5b0492506020810190505b662386f26fc1000083106125b357662386f26fc1000083816125a9576125a86140a6565b5b0492506010810190505b6305f5e10083106125dc576305f5e10083816125d2576125d16140a6565b5b0492506008810190505b61271083106126015761271083816125f7576125f66140a6565b5b0492506004810190505b60648310612624576064838161261a576126196140a6565b5b0492506002810190505b600a8310612633576001810190505b80915050919050565b6060600084510361265e576040518060200160405280600081525090506127c9565b6000826126905760036002865160046126779190614205565b6126819190614247565b61268b919061427b565b6126b7565b6003600286516126a09190614247565b6126aa919061427b565b60046126b69190614205565b5b905060008167ffffffffffffffff8111156126d5576126d4612f2a565b5b6040519080825280601f01601f1916602001820160405280156127075781602001600182028036833780820191505090505b50905060018501602082018788518901602081018051600082525b8284101561277d576003840193508351603f8160121c168701518653600186019550603f81600c1c168701518653600186019550603f8160061c168701518653600186019550603f8116870151865360018601955050612722565b80825289156127bd5760038c5106600181146127a057600281146127b3576127bb565b603d6001870353603d60028703536127bb565b603d60018703535b505b50505050505080925050505b9392505050565b6000806127dc846122e7565b9050600073ffffffffffffffffffffffffffffffffffffffff168373ffffffffffffffffffffffffffffffffffffffff161461281e5761281d818486612a6a565b5b600073ffffffffffffffffffffffffffffffffffffffff168173ffffffffffffffffffffffffffffffffffffffff16146128af57612860600085600080612324565b6001600360008373ffffffffffffffffffffffffffffffffffffffff1673ffffffffffffffffffffffffffffffffffffffff168152602001908152602001600020600082825403925050819055505b600073ffffffffffffffffffffffffffffffffffffffff168573ffffffffffffffffffffffffffffffffffffffff1614612932576001600360008773ffffffffffffffffffffffffffffffffffffffff1673ffffffffffffffffffffffffffffffffffffffff168152602001908152602001600020600082825401925050819055505b846002600086815260200190815260200160002060006101000a81548173ffffffffffffffffffffffffffffffffffffffff021916908373ffffffffffffffffffffffffffffffffffffffff160217905550838573ffffffffffffffffffffffffffffffffffffffff168273ffffffffffffffffffffffffffffffffffffffff167fddf252ad1be2c89b69c2b068fc378daa952ba7f163c4a11628f55a4df523b3ef60405160405180910390a4809150509392505050565b606060405180602001604052806000815250905090565b6060612a0c82611699565b506000612a176129ea565b90506000815111612a375760405180602001604052806000815250612a62565b80612a41846117b9565b604051602001612a529291906141e1565b6040516020818303038152906040525b915050919050565b612a75838383612b2e565b612b2957600073ffffffffffffffffffffffffffffffffffffffff168373ffffffffffffffffffffffffffffffffffffffff1603612aea57806040517f7e273289000000000000000000000000000000000000000000000000000000008152600401612ae1919061310b565b60405180910390fd5b81816040517f177e802f000000000000000000000000000000000000000000000000000000008152600401612b209291906142ac565b60405180910390fd5b505050565b60008073ffffffffffffffffffffffffffffffffffffffff168373ffffffffffffffffffffffffffffffffffffffff1614158015612be657508273ffffffffffffffffffffffffffffffffffffffff168473ffffffffffffffffffffffffffffffffffffffff161480612ba75750612ba68484611435565b5b80612be557508273ffffffffffffffffffffffffffffffffffffffff16612bcd83611721565b73ffffffffffffffffffffffffffffffffffffffff16145b5b90509392505050565b6040518060800160405280606081526020016060815260200160608152602001600081525090565b508054612c2390613534565b6000825580601f10612c355750612c54565b601f016020900490600052602060002090810190612c539190612c57565b5b50565b5b80821115612c70576000816000905550600101612c58565b5090565b6000604051905090565b600080fd5b600080fd5b60007fffffffff0000000000000000000000000000000000000000000000000000000082169050919050565b612cbd81612c88565b8114612cc857600080fd5b50565b600081359050612cda81612cb4565b92915050565b600060208284031215612cf657612cf5612c7e565b5b6000612d0484828501612ccb565b91505092915050565b60008115159050919050565b612d2281612d0d565b82525050565b6000602082019050612d3d6000830184612d19565b92915050565b600081519050919050565b600082825260208201905092915050565b60005b83811015612d7d578082015181840152602081019050612d62565b60008484015250505050565b6000601f19601f8301169050919050565b6000612da582612d43565b612daf8185612d4e565b9350612dbf818560208601612d5f565b612dc881612d89565b840191505092915050565b60006020820190508181036000830152612ded8184612d9a565b905092915050565b6000819050919050565b612e0881612df5565b8114612e1357600080fd5b50565b600081359050612e2581612dff565b92915050565b600060208284031215612e4157612e40612c7e565b5b6000612e4f84828501612e16565b91505092915050565b600073ffffffffffffffffffffffffffffffffffffffff82169050919050565b6000612e8382612e58565b9050919050565b612e9381612e78565b82525050565b6000602082019050612eae6000830184612e8a565b92915050565b612ebd81612e78565b8114612ec857600080fd5b50565b600081359050612eda81612eb4565b92915050565b60008060408385031215612ef757612ef6612c7e565b5b6000612f0585828601612ecb565b9250506020612f1685828601612e16565b9150509250929050565b600080fd5b600080fd5b7f4e487b7100000000000000000000000000000000000000000000000000000000600052604160045260246000fd5b612f6282612d89565b810181811067ffffffffffffffff82111715612f8157612f80612f2a565b5b80604052505050565b6000612f94612c74565b9050612fa08282612f59565b919050565b600067ffffffffffffffff821115612fc057612fbf612f2a565b5b612fc982612d89565b9050602081019050919050565b82818337600083830152505050565b6000612ff8612ff384612fa5565b612f8a565b90508281526020810184848401111561301457613013612f25565b5b61301f848285612fd6565b509392505050565b600082601f83011261303c5761303b612f20565b5b813561304c848260208601612fe5565b91505092915050565b60008060006060848603121561306e5761306d612c7e565b5b600084013567ffffffffffffffff81111561308c5761308b612c83565b5b61309886828701613027565b935050602084013567ffffffffffffffff8111156130b9576130b8612c83565b5b6130c586828701613027565b925050604084013567ffffffffffffffff8111156130e6576130e5612c83565b5b6130f286828701613027565b9150509250925092565b61310581612df5565b82525050565b600060208201905061312060008301846130fc565b92915050565b600082825260208201905092915050565b600061314282612d43565b61314c8185613126565b935061315c818560208601612d5f565b61316581612d89565b840191505092915050565b61317981612df5565b82525050565b6000608083016000830151848203600086015261319c8282613137565b915050602083015184820360208601526131b68282613137565b915050604083015184820360408601526131d08282613137565b91505060608301516131e56060860182613170565b508091505092915050565b6000602082019050818103600083015261320a818461317f565b905092915050565b60008060006060848603121561322b5761322a612c7e565b5b600061323986828701612ecb565b935050602061324a86828701612ecb565b925050604061325b86828701612e16565b9150509250925092565b6000608082019050818103600083015261327f8187612d9a565b905081810360208301526132938186612d9a565b905081810360408301526132a78185612d9a565b90506132b660608301846130fc565b95945050505050565b6000602082840312156132d5576132d4612c7e565b5b60006132e384828501612ecb565b91505092915050565b6132f581612d0d565b811461330057600080fd5b50565b600081359050613312816132ec565b92915050565b6000806040838503121561332f5761332e612c7e565b5b600061333d85828601612ecb565b925050602061334e85828601613303565b9150509250929050565b600067ffffffffffffffff82111561337357613372612f2a565b5b61337c82612d89565b9050602081019050919050565b600061339c61339784613358565b612f8a565b9050828152602081018484840111156133b8576133b7612f25565b5b6133c3848285612fd6565b509392505050565b600082601f8301126133e0576133df612f20565b5b81356133f0848260208601613389565b91505092915050565b6000806000806080858703121561341357613412612c7e565b5b600061342187828801612ecb565b945050602061343287828801612ecb565b935050604061344387828801612e16565b925050606085013567ffffffffffffffff81111561346457613463612c83565b5b613470878288016133cb565b91505092959194509250565b60006020828403121561349257613491612c7e565b5b600082013567ffffffffffffffff8111156134b0576134af612c83565b5b6134bc84828501613027565b91505092915050565b600080604083850312156134dc576134db612c7e565b5b60006134ea85828601612ecb565b92505060206134fb85828601612ecb565b9150509250929050565b7f4e487b7100000000000000000000000000000000000000000000000000000000600052602260045260246000fd5b6000600282049050600182168061354c57607f821691505b60208210810361355f5761355e613505565b5b50919050565b7f496e73756666696369656e74207061796d656e74000000000000000000000000600082015250565b600061359b601483612d4e565b91506135a682613565565b602082019050919050565b600060208201905081810360008301526135ca8161358e565b9050919050565b7f4e616d652063616e6e6f7420626520656d707479000000000000000000000000600082015250565b6000613607601483612d4e565b9150613612826135d1565b602082019050919050565b60006020820190508181036000830152613636816135fa565b9050919050565b7f496d6167652063616e6e6f7420626520656d7074790000000000000000000000600082015250565b6000613673601583612d4e565b915061367e8261363d565b602082019050919050565b600060208201905081810360008301526136a281613666565b9050919050565b7f4172746973746963207374796c652063616e6e6f7420626520656d7074790000600082015250565b60006136df601e83612d4e565b91506136ea826136a9565b602082019050919050565b6000602082019050818103600083015261370e816136d2565b9050919050565b7f4e487b7100000000000000000000000000000000000000000000000000000000600052601160045260246000fd5b600061374f82612df5565b91507fffffffffffffffffffffffffffffffffffffffffffffffffffffffffffffffff820361378157613780613715565b5b600182019050919050565b60008190508160005260206000209050919050565b60006020601f8301049050919050565b600082821b905092915050565b6000600883026137ee7fffffffffffffffffffffffffffffffffffffffffffffffffffffffffffffffff826137b1565b6137f886836137b1565b95508019841693508086168417925050509392505050565b6000819050919050565b600061383561383061382b84612df5565b613810565b612df5565b9050919050565b6000819050919050565b61384f8361381a565b61386361385b8261383c565b8484546137be565b825550505050565b600090565b61387861386b565b613883818484613846565b505050565b5b818110156138a75761389c600082613870565b600181019050613889565b5050565b601f8211156138ec576138bd8161378c565b6138c6846137a1565b810160208510156138d5578190505b6138e96138e1856137a1565b830182613888565b50505b505050565b600082821c905092915050565b600061390f600019846008026138f1565b1980831691505092915050565b600061392883836138fe565b9150826002028217905092915050565b61394182612d43565b67ffffffffffffffff81111561395a57613959612f2a565b5b6139648254613534565b61396f8282856138ab565b600060209050601f8311600181146139a25760008415613990578287015190505b61399a858261391c565b865550613a02565b601f1984166139b08661378c565b60005b828110156139d8578489015182556001820191506020850194506020810190506139b3565b868310156139f557848901516139f1601f8916826138fe565b8355505b6001600288020188555050505b505050505050565b600081905092915050565b6000613a2082612d43565b613a2a8185613a0a565b9350613a3a818560208601612d5f565b80840191505092915050565b6000613a528284613a15565b915081905092915050565b7f7b226e616d65223a220000000000000000000000000000000000000000000000600082015250565b6000613a93600983613a0a565b9150613a9e82613a5d565b600982019050919050565b7f222c000000000000000000000000000000000000000000000000000000000000600082015250565b6000613adf600283613a0a565b9150613aea82613aa9565b600282019050919050565b7f226465736372697074696f6e223a2241207363656e652066726f6d20576f726c60008201527f6420436f6d696373222c00000000000000000000000000000000000000000000602082015250565b6000613b51602a83613a0a565b9150613b5c82613af5565b602a82019050919050565b7f22696d616765223a220000000000000000000000000000000000000000000000600082015250565b6000613b9d600983613a0a565b9150613ba882613b67565b600982019050919050565b7f2261747472696275746573223a5b000000000000000000000000000000000000600082015250565b6000613be9600e83613a0a565b9150613bf482613bb3565b600e82019050919050565b7f7b2274726169745f74797065223a224172746973746963205374796c65222c2260008201527f76616c7565223a22000000000000000000000000000000000000000000000000602082015250565b6000613c5b602883613a0a565b9150613c6682613bff565b602882019050919050565b7f227d2c0000000000000000000000000000000000000000000000000000000000600082015250565b6000613ca7600383613a0a565b9150613cb282613c71565b600382019050919050565b7f7b2274726169745f74797065223a2243726561746564204174222c2276616c7560008201527f65223a2200000000000000000000000000000000000000000000000000000000602082015250565b6000613d19602483613a0a565b9150613d2482613cbd565b602482019050919050565b7f227d000000000000000000000000000000000000000000000000000000000000600082015250565b6000613d65600283613a0a565b9150613d7082613d2f565b600282019050919050565b7f5d7d000000000000000000000000000000000000000000000000000000000000600082015250565b6000613db1600283613a0a565b9150613dbc82613d7b565b600282019050919050565b6000613dd282613a86565b9150613dde8287613a15565b9150613de982613ad2565b9150613df482613b44565b9150613dff82613b90565b9150613e0b8286613a15565b9150613e1682613ad2565b9150613e2182613bdc565b9150613e2c82613c4e565b9150613e388285613a15565b9150613e4382613c9a565b9150613e4e82613d0c565b9150613e5a8284613a15565b9150613e6582613d58565b9150613e7082613da4565b915081905095945050505050565b60006060820190508181036000830152613e988186612d9a565b90508181036020830152613eac8185612d9a565b90508181036040830152613ec08184612d9a565b9050949350505050565b7f5363656e6520646f6573206e6f74206578697374000000000000000000000000600082015250565b6000613f00601483612d4e565b9150613f0b82613eca565b602082019050919050565b60006020820190508181036000830152613f2f81613ef3565b9050919050565b6000606082019050613f4b6000830186612e8a565b613f5860208301856130fc565b613f656040830184612e8a565b949350505050565b7f45524337323155524953746f726167653a2055524920717565727920666f722060008201527f6e6f6e6578697374656e7420746f6b656e000000000000000000000000000000602082015250565b6000613fc9603183612d4e565b9150613fd482613f6d565b604082019050919050565b60006020820190508181036000830152613ff881613fbc565b9050919050565b6000815461400c81613534565b6140168186613a0a565b94506001821660008114614031576001811461404657614079565b60ff1983168652811515820286019350614079565b61404f8561378c565b60005b8381101561407157815481890152600182019150602081019050614052565b838801955050505b50505092915050565b600061408e8285613fff565b915061409a8284613a15565b91508190509392505050565b7f4e487b7100000000000000000000000000000000000000000000000000000000600052601260045260246000fd5b60006140e082612df5565b9150600082036140f3576140f2613715565b5b600182039050919050565b600081519050919050565b600082825260208201905092915050565b6000614125826140fe565b61412f8185614109565b935061413f818560208601612d5f565b61414881612d89565b840191505092915050565b60006080820190506141686000830187612e8a565b6141756020830186612e8a565b61418260408301856130fc565b8181036060830152614194818461411a565b905095945050505050565b6000815190506141ae81612cb4565b92915050565b6000602082840312156141ca576141c9612c7e565b5b60006141d88482850161419f565b91505092915050565b60006141ed8285613a15565b91506141f98284613a15565b91508190509392505050565b600061421082612df5565b915061421b83612df5565b925082820261422981612df5565b915082820484148315176142405761423f613715565b5b5092915050565b600061425282612df5565b915061425d83612df5565b925082820190508082111561427557614274613715565b5b92915050565b600061428682612df5565b915061429183612df5565b9250826142a1576142a06140a6565b5b828204905092915050565b60006040820190506142c16000830185612e8a565b6142ce60208301846130fc565b939250505056fe4142434445464748494a4b4c4d4e4f505152535455565758595a6162636465666768696a6b6c6d6e6f707172737475767778797a303132333435363738392b2fa2646970667358221220d2e4665d44b1062d13db5708619c3102f1e9842cd07f6c6b1d567d11ce9816e864736f6c63430008140033",
  "linkReferences": {},
  "deployedLinkReferences": {}
}