{"contracts/Comics.sol":{"Comics":{"abi":[{"inputs":[{"internalType":"address","name":"_characters","type":"address"}],"stateMutability":"nonpayable","type":"constructor"},{"inputs":[{"internalType":"address","name":"sender","type":"address"},{"internalType":"uint256","name":"tokenId","type":"uint256"},{"internalType":"address","name":"owner","type":"address"}],"name":"ERC721IncorrectOwner","type":"error"},{"inputs":[{"internalType":"address","name":"operator","type":"address"},{"internalType":"uint256","name":"tokenId","type":"uint256"}],"name":"ERC721InsufficientApproval","type":"error"},{"inputs":[{"internalType":"address","name":"approver","type":"address"}],"name":"ERC721InvalidApprover","type":"error"},{"inputs":[{"internalType":"address","name":"operator","type":"address"}],"name":"ERC721InvalidOperator","type":"error"},{"inputs":[{"internalType":"address","name":"owner","type":"address"}],"name":"ERC721InvalidOwner","type":"error"},{"inputs":[{"internalType":"address","name":"receiver","type":"address"}],"name":"ERC721InvalidReceiver","type":"error"},{"inputs":[{"internalType":"address","name":"sender","type":"address"}],"name":"ERC721InvalidSender","type":"error"},{"inputs":[{"internalType":"uint256","name":"tokenId","type":"uint256"}],"name":"ERC721NonexistentToken","type":"error"},{"inputs":[{"internalType":"address","name":"owner","type":"address"}],"name":"OwnableInvalidOwner","type":"error"},{"inputs":[{"internalType":"address","name":"account","type":"address"}],"name":"OwnableUnauthorizedAccount","type":"error"},{"anonymous":false,"inputs":[{"indexed":true,"internalType":"address","name":"owner","type":"address"},{"indexed":true,"internalType":"address","name":"approved","type":"address"},{"indexed":true,"internalType":"uint256","name":"tokenId","type":"uint256"}],"name":"Approval","type":"event"},{"anonymous":false,"inputs":[{"indexed":true,"internalType":"address","name":"owner","type":"address"},{"indexed":true,"internalType":"address","name":"operator","type":"address"},{"indexed":false,"internalType":"bool","name":"approved","type":"bool"}],"name":"ApprovalForAll","type":"event"},{"anonymous":false,"inputs":[{"indexed":false,"internalType":"uint256","name":"comicFee","type":"uint256"},{"indexed":false,"internalType":"uint256","name":"stripFee","type":"uint256"}],"name":"BaseFeeUpdated","type":"event"},{"anonymous":false,"inputs":[{"indexed":false,"internalType":"uint256","name":"_fromTokenId","type":"uint256"},{"indexed":false,"internalType":"uint256","name":"_toTokenId","type":"uint256"}],"name":"BatchMetadataUpdate","type":"event"},{"anonymous":false,"inputs":[{"indexed":true,"internalType":"uint256","name":"comicId","type":"uint256"},{"indexed":false,"internalType":"string","name":"name","type":"string"},{"indexed":false,"internalType":"string","name":"image","type":"string"}],"name":"ComicCreated","type":"event"},{"anonymous":false,"inputs":[{"indexed":true,"internalType":"uint256","name":"comicId","type":"uint256"},{"indexed":false,"internalType":"address","name":"newOwner","type":"address"}],"name":"ComicOwnershipChanged","type":"event"},{"anonymous":false,"inputs":[{"indexed":false,"internalType":"uint256","name":"_tokenId","type":"uint256"}],"name":"MetadataUpdate","type":"event"},{"anonymous":false,"inputs":[{"indexed":true,"internalType":"address","name":"previousOwner","type":"address"},{"indexed":true,"internalType":"address","name":"newOwner","type":"address"}],"name":"OwnershipTransferred","type":"event"},{"anonymous":false,"inputs":[{"indexed":true,"internalType":"uint256","name":"stripId","type":"uint256"},{"indexed":false,"internalType":"uint256","name":"day","type":"uint256"},{"indexed":false,"internalType":"address","name":"creator","type":"address"},{"indexed":false,"internalType":"uint256","name":"comicId","type":"uint256"}],"name":"StripCreated","type":"event"},{"anonymous":false,"inputs":[{"indexed":true,"internalType":"uint256","name":"stripId","type":"uint256"},{"indexed":false,"internalType":"uint256","name":"amount","type":"uint256"}],"name":"StripDonated","type":"event"},{"anonymous":false,"inputs":[{"indexed":false,"internalType":"uint256","name":"comicId","type":"uint256"},{"indexed":false,"internalType":"uint256","name":"stripId","type":"uint256"},{"indexed":false,"internalType":"uint256","name":"updatedDay","type":"uint256"}],"name":"StripFrozen","type":"event"},{"anonymous":false,"inputs":[{"indexed":true,"internalType":"uint256","name":"stripId","type":"uint256"},{"indexed":false,"internalType":"uint256","name":"amount","type":"uint256"}],"name":"StripVoted","type":"event"},{"anonymous":false,"inputs":[{"indexed":true,"internalType":"address","name":"from","type":"address"},{"indexed":true,"internalType":"address","name":"to","type":"address"},{"indexed":true,"internalType":"uint256","name":"tokenId","type":"uint256"}],"name":"Transfer","type":"event"},{"inputs":[],"name":"BASE_COMIC_FEE","outputs":[{"internalType":"uint256","name":"","type":"uint256"}],"stateMutability":"view","type":"function"},{"inputs":[],"name":"BASE_STRIP_FEE","outputs":[{"internalType":"uint256","name":"","type":"uint256"}],"stateMutability":"view","type":"function"},{"inputs":[{"internalType":"address","name":"to","type":"address"},{"internalType":"uint256","name":"tokenId","type":"uint256"}],"name":"approve","outputs":[],"stateMutability":"nonpayable","type":"function"},{"inputs":[{"internalType":"address","name":"owner","type":"address"}],"name":"balanceOf","outputs":[{"internalType":"uint256","name":"","type":"uint256"}],"stateMutability":"view","type":"function"},{"inputs":[],"name":"characters","outputs":[{"internalType":"contract Characters","name":"","type":"address"}],"stateMutability":"view","type":"function"},{"inputs":[],"name":"comicCount","outputs":[{"internalType":"uint256","name":"","type":"uint256"}],"stateMutability":"view","type":"function"},{"inputs":[{"internalType":"uint256","name":"","type":"uint256"}],"name":"comicOwners","outputs":[{"internalType":"address","name":"","type":"address"}],"stateMutability":"view","type":"function"},{"inputs":[{"internalType":"uint256","name":"","type":"uint256"},{"internalType":"uint256","name":"","type":"uint256"}],"name":"comicStrips","outputs":[{"internalType":"uint256","name":"","type":"uint256"}],"stateMutability":"view","type":"function"},{"inputs":[{"internalType":"uint256","name":"","type":"uint256"}],"name":"comics","outputs":[{"internalType":"string","name":"name","type":"string"},{"internalType":"string","name":"image","type":"string"},{"internalType":"uint256","name":"createdAt","type":"uint256"}],"stateMutability":"view","type":"function"},{"inputs":[{"internalType":"uint256","name":"","type":"uint256"},{"internalType":"address","name":"","type":"address"}],"name":"contributions","outputs":[{"internalType":"uint256","name":"","type":"uint256"}],"stateMutability":"view","type":"function"},{"inputs":[{"internalType":"string","name":"name","type":"string"},{"internalType":"string","name":"image","type":"string"}],"name":"createComic","outputs":[{"internalType":"uint256","name":"","type":"uint256"}],"stateMutability":"payable","type":"function"},{"inputs":[{"internalType":"string[]","name":"imageUrls","type":"string[]"},{"internalType":"uint256[]","name":"characterIds","type":"uint256[]"},{"internalType":"uint256","name":"comicId","type":"uint256"}],"name":"createStrip","outputs":[],"stateMutability":"nonpayable","type":"function"},{"inputs":[{"internalType":"uint256","name":"","type":"uint256"}],"name":"currentStripDay","outputs":[{"internalType":"uint256","name":"","type":"uint256"}],"stateMutability":"view","type":"function"},{"inputs":[{"internalType":"uint256","name":"","type":"uint256"},{"internalType":"uint256","name":"","type":"uint256"}],"name":"dailyStrips","outputs":[{"internalType":"uint256","name":"","type":"uint256"}],"stateMutability":"view","type":"function"},{"inputs":[{"internalType":"uint256","name":"tokenId","type":"uint256"}],"name":"getApproved","outputs":[{"internalType":"address","name":"","type":"address"}],"stateMutability":"view","type":"function"},{"inputs":[{"internalType":"uint256","name":"comicId","type":"uint256"}],"name":"getComic","outputs":[{"components":[{"internalType":"string","name":"name","type":"string"},{"internalType":"string","name":"image","type":"string"},{"internalType":"uint256","name":"createdAt","type":"uint256"}],"internalType":"struct Comics.Comic","name":"","type":"tuple"}],"stateMutability":"view","type":"function"},{"inputs":[],"name":"getComicCreationFee","outputs":[{"internalType":"uint256","name":"","type":"uint256"}],"stateMutability":"view","type":"function"},{"inputs":[{"internalType":"uint256","name":"comicId","type":"uint256"}],"name":"getComicStrips","outputs":[{"internalType":"uint256[]","name":"","type":"uint256[]"}],"stateMutability":"view","type":"function"},{"inputs":[{"internalType":"uint256","name":"comicId","type":"uint256"}],"name":"getCurrentDay","outputs":[{"internalType":"uint256","name":"","type":"uint256"}],"stateMutability":"view","type":"function"},{"inputs":[{"internalType":"uint256","name":"day","type":"uint256"}],"name":"getDailyStrips","outputs":[{"internalType":"uint256[]","name":"","type":"uint256[]"}],"stateMutability":"view","type":"function"},{"inputs":[{"internalType":"uint256","name":"stripId","type":"uint256"}],"name":"getStrip","outputs":[{"components":[{"internalType":"string[]","name":"imageUrls","type":"string[]"},{"internalType":"uint256[]","name":"characterIds","type":"uint256[]"},{"internalType":"uint256","name":"voteCount","type":"uint256"},{"internalType":"address","name":"creator","type":"address"},{"internalType":"uint256","name":"createdAt","type":"uint256"},{"internalType":"uint256","name":"comicId","type":"uint256"},{"internalType":"uint256","name":"day","type":"uint256"}],"internalType":"struct Comics.Strip","name":"","type":"tuple"}],"stateMutability":"view","type":"function"},{"inputs":[{"internalType":"uint256","name":"stripId","type":"uint256"}],"name":"getVoteCount","outputs":[{"internalType":"uint256","name":"","type":"uint256"}],"stateMutability":"view","type":"function"},{"inputs":[{"internalType":"uint256","name":"","type":"uint256"}],"name":"isAlive","outputs":[{"internalType":"bool","name":"","type":"bool"}],"stateMutability":"view","type":"function"},{"inputs":[{"internalType":"address","name":"owner","type":"address"},{"internalType":"address","name":"operator","type":"address"}],"name":"isApprovedForAll","outputs":[{"internalType":"bool","name":"","type":"bool"}],"stateMutability":"view","type":"function"},{"inputs":[],"name":"name","outputs":[{"internalType":"string","name":"","type":"string"}],"stateMutability":"view","type":"function"},{"inputs":[],"name":"owner","outputs":[{"internalType":"address","name":"","type":"address"}],"stateMutability":"view","type":"function"},{"inputs":[{"internalType":"uint256","name":"tokenId","type":"uint256"}],"name":"ownerOf","outputs":[{"internalType":"address","name":"","type":"address"}],"stateMutability":"view","type":"function"},{"inputs":[],"name":"renounceOwnership","outputs":[],"stateMutability":"nonpayable","type":"function"},{"inputs":[{"internalType":"address","name":"from","type":"address"},{"internalType":"address","name":"to","type":"address"},{"internalType":"uint256","name":"tokenId","type":"uint256"}],"name":"safeTransferFrom","outputs":[],"stateMutability":"nonpayable","type":"function"},{"inputs":[{"internalType":"address","name":"from","type":"address"},{"internalType":"address","name":"to","type":"address"},{"internalType":"uint256","name":"tokenId","type":"uint256"},{"internalType":"bytes","name":"data","type":"bytes"}],"name":"safeTransferFrom","outputs":[],"stateMutability":"nonpayable","type":"function"},{"inputs":[{"internalType":"address","name":"operator","type":"address"},{"internalType":"bool","name":"approved","type":"bool"}],"name":"setApprovalForAll","outputs":[],"stateMutability":"nonpayable","type":"function"},{"inputs":[{"internalType":"uint256","name":"","type":"uint256"}],"name":"strips","outputs":[{"internalType":"uint256","name":"voteCount","type":"uint256"},{"internalType":"address","name":"creator","type":"address"},{"internalType":"uint256","name":"createdAt","type":"uint256"},{"internalType":"uint256","name":"comicId","type":"uint256"},{"internalType":"uint256","name":"day","type":"uint256"}],"stateMutability":"view","type":"function"},{"inputs":[{"internalType":"bytes4","name":"interfaceId","type":"bytes4"}],"name":"supportsInterface","outputs":[{"internalType":"bool","name":"","type":"bool"}],"stateMutability":"view","type":"function"},{"inputs":[],"name":"symbol","outputs":[{"internalType":"string","name":"","type":"string"}],"stateMutability":"view","type":"function"},{"inputs":[{"internalType":"uint256","name":"tokenId","type":"uint256"}],"name":"tokenURI","outputs":[{"internalType":"string","name":"","type":"string"}],"stateMutability":"view","type":"function"},{"inputs":[{"internalType":"address","name":"from","type":"address"},{"internalType":"address","name":"to","type":"address"},{"internalType":"uint256","name":"tokenId","type":"uint256"}],"name":"transferFrom","outputs":[],"stateMutability":"nonpayable","type":"function"},{"inputs":[{"internalType":"address","name":"newOwner","type":"address"}],"name":"transferOwnership","outputs":[],"stateMutability":"nonpayable","type":"function"},{"inputs":[{"internalType":"uint256","name":"_comicFee","type":"uint256"},{"internalType":"uint256","name":"_stripFee","type":"uint256"}],"name":"updateBaseFee","outputs":[],"stateMutability":"nonpayable","type":"function"},{"inputs":[{"internalType":"uint256","name":"stripId","type":"uint256"}],"name":"vote","outputs":[],"stateMutability":"payable","type":"function"},{"inputs":[],"name":"withdraw","outputs":[],"stateMutability":"nonpayable","type":"function"}],"evm":{"bytecode":{"linkReferences":{},"object":"60806040526000600a556000600b553480156200001b57600080fd5b5060405162005ca838038062005ca88339818101604052810190620000419190620002d3565b336040518060400160405280600c81526020017f576f726c6420436f6d69637300000000000000000000000000000000000000008152506040518060400160405280600281526020017f57430000000000000000000000000000000000000000000000000000000000008152508160009081620000bf91906200057f565b508060019081620000d191906200057f565b505050600073ffffffffffffffffffffffffffffffffffffffff168173ffffffffffffffffffffffffffffffffffffffff1603620001495760006040517f1e4fbdf700000000000000000000000000000000000000000000000000000000815260040162000140919062000677565b60405180910390fd5b6200015a81620001a360201b60201c565b5080600960006101000a81548173ffffffffffffffffffffffffffffffffffffffff021916908373ffffffffffffffffffffffffffffffffffffffff1602179055505062000694565b6000600760009054906101000a900473ffffffffffffffffffffffffffffffffffffffff16905081600760006101000a81548173ffffffffffffffffffffffffffffffffffffffff021916908373ffffffffffffffffffffffffffffffffffffffff1602179055508173ffffffffffffffffffffffffffffffffffffffff168173ffffffffffffffffffffffffffffffffffffffff167f8be0079c531659141344cd1fd0a4f28419497f9722a3daafe3b4186f6b6457e060405160405180910390a35050565b600080fd5b600073ffffffffffffffffffffffffffffffffffffffff82169050919050565b60006200029b826200026e565b9050919050565b620002ad816200028e565b8114620002b957600080fd5b50565b600081519050620002cd81620002a2565b92915050565b600060208284031215620002ec57620002eb62000269565b5b6000620002fc84828501620002bc565b91505092915050565b600081519050919050565b7f4e487b7100000000000000000000000000000000000000000000000000000000600052604160045260246000fd5b7f4e487b7100000000000000000000000000000000000000000000000000000000600052602260045260246000fd5b600060028204905060018216806200038757607f821691505b6020821081036200039d576200039c6200033f565b5b50919050565b60008190508160005260206000209050919050565b60006020601f8301049050919050565b600082821b905092915050565b600060088302620004077fffffffffffffffffffffffffffffffffffffffffffffffffffffffffffffffff82620003c8565b620004138683620003c8565b95508019841693508086168417925050509392505050565b6000819050919050565b6000819050919050565b6000620004606200045a62000454846200042b565b62000435565b6200042b565b9050919050565b6000819050919050565b6200047c836200043f565b620004946200048b8262000467565b848454620003d5565b825550505050565b600090565b620004ab6200049c565b620004b881848462000471565b505050565b5b81811015620004e057620004d4600082620004a1565b600181019050620004be565b5050565b601f8211156200052f57620004f981620003a3565b6200050484620003b8565b8101602085101562000514578190505b6200052c6200052385620003b8565b830182620004bd565b50505b505050565b600082821c905092915050565b6000620005546000198460080262000534565b1980831691505092915050565b60006200056f838362000541565b9150826002028217905092915050565b6200058a8262000305565b67ffffffffffffffff811115620005a657620005a562000310565b5b620005b282546200036e565b620005bf828285620004e4565b600060209050601f831160018114620005f75760008415620005e2578287015190505b620005ee858262000561565b8655506200065e565b601f1984166200060786620003a3565b60005b8281101562000631578489015182556001820191506020850194506020810190506200060a565b868310156200065157848901516200064d601f89168262000541565b8355505b6001600288020188555050505b505050505050565b62000671816200028e565b82525050565b60006020820190506200068e600083018462000666565b92915050565b61560480620006a46000396000f3fe60806040526004361061023b5760003560e01c8063715018a61161012e578063c87b56dd116100ab578063e5c493241161006f578063e5c4932414610919578063e985e9c514610956578063f1f28cbf14610993578063f2171487146109d0578063f2fde38b146109fb5761023b565b8063c87b56dd146107f6578063cb22390414610833578063d070bb5414610870578063d84b23611461089b578063d9ad0a6b146108d85761023b565b80639d076031116100f25780639d076031146106ff578063a22cb4651461073c578063b0c5dfa314610765578063b2c2f2e814610790578063b88d4fde146107cd5761023b565b8063715018a6146106285780637a80dc1d1461063f578063835f59961461067e5780638da5cb5b146106a957806395d89b41146106d45761023b565b80633d891f59116101bc5780634c47ec64116101805780634c47ec64146105095780634ef39827146105465780636352211e14610583578063703a2c4b146105c057806370a08231146105eb5761023b565b80633d891f591461040d57806342842e0e1461044a57806343f52ba91461047357806347ac33ee1461049c57806348fcf243146104d95761023b565b806323b872dd1161020357806323b872dd1461032a57806323f137651461035357806337fa09aa1461037c578063384316e8146103b95780633ccfd60b146103f65761023b565b80630121b93f1461024057806301ffc9a71461025c57806306fdde0314610299578063081812fc146102c4578063095ea7b314610301575b600080fd5b61025a6004803603810190610255919061393c565b610a24565b005b34801561026857600080fd5b50610283600480360381019061027e91906139c1565b610e78565b6040516102909190613a09565b60405180910390f35b3480156102a557600080fd5b506102ae610ed9565b6040516102bb9190613ab4565b60405180910390f35b3480156102d057600080fd5b506102eb60048036038101906102e6919061393c565b610f6b565b6040516102f89190613b17565b60405180910390f35b34801561030d57600080fd5b5061032860048036038101906103239190613b5e565b610f87565b005b34801561033657600080fd5b50610351600480360381019061034c9190613b9e565b610f9d565b005b34801561035f57600080fd5b5061037a60048036038101906103759190613bf1565b61109f565b005b34801561038857600080fd5b506103a3600480360381019061039e919061393c565b6110f2565b6040516103b09190613b17565b60405180910390f35b3480156103c557600080fd5b506103e060048036038101906103db919061393c565b611125565b6040516103ed9190613c40565b60405180910390f35b34801561040257600080fd5b5061040b611142565b005b34801561041957600080fd5b50610434600480360381019061042f9190613c5b565b61119a565b6040516104419190613c40565b60405180910390f35b34801561045657600080fd5b50610471600480360381019061046c9190613b9e565b6111bf565b005b34801561047f57600080fd5b5061049a60048036038101906104959190613f79565b6111df565b005b3480156104a857600080fd5b506104c360048036038101906104be919061393c565b611588565b6040516104d091906140b4565b60405180910390f35b6104f360048036038101906104ee91906140d6565b6116e3565b6040516105009190613c40565b60405180910390f35b34801561051557600080fd5b50610530600480360381019061052b9190613bf1565b6118ec565b60405161053d9190613c40565b60405180910390f35b34801561055257600080fd5b5061056d6004803603810190610568919061393c565b61191d565b60405161057a9190613c40565b60405180910390f35b34801561058f57600080fd5b506105aa60048036038101906105a5919061393c565b611935565b6040516105b79190613b17565b60405180910390f35b3480156105cc57600080fd5b506105d5611947565b6040516105e29190613c40565b60405180910390f35b3480156105f757600080fd5b50610612600480360381019061060d919061414e565b61194d565b60405161061f9190613c40565b60405180910390f35b34801561063457600080fd5b5061063d611a07565b005b34801561064b57600080fd5b506106666004803603810190610661919061393c565b611a1b565b6040516106759392919061417b565b60405180910390f35b34801561068a57600080fd5b50610693611b55565b6040516106a09190613c40565b60405180910390f35b3480156106b557600080fd5b506106be611b5b565b6040516106cb9190613b17565b60405180910390f35b3480156106e057600080fd5b506106e9611b85565b6040516106f69190613ab4565b60405180910390f35b34801561070b57600080fd5b506107266004803603810190610721919061393c565b611c17565b604051610733919061426f565b60405180910390f35b34801561074857600080fd5b50610763600480360381019061075e91906142bd565b611c82565b005b34801561077157600080fd5b5061077a611c98565b6040516107879190613c40565b60405180910390f35b34801561079c57600080fd5b506107b760048036038101906107b2919061393c565b611cf7565b6040516107c49190613c40565b60405180910390f35b3480156107d957600080fd5b506107f460048036038101906107ef919061439e565b611d6f565b005b34801561080257600080fd5b5061081d6004803603810190610818919061393c565b611d94565b60405161082a9190613ab4565b60405180910390f35b34801561083f57600080fd5b5061085a6004803603810190610855919061393c565b611dee565b604051610867919061426f565b60405180910390f35b34801561087c57600080fd5b50610885611e59565b6040516108929190614480565b60405180910390f35b3480156108a757600080fd5b506108c260048036038101906108bd919061393c565b611e7f565b6040516108cf9190613a09565b60405180910390f35b3480156108e457600080fd5b506108ff60048036038101906108fa919061393c565b611e9f565b60405161091095949392919061449b565b60405180910390f35b34801561092557600080fd5b50610940600480360381019061093b919061393c565b611ef5565b60405161094d91906146d1565b60405180910390f35b34801561096257600080fd5b5061097d600480360381019061097891906146f3565b6120d1565b60405161098a9190613a09565b60405180910390f35b34801561099f57600080fd5b506109ba60048036038101906109b59190613bf1565b612165565b6040516109c79190613c40565b60405180910390f35b3480156109dc57600080fd5b506109e5612196565b6040516109f29190613c40565b60405180910390f35b348015610a0757600080fd5b50610a226004803603810190610a1d919061414e565b61219c565b005b6000600f60008381526020019081526020016000206004015411610a7d576040517f08c379a0000000000000000000000000000000000000000000000000000000008152600401610a749061477f565b60405180910390fd5b6000600f60008381526020019081526020016000206005015490506000600f60008381526020019081526020016000206006015490506000600e6000848152602001908152602001600020549050808203610b3c5734600f60008681526020019081526020016000206002016000828254610af891906147ce565b92505081905550837f6fc8dd6002d67cb1ae354d87238c6a738c991370fe32d39154561323a81d2f9634604051610b2f9190613c40565b60405180910390a2610b75565b837f5acd5e9fad91ebf22d261b37a9d8099685f41cd5f8ca160caaa5448c66da767934604051610b6c9190613c40565b60405180910390a25b6000670de0b6b3a7640000600b54610b8d9190614802565b905060005b82811015610bd057670de0b6b3a7640000600b54610bb09190614873565b82610bbb9190614802565b91508080610bc8906148a4565b915050610b92565b5080600f60008781526020019081526020016000206002015410610c6657600e60008581526020019081526020016000206000815480929190610c12906148a4565b91905055507f55c20485919a463a87f20e5a0fde1c7a307ce024d22a3d3a166eb0f693b119748486600e600088815260200190815260200160002054604051610c5d939291906148ec565b60405180910390a15b346013600086815260200190815260200160002060003373ffffffffffffffffffffffffffffffffffffffff1673ffffffffffffffffffffffffffffffffffffffff1681526020019081526020016000206000828254610cc691906147ce565b925050819055506013600085815260200190815260200160002060006012600087815260200190815260200160002060009054906101000a900473ffffffffffffffffffffffffffffffffffffffff1673ffffffffffffffffffffffffffffffffffffffff1673ffffffffffffffffffffffffffffffffffffffff168152602001908152602001600020546013600086815260200190815260200160002060003373ffffffffffffffffffffffffffffffffffffffff1673ffffffffffffffffffffffffffffffffffffffff168152602001908152602001600020541115610e7157610de66012600086815260200190815260200160002060009054906101000a900473ffffffffffffffffffffffffffffffffffffffff163386612222565b336012600086815260200190815260200160002060006101000a81548173ffffffffffffffffffffffffffffffffffffffff021916908373ffffffffffffffffffffffffffffffffffffffff160217905550837f57e833cf85bc0124c4529bd7acfbc9c0ec204dab25a6265ac957d41fd6ae29e633604051610e689190613b17565b60405180910390a25b5050505050565b6000634906490660e01b7bffffffffffffffffffffffffffffffffffffffffffffffffffffffff1916827bffffffffffffffffffffffffffffffffffffffffffffffffffffffff19161480610ed25750610ed18261238f565b5b9050919050565b606060008054610ee890614952565b80601f0160208091040260200160405190810160405280929190818152602001828054610f1490614952565b8015610f615780601f10610f3657610100808354040283529160200191610f61565b820191906000526020600020905b815481529060010190602001808311610f4457829003601f168201915b5050505050905090565b6000610f7682612471565b50610f80826124f9565b9050919050565b610f998282610f94612536565b61253e565b5050565b600073ffffffffffffffffffffffffffffffffffffffff168273ffffffffffffffffffffffffffffffffffffffff160361100f5760006040517f64a0ae920000000000000000000000000000000000000000000000000000000081526004016110069190613b17565b60405180910390fd5b6000611023838361101e612536565b612550565b90508373ffffffffffffffffffffffffffffffffffffffff168173ffffffffffffffffffffffffffffffffffffffff1614611099578382826040517f64283d7b00000000000000000000000000000000000000000000000000000000815260040161109093929190614983565b60405180910390fd5b50505050565b6110a76125d4565b81600a8190555080600b819055507f19ad72acd40a59cad104f97c7897cc5675e52fe1e2679088c4bfffd96a9d58a782826040516110e69291906149ba565b60405180910390a15050565b60126020528060005260406000206000915054906101000a900473ffffffffffffffffffffffffffffffffffffffff1681565b6000600e6000838152602001908152602001600020549050919050565b61114a6125d4565b611152611b5b565b73ffffffffffffffffffffffffffffffffffffffff166108fc479081150290604051600060405180830381858888f19350505050158015611197573d6000803e3d6000fd5b50565b6013602052816000526040600020602052806000526040600020600091509150505481565b6111da83838360405180602001604052806000815250611d6f565b505050565b6000835111611223576040517f08c379a000000000000000000000000000000000000000000000000000000000815260040161121a90614a2f565b60405180910390fd5b600060106000838152602001908152602001600020600201541161127c576040517f08c379a000000000000000000000000000000000000000000000000000000000815260040161127390614a9b565b60405180910390fd5b60005b825181101561139057600960009054906101000a900473ffffffffffffffffffffffffffffffffffffffff1673ffffffffffffffffffffffffffffffffffffffff16630eb597458483815181106112d9576112d8614abb565b5b60200260200101516040518263ffffffff1660e01b81526004016112fd9190613c40565b602060405180830381865afa15801561131a573d6000803e3d6000fd5b505050506040513d601f19601f8201168201806040525081019061133e9190614aff565b61137d576040517f08c379a000000000000000000000000000000000000000000000000000000000815260040161137490614b78565b60405180910390fd5b8080611388906148a4565b91505061127f565b506000600e6000838152602001908152602001600020549050601460008154809291906113bc906148a4565b9190505550600060145490506040518060e00160405280868152602001858152602001600081526020013373ffffffffffffffffffffffffffffffffffffffff16815260200142815260200184815260200183815250600f60008381526020019081526020016000206000820151816000019080519060200190611441929190613757565b50602082015181600101908051906020019061145e9291906137b0565b506040820151816002015560608201518160030160006101000a81548173ffffffffffffffffffffffffffffffffffffffff021916908373ffffffffffffffffffffffffffffffffffffffff1602179055506080820151816004015560a0820151816005015560c08201518160060155905050600d600083815260200190815260200160002081908060018154018082558091505060019003906000526020600020016000909190919091505560116000848152602001908152602001600020819080600181540180825580915050600190039060005260206000200160009091909190915055807f2cfe2dc7cdc89b899ef0f4ab22907e75644491af3a2ba898b5b4daf6d5f393cf83338660405161157993929190614b98565b60405180910390a25050505050565b6115906137fd565b601060008381526020019081526020016000206040518060600160405290816000820180546115be90614952565b80601f01602080910402602001604051908101604052809291908181526020018280546115ea90614952565b80156116375780601f1061160c57610100808354040283529160200191611637565b820191906000526020600020905b81548152906001019060200180831161161a57829003601f168201915b5050505050815260200160018201805461165090614952565b80601f016020809104026020016040519081016040528092919081815260200182805461167c90614952565b80156116c95780601f1061169e576101008083540402835291602001916116c9565b820191906000526020600020905b8154815290600101906020018083116116ac57829003601f168201915b505050505081526020016002820154815250509050919050565b60006116ed611c98565b34101561172f576040517f08c379a000000000000000000000000000000000000000000000000000000000815260040161172690614c41565b60405180910390fd5b6000835111611773576040517f08c379a000000000000000000000000000000000000000000000000000000000815260040161176a90614cad565b60405180910390fd5b60008251116117b7576040517f08c379a00000000000000000000000000000000000000000000000000000000081526004016117ae90614d19565b60405180910390fd5b601560008154809291906117ca906148a4565b919050555060006015549050600c60008154809291906117e9906148a4565b91905055506040518060600160405280858152602001848152602001428152506010600083815260200190815260200160002060008201518160000190816118319190614edb565b5060208201518160010190816118479190614edb565b5060408201518160020155905050600084846118624261265b565b60405160200161187493929190615295565b6040516020818303038152906040529050600061189082612729565b905061189c3084612756565b6118a6838261284f565b827f19cdbc7a3feec82d7c3fb925d35745fe6d58185b77cf39856951bc6a1c4fede887876040516118d8929190615329565b60405180910390a282935050505092915050565b6011602052816000526040600020818154811061190857600080fd5b90600052602060002001600091509150505481565b600e6020528060005260406000206000915090505481565b600061194082612471565b9050919050565b600c5481565b60008073ffffffffffffffffffffffffffffffffffffffff168273ffffffffffffffffffffffffffffffffffffffff16036119c05760006040517f89c62b640000000000000000000000000000000000000000000000000000000081526004016119b79190613b17565b60405180910390fd5b600360008373ffffffffffffffffffffffffffffffffffffffff1673ffffffffffffffffffffffffffffffffffffffff168152602001908152602001600020549050919050565b611a0f6125d4565b611a1960006128ab565b565b6010602052806000526040600020600091509050806000018054611a3e90614952565b80601f0160208091040260200160405190810160405280929190818152602001828054611a6a90614952565b8015611ab75780601f10611a8c57610100808354040283529160200191611ab7565b820191906000526020600020905b815481529060010190602001808311611a9a57829003601f168201915b505050505090806001018054611acc90614952565b80601f0160208091040260200160405190810160405280929190818152602001828054611af890614952565b8015611b455780601f10611b1a57610100808354040283529160200191611b45565b820191906000526020600020905b815481529060010190602001808311611b2857829003601f168201915b5050505050908060020154905083565b600b5481565b6000600760009054906101000a900473ffffffffffffffffffffffffffffffffffffffff16905090565b606060018054611b9490614952565b80601f0160208091040260200160405190810160405280929190818152602001828054611bc090614952565b8015611c0d5780601f10611be257610100808354040283529160200191611c0d565b820191906000526020600020905b815481529060010190602001808311611bf057829003601f168201915b5050505050905090565b606060116000838152602001908152602001600020805480602002602001604051908101604052809291908181526020018280548015611c7657602002820191906000526020600020905b815481526020019060010190808311611c62575b50505050509050919050565b611c94611c8d612536565b8383612971565b5050565b600080670f43fc2c04ee000090506000600a54905060005b600c54811015611cee57670de0b6b3a76400008383611ccf9190614802565b611cd99190614873565b91508080611ce6906148a4565b915050611cb0565b50809250505090565b600080600f60008481526020019081526020016000206004015411611d51576040517f08c379a0000000000000000000000000000000000000000000000000000000008152600401611d489061477f565b60405180910390fd5b600f6000838152602001908152602001600020600201549050919050565b611d7a848484610f9d565b611d8e611d85612536565b85858585612ae0565b50505050565b6060611d9f82612c91565b611dde576040517f08c379a0000000000000000000000000000000000000000000000000000000008152600401611dd5906153d2565b60405180910390fd5b611de782612cd2565b9050919050565b6060600d6000838152602001908152602001600020805480602002602001604051908101604052809291908181526020018280548015611e4d57602002820191906000526020600020905b815481526020019060010190808311611e39575b50505050509050919050565b600960009054906101000a900473ffffffffffffffffffffffffffffffffffffffff1681565b60176020528060005260406000206000915054906101000a900460ff1681565b600f6020528060005260406000206000915090508060020154908060030160009054906101000a900473ffffffffffffffffffffffffffffffffffffffff16908060040154908060050154908060060154905085565b611efd61381e565b600f60008381526020019081526020016000206040518060e001604052908160008201805480602002602001604051908101604052809291908181526020016000905b82821015611fec578382906000526020600020018054611f5f90614952565b80601f0160208091040260200160405190810160405280929190818152602001828054611f8b90614952565b8015611fd85780601f10611fad57610100808354040283529160200191611fd8565b820191906000526020600020905b815481529060010190602001808311611fbb57829003601f168201915b505050505081526020019060010190611f40565b5050505081526020016001820180548060200260200160405190810160405280929190818152602001828054801561204357602002820191906000526020600020905b81548152602001906001019080831161202f575b50505050508152602001600282015481526020016003820160009054906101000a900473ffffffffffffffffffffffffffffffffffffffff1673ffffffffffffffffffffffffffffffffffffffff1673ffffffffffffffffffffffffffffffffffffffff16815260200160048201548152602001600582015481526020016006820154815250509050919050565b6000600560008473ffffffffffffffffffffffffffffffffffffffff1673ffffffffffffffffffffffffffffffffffffffff16815260200190815260200160002060008373ffffffffffffffffffffffffffffffffffffffff1673ffffffffffffffffffffffffffffffffffffffff16815260200190815260200160002060009054906101000a900460ff16905092915050565b600d602052816000526040600020818154811061218157600080fd5b90600052602060002001600091509150505481565b600a5481565b6121a46125d4565b600073ffffffffffffffffffffffffffffffffffffffff168173ffffffffffffffffffffffffffffffffffffffff16036122165760006040517f1e4fbdf700000000000000000000000000000000000000000000000000000000815260040161220d9190613b17565b60405180910390fd5b61221f816128ab565b50565b600073ffffffffffffffffffffffffffffffffffffffff168273ffffffffffffffffffffffffffffffffffffffff16036122945760006040517f64a0ae9200000000000000000000000000000000000000000000000000000000815260040161228b9190613b17565b60405180910390fd5b60006122a283836000612550565b9050600073ffffffffffffffffffffffffffffffffffffffff168173ffffffffffffffffffffffffffffffffffffffff160361231557816040517f7e27328900000000000000000000000000000000000000000000000000000000815260040161230c9190613c40565b60405180910390fd5b8373ffffffffffffffffffffffffffffffffffffffff168173ffffffffffffffffffffffffffffffffffffffff1614612389578382826040517f64283d7b00000000000000000000000000000000000000000000000000000000815260040161238093929190614983565b60405180910390fd5b50505050565b60007f80ac58cd000000000000000000000000000000000000000000000000000000007bffffffffffffffffffffffffffffffffffffffffffffffffffffffff1916827bffffffffffffffffffffffffffffffffffffffffffffffffffffffff1916148061245a57507f5b5e139f000000000000000000000000000000000000000000000000000000007bffffffffffffffffffffffffffffffffffffffffffffffffffffffff1916827bffffffffffffffffffffffffffffffffffffffffffffffffffffffff1916145b8061246a575061246982612de5565b5b9050919050565b60008061247d83612e4f565b9050600073ffffffffffffffffffffffffffffffffffffffff168173ffffffffffffffffffffffffffffffffffffffff16036124f057826040517f7e2732890000000000000000000000000000000000000000000000000000000081526004016124e79190613c40565b60405180910390fd5b80915050919050565b60006004600083815260200190815260200160002060009054906101000a900473ffffffffffffffffffffffffffffffffffffffff169050919050565b600033905090565b61254b8383836001612e8c565b505050565b60008073ffffffffffffffffffffffffffffffffffffffff168473ffffffffffffffffffffffffffffffffffffffff16036125c0576040517f08c379a00000000000000000000000000000000000000000000000000000000081526004016125b79061543e565b60405180910390fd5b6125cb848484613051565b90509392505050565b6125dc612536565b73ffffffffffffffffffffffffffffffffffffffff166125fa611b5b565b73ffffffffffffffffffffffffffffffffffffffff16146126595761261d612536565b6040517f118cdaa70000000000000000000000000000000000000000000000000000000081526004016126509190613b17565b60405180910390fd5b565b60606000600161266a8461326b565b01905060008167ffffffffffffffff81111561268957612688613ca0565b5b6040519080825280601f01601f1916602001820160405280156126bb5781602001600182028036833780820191505090505b509050600082602001820190505b60011561271e578080600190039150507f3031323334353637383961626364656600000000000000000000000000000000600a86061a8153600a858161271257612711614844565b5b049450600085036126c9575b819350505050919050565b606061274f8260405180606001604052806040815260200161558f6040913960016133be565b9050919050565b600073ffffffffffffffffffffffffffffffffffffffff168273ffffffffffffffffffffffffffffffffffffffff16036127c85760006040517f64a0ae920000000000000000000000000000000000000000000000000000000081526004016127bf9190613b17565b60405180910390fd5b60006127d683836000612550565b9050600073ffffffffffffffffffffffffffffffffffffffff168173ffffffffffffffffffffffffffffffffffffffff161461284a5760006040517f73c6ac6e0000000000000000000000000000000000000000000000000000000081526004016128419190613b17565b60405180910390fd5b505050565b8060066000848152602001908152602001600020908161286f9190614edb565b507ff8e1a15aba9398e019f0b49df1a4fde98ee17ae345cb5f6b5e2c27f5033e8ce78260405161289f9190613c40565b60405180910390a15050565b6000600760009054906101000a900473ffffffffffffffffffffffffffffffffffffffff16905081600760006101000a81548173ffffffffffffffffffffffffffffffffffffffff021916908373ffffffffffffffffffffffffffffffffffffffff1602179055508173ffffffffffffffffffffffffffffffffffffffff168173ffffffffffffffffffffffffffffffffffffffff167f8be0079c531659141344cd1fd0a4f28419497f9722a3daafe3b4186f6b6457e060405160405180910390a35050565b600073ffffffffffffffffffffffffffffffffffffffff168273ffffffffffffffffffffffffffffffffffffffff16036129e257816040517f5b08ba180000000000000000000000000000000000000000000000000000000081526004016129d99190613b17565b60405180910390fd5b80600560008573ffffffffffffffffffffffffffffffffffffffff1673ffffffffffffffffffffffffffffffffffffffff16815260200190815260200160002060008473ffffffffffffffffffffffffffffffffffffffff1673ffffffffffffffffffffffffffffffffffffffff16815260200190815260200160002060006101000a81548160ff0219169083151502179055508173ffffffffffffffffffffffffffffffffffffffff168373ffffffffffffffffffffffffffffffffffffffff167f17307eab39ab6107e8899845ad3d59bd9653f200f220920489ca2b5937696c3183604051612ad39190613a09565b60405180910390a3505050565b60008373ffffffffffffffffffffffffffffffffffffffff163b1115612c8a578273ffffffffffffffffffffffffffffffffffffffff1663150b7a02868685856040518563ffffffff1660e01b8152600401612b3f94939291906154b3565b6020604051808303816000875af1925050508015612b7b57506040513d601f19601f82011682018060405250810190612b789190615514565b60015b612bff573d8060008114612bab576040519150601f19603f3d011682016040523d82523d6000602084013e612bb0565b606091505b506000815103612bf757836040517f64a0ae92000000000000000000000000000000000000000000000000000000008152600401612bee9190613b17565b60405180910390fd5b805181602001fd5b63150b7a0260e01b7bffffffffffffffffffffffffffffffffffffffffffffffffffffffff1916817bffffffffffffffffffffffffffffffffffffffffffffffffffffffff191614612c8857836040517f64a0ae92000000000000000000000000000000000000000000000000000000008152600401612c7f9190613b17565b60405180910390fd5b505b5050505050565b60008073ffffffffffffffffffffffffffffffffffffffff16612cb383612e4f565b73ffffffffffffffffffffffffffffffffffffffff1614159050919050565b6060612cdd82612471565b506000600660008481526020019081526020016000208054612cfe90614952565b80601f0160208091040260200160405190810160405280929190818152602001828054612d2a90614952565b8015612d775780601f10612d4c57610100808354040283529160200191612d77565b820191906000526020600020905b815481529060010190602001808311612d5a57829003601f168201915b505050505090506000612d88613552565b90506000815103612d9d578192505050612de0565b600082511115612dd2578082604051602001612dba929190615541565b60405160208183030381529060405292505050612de0565b612ddb84613569565b925050505b919050565b60007f01ffc9a7000000000000000000000000000000000000000000000000000000007bffffffffffffffffffffffffffffffffffffffffffffffffffffffff1916827bffffffffffffffffffffffffffffffffffffffffffffffffffffffff1916149050919050565b60006002600083815260200190815260200160002060009054906101000a900473ffffffffffffffffffffffffffffffffffffffff169050919050565b8080612ec55750600073ffffffffffffffffffffffffffffffffffffffff168273ffffffffffffffffffffffffffffffffffffffff1614155b15612ff9576000612ed584612471565b9050600073ffffffffffffffffffffffffffffffffffffffff168373ffffffffffffffffffffffffffffffffffffffff1614158015612f4057508273ffffffffffffffffffffffffffffffffffffffff168173ffffffffffffffffffffffffffffffffffffffff1614155b8015612f535750612f5181846120d1565b155b15612f9557826040517fa9fbf51f000000000000000000000000000000000000000000000000000000008152600401612f8c9190613b17565b60405180910390fd5b8115612ff757838573ffffffffffffffffffffffffffffffffffffffff168273ffffffffffffffffffffffffffffffffffffffff167f8c5be1e5ebec7d5bd14f71427d1e84f3dd0314c0f7b2291e5b200ac8c7c3b92560405160405180910390a45b505b836004600085815260200190815260200160002060006101000a81548173ffffffffffffffffffffffffffffffffffffffff021916908373ffffffffffffffffffffffffffffffffffffffff16021790555050505050565b60008061305d84612e4f565b9050600073ffffffffffffffffffffffffffffffffffffffff168373ffffffffffffffffffffffffffffffffffffffff161461309f5761309e8184866135d2565b5b600073ffffffffffffffffffffffffffffffffffffffff168173ffffffffffffffffffffffffffffffffffffffff1614613130576130e1600085600080612e8c565b6001600360008373ffffffffffffffffffffffffffffffffffffffff1673ffffffffffffffffffffffffffffffffffffffff168152602001908152602001600020600082825403925050819055505b600073ffffffffffffffffffffffffffffffffffffffff168573ffffffffffffffffffffffffffffffffffffffff16146131b3576001600360008773ffffffffffffffffffffffffffffffffffffffff1673ffffffffffffffffffffffffffffffffffffffff168152602001908152602001600020600082825401925050819055505b846002600086815260200190815260200160002060006101000a81548173ffffffffffffffffffffffffffffffffffffffff021916908373ffffffffffffffffffffffffffffffffffffffff160217905550838573ffffffffffffffffffffffffffffffffffffffff168273ffffffffffffffffffffffffffffffffffffffff167fddf252ad1be2c89b69c2b068fc378daa952ba7f163c4a11628f55a4df523b3ef60405160405180910390a4809150509392505050565b600080600090507a184f03e93ff9f4daa797ed6e38ed64bf6a1f01000000000000000083106132c9577a184f03e93ff9f4daa797ed6e38ed64bf6a1f01000000000000000083816132bf576132be614844565b5b0492506040810190505b6d04ee2d6d415b85acef81000000008310613306576d04ee2d6d415b85acef810000000083816132fc576132fb614844565b5b0492506020810190505b662386f26fc10000831061333557662386f26fc10000838161332b5761332a614844565b5b0492506010810190505b6305f5e100831061335e576305f5e100838161335457613353614844565b5b0492506008810190505b612710831061338357612710838161337957613378614844565b5b0492506004810190505b606483106133a6576064838161339c5761339b614844565b5b0492506002810190505b600a83106133b5576001810190505b80915050919050565b606060008451036133e05760405180602001604052806000815250905061354b565b6000826134125760036002865160046133f99190614802565b61340391906147ce565b61340d9190614873565b613439565b60036002865161342291906147ce565b61342c9190614873565b60046134389190614802565b5b905060008167ffffffffffffffff81111561345757613456613ca0565b5b6040519080825280601f01601f1916602001820160405280156134895781602001600182028036833780820191505090505b50905060018501602082018788518901602081018051600082525b828410156134ff576003840193508351603f8160121c168701518653600186019550603f81600c1c168701518653600186019550603f8160061c168701518653600186019550603f81168701518653600186019550506134a4565b808252891561353f5760038c51066001811461352257600281146135355761353d565b603d6001870353603d600287035361353d565b603d60018703535b505b50505050505080925050505b9392505050565b606060405180602001604052806000815250905090565b606061357482612471565b50600061357f613552565b9050600081511161359f57604051806020016040528060008152506135ca565b806135a98461265b565b6040516020016135ba929190615541565b6040516020818303038152906040525b915050919050565b6135dd838383613696565b61369157600073ffffffffffffffffffffffffffffffffffffffff168373ffffffffffffffffffffffffffffffffffffffff160361365257806040517f7e2732890000000000000000000000000000000000000000000000000000000081526004016136499190613c40565b60405180910390fd5b81816040517f177e802f000000000000000000000000000000000000000000000000000000008152600401613688929190615565565b60405180910390fd5b505050565b60008073ffffffffffffffffffffffffffffffffffffffff168373ffffffffffffffffffffffffffffffffffffffff161415801561374e57508273ffffffffffffffffffffffffffffffffffffffff168473ffffffffffffffffffffffffffffffffffffffff16148061370f575061370e84846120d1565b5b8061374d57508273ffffffffffffffffffffffffffffffffffffffff16613735836124f9565b73ffffffffffffffffffffffffffffffffffffffff16145b5b90509392505050565b82805482825590600052602060002090810192821561379f579160200282015b8281111561379e57825182908161378e9190614edb565b5091602001919060010190613777565b5b5090506137ac9190613871565b5090565b8280548282559060005260206000209081019282156137ec579160200282015b828111156137eb5782518255916020019190600101906137d0565b5b5090506137f99190613895565b5090565b60405180606001604052806060815260200160608152602001600081525090565b6040518060e00160405280606081526020016060815260200160008152602001600073ffffffffffffffffffffffffffffffffffffffff1681526020016000815260200160008152602001600081525090565b5b80821115613891576000818161388891906138b2565b50600101613872565b5090565b5b808211156138ae576000816000905550600101613896565b5090565b5080546138be90614952565b6000825580601f106138d057506138ef565b601f0160209004906000526020600020908101906138ee9190613895565b5b50565b6000604051905090565b600080fd5b600080fd5b6000819050919050565b61391981613906565b811461392457600080fd5b50565b60008135905061393681613910565b92915050565b600060208284031215613952576139516138fc565b5b600061396084828501613927565b91505092915050565b60007fffffffff0000000000000000000000000000000000000000000000000000000082169050919050565b61399e81613969565b81146139a957600080fd5b50565b6000813590506139bb81613995565b92915050565b6000602082840312156139d7576139d66138fc565b5b60006139e5848285016139ac565b91505092915050565b60008115159050919050565b613a03816139ee565b82525050565b6000602082019050613a1e60008301846139fa565b92915050565b600081519050919050565b600082825260208201905092915050565b60005b83811015613a5e578082015181840152602081019050613a43565b60008484015250505050565b6000601f19601f8301169050919050565b6000613a8682613a24565b613a908185613a2f565b9350613aa0818560208601613a40565b613aa981613a6a565b840191505092915050565b60006020820190508181036000830152613ace8184613a7b565b905092915050565b600073ffffffffffffffffffffffffffffffffffffffff82169050919050565b6000613b0182613ad6565b9050919050565b613b1181613af6565b82525050565b6000602082019050613b2c6000830184613b08565b92915050565b613b3b81613af6565b8114613b4657600080fd5b50565b600081359050613b5881613b32565b92915050565b60008060408385031215613b7557613b746138fc565b5b6000613b8385828601613b49565b9250506020613b9485828601613927565b9150509250929050565b600080600060608486031215613bb757613bb66138fc565b5b6000613bc586828701613b49565b9350506020613bd686828701613b49565b9250506040613be786828701613927565b9150509250925092565b60008060408385031215613c0857613c076138fc565b5b6000613c1685828601613927565b9250506020613c2785828601613927565b9150509250929050565b613c3a81613906565b82525050565b6000602082019050613c556000830184613c31565b92915050565b60008060408385031215613c7257613c716138fc565b5b6000613c8085828601613927565b9250506020613c9185828601613b49565b9150509250929050565b600080fd5b7f4e487b7100000000000000000000000000000000000000000000000000000000600052604160045260246000fd5b613cd882613a6a565b810181811067ffffffffffffffff82111715613cf757613cf6613ca0565b5b80604052505050565b6000613d0a6138f2565b9050613d168282613ccf565b919050565b600067ffffffffffffffff821115613d3657613d35613ca0565b5b602082029050602081019050919050565b600080fd5b600080fd5b600067ffffffffffffffff821115613d6c57613d6b613ca0565b5b613d7582613a6a565b9050602081019050919050565b82818337600083830152505050565b6000613da4613d9f84613d51565b613d00565b905082815260208101848484011115613dc057613dbf613d4c565b5b613dcb848285613d82565b509392505050565b600082601f830112613de857613de7613c9b565b5b8135613df8848260208601613d91565b91505092915050565b6000613e14613e0f84613d1b565b613d00565b90508083825260208201905060208402830185811115613e3757613e36613d47565b5b835b81811015613e7e57803567ffffffffffffffff811115613e5c57613e5b613c9b565b5b808601613e698982613dd3565b85526020850194505050602081019050613e39565b5050509392505050565b600082601f830112613e9d57613e9c613c9b565b5b8135613ead848260208601613e01565b91505092915050565b600067ffffffffffffffff821115613ed157613ed0613ca0565b5b602082029050602081019050919050565b6000613ef5613ef084613eb6565b613d00565b90508083825260208201905060208402830185811115613f1857613f17613d47565b5b835b81811015613f415780613f2d8882613927565b845260208401935050602081019050613f1a565b5050509392505050565b600082601f830112613f6057613f5f613c9b565b5b8135613f70848260208601613ee2565b91505092915050565b600080600060608486031215613f9257613f916138fc565b5b600084013567ffffffffffffffff811115613fb057613faf613901565b5b613fbc86828701613e88565b935050602084013567ffffffffffffffff811115613fdd57613fdc613901565b5b613fe986828701613f4b565b9250506040613ffa86828701613927565b9150509250925092565b600082825260208201905092915050565b600061402082613a24565b61402a8185614004565b935061403a818560208601613a40565b61404381613a6a565b840191505092915050565b61405781613906565b82525050565b6000606083016000830151848203600086015261407a8282614015565b915050602083015184820360208601526140948282614015565b91505060408301516140a9604086018261404e565b508091505092915050565b600060208201905081810360008301526140ce818461405d565b905092915050565b600080604083850312156140ed576140ec6138fc565b5b600083013567ffffffffffffffff81111561410b5761410a613901565b5b61411785828601613dd3565b925050602083013567ffffffffffffffff81111561413857614137613901565b5b61414485828601613dd3565b9150509250929050565b600060208284031215614164576141636138fc565b5b600061417284828501613b49565b91505092915050565b600060608201905081810360008301526141958186613a7b565b905081810360208301526141a98185613a7b565b90506141b86040830184613c31565b949350505050565b600081519050919050565b600082825260208201905092915050565b6000819050602082019050919050565b60006141f8838361404e565b60208301905092915050565b6000602082019050919050565b600061421c826141c0565b61422681856141cb565b9350614231836141dc565b8060005b8381101561426257815161424988826141ec565b975061425483614204565b925050600181019050614235565b5085935050505092915050565b600060208201905081810360008301526142898184614211565b905092915050565b61429a816139ee565b81146142a557600080fd5b50565b6000813590506142b781614291565b92915050565b600080604083850312156142d4576142d36138fc565b5b60006142e285828601613b49565b92505060206142f3858286016142a8565b9150509250929050565b600067ffffffffffffffff82111561431857614317613ca0565b5b61432182613a6a565b9050602081019050919050565b600061434161433c846142fd565b613d00565b90508281526020810184848401111561435d5761435c613d4c565b5b614368848285613d82565b509392505050565b600082601f83011261438557614384613c9b565b5b813561439584826020860161432e565b91505092915050565b600080600080608085870312156143b8576143b76138fc565b5b60006143c687828801613b49565b94505060206143d787828801613b49565b93505060406143e887828801613927565b925050606085013567ffffffffffffffff81111561440957614408613901565b5b61441587828801614370565b91505092959194509250565b6000819050919050565b600061444661444161443c84613ad6565b614421565b613ad6565b9050919050565b60006144588261442b565b9050919050565b600061446a8261444d565b9050919050565b61447a8161445f565b82525050565b60006020820190506144956000830184614471565b92915050565b600060a0820190506144b06000830188613c31565b6144bd6020830187613b08565b6144ca6040830186613c31565b6144d76060830185613c31565b6144e46080830184613c31565b9695505050505050565b600081519050919050565b600082825260208201905092915050565b6000819050602082019050919050565b60006145268383614015565b905092915050565b6000602082019050919050565b6000614546826144ee565b61455081856144f9565b9350836020820285016145628561450a565b8060005b8581101561459e578484038952815161457f858261451a565b945061458a8361452e565b925060208a01995050600181019050614566565b50829750879550505050505092915050565b600082825260208201905092915050565b60006145cc826141c0565b6145d681856145b0565b93506145e1836141dc565b8060005b838110156146125781516145f988826141ec565b975061460483614204565b9250506001810190506145e5565b5085935050505092915050565b61462881613af6565b82525050565b600060e083016000830151848203600086015261464b828261453b565b9150506020830151848203602086015261466582826145c1565b915050604083015161467a604086018261404e565b50606083015161468d606086018261461f565b5060808301516146a0608086018261404e565b5060a08301516146b360a086018261404e565b5060c08301516146c660c086018261404e565b508091505092915050565b600060208201905081810360008301526146eb818461462e565b905092915050565b6000806040838503121561470a576147096138fc565b5b600061471885828601613b49565b925050602061472985828601613b49565b9150509250929050565b7f537472697020646f6573206e6f74206578697374000000000000000000000000600082015250565b6000614769601483613a2f565b915061477482614733565b602082019050919050565b600060208201905081810360008301526147988161475c565b9050919050565b7f4e487b7100000000000000000000000000000000000000000000000000000000600052601160045260246000fd5b60006147d982613906565b91506147e483613906565b92508282019050808211156147fc576147fb61479f565b5b92915050565b600061480d82613906565b915061481883613906565b925082820261482681613906565b9150828204841483151761483d5761483c61479f565b5b5092915050565b7f4e487b7100000000000000000000000000000000000000000000000000000000600052601260045260246000fd5b600061487e82613906565b915061488983613906565b92508261489957614898614844565b5b828204905092915050565b60006148af82613906565b91507fffffffffffffffffffffffffffffffffffffffffffffffffffffffffffffffff82036148e1576148e061479f565b5b600182019050919050565b60006060820190506149016000830186613c31565b61490e6020830185613c31565b61491b6040830184613c31565b949350505050565b7f4e487b7100000000000000000000000000000000000000000000000000000000600052602260045260246000fd5b6000600282049050600182168061496a57607f821691505b60208210810361497d5761497c614923565b5b50919050565b60006060820190506149986000830186613b08565b6149a56020830185613c31565b6149b26040830184613b08565b949350505050565b60006040820190506149cf6000830185613c31565b6149dc6020830184613c31565b9392505050565b7f4d7573742070726f76696465206174206c65617374206f6e6520696d61676500600082015250565b6000614a19601f83613a2f565b9150614a24826149e3565b602082019050919050565b60006020820190508181036000830152614a4881614a0c565b9050919050565b7f436f6d696320646f6573206e6f74206578697374000000000000000000000000600082015250565b6000614a85601483613a2f565b9150614a9082614a4f565b602082019050919050565b60006020820190508181036000830152614ab481614a78565b9050919050565b7f4e487b7100000000000000000000000000000000000000000000000000000000600052603260045260246000fd5b600081519050614af981614291565b92915050565b600060208284031215614b1557614b146138fc565b5b6000614b2384828501614aea565b91505092915050565b7f416c6c2063686172616374657273206d75737420626520616c69766500000000600082015250565b6000614b62601c83613a2f565b9150614b6d82614b2c565b602082019050919050565b60006020820190508181036000830152614b9181614b55565b9050919050565b6000606082019050614bad6000830186613c31565b614bba6020830185613b08565b614bc76040830184613c31565b949350505050565b7f496e73756666696369656e74207061796d656e7420666f7220636f6d6963206360008201527f72656174696f6e00000000000000000000000000000000000000000000000000602082015250565b6000614c2b602783613a2f565b9150614c3682614bcf565b604082019050919050565b60006020820190508181036000830152614c5a81614c1e565b9050919050565b7f4e616d652063616e6e6f7420626520656d707479000000000000000000000000600082015250565b6000614c97601483613a2f565b9150614ca282614c61565b602082019050919050565b60006020820190508181036000830152614cc681614c8a565b9050919050565b7f496d6167652063616e6e6f7420626520656d7074790000000000000000000000600082015250565b6000614d03601583613a2f565b9150614d0e82614ccd565b602082019050919050565b60006020820190508181036000830152614d3281614cf6565b9050919050565b60008190508160005260206000209050919050565b60006020601f8301049050919050565b600082821b905092915050565b600060088302614d9b7fffffffffffffffffffffffffffffffffffffffffffffffffffffffffffffffff82614d5e565b614da58683614d5e565b95508019841693508086168417925050509392505050565b6000614dd8614dd3614dce84613906565b614421565b613906565b9050919050565b6000819050919050565b614df283614dbd565b614e06614dfe82614ddf565b848454614d6b565b825550505050565b600090565b614e1b614e0e565b614e26818484614de9565b505050565b5b81811015614e4a57614e3f600082614e13565b600181019050614e2c565b5050565b601f821115614e8f57614e6081614d39565b614e6984614d4e565b81016020851015614e78578190505b614e8c614e8485614d4e565b830182614e2b565b50505b505050565b600082821c905092915050565b6000614eb260001984600802614e94565b1980831691505092915050565b6000614ecb8383614ea1565b9150826002028217905092915050565b614ee482613a24565b67ffffffffffffffff811115614efd57614efc613ca0565b5b614f078254614952565b614f12828285614e4e565b600060209050601f831160018114614f455760008415614f33578287015190505b614f3d8582614ebf565b865550614fa5565b601f198416614f5386614d39565b60005b82811015614f7b57848901518255600182019150602085019450602081019050614f56565b86831015614f985784890151614f94601f891682614ea1565b8355505b6001600288020188555050505b505050505050565b600081905092915050565b7f7b226e616d65223a220000000000000000000000000000000000000000000000600082015250565b6000614fee600983614fad565b9150614ff982614fb8565b600982019050919050565b600061500f82613a24565b6150198185614fad565b9350615029818560208601613a40565b80840191505092915050565b7f222c000000000000000000000000000000000000000000000000000000000000600082015250565b600061506b600283614fad565b915061507682615035565b600282019050919050565b7f226465736372697074696f6e223a224120636f6d69632066726f6d20576f726c60008201527f6420436f6d696373222c00000000000000000000000000000000000000000000602082015250565b60006150dd602a83614fad565b91506150e882615081565b602a82019050919050565b7f22696d616765223a220000000000000000000000000000000000000000000000600082015250565b6000615129600983614fad565b9150615134826150f3565b600982019050919050565b7f2261747472696275746573223a5b000000000000000000000000000000000000600082015250565b6000615175600e83614fad565b91506151808261513f565b600e82019050919050565b7f7b2274726169745f74797065223a2243726561746564204174222c2276616c7560008201527f65223a2200000000000000000000000000000000000000000000000000000000602082015250565b60006151e7602483614fad565b91506151f28261518b565b602482019050919050565b7f227d000000000000000000000000000000000000000000000000000000000000600082015250565b6000615233600283614fad565b915061523e826151fd565b600282019050919050565b7f5d7d000000000000000000000000000000000000000000000000000000000000600082015250565b600061527f600283614fad565b915061528a82615249565b600282019050919050565b60006152a082614fe1565b91506152ac8286615004565b91506152b78261505e565b91506152c2826150d0565b91506152cd8261511c565b91506152d98285615004565b91506152e48261505e565b91506152ef82615168565b91506152fa826151da565b91506153068284615004565b915061531182615226565b915061531c82615272565b9150819050949350505050565b600060408201905081810360008301526153438185613a7b565b905081810360208301526153578184613a7b565b90509392505050565b7f4552433732314d657461646174613a2055524920717565727920666f72206e6f60008201527f6e6578697374656e7420746f6b656e0000000000000000000000000000000000602082015250565b60006153bc602f83613a2f565b91506153c782615360565b604082019050919050565b600060208201905081810360008301526153eb816153af565b9050919050565b7f436f6d6963207472616e7366657273206172652064697361626c656400000000600082015250565b6000615428601c83613a2f565b9150615433826153f2565b602082019050919050565b600060208201905081810360008301526154578161541b565b9050919050565b600081519050919050565b600082825260208201905092915050565b60006154858261545e565b61548f8185615469565b935061549f818560208601613a40565b6154a881613a6a565b840191505092915050565b60006080820190506154c86000830187613b08565b6154d56020830186613b08565b6154e26040830185613c31565b81810360608301526154f4818461547a565b905095945050505050565b60008151905061550e81613995565b92915050565b60006020828403121561552a576155296138fc565b5b6000615538848285016154ff565b91505092915050565b600061554d8285615004565b91506155598284615004565b91508190509392505050565b600060408201905061557a6000830185613b08565b6155876020830184613c31565b939250505056fe4142434445464748494a4b4c4d4e4f505152535455565758595a6162636465666768696a6b6c6d6e6f707172737475767778797a303132333435363738392b2fa2646970667358221220ddb45111e9a3a6735219231e4d7979d6e2bdba1f4fbecc9dfd9e97f1f8c3f8c464736f6c63430008140033","opcodes":"PUSH1 0x80 PUSH1 0x40 MSTORE PUSH1 0x0 PUSH1 0xA SSTORE PUSH1 0x0 PUSH1 0xB SSTORE CALLVALUE DUP1 ISZERO PUSH3 0x1B JUMPI PUSH1 0x0 DUP1 REVERT JUMPDEST POP PUSH1 0x40 MLOAD PUSH3 0x5CA8 CODESIZE SUB DUP1 PUSH3 0x5CA8 DUP4 CODECOPY DUP2 DUP2 ADD PUSH1 0x40 MSTORE DUP2 ADD SWAP1 PUSH3 0x41 SWAP2 SWAP1 PUSH3 0x2D3 JUMP JUMPDEST CALLER PUSH1 0x40 MLOAD DUP1 PUSH1 0x40 ADD PUSH1 0x40 MSTORE DUP1 PUSH1 0xC DUP2 MSTORE PUSH1 0x20 ADD PUSH32 0x576F726C6420436F6D6963730000000000000000000000000000000000000000 DUP2 MSTORE POP PUSH1 0x40 MLOAD DUP1 PUSH1 0x40 ADD PUSH1 0x40 MSTORE DUP1 PUSH1 0x2 DUP2 MSTORE PUSH1 0x20 ADD PUSH32 0x5743000000000000000000000000000000000000000000000000000000000000 DUP2 MSTORE POP DUP2 PUSH1 0x0 SWAP1 DUP2 PUSH3 0xBF SWAP2 SWAP1 PUSH3 0x57F JUMP JUMPDEST POP DUP1 PUSH1 0x1 SWAP1 DUP2 PUSH3 0xD1 SWAP2 SWAP1 PUSH3 0x57F JUMP JUMPDEST POP POP POP PUSH1 0x0 PUSH20 0xFFFFFFFFFFFFFFFFFFFFFFFFFFFFFFFFFFFFFFFF AND DUP2 PUSH20 0xFFFFFFFFFFFFFFFFFFFFFFFFFFFFFFFFFFFFFFFF AND SUB PUSH3 0x149 JUMPI PUSH1 0x0 PUSH1 0x40 MLOAD PUSH32 0x1E4FBDF700000000000000000000000000000000000000000000000000000000 DUP2 MSTORE PUSH1 0x4 ADD PUSH3 0x140 SWAP2 SWAP1 PUSH3 0x677 JUMP JUMPDEST PUSH1 0x40 MLOAD DUP1 SWAP2 SUB SWAP1 REVERT JUMPDEST PUSH3 0x15A DUP2 PUSH3 0x1A3 PUSH1 0x20 SHL PUSH1 0x20 SHR JUMP JUMPDEST POP DUP1 PUSH1 0x9 PUSH1 0x0 PUSH2 0x100 EXP DUP2 SLOAD DUP2 PUSH20 0xFFFFFFFFFFFFFFFFFFFFFFFFFFFFFFFFFFFFFFFF MUL NOT AND SWAP1 DUP4 PUSH20 0xFFFFFFFFFFFFFFFFFFFFFFFFFFFFFFFFFFFFFFFF AND MUL OR SWAP1 SSTORE POP POP PUSH3 0x694 JUMP JUMPDEST PUSH1 0x0 PUSH1 0x7 PUSH1 0x0 SWAP1 SLOAD SWAP1 PUSH2 0x100 EXP SWAP1 DIV PUSH20 0xFFFFFFFFFFFFFFFFFFFFFFFFFFFFFFFFFFFFFFFF AND SWAP1 POP DUP2 PUSH1 0x7 PUSH1 0x0 PUSH2 0x100 EXP DUP2 SLOAD DUP2 PUSH20 0xFFFFFFFFFFFFFFFFFFFFFFFFFFFFFFFFFFFFFFFF MUL NOT AND SWAP1 DUP4 PUSH20 0xFFFFFFFFFFFFFFFFFFFFFFFFFFFFFFFFFFFFFFFF AND MUL OR SWAP1 SSTORE POP DUP2 PUSH20 0xFFFFFFFFFFFFFFFFFFFFFFFFFFFFFFFFFFFFFFFF AND DUP2 PUSH20 0xFFFFFFFFFFFFFFFFFFFFFFFFFFFFFFFFFFFFFFFF AND PUSH32 0x8BE0079C531659141344CD1FD0A4F28419497F9722A3DAAFE3B4186F6B6457E0 PUSH1 0x40 MLOAD PUSH1 0x40 MLOAD DUP1 SWAP2 SUB SWAP1 LOG3 POP POP JUMP JUMPDEST PUSH1 0x0 DUP1 REVERT JUMPDEST PUSH1 0x0 PUSH20 0xFFFFFFFFFFFFFFFFFFFFFFFFFFFFFFFFFFFFFFFF DUP3 AND SWAP1 POP SWAP2 SWAP1 POP JUMP JUMPDEST PUSH1 0x0 PUSH3 0x29B DUP3 PUSH3 0x26E JUMP JUMPDEST SWAP1 POP SWAP2 SWAP1 POP JUMP JUMPDEST PUSH3 0x2AD DUP2 PUSH3 0x28E JUMP JUMPDEST DUP2 EQ PUSH3 0x2B9 JUMPI PUSH1 0x0 DUP1 REVERT JUMPDEST POP JUMP JUMPDEST PUSH1 0x0 DUP2 MLOAD SWAP1 POP PUSH3 0x2CD DUP2 PUSH3 0x2A2 JUMP JUMPDEST SWAP3 SWAP2 POP POP JUMP JUMPDEST PUSH1 0x0 PUSH1 0x20 DUP3 DUP5 SUB SLT ISZERO PUSH3 0x2EC JUMPI PUSH3 0x2EB PUSH3 0x269 JUMP JUMPDEST JUMPDEST PUSH1 0x0 PUSH3 0x2FC DUP5 DUP3 DUP6 ADD PUSH3 0x2BC JUMP JUMPDEST SWAP2 POP POP SWAP3 SWAP2 POP POP JUMP JUMPDEST PUSH1 0x0 DUP2 MLOAD SWAP1 POP SWAP2 SWAP1 POP JUMP JUMPDEST PUSH32 0x4E487B7100000000000000000000000000000000000000000000000000000000 PUSH1 0x0 MSTORE PUSH1 0x41 PUSH1 0x4 MSTORE PUSH1 0x24 PUSH1 0x0 REVERT JUMPDEST PUSH32 0x4E487B7100000000000000000000000000000000000000000000000000000000 PUSH1 0x0 MSTORE PUSH1 0x22 PUSH1 0x4 MSTORE PUSH1 0x24 PUSH1 0x0 REVERT JUMPDEST PUSH1 0x0 PUSH1 0x2 DUP3 DIV SWAP1 POP PUSH1 0x1 DUP3 AND DUP1 PUSH3 0x387 JUMPI PUSH1 0x7F DUP3 AND SWAP2 POP JUMPDEST PUSH1 0x20 DUP3 LT DUP2 SUB PUSH3 0x39D JUMPI PUSH3 0x39C PUSH3 0x33F JUMP JUMPDEST JUMPDEST POP SWAP2 SWAP1 POP JUMP JUMPDEST PUSH1 0x0 DUP2 SWAP1 POP DUP2 PUSH1 0x0 MSTORE PUSH1 0x20 PUSH1 0x0 KECCAK256 SWAP1 POP SWAP2 SWAP1 POP JUMP JUMPDEST PUSH1 0x0 PUSH1 0x20 PUSH1 0x1F DUP4 ADD DIV SWAP1 POP SWAP2 SWAP1 POP JUMP JUMPDEST PUSH1 0x0 DUP3 DUP3 SHL SWAP1 POP SWAP3 SWAP2 POP POP JUMP JUMPDEST PUSH1 0x0 PUSH1 0x8 DUP4 MUL PUSH3 0x407 PUSH32 0xFFFFFFFFFFFFFFFFFFFFFFFFFFFFFFFFFFFFFFFFFFFFFFFFFFFFFFFFFFFFFFFF DUP3 PUSH3 0x3C8 JUMP JUMPDEST PUSH3 0x413 DUP7 DUP4 PUSH3 0x3C8 JUMP JUMPDEST SWAP6 POP DUP1 NOT DUP5 AND SWAP4 POP DUP1 DUP7 AND DUP5 OR SWAP3 POP POP POP SWAP4 SWAP3 POP POP POP JUMP JUMPDEST PUSH1 0x0 DUP2 SWAP1 POP SWAP2 SWAP1 POP JUMP JUMPDEST PUSH1 0x0 DUP2 SWAP1 POP SWAP2 SWAP1 POP JUMP JUMPDEST PUSH1 0x0 PUSH3 0x460 PUSH3 0x45A PUSH3 0x454 DUP5 PUSH3 0x42B JUMP JUMPDEST PUSH3 0x435 JUMP JUMPDEST PUSH3 0x42B JUMP JUMPDEST SWAP1 POP SWAP2 SWAP1 POP JUMP JUMPDEST PUSH1 0x0 DUP2 SWAP1 POP SWAP2 SWAP1 POP JUMP JUMPDEST PUSH3 0x47C DUP4 PUSH3 0x43F JUMP JUMPDEST PUSH3 0x494 PUSH3 0x48B DUP3 PUSH3 0x467 JUMP JUMPDEST DUP5 DUP5 SLOAD PUSH3 0x3D5 JUMP JUMPDEST DUP3 SSTORE POP POP POP POP JUMP JUMPDEST PUSH1 0x0 SWAP1 JUMP JUMPDEST PUSH3 0x4AB PUSH3 0x49C JUMP JUMPDEST PUSH3 0x4B8 DUP2 DUP5 DUP5 PUSH3 0x471 JUMP JUMPDEST POP POP POP JUMP JUMPDEST JUMPDEST DUP2 DUP2 LT ISZERO PUSH3 0x4E0 JUMPI PUSH3 0x4D4 PUSH1 0x0 DUP3 PUSH3 0x4A1 JUMP JUMPDEST PUSH1 0x1 DUP2 ADD SWAP1 POP PUSH3 0x4BE JUMP JUMPDEST POP POP JUMP JUMPDEST PUSH1 0x1F DUP3 GT ISZERO PUSH3 0x52F JUMPI PUSH3 0x4F9 DUP2 PUSH3 0x3A3 JUMP JUMPDEST PUSH3 0x504 DUP5 PUSH3 0x3B8 JUMP JUMPDEST DUP2 ADD PUSH1 0x20 DUP6 LT ISZERO PUSH3 0x514 JUMPI DUP2 SWAP1 POP JUMPDEST PUSH3 0x52C PUSH3 0x523 DUP6 PUSH3 0x3B8 JUMP JUMPDEST DUP4 ADD DUP3 PUSH3 0x4BD JUMP JUMPDEST POP POP JUMPDEST POP POP POP JUMP JUMPDEST PUSH1 0x0 DUP3 DUP3 SHR SWAP1 POP SWAP3 SWAP2 POP POP JUMP JUMPDEST PUSH1 0x0 PUSH3 0x554 PUSH1 0x0 NOT DUP5 PUSH1 0x8 MUL PUSH3 0x534 JUMP JUMPDEST NOT DUP1 DUP4 AND SWAP2 POP POP SWAP3 SWAP2 POP POP JUMP JUMPDEST PUSH1 0x0 PUSH3 0x56F DUP4 DUP4 PUSH3 0x541 JUMP JUMPDEST SWAP2 POP DUP3 PUSH1 0x2 MUL DUP3 OR SWAP1 POP SWAP3 SWAP2 POP POP JUMP JUMPDEST PUSH3 0x58A DUP3 PUSH3 0x305 JUMP JUMPDEST PUSH8 0xFFFFFFFFFFFFFFFF DUP2 GT ISZERO PUSH3 0x5A6 JUMPI PUSH3 0x5A5 PUSH3 0x310 JUMP JUMPDEST JUMPDEST PUSH3 0x5B2 DUP3 SLOAD PUSH3 0x36E JUMP JUMPDEST PUSH3 0x5BF DUP3 DUP3 DUP6 PUSH3 0x4E4 JUMP JUMPDEST PUSH1 0x0 PUSH1 0x20 SWAP1 POP PUSH1 0x1F DUP4 GT PUSH1 0x1 DUP2 EQ PUSH3 0x5F7 JUMPI PUSH1 0x0 DUP5 ISZERO PUSH3 0x5E2 JUMPI DUP3 DUP8 ADD MLOAD SWAP1 POP JUMPDEST PUSH3 0x5EE DUP6 DUP3 PUSH3 0x561 JUMP JUMPDEST DUP7 SSTORE POP PUSH3 0x65E JUMP JUMPDEST PUSH1 0x1F NOT DUP5 AND PUSH3 0x607 DUP7 PUSH3 0x3A3 JUMP JUMPDEST PUSH1 0x0 JUMPDEST DUP3 DUP2 LT ISZERO PUSH3 0x631 JUMPI DUP5 DUP10 ADD MLOAD DUP3 SSTORE PUSH1 0x1 DUP3 ADD SWAP2 POP PUSH1 0x20 DUP6 ADD SWAP5 POP PUSH1 0x20 DUP2 ADD SWAP1 POP PUSH3 0x60A JUMP JUMPDEST DUP7 DUP4 LT ISZERO PUSH3 0x651 JUMPI DUP5 DUP10 ADD MLOAD PUSH3 0x64D PUSH1 0x1F DUP10 AND DUP3 PUSH3 0x541 JUMP JUMPDEST DUP4 SSTORE POP JUMPDEST PUSH1 0x1 PUSH1 0x2 DUP9 MUL ADD DUP9 SSTORE POP POP POP JUMPDEST POP POP POP POP POP POP JUMP JUMPDEST PUSH3 0x671 DUP2 PUSH3 0x28E JUMP JUMPDEST DUP3 MSTORE POP POP JUMP JUMPDEST PUSH1 0x0 PUSH1 0x20 DUP3 ADD SWAP1 POP PUSH3 0x68E PUSH1 0x0 DUP4 ADD DUP5 PUSH3 0x666 JUMP JUMPDEST SWAP3 SWAP2 POP POP JUMP JUMPDEST PUSH2 0x5604 DUP1 PUSH3 0x6A4 PUSH1 0x0 CODECOPY PUSH1 0x0 RETURN INVALID PUSH1 0x80 PUSH1 0x40 MSTORE PUSH1 0x4 CALLDATASIZE LT PUSH2 0x23B JUMPI PUSH1 0x0 CALLDATALOAD PUSH1 0xE0 SHR DUP1 PUSH4 0x715018A6 GT PUSH2 0x12E JUMPI DUP1 PUSH4 0xC87B56DD GT PUSH2 0xAB JUMPI DUP1 PUSH4 0xE5C49324 GT PUSH2 0x6F JUMPI DUP1 PUSH4 0xE5C49324 EQ PUSH2 0x919 JUMPI DUP1 PUSH4 0xE985E9C5 EQ PUSH2 0x956 JUMPI DUP1 PUSH4 0xF1F28CBF EQ PUSH2 0x993 JUMPI DUP1 PUSH4 0xF2171487 EQ PUSH2 0x9D0 JUMPI DUP1 PUSH4 0xF2FDE38B EQ PUSH2 0x9FB JUMPI PUSH2 0x23B JUMP JUMPDEST DUP1 PUSH4 0xC87B56DD EQ PUSH2 0x7F6 JUMPI DUP1 PUSH4 0xCB223904 EQ PUSH2 0x833 JUMPI DUP1 PUSH4 0xD070BB54 EQ PUSH2 0x870 JUMPI DUP1 PUSH4 0xD84B2361 EQ PUSH2 0x89B JUMPI DUP1 PUSH4 0xD9AD0A6B EQ PUSH2 0x8D8 JUMPI PUSH2 0x23B JUMP JUMPDEST DUP1 PUSH4 0x9D076031 GT PUSH2 0xF2 JUMPI DUP1 PUSH4 0x9D076031 EQ PUSH2 0x6FF JUMPI DUP1 PUSH4 0xA22CB465 EQ PUSH2 0x73C JUMPI DUP1 PUSH4 0xB0C5DFA3 EQ PUSH2 0x765 JUMPI DUP1 PUSH4 0xB2C2F2E8 EQ PUSH2 0x790 JUMPI DUP1 PUSH4 0xB88D4FDE EQ PUSH2 0x7CD JUMPI PUSH2 0x23B JUMP JUMPDEST DUP1 PUSH4 0x715018A6 EQ PUSH2 0x628 JUMPI DUP1 PUSH4 0x7A80DC1D EQ PUSH2 0x63F JUMPI DUP1 PUSH4 0x835F5996 EQ PUSH2 0x67E JUMPI DUP1 PUSH4 0x8DA5CB5B EQ PUSH2 0x6A9 JUMPI DUP1 PUSH4 0x95D89B41 EQ PUSH2 0x6D4 JUMPI PUSH2 0x23B JUMP JUMPDEST DUP1 PUSH4 0x3D891F59 GT PUSH2 0x1BC JUMPI DUP1 PUSH4 0x4C47EC64 GT PUSH2 0x180 JUMPI DUP1 PUSH4 0x4C47EC64 EQ PUSH2 0x509 JUMPI DUP1 PUSH4 0x4EF39827 EQ PUSH2 0x546 JUMPI DUP1 PUSH4 0x6352211E EQ PUSH2 0x583 JUMPI DUP1 PUSH4 0x703A2C4B EQ PUSH2 0x5C0 JUMPI DUP1 PUSH4 0x70A08231 EQ PUSH2 0x5EB JUMPI PUSH2 0x23B JUMP JUMPDEST DUP1 PUSH4 0x3D891F59 EQ PUSH2 0x40D JUMPI DUP1 PUSH4 0x42842E0E EQ PUSH2 0x44A JUMPI DUP1 PUSH4 0x43F52BA9 EQ PUSH2 0x473 JUMPI DUP1 PUSH4 0x47AC33EE EQ PUSH2 0x49C JUMPI DUP1 PUSH4 0x48FCF243 EQ PUSH2 0x4D9 JUMPI PUSH2 0x23B JUMP JUMPDEST DUP1 PUSH4 0x23B872DD GT PUSH2 0x203 JUMPI DUP1 PUSH4 0x23B872DD EQ PUSH2 0x32A JUMPI DUP1 PUSH4 0x23F13765 EQ PUSH2 0x353 JUMPI DUP1 PUSH4 0x37FA09AA EQ PUSH2 0x37C JUMPI DUP1 PUSH4 0x384316E8 EQ PUSH2 0x3B9 JUMPI DUP1 PUSH4 0x3CCFD60B EQ PUSH2 0x3F6 JUMPI PUSH2 0x23B JUMP JUMPDEST DUP1 PUSH4 0x121B93F EQ PUSH2 0x240 JUMPI DUP1 PUSH4 0x1FFC9A7 EQ PUSH2 0x25C JUMPI DUP1 PUSH4 0x6FDDE03 EQ PUSH2 0x299 JUMPI DUP1 PUSH4 0x81812FC EQ PUSH2 0x2C4 JUMPI DUP1 PUSH4 0x95EA7B3 EQ PUSH2 0x301 JUMPI JUMPDEST PUSH1 0x0 DUP1 REVERT JUMPDEST PUSH2 0x25A PUSH1 0x4 DUP1 CALLDATASIZE SUB DUP2 ADD SWAP1 PUSH2 0x255 SWAP2 SWAP1 PUSH2 0x393C JUMP JUMPDEST PUSH2 0xA24 JUMP JUMPDEST STOP JUMPDEST CALLVALUE DUP1 ISZERO PUSH2 0x268 JUMPI PUSH1 0x0 DUP1 REVERT JUMPDEST POP PUSH2 0x283 PUSH1 0x4 DUP1 CALLDATASIZE SUB DUP2 ADD SWAP1 PUSH2 0x27E SWAP2 SWAP1 PUSH2 0x39C1 JUMP JUMPDEST PUSH2 0xE78 JUMP JUMPDEST PUSH1 0x40 MLOAD PUSH2 0x290 SWAP2 SWAP1 PUSH2 0x3A09 JUMP JUMPDEST PUSH1 0x40 MLOAD DUP1 SWAP2 SUB SWAP1 RETURN JUMPDEST CALLVALUE DUP1 ISZERO PUSH2 0x2A5 JUMPI PUSH1 0x0 DUP1 REVERT JUMPDEST POP PUSH2 0x2AE PUSH2 0xED9 JUMP JUMPDEST PUSH1 0x40 MLOAD PUSH2 0x2BB SWAP2 SWAP1 PUSH2 0x3AB4 JUMP JUMPDEST PUSH1 0x40 MLOAD DUP1 SWAP2 SUB SWAP1 RETURN JUMPDEST CALLVALUE DUP1 ISZERO PUSH2 0x2D0 JUMPI PUSH1 0x0 DUP1 REVERT JUMPDEST POP PUSH2 0x2EB PUSH1 0x4 DUP1 CALLDATASIZE SUB DUP2 ADD SWAP1 PUSH2 0x2E6 SWAP2 SWAP1 PUSH2 0x393C JUMP JUMPDEST PUSH2 0xF6B JUMP JUMPDEST PUSH1 0x40 MLOAD PUSH2 0x2F8 SWAP2 SWAP1 PUSH2 0x3B17 JUMP JUMPDEST PUSH1 0x40 MLOAD DUP1 SWAP2 SUB SWAP1 RETURN JUMPDEST CALLVALUE DUP1 ISZERO PUSH2 0x30D JUMPI PUSH1 0x0 DUP1 REVERT JUMPDEST POP PUSH2 0x328 PUSH1 0x4 DUP1 CALLDATASIZE SUB DUP2 ADD SWAP1 PUSH2 0x323 SWAP2 SWAP1 PUSH2 0x3B5E JUMP JUMPDEST PUSH2 0xF87 JUMP JUMPDEST STOP JUMPDEST CALLVALUE DUP1 ISZERO PUSH2 0x336 JUMPI PUSH1 0x0 DUP1 REVERT JUMPDEST POP PUSH2 0x351 PUSH1 0x4 DUP1 CALLDATASIZE SUB DUP2 ADD SWAP1 PUSH2 0x34C SWAP2 SWAP1 PUSH2 0x3B9E JUMP JUMPDEST PUSH2 0xF9D JUMP JUMPDEST STOP JUMPDEST CALLVALUE DUP1 ISZERO PUSH2 0x35F JUMPI PUSH1 0x0 DUP1 REVERT JUMPDEST POP PUSH2 0x37A PUSH1 0x4 DUP1 CALLDATASIZE SUB DUP2 ADD SWAP1 PUSH2 0x375 SWAP2 SWAP1 PUSH2 0x3BF1 JUMP JUMPDEST PUSH2 0x109F JUMP JUMPDEST STOP JUMPDEST CALLVALUE DUP1 ISZERO PUSH2 0x388 JUMPI PUSH1 0x0 DUP1 REVERT JUMPDEST POP PUSH2 0x3A3 PUSH1 0x4 DUP1 CALLDATASIZE SUB DUP2 ADD SWAP1 PUSH2 0x39E SWAP2 SWAP1 PUSH2 0x393C JUMP JUMPDEST PUSH2 0x10F2 JUMP JUMPDEST PUSH1 0x40 MLOAD PUSH2 0x3B0 SWAP2 SWAP1 PUSH2 0x3B17 JUMP JUMPDEST PUSH1 0x40 MLOAD DUP1 SWAP2 SUB SWAP1 RETURN JUMPDEST CALLVALUE DUP1 ISZERO PUSH2 0x3C5 JUMPI PUSH1 0x0 DUP1 REVERT JUMPDEST POP PUSH2 0x3E0 PUSH1 0x4 DUP1 CALLDATASIZE SUB DUP2 ADD SWAP1 PUSH2 0x3DB SWAP2 SWAP1 PUSH2 0x393C JUMP JUMPDEST PUSH2 0x1125 JUMP JUMPDEST PUSH1 0x40 MLOAD PUSH2 0x3ED SWAP2 SWAP1 PUSH2 0x3C40 JUMP JUMPDEST PUSH1 0x40 MLOAD DUP1 SWAP2 SUB SWAP1 RETURN JUMPDEST CALLVALUE DUP1 ISZERO PUSH2 0x402 JUMPI PUSH1 0x0 DUP1 REVERT JUMPDEST POP PUSH2 0x40B PUSH2 0x1142 JUMP JUMPDEST STOP JUMPDEST CALLVALUE DUP1 ISZERO PUSH2 0x419 JUMPI PUSH1 0x0 DUP1 REVERT JUMPDEST POP PUSH2 0x434 PUSH1 0x4 DUP1 CALLDATASIZE SUB DUP2 ADD SWAP1 PUSH2 0x42F SWAP2 SWAP1 PUSH2 0x3C5B JUMP JUMPDEST PUSH2 0x119A JUMP JUMPDEST PUSH1 0x40 MLOAD PUSH2 0x441 SWAP2 SWAP1 PUSH2 0x3C40 JUMP JUMPDEST PUSH1 0x40 MLOAD DUP1 SWAP2 SUB SWAP1 RETURN JUMPDEST CALLVALUE DUP1 ISZERO PUSH2 0x456 JUMPI PUSH1 0x0 DUP1 REVERT JUMPDEST POP PUSH2 0x471 PUSH1 0x4 DUP1 CALLDATASIZE SUB DUP2 ADD SWAP1 PUSH2 0x46C SWAP2 SWAP1 PUSH2 0x3B9E JUMP JUMPDEST PUSH2 0x11BF JUMP JUMPDEST STOP JUMPDEST CALLVALUE DUP1 ISZERO PUSH2 0x47F JUMPI PUSH1 0x0 DUP1 REVERT JUMPDEST POP PUSH2 0x49A PUSH1 0x4 DUP1 CALLDATASIZE SUB DUP2 ADD SWAP1 PUSH2 0x495 SWAP2 SWAP1 PUSH2 0x3F79 JUMP JUMPDEST PUSH2 0x11DF JUMP JUMPDEST STOP JUMPDEST CALLVALUE DUP1 ISZERO PUSH2 0x4A8 JUMPI PUSH1 0x0 DUP1 REVERT JUMPDEST POP PUSH2 0x4C3 PUSH1 0x4 DUP1 CALLDATASIZE SUB DUP2 ADD SWAP1 PUSH2 0x4BE SWAP2 SWAP1 PUSH2 0x393C JUMP JUMPDEST PUSH2 0x1588 JUMP JUMPDEST PUSH1 0x40 MLOAD PUSH2 0x4D0 SWAP2 SWAP1 PUSH2 0x40B4 JUMP JUMPDEST PUSH1 0x40 MLOAD DUP1 SWAP2 SUB SWAP1 RETURN JUMPDEST PUSH2 0x4F3 PUSH1 0x4 DUP1 CALLDATASIZE SUB DUP2 ADD SWAP1 PUSH2 0x4EE SWAP2 SWAP1 PUSH2 0x40D6 JUMP JUMPDEST PUSH2 0x16E3 JUMP JUMPDEST PUSH1 0x40 MLOAD PUSH2 0x500 SWAP2 SWAP1 PUSH2 0x3C40 JUMP JUMPDEST PUSH1 0x40 MLOAD DUP1 SWAP2 SUB SWAP1 RETURN JUMPDEST CALLVALUE DUP1 ISZERO PUSH2 0x515 JUMPI PUSH1 0x0 DUP1 REVERT JUMPDEST POP PUSH2 0x530 PUSH1 0x4 DUP1 CALLDATASIZE SUB DUP2 ADD SWAP1 PUSH2 0x52B SWAP2 SWAP1 PUSH2 0x3BF1 JUMP JUMPDEST PUSH2 0x18EC JUMP JUMPDEST PUSH1 0x40 MLOAD PUSH2 0x53D SWAP2 SWAP1 PUSH2 0x3C40 JUMP JUMPDEST PUSH1 0x40 MLOAD DUP1 SWAP2 SUB SWAP1 RETURN JUMPDEST CALLVALUE DUP1 ISZERO PUSH2 0x552 JUMPI PUSH1 0x0 DUP1 REVERT JUMPDEST POP PUSH2 0x56D PUSH1 0x4 DUP1 CALLDATASIZE SUB DUP2 ADD SWAP1 PUSH2 0x568 SWAP2 SWAP1 PUSH2 0x393C JUMP JUMPDEST PUSH2 0x191D JUMP JUMPDEST PUSH1 0x40 MLOAD PUSH2 0x57A SWAP2 SWAP1 PUSH2 0x3C40 JUMP JUMPDEST PUSH1 0x40 MLOAD DUP1 SWAP2 SUB SWAP1 RETURN JUMPDEST CALLVALUE DUP1 ISZERO PUSH2 0x58F JUMPI PUSH1 0x0 DUP1 REVERT JUMPDEST POP PUSH2 0x5AA PUSH1 0x4 DUP1 CALLDATASIZE SUB DUP2 ADD SWAP1 PUSH2 0x5A5 SWAP2 SWAP1 PUSH2 0x393C JUMP JUMPDEST PUSH2 0x1935 JUMP JUMPDEST PUSH1 0x40 MLOAD PUSH2 0x5B7 SWAP2 SWAP1 PUSH2 0x3B17 JUMP JUMPDEST PUSH1 0x40 MLOAD DUP1 SWAP2 SUB SWAP1 RETURN JUMPDEST CALLVALUE DUP1 ISZERO PUSH2 0x5CC JUMPI PUSH1 0x0 DUP1 REVERT JUMPDEST POP PUSH2 0x5D5 PUSH2 0x1947 JUMP JUMPDEST PUSH1 0x40 MLOAD PUSH2 0x5E2 SWAP2 SWAP1 PUSH2 0x3C40 JUMP JUMPDEST PUSH1 0x40 MLOAD DUP1 SWAP2 SUB SWAP1 RETURN JUMPDEST CALLVALUE DUP1 ISZERO PUSH2 0x5F7 JUMPI PUSH1 0x0 DUP1 REVERT JUMPDEST POP PUSH2 0x612 PUSH1 0x4 DUP1 CALLDATASIZE SUB DUP2 ADD SWAP1 PUSH2 0x60D SWAP2 SWAP1 PUSH2 0x414E JUMP JUMPDEST PUSH2 0x194D JUMP JUMPDEST PUSH1 0x40 MLOAD PUSH2 0x61F SWAP2 SWAP1 PUSH2 0x3C40 JUMP JUMPDEST PUSH1 0x40 MLOAD DUP1 SWAP2 SUB SWAP1 RETURN JUMPDEST CALLVALUE DUP1 ISZERO PUSH2 0x634 JUMPI PUSH1 0x0 DUP1 REVERT JUMPDEST POP PUSH2 0x63D PUSH2 0x1A07 JUMP JUMPDEST STOP JUMPDEST CALLVALUE DUP1 ISZERO PUSH2 0x64B JUMPI PUSH1 0x0 DUP1 REVERT JUMPDEST POP PUSH2 0x666 PUSH1 0x4 DUP1 CALLDATASIZE SUB DUP2 ADD SWAP1 PUSH2 0x661 SWAP2 SWAP1 PUSH2 0x393C JUMP JUMPDEST PUSH2 0x1A1B JUMP JUMPDEST PUSH1 0x40 MLOAD PUSH2 0x675 SWAP4 SWAP3 SWAP2 SWAP1 PUSH2 0x417B JUMP JUMPDEST PUSH1 0x40 MLOAD DUP1 SWAP2 SUB SWAP1 RETURN JUMPDEST CALLVALUE DUP1 ISZERO PUSH2 0x68A JUMPI PUSH1 0x0 DUP1 REVERT JUMPDEST POP PUSH2 0x693 PUSH2 0x1B55 JUMP JUMPDEST PUSH1 0x40 MLOAD PUSH2 0x6A0 SWAP2 SWAP1 PUSH2 0x3C40 JUMP JUMPDEST PUSH1 0x40 MLOAD DUP1 SWAP2 SUB SWAP1 RETURN JUMPDEST CALLVALUE DUP1 ISZERO PUSH2 0x6B5 JUMPI PUSH1 0x0 DUP1 REVERT JUMPDEST POP PUSH2 0x6BE PUSH2 0x1B5B JUMP JUMPDEST PUSH1 0x40 MLOAD PUSH2 0x6CB SWAP2 SWAP1 PUSH2 0x3B17 JUMP JUMPDEST PUSH1 0x40 MLOAD DUP1 SWAP2 SUB SWAP1 RETURN JUMPDEST CALLVALUE DUP1 ISZERO PUSH2 0x6E0 JUMPI PUSH1 0x0 DUP1 REVERT JUMPDEST POP PUSH2 0x6E9 PUSH2 0x1B85 JUMP JUMPDEST PUSH1 0x40 MLOAD PUSH2 0x6F6 SWAP2 SWAP1 PUSH2 0x3AB4 JUMP JUMPDEST PUSH1 0x40 MLOAD DUP1 SWAP2 SUB SWAP1 RETURN JUMPDEST CALLVALUE DUP1 ISZERO PUSH2 0x70B JUMPI PUSH1 0x0 DUP1 REVERT JUMPDEST POP PUSH2 0x726 PUSH1 0x4 DUP1 CALLDATASIZE SUB DUP2 ADD SWAP1 PUSH2 0x721 SWAP2 SWAP1 PUSH2 0x393C JUMP JUMPDEST PUSH2 0x1C17 JUMP JUMPDEST PUSH1 0x40 MLOAD PUSH2 0x733 SWAP2 SWAP1 PUSH2 0x426F JUMP JUMPDEST PUSH1 0x40 MLOAD DUP1 SWAP2 SUB SWAP1 RETURN JUMPDEST CALLVALUE DUP1 ISZERO PUSH2 0x748 JUMPI PUSH1 0x0 DUP1 REVERT JUMPDEST POP PUSH2 0x763 PUSH1 0x4 DUP1 CALLDATASIZE SUB DUP2 ADD SWAP1 PUSH2 0x75E SWAP2 SWAP1 PUSH2 0x42BD JUMP JUMPDEST PUSH2 0x1C82 JUMP JUMPDEST STOP JUMPDEST CALLVALUE DUP1 ISZERO PUSH2 0x771 JUMPI PUSH1 0x0 DUP1 REVERT JUMPDEST POP PUSH2 0x77A PUSH2 0x1C98 JUMP JUMPDEST PUSH1 0x40 MLOAD PUSH2 0x787 SWAP2 SWAP1 PUSH2 0x3C40 JUMP JUMPDEST PUSH1 0x40 MLOAD DUP1 SWAP2 SUB SWAP1 RETURN JUMPDEST CALLVALUE DUP1 ISZERO PUSH2 0x79C JUMPI PUSH1 0x0 DUP1 REVERT JUMPDEST POP PUSH2 0x7B7 PUSH1 0x4 DUP1 CALLDATASIZE SUB DUP2 ADD SWAP1 PUSH2 0x7B2 SWAP2 SWAP1 PUSH2 0x393C JUMP JUMPDEST PUSH2 0x1CF7 JUMP JUMPDEST PUSH1 0x40 MLOAD PUSH2 0x7C4 SWAP2 SWAP1 PUSH2 0x3C40 JUMP JUMPDEST PUSH1 0x40 MLOAD DUP1 SWAP2 SUB SWAP1 RETURN JUMPDEST CALLVALUE DUP1 ISZERO PUSH2 0x7D9 JUMPI PUSH1 0x0 DUP1 REVERT JUMPDEST POP PUSH2 0x7F4 PUSH1 0x4 DUP1 CALLDATASIZE SUB DUP2 ADD SWAP1 PUSH2 0x7EF SWAP2 SWAP1 PUSH2 0x439E JUMP JUMPDEST PUSH2 0x1D6F JUMP JUMPDEST STOP JUMPDEST CALLVALUE DUP1 ISZERO PUSH2 0x802 JUMPI PUSH1 0x0 DUP1 REVERT JUMPDEST POP PUSH2 0x81D PUSH1 0x4 DUP1 CALLDATASIZE SUB DUP2 ADD SWAP1 PUSH2 0x818 SWAP2 SWAP1 PUSH2 0x393C JUMP JUMPDEST PUSH2 0x1D94 JUMP JUMPDEST PUSH1 0x40 MLOAD PUSH2 0x82A SWAP2 SWAP1 PUSH2 0x3AB4 JUMP JUMPDEST PUSH1 0x40 MLOAD DUP1 SWAP2 SUB SWAP1 RETURN JUMPDEST CALLVALUE DUP1 ISZERO PUSH2 0x83F JUMPI PUSH1 0x0 DUP1 REVERT JUMPDEST POP PUSH2 0x85A PUSH1 0x4 DUP1 CALLDATASIZE SUB DUP2 ADD SWAP1 PUSH2 0x855 SWAP2 SWAP1 PUSH2 0x393C JUMP JUMPDEST PUSH2 0x1DEE JUMP JUMPDEST PUSH1 0x40 MLOAD PUSH2 0x867 SWAP2 SWAP1 PUSH2 0x426F JUMP JUMPDEST PUSH1 0x40 MLOAD DUP1 SWAP2 SUB SWAP1 RETURN JUMPDEST CALLVALUE DUP1 ISZERO PUSH2 0x87C JUMPI PUSH1 0x0 DUP1 REVERT JUMPDEST POP PUSH2 0x885 PUSH2 0x1E59 JUMP JUMPDEST PUSH1 0x40 MLOAD PUSH2 0x892 SWAP2 SWAP1 PUSH2 0x4480 JUMP JUMPDEST PUSH1 0x40 MLOAD DUP1 SWAP2 SUB SWAP1 RETURN JUMPDEST CALLVALUE DUP1 ISZERO PUSH2 0x8A7 JUMPI PUSH1 0x0 DUP1 REVERT JUMPDEST POP PUSH2 0x8C2 PUSH1 0x4 DUP1 CALLDATASIZE SUB DUP2 ADD SWAP1 PUSH2 0x8BD SWAP2 SWAP1 PUSH2 0x393C JUMP JUMPDEST PUSH2 0x1E7F JUMP JUMPDEST PUSH1 0x40 MLOAD PUSH2 0x8CF SWAP2 SWAP1 PUSH2 0x3A09 JUMP JUMPDEST PUSH1 0x40 MLOAD DUP1 SWAP2 SUB SWAP1 RETURN JUMPDEST CALLVALUE DUP1 ISZERO PUSH2 0x8E4 JUMPI PUSH1 0x0 DUP1 REVERT JUMPDEST POP PUSH2 0x8FF PUSH1 0x4 DUP1 CALLDATASIZE SUB DUP2 ADD SWAP1 PUSH2 0x8FA SWAP2 SWAP1 PUSH2 0x393C JUMP JUMPDEST PUSH2 0x1E9F JUMP JUMPDEST PUSH1 0x40 MLOAD PUSH2 0x910 SWAP6 SWAP5 SWAP4 SWAP3 SWAP2 SWAP1 PUSH2 0x449B JUMP JUMPDEST PUSH1 0x40 MLOAD DUP1 SWAP2 SUB SWAP1 RETURN JUMPDEST CALLVALUE DUP1 ISZERO PUSH2 0x925 JUMPI PUSH1 0x0 DUP1 REVERT JUMPDEST POP PUSH2 0x940 PUSH1 0x4 DUP1 CALLDATASIZE SUB DUP2 ADD SWAP1 PUSH2 0x93B SWAP2 SWAP1 PUSH2 0x393C JUMP JUMPDEST PUSH2 0x1EF5 JUMP JUMPDEST PUSH1 0x40 MLOAD PUSH2 0x94D SWAP2 SWAP1 PUSH2 0x46D1 JUMP JUMPDEST PUSH1 0x40 MLOAD DUP1 SWAP2 SUB SWAP1 RETURN JUMPDEST CALLVALUE DUP1 ISZERO PUSH2 0x962 JUMPI PUSH1 0x0 DUP1 REVERT JUMPDEST POP PUSH2 0x97D PUSH1 0x4 DUP1 CALLDATASIZE SUB DUP2 ADD SWAP1 PUSH2 0x978 SWAP2 SWAP1 PUSH2 0x46F3 JUMP JUMPDEST PUSH2 0x20D1 JUMP JUMPDEST PUSH1 0x40 MLOAD PUSH2 0x98A SWAP2 SWAP1 PUSH2 0x3A09 JUMP JUMPDEST PUSH1 0x40 MLOAD DUP1 SWAP2 SUB SWAP1 RETURN JUMPDEST CALLVALUE DUP1 ISZERO PUSH2 0x99F JUMPI PUSH1 0x0 DUP1 REVERT JUMPDEST POP PUSH2 0x9BA PUSH1 0x4 DUP1 CALLDATASIZE SUB DUP2 ADD SWAP1 PUSH2 0x9B5 SWAP2 SWAP1 PUSH2 0x3BF1 JUMP JUMPDEST PUSH2 0x2165 JUMP JUMPDEST PUSH1 0x40 MLOAD PUSH2 0x9C7 SWAP2 SWAP1 PUSH2 0x3C40 JUMP JUMPDEST PUSH1 0x40 MLOAD DUP1 SWAP2 SUB SWAP1 RETURN JUMPDEST CALLVALUE DUP1 ISZERO PUSH2 0x9DC JUMPI PUSH1 0x0 DUP1 REVERT JUMPDEST POP PUSH2 0x9E5 PUSH2 0x2196 JUMP JUMPDEST PUSH1 0x40 MLOAD PUSH2 0x9F2 SWAP2 SWAP1 PUSH2 0x3C40 JUMP JUMPDEST PUSH1 0x40 MLOAD DUP1 SWAP2 SUB SWAP1 RETURN JUMPDEST CALLVALUE DUP1 ISZERO PUSH2 0xA07 JUMPI PUSH1 0x0 DUP1 REVERT JUMPDEST POP PUSH2 0xA22 PUSH1 0x4 DUP1 CALLDATASIZE SUB DUP2 ADD SWAP1 PUSH2 0xA1D SWAP2 SWAP1 PUSH2 0x414E JUMP JUMPDEST PUSH2 0x219C JUMP JUMPDEST STOP JUMPDEST PUSH1 0x0 PUSH1 0xF PUSH1 0x0 DUP4 DUP2 MSTORE PUSH1 0x20 ADD SWAP1 DUP2 MSTORE PUSH1 0x20 ADD PUSH1 0x0 KECCAK256 PUSH1 0x4 ADD SLOAD GT PUSH2 0xA7D JUMPI PUSH1 0x40 MLOAD PUSH32 0x8C379A000000000000000000000000000000000000000000000000000000000 DUP2 MSTORE PUSH1 0x4 ADD PUSH2 0xA74 SWAP1 PUSH2 0x477F JUMP JUMPDEST PUSH1 0x40 MLOAD DUP1 SWAP2 SUB SWAP1 REVERT JUMPDEST PUSH1 0x0 PUSH1 0xF PUSH1 0x0 DUP4 DUP2 MSTORE PUSH1 0x20 ADD SWAP1 DUP2 MSTORE PUSH1 0x20 ADD PUSH1 0x0 KECCAK256 PUSH1 0x5 ADD SLOAD SWAP1 POP PUSH1 0x0 PUSH1 0xF PUSH1 0x0 DUP4 DUP2 MSTORE PUSH1 0x20 ADD SWAP1 DUP2 MSTORE PUSH1 0x20 ADD PUSH1 0x0 KECCAK256 PUSH1 0x6 ADD SLOAD SWAP1 POP PUSH1 0x0 PUSH1 0xE PUSH1 0x0 DUP5 DUP2 MSTORE PUSH1 0x20 ADD SWAP1 DUP2 MSTORE PUSH1 0x20 ADD PUSH1 0x0 KECCAK256 SLOAD SWAP1 POP DUP1 DUP3 SUB PUSH2 0xB3C JUMPI CALLVALUE PUSH1 0xF PUSH1 0x0 DUP7 DUP2 MSTORE PUSH1 0x20 ADD SWAP1 DUP2 MSTORE PUSH1 0x20 ADD PUSH1 0x0 KECCAK256 PUSH1 0x2 ADD PUSH1 0x0 DUP3 DUP3 SLOAD PUSH2 0xAF8 SWAP2 SWAP1 PUSH2 0x47CE JUMP JUMPDEST SWAP3 POP POP DUP2 SWAP1 SSTORE POP DUP4 PUSH32 0x6FC8DD6002D67CB1AE354D87238C6A738C991370FE32D39154561323A81D2F96 CALLVALUE PUSH1 0x40 MLOAD PUSH2 0xB2F SWAP2 SWAP1 PUSH2 0x3C40 JUMP JUMPDEST PUSH1 0x40 MLOAD DUP1 SWAP2 SUB SWAP1 LOG2 PUSH2 0xB75 JUMP JUMPDEST DUP4 PUSH32 0x5ACD5E9FAD91EBF22D261B37A9D8099685F41CD5F8CA160CAAA5448C66DA7679 CALLVALUE PUSH1 0x40 MLOAD PUSH2 0xB6C SWAP2 SWAP1 PUSH2 0x3C40 JUMP JUMPDEST PUSH1 0x40 MLOAD DUP1 SWAP2 SUB SWAP1 LOG2 JUMPDEST PUSH1 0x0 PUSH8 0xDE0B6B3A7640000 PUSH1 0xB SLOAD PUSH2 0xB8D SWAP2 SWAP1 PUSH2 0x4802 JUMP JUMPDEST SWAP1 POP PUSH1 0x0 JUMPDEST DUP3 DUP2 LT ISZERO PUSH2 0xBD0 JUMPI PUSH8 0xDE0B6B3A7640000 PUSH1 0xB SLOAD PUSH2 0xBB0 SWAP2 SWAP1 PUSH2 0x4873 JUMP JUMPDEST DUP3 PUSH2 0xBBB SWAP2 SWAP1 PUSH2 0x4802 JUMP JUMPDEST SWAP2 POP DUP1 DUP1 PUSH2 0xBC8 SWAP1 PUSH2 0x48A4 JUMP JUMPDEST SWAP2 POP POP PUSH2 0xB92 JUMP JUMPDEST POP DUP1 PUSH1 0xF PUSH1 0x0 DUP8 DUP2 MSTORE PUSH1 0x20 ADD SWAP1 DUP2 MSTORE PUSH1 0x20 ADD PUSH1 0x0 KECCAK256 PUSH1 0x2 ADD SLOAD LT PUSH2 0xC66 JUMPI PUSH1 0xE PUSH1 0x0 DUP6 DUP2 MSTORE PUSH1 0x20 ADD SWAP1 DUP2 MSTORE PUSH1 0x20 ADD PUSH1 0x0 KECCAK256 PUSH1 0x0 DUP2 SLOAD DUP1 SWAP3 SWAP2 SWAP1 PUSH2 0xC12 SWAP1 PUSH2 0x48A4 JUMP JUMPDEST SWAP2 SWAP1 POP SSTORE POP PUSH32 0x55C20485919A463A87F20E5A0FDE1C7A307CE024D22A3D3A166EB0F693B11974 DUP5 DUP7 PUSH1 0xE PUSH1 0x0 DUP9 DUP2 MSTORE PUSH1 0x20 ADD SWAP1 DUP2 MSTORE PUSH1 0x20 ADD PUSH1 0x0 KECCAK256 SLOAD PUSH1 0x40 MLOAD PUSH2 0xC5D SWAP4 SWAP3 SWAP2 SWAP1 PUSH2 0x48EC JUMP JUMPDEST PUSH1 0x40 MLOAD DUP1 SWAP2 SUB SWAP1 LOG1 JUMPDEST CALLVALUE PUSH1 0x13 PUSH1 0x0 DUP7 DUP2 MSTORE PUSH1 0x20 ADD SWAP1 DUP2 MSTORE PUSH1 0x20 ADD PUSH1 0x0 KECCAK256 PUSH1 0x0 CALLER PUSH20 0xFFFFFFFFFFFFFFFFFFFFFFFFFFFFFFFFFFFFFFFF AND PUSH20 0xFFFFFFFFFFFFFFFFFFFFFFFFFFFFFFFFFFFFFFFF AND DUP2 MSTORE PUSH1 0x20 ADD SWAP1 DUP2 MSTORE PUSH1 0x20 ADD PUSH1 0x0 KECCAK256 PUSH1 0x0 DUP3 DUP3 SLOAD PUSH2 0xCC6 SWAP2 SWAP1 PUSH2 0x47CE JUMP JUMPDEST SWAP3 POP POP DUP2 SWAP1 SSTORE POP PUSH1 0x13 PUSH1 0x0 DUP6 DUP2 MSTORE PUSH1 0x20 ADD SWAP1 DUP2 MSTORE PUSH1 0x20 ADD PUSH1 0x0 KECCAK256 PUSH1 0x0 PUSH1 0x12 PUSH1 0x0 DUP8 DUP2 MSTORE PUSH1 0x20 ADD SWAP1 DUP2 MSTORE PUSH1 0x20 ADD PUSH1 0x0 KECCAK256 PUSH1 0x0 SWAP1 SLOAD SWAP1 PUSH2 0x100 EXP SWAP1 DIV PUSH20 0xFFFFFFFFFFFFFFFFFFFFFFFFFFFFFFFFFFFFFFFF AND PUSH20 0xFFFFFFFFFFFFFFFFFFFFFFFFFFFFFFFFFFFFFFFF AND PUSH20 0xFFFFFFFFFFFFFFFFFFFFFFFFFFFFFFFFFFFFFFFF AND DUP2 MSTORE PUSH1 0x20 ADD SWAP1 DUP2 MSTORE PUSH1 0x20 ADD PUSH1 0x0 KECCAK256 SLOAD PUSH1 0x13 PUSH1 0x0 DUP7 DUP2 MSTORE PUSH1 0x20 ADD SWAP1 DUP2 MSTORE PUSH1 0x20 ADD PUSH1 0x0 KECCAK256 PUSH1 0x0 CALLER PUSH20 0xFFFFFFFFFFFFFFFFFFFFFFFFFFFFFFFFFFFFFFFF AND PUSH20 0xFFFFFFFFFFFFFFFFFFFFFFFFFFFFFFFFFFFFFFFF AND DUP2 MSTORE PUSH1 0x20 ADD SWAP1 DUP2 MSTORE PUSH1 0x20 ADD PUSH1 0x0 KECCAK256 SLOAD GT ISZERO PUSH2 0xE71 JUMPI PUSH2 0xDE6 PUSH1 0x12 PUSH1 0x0 DUP7 DUP2 MSTORE PUSH1 0x20 ADD SWAP1 DUP2 MSTORE PUSH1 0x20 ADD PUSH1 0x0 KECCAK256 PUSH1 0x0 SWAP1 SLOAD SWAP1 PUSH2 0x100 EXP SWAP1 DIV PUSH20 0xFFFFFFFFFFFFFFFFFFFFFFFFFFFFFFFFFFFFFFFF AND CALLER DUP7 PUSH2 0x2222 JUMP JUMPDEST CALLER PUSH1 0x12 PUSH1 0x0 DUP7 DUP2 MSTORE PUSH1 0x20 ADD SWAP1 DUP2 MSTORE PUSH1 0x20 ADD PUSH1 0x0 KECCAK256 PUSH1 0x0 PUSH2 0x100 EXP DUP2 SLOAD DUP2 PUSH20 0xFFFFFFFFFFFFFFFFFFFFFFFFFFFFFFFFFFFFFFFF MUL NOT AND SWAP1 DUP4 PUSH20 0xFFFFFFFFFFFFFFFFFFFFFFFFFFFFFFFFFFFFFFFF AND MUL OR SWAP1 SSTORE POP DUP4 PUSH32 0x57E833CF85BC0124C4529BD7ACFBC9C0EC204DAB25A6265AC957D41FD6AE29E6 CALLER PUSH1 0x40 MLOAD PUSH2 0xE68 SWAP2 SWAP1 PUSH2 0x3B17 JUMP JUMPDEST PUSH1 0x40 MLOAD DUP1 SWAP2 SUB SWAP1 LOG2 JUMPDEST POP POP POP POP POP JUMP JUMPDEST PUSH1 0x0 PUSH4 0x49064906 PUSH1 0xE0 SHL PUSH28 0xFFFFFFFFFFFFFFFFFFFFFFFFFFFFFFFFFFFFFFFFFFFFFFFFFFFFFFFF NOT AND DUP3 PUSH28 0xFFFFFFFFFFFFFFFFFFFFFFFFFFFFFFFFFFFFFFFFFFFFFFFFFFFFFFFF NOT AND EQ DUP1 PUSH2 0xED2 JUMPI POP PUSH2 0xED1 DUP3 PUSH2 0x238F JUMP JUMPDEST JUMPDEST SWAP1 POP SWAP2 SWAP1 POP JUMP JUMPDEST PUSH1 0x60 PUSH1 0x0 DUP1 SLOAD PUSH2 0xEE8 SWAP1 PUSH2 0x4952 JUMP JUMPDEST DUP1 PUSH1 0x1F ADD PUSH1 0x20 DUP1 SWAP2 DIV MUL PUSH1 0x20 ADD PUSH1 0x40 MLOAD SWAP1 DUP2 ADD PUSH1 0x40 MSTORE DUP1 SWAP3 SWAP2 SWAP1 DUP2 DUP2 MSTORE PUSH1 0x20 ADD DUP3 DUP1 SLOAD PUSH2 0xF14 SWAP1 PUSH2 0x4952 JUMP JUMPDEST DUP1 ISZERO PUSH2 0xF61 JUMPI DUP1 PUSH1 0x1F LT PUSH2 0xF36 JUMPI PUSH2 0x100 DUP1 DUP4 SLOAD DIV MUL DUP4 MSTORE SWAP2 PUSH1 0x20 ADD SWAP2 PUSH2 0xF61 JUMP JUMPDEST DUP3 ADD SWAP2 SWAP1 PUSH1 0x0 MSTORE PUSH1 0x20 PUSH1 0x0 KECCAK256 SWAP1 JUMPDEST DUP2 SLOAD DUP2 MSTORE SWAP1 PUSH1 0x1 ADD SWAP1 PUSH1 0x20 ADD DUP1 DUP4 GT PUSH2 0xF44 JUMPI DUP3 SWAP1 SUB PUSH1 0x1F AND DUP3 ADD SWAP2 JUMPDEST POP POP POP POP POP SWAP1 POP SWAP1 JUMP JUMPDEST PUSH1 0x0 PUSH2 0xF76 DUP3 PUSH2 0x2471 JUMP JUMPDEST POP PUSH2 0xF80 DUP3 PUSH2 0x24F9 JUMP JUMPDEST SWAP1 POP SWAP2 SWAP1 POP JUMP JUMPDEST PUSH2 0xF99 DUP3 DUP3 PUSH2 0xF94 PUSH2 0x2536 JUMP JUMPDEST PUSH2 0x253E JUMP JUMPDEST POP POP JUMP JUMPDEST PUSH1 0x0 PUSH20 0xFFFFFFFFFFFFFFFFFFFFFFFFFFFFFFFFFFFFFFFF AND DUP3 PUSH20 0xFFFFFFFFFFFFFFFFFFFFFFFFFFFFFFFFFFFFFFFF AND SUB PUSH2 0x100F JUMPI PUSH1 0x0 PUSH1 0x40 MLOAD PUSH32 0x64A0AE9200000000000000000000000000000000000000000000000000000000 DUP2 MSTORE PUSH1 0x4 ADD PUSH2 0x1006 SWAP2 SWAP1 PUSH2 0x3B17 JUMP JUMPDEST PUSH1 0x40 MLOAD DUP1 SWAP2 SUB SWAP1 REVERT JUMPDEST PUSH1 0x0 PUSH2 0x1023 DUP4 DUP4 PUSH2 0x101E PUSH2 0x2536 JUMP JUMPDEST PUSH2 0x2550 JUMP JUMPDEST SWAP1 POP DUP4 PUSH20 0xFFFFFFFFFFFFFFFFFFFFFFFFFFFFFFFFFFFFFFFF AND DUP2 PUSH20 0xFFFFFFFFFFFFFFFFFFFFFFFFFFFFFFFFFFFFFFFF AND EQ PUSH2 0x1099 JUMPI DUP4 DUP3 DUP3 PUSH1 0x40 MLOAD PUSH32 0x64283D7B00000000000000000000000000000000000000000000000000000000 DUP2 MSTORE PUSH1 0x4 ADD PUSH2 0x1090 SWAP4 SWAP3 SWAP2 SWAP1 PUSH2 0x4983 JUMP JUMPDEST PUSH1 0x40 MLOAD DUP1 SWAP2 SUB SWAP1 REVERT JUMPDEST POP POP POP POP JUMP JUMPDEST PUSH2 0x10A7 PUSH2 0x25D4 JUMP JUMPDEST DUP2 PUSH1 0xA DUP2 SWAP1 SSTORE POP DUP1 PUSH1 0xB DUP2 SWAP1 SSTORE POP PUSH32 0x19AD72ACD40A59CAD104F97C7897CC5675E52FE1E2679088C4BFFFD96A9D58A7 DUP3 DUP3 PUSH1 0x40 MLOAD PUSH2 0x10E6 SWAP3 SWAP2 SWAP1 PUSH2 0x49BA JUMP JUMPDEST PUSH1 0x40 MLOAD DUP1 SWAP2 SUB SWAP1 LOG1 POP POP JUMP JUMPDEST PUSH1 0x12 PUSH1 0x20 MSTORE DUP1 PUSH1 0x0 MSTORE PUSH1 0x40 PUSH1 0x0 KECCAK256 PUSH1 0x0 SWAP2 POP SLOAD SWAP1 PUSH2 0x100 EXP SWAP1 DIV PUSH20 0xFFFFFFFFFFFFFFFFFFFFFFFFFFFFFFFFFFFFFFFF AND DUP2 JUMP JUMPDEST PUSH1 0x0 PUSH1 0xE PUSH1 0x0 DUP4 DUP2 MSTORE PUSH1 0x20 ADD SWAP1 DUP2 MSTORE PUSH1 0x20 ADD PUSH1 0x0 KECCAK256 SLOAD SWAP1 POP SWAP2 SWAP1 POP JUMP JUMPDEST PUSH2 0x114A PUSH2 0x25D4 JUMP JUMPDEST PUSH2 0x1152 PUSH2 0x1B5B JUMP JUMPDEST PUSH20 0xFFFFFFFFFFFFFFFFFFFFFFFFFFFFFFFFFFFFFFFF AND PUSH2 0x8FC SELFBALANCE SWAP1 DUP2 ISZERO MUL SWAP1 PUSH1 0x40 MLOAD PUSH1 0x0 PUSH1 0x40 MLOAD DUP1 DUP4 SUB DUP2 DUP6 DUP9 DUP9 CALL SWAP4 POP POP POP POP ISZERO DUP1 ISZERO PUSH2 0x1197 JUMPI RETURNDATASIZE PUSH1 0x0 DUP1 RETURNDATACOPY RETURNDATASIZE PUSH1 0x0 REVERT JUMPDEST POP JUMP JUMPDEST PUSH1 0x13 PUSH1 0x20 MSTORE DUP2 PUSH1 0x0 MSTORE PUSH1 0x40 PUSH1 0x0 KECCAK256 PUSH1 0x20 MSTORE DUP1 PUSH1 0x0 MSTORE PUSH1 0x40 PUSH1 0x0 KECCAK256 PUSH1 0x0 SWAP2 POP SWAP2 POP POP SLOAD DUP2 JUMP JUMPDEST PUSH2 0x11DA DUP4 DUP4 DUP4 PUSH1 0x40 MLOAD DUP1 PUSH1 0x20 ADD PUSH1 0x40 MSTORE DUP1 PUSH1 0x0 DUP2 MSTORE POP PUSH2 0x1D6F JUMP JUMPDEST POP POP POP JUMP JUMPDEST PUSH1 0x0 DUP4 MLOAD GT PUSH2 0x1223 JUMPI PUSH1 0x40 MLOAD PUSH32 0x8C379A000000000000000000000000000000000000000000000000000000000 DUP2 MSTORE PUSH1 0x4 ADD PUSH2 0x121A SWAP1 PUSH2 0x4A2F JUMP JUMPDEST PUSH1 0x40 MLOAD DUP1 SWAP2 SUB SWAP1 REVERT JUMPDEST PUSH1 0x0 PUSH1 0x10 PUSH1 0x0 DUP4 DUP2 MSTORE PUSH1 0x20 ADD SWAP1 DUP2 MSTORE PUSH1 0x20 ADD PUSH1 0x0 KECCAK256 PUSH1 0x2 ADD SLOAD GT PUSH2 0x127C JUMPI PUSH1 0x40 MLOAD PUSH32 0x8C379A000000000000000000000000000000000000000000000000000000000 DUP2 MSTORE PUSH1 0x4 ADD PUSH2 0x1273 SWAP1 PUSH2 0x4A9B JUMP JUMPDEST PUSH1 0x40 MLOAD DUP1 SWAP2 SUB SWAP1 REVERT JUMPDEST PUSH1 0x0 JUMPDEST DUP3 MLOAD DUP2 LT ISZERO PUSH2 0x1390 JUMPI PUSH1 0x9 PUSH1 0x0 SWAP1 SLOAD SWAP1 PUSH2 0x100 EXP SWAP1 DIV PUSH20 0xFFFFFFFFFFFFFFFFFFFFFFFFFFFFFFFFFFFFFFFF AND PUSH20 0xFFFFFFFFFFFFFFFFFFFFFFFFFFFFFFFFFFFFFFFF AND PUSH4 0xEB59745 DUP5 DUP4 DUP2 MLOAD DUP2 LT PUSH2 0x12D9 JUMPI PUSH2 0x12D8 PUSH2 0x4ABB JUMP JUMPDEST JUMPDEST PUSH1 0x20 MUL PUSH1 0x20 ADD ADD MLOAD PUSH1 0x40 MLOAD DUP3 PUSH4 0xFFFFFFFF AND PUSH1 0xE0 SHL DUP2 MSTORE PUSH1 0x4 ADD PUSH2 0x12FD SWAP2 SWAP1 PUSH2 0x3C40 JUMP JUMPDEST PUSH1 0x20 PUSH1 0x40 MLOAD DUP1 DUP4 SUB DUP2 DUP7 GAS STATICCALL ISZERO DUP1 ISZERO PUSH2 0x131A JUMPI RETURNDATASIZE PUSH1 0x0 DUP1 RETURNDATACOPY RETURNDATASIZE PUSH1 0x0 REVERT JUMPDEST POP POP POP POP PUSH1 0x40 MLOAD RETURNDATASIZE PUSH1 0x1F NOT PUSH1 0x1F DUP3 ADD AND DUP3 ADD DUP1 PUSH1 0x40 MSTORE POP DUP2 ADD SWAP1 PUSH2 0x133E SWAP2 SWAP1 PUSH2 0x4AFF JUMP JUMPDEST PUSH2 0x137D JUMPI PUSH1 0x40 MLOAD PUSH32 0x8C379A000000000000000000000000000000000000000000000000000000000 DUP2 MSTORE PUSH1 0x4 ADD PUSH2 0x1374 SWAP1 PUSH2 0x4B78 JUMP JUMPDEST PUSH1 0x40 MLOAD DUP1 SWAP2 SUB SWAP1 REVERT JUMPDEST DUP1 DUP1 PUSH2 0x1388 SWAP1 PUSH2 0x48A4 JUMP JUMPDEST SWAP2 POP POP PUSH2 0x127F JUMP JUMPDEST POP PUSH1 0x0 PUSH1 0xE PUSH1 0x0 DUP4 DUP2 MSTORE PUSH1 0x20 ADD SWAP1 DUP2 MSTORE PUSH1 0x20 ADD PUSH1 0x0 KECCAK256 SLOAD SWAP1 POP PUSH1 0x14 PUSH1 0x0 DUP2 SLOAD DUP1 SWAP3 SWAP2 SWAP1 PUSH2 0x13BC SWAP1 PUSH2 0x48A4 JUMP JUMPDEST SWAP2 SWAP1 POP SSTORE POP PUSH1 0x0 PUSH1 0x14 SLOAD SWAP1 POP PUSH1 0x40 MLOAD DUP1 PUSH1 0xE0 ADD PUSH1 0x40 MSTORE DUP1 DUP7 DUP2 MSTORE PUSH1 0x20 ADD DUP6 DUP2 MSTORE PUSH1 0x20 ADD PUSH1 0x0 DUP2 MSTORE PUSH1 0x20 ADD CALLER PUSH20 0xFFFFFFFFFFFFFFFFFFFFFFFFFFFFFFFFFFFFFFFF AND DUP2 MSTORE PUSH1 0x20 ADD TIMESTAMP DUP2 MSTORE PUSH1 0x20 ADD DUP5 DUP2 MSTORE PUSH1 0x20 ADD DUP4 DUP2 MSTORE POP PUSH1 0xF PUSH1 0x0 DUP4 DUP2 MSTORE PUSH1 0x20 ADD SWAP1 DUP2 MSTORE PUSH1 0x20 ADD PUSH1 0x0 KECCAK256 PUSH1 0x0 DUP3 ADD MLOAD DUP2 PUSH1 0x0 ADD SWAP1 DUP1 MLOAD SWAP1 PUSH1 0x20 ADD SWAP1 PUSH2 0x1441 SWAP3 SWAP2 SWAP1 PUSH2 0x3757 JUMP JUMPDEST POP PUSH1 0x20 DUP3 ADD MLOAD DUP2 PUSH1 0x1 ADD SWAP1 DUP1 MLOAD SWAP1 PUSH1 0x20 ADD SWAP1 PUSH2 0x145E SWAP3 SWAP2 SWAP1 PUSH2 0x37B0 JUMP JUMPDEST POP PUSH1 0x40 DUP3 ADD MLOAD DUP2 PUSH1 0x2 ADD SSTORE PUSH1 0x60 DUP3 ADD MLOAD DUP2 PUSH1 0x3 ADD PUSH1 0x0 PUSH2 0x100 EXP DUP2 SLOAD DUP2 PUSH20 0xFFFFFFFFFFFFFFFFFFFFFFFFFFFFFFFFFFFFFFFF MUL NOT AND SWAP1 DUP4 PUSH20 0xFFFFFFFFFFFFFFFFFFFFFFFFFFFFFFFFFFFFFFFF AND MUL OR SWAP1 SSTORE POP PUSH1 0x80 DUP3 ADD MLOAD DUP2 PUSH1 0x4 ADD SSTORE PUSH1 0xA0 DUP3 ADD MLOAD DUP2 PUSH1 0x5 ADD SSTORE PUSH1 0xC0 DUP3 ADD MLOAD DUP2 PUSH1 0x6 ADD SSTORE SWAP1 POP POP PUSH1 0xD PUSH1 0x0 DUP4 DUP2 MSTORE PUSH1 0x20 ADD SWAP1 DUP2 MSTORE PUSH1 0x20 ADD PUSH1 0x0 KECCAK256 DUP2 SWAP1 DUP1 PUSH1 0x1 DUP2 SLOAD ADD DUP1 DUP3 SSTORE DUP1 SWAP2 POP POP PUSH1 0x1 SWAP1 SUB SWAP1 PUSH1 0x0 MSTORE PUSH1 0x20 PUSH1 0x0 KECCAK256 ADD PUSH1 0x0 SWAP1 SWAP2 SWAP1 SWAP2 SWAP1 SWAP2 POP SSTORE PUSH1 0x11 PUSH1 0x0 DUP5 DUP2 MSTORE PUSH1 0x20 ADD SWAP1 DUP2 MSTORE PUSH1 0x20 ADD PUSH1 0x0 KECCAK256 DUP2 SWAP1 DUP1 PUSH1 0x1 DUP2 SLOAD ADD DUP1 DUP3 SSTORE DUP1 SWAP2 POP POP PUSH1 0x1 SWAP1 SUB SWAP1 PUSH1 0x0 MSTORE PUSH1 0x20 PUSH1 0x0 KECCAK256 ADD PUSH1 0x0 SWAP1 SWAP2 SWAP1 SWAP2 SWAP1 SWAP2 POP SSTORE DUP1 PUSH32 0x2CFE2DC7CDC89B899EF0F4AB22907E75644491AF3A2BA898B5B4DAF6D5F393CF DUP4 CALLER DUP7 PUSH1 0x40 MLOAD PUSH2 0x1579 SWAP4 SWAP3 SWAP2 SWAP1 PUSH2 0x4B98 JUMP JUMPDEST PUSH1 0x40 MLOAD DUP1 SWAP2 SUB SWAP1 LOG2 POP POP POP POP POP JUMP JUMPDEST PUSH2 0x1590 PUSH2 0x37FD JUMP JUMPDEST PUSH1 0x10 PUSH1 0x0 DUP4 DUP2 MSTORE PUSH1 0x20 ADD SWAP1 DUP2 MSTORE PUSH1 0x20 ADD PUSH1 0x0 KECCAK256 PUSH1 0x40 MLOAD DUP1 PUSH1 0x60 ADD PUSH1 0x40 MSTORE SWAP1 DUP2 PUSH1 0x0 DUP3 ADD DUP1 SLOAD PUSH2 0x15BE SWAP1 PUSH2 0x4952 JUMP JUMPDEST DUP1 PUSH1 0x1F ADD PUSH1 0x20 DUP1 SWAP2 DIV MUL PUSH1 0x20 ADD PUSH1 0x40 MLOAD SWAP1 DUP2 ADD PUSH1 0x40 MSTORE DUP1 SWAP3 SWAP2 SWAP1 DUP2 DUP2 MSTORE PUSH1 0x20 ADD DUP3 DUP1 SLOAD PUSH2 0x15EA SWAP1 PUSH2 0x4952 JUMP JUMPDEST DUP1 ISZERO PUSH2 0x1637 JUMPI DUP1 PUSH1 0x1F LT PUSH2 0x160C JUMPI PUSH2 0x100 DUP1 DUP4 SLOAD DIV MUL DUP4 MSTORE SWAP2 PUSH1 0x20 ADD SWAP2 PUSH2 0x1637 JUMP JUMPDEST DUP3 ADD SWAP2 SWAP1 PUSH1 0x0 MSTORE PUSH1 0x20 PUSH1 0x0 KECCAK256 SWAP1 JUMPDEST DUP2 SLOAD DUP2 MSTORE SWAP1 PUSH1 0x1 ADD SWAP1 PUSH1 0x20 ADD DUP1 DUP4 GT PUSH2 0x161A JUMPI DUP3 SWAP1 SUB PUSH1 0x1F AND DUP3 ADD SWAP2 JUMPDEST POP POP POP POP POP DUP2 MSTORE PUSH1 0x20 ADD PUSH1 0x1 DUP3 ADD DUP1 SLOAD PUSH2 0x1650 SWAP1 PUSH2 0x4952 JUMP JUMPDEST DUP1 PUSH1 0x1F ADD PUSH1 0x20 DUP1 SWAP2 DIV MUL PUSH1 0x20 ADD PUSH1 0x40 MLOAD SWAP1 DUP2 ADD PUSH1 0x40 MSTORE DUP1 SWAP3 SWAP2 SWAP1 DUP2 DUP2 MSTORE PUSH1 0x20 ADD DUP3 DUP1 SLOAD PUSH2 0x167C SWAP1 PUSH2 0x4952 JUMP JUMPDEST DUP1 ISZERO PUSH2 0x16C9 JUMPI DUP1 PUSH1 0x1F LT PUSH2 0x169E JUMPI PUSH2 0x100 DUP1 DUP4 SLOAD DIV MUL DUP4 MSTORE SWAP2 PUSH1 0x20 ADD SWAP2 PUSH2 0x16C9 JUMP JUMPDEST DUP3 ADD SWAP2 SWAP1 PUSH1 0x0 MSTORE PUSH1 0x20 PUSH1 0x0 KECCAK256 SWAP1 JUMPDEST DUP2 SLOAD DUP2 MSTORE SWAP1 PUSH1 0x1 ADD SWAP1 PUSH1 0x20 ADD DUP1 DUP4 GT PUSH2 0x16AC JUMPI DUP3 SWAP1 SUB PUSH1 0x1F AND DUP3 ADD SWAP2 JUMPDEST POP POP POP POP POP DUP2 MSTORE PUSH1 0x20 ADD PUSH1 0x2 DUP3 ADD SLOAD DUP2 MSTORE POP POP SWAP1 POP SWAP2 SWAP1 POP JUMP JUMPDEST PUSH1 0x0 PUSH2 0x16ED PUSH2 0x1C98 JUMP JUMPDEST CALLVALUE LT ISZERO PUSH2 0x172F JUMPI PUSH1 0x40 MLOAD PUSH32 0x8C379A000000000000000000000000000000000000000000000000000000000 DUP2 MSTORE PUSH1 0x4 ADD PUSH2 0x1726 SWAP1 PUSH2 0x4C41 JUMP JUMPDEST PUSH1 0x40 MLOAD DUP1 SWAP2 SUB SWAP1 REVERT JUMPDEST PUSH1 0x0 DUP4 MLOAD GT PUSH2 0x1773 JUMPI PUSH1 0x40 MLOAD PUSH32 0x8C379A000000000000000000000000000000000000000000000000000000000 DUP2 MSTORE PUSH1 0x4 ADD PUSH2 0x176A SWAP1 PUSH2 0x4CAD JUMP JUMPDEST PUSH1 0x40 MLOAD DUP1 SWAP2 SUB SWAP1 REVERT JUMPDEST PUSH1 0x0 DUP3 MLOAD GT PUSH2 0x17B7 JUMPI PUSH1 0x40 MLOAD PUSH32 0x8C379A000000000000000000000000000000000000000000000000000000000 DUP2 MSTORE PUSH1 0x4 ADD PUSH2 0x17AE SWAP1 PUSH2 0x4D19 JUMP JUMPDEST PUSH1 0x40 MLOAD DUP1 SWAP2 SUB SWAP1 REVERT JUMPDEST PUSH1 0x15 PUSH1 0x0 DUP2 SLOAD DUP1 SWAP3 SWAP2 SWAP1 PUSH2 0x17CA SWAP1 PUSH2 0x48A4 JUMP JUMPDEST SWAP2 SWAP1 POP SSTORE POP PUSH1 0x0 PUSH1 0x15 SLOAD SWAP1 POP PUSH1 0xC PUSH1 0x0 DUP2 SLOAD DUP1 SWAP3 SWAP2 SWAP1 PUSH2 0x17E9 SWAP1 PUSH2 0x48A4 JUMP JUMPDEST SWAP2 SWAP1 POP SSTORE POP PUSH1 0x40 MLOAD DUP1 PUSH1 0x60 ADD PUSH1 0x40 MSTORE DUP1 DUP6 DUP2 MSTORE PUSH1 0x20 ADD DUP5 DUP2 MSTORE PUSH1 0x20 ADD TIMESTAMP DUP2 MSTORE POP PUSH1 0x10 PUSH1 0x0 DUP4 DUP2 MSTORE PUSH1 0x20 ADD SWAP1 DUP2 MSTORE PUSH1 0x20 ADD PUSH1 0x0 KECCAK256 PUSH1 0x0 DUP3 ADD MLOAD DUP2 PUSH1 0x0 ADD SWAP1 DUP2 PUSH2 0x1831 SWAP2 SWAP1 PUSH2 0x4EDB JUMP JUMPDEST POP PUSH1 0x20 DUP3 ADD MLOAD DUP2 PUSH1 0x1 ADD SWAP1 DUP2 PUSH2 0x1847 SWAP2 SWAP1 PUSH2 0x4EDB JUMP JUMPDEST POP PUSH1 0x40 DUP3 ADD MLOAD DUP2 PUSH1 0x2 ADD SSTORE SWAP1 POP POP PUSH1 0x0 DUP5 DUP5 PUSH2 0x1862 TIMESTAMP PUSH2 0x265B JUMP JUMPDEST PUSH1 0x40 MLOAD PUSH1 0x20 ADD PUSH2 0x1874 SWAP4 SWAP3 SWAP2 SWAP1 PUSH2 0x5295 JUMP JUMPDEST PUSH1 0x40 MLOAD PUSH1 0x20 DUP2 DUP4 SUB SUB DUP2 MSTORE SWAP1 PUSH1 0x40 MSTORE SWAP1 POP PUSH1 0x0 PUSH2 0x1890 DUP3 PUSH2 0x2729 JUMP JUMPDEST SWAP1 POP PUSH2 0x189C ADDRESS DUP5 PUSH2 0x2756 JUMP JUMPDEST PUSH2 0x18A6 DUP4 DUP3 PUSH2 0x284F JUMP JUMPDEST DUP3 PUSH32 0x19CDBC7A3FEEC82D7C3FB925D35745FE6D58185B77CF39856951BC6A1C4FEDE8 DUP8 DUP8 PUSH1 0x40 MLOAD PUSH2 0x18D8 SWAP3 SWAP2 SWAP1 PUSH2 0x5329 JUMP JUMPDEST PUSH1 0x40 MLOAD DUP1 SWAP2 SUB SWAP1 LOG2 DUP3 SWAP4 POP POP POP POP SWAP3 SWAP2 POP POP JUMP JUMPDEST PUSH1 0x11 PUSH1 0x20 MSTORE DUP2 PUSH1 0x0 MSTORE PUSH1 0x40 PUSH1 0x0 KECCAK256 DUP2 DUP2 SLOAD DUP2 LT PUSH2 0x1908 JUMPI PUSH1 0x0 DUP1 REVERT JUMPDEST SWAP1 PUSH1 0x0 MSTORE PUSH1 0x20 PUSH1 0x0 KECCAK256 ADD PUSH1 0x0 SWAP2 POP SWAP2 POP POP SLOAD DUP2 JUMP JUMPDEST PUSH1 0xE PUSH1 0x20 MSTORE DUP1 PUSH1 0x0 MSTORE PUSH1 0x40 PUSH1 0x0 KECCAK256 PUSH1 0x0 SWAP2 POP SWAP1 POP SLOAD DUP2 JUMP JUMPDEST PUSH1 0x0 PUSH2 0x1940 DUP3 PUSH2 0x2471 JUMP JUMPDEST SWAP1 POP SWAP2 SWAP1 POP JUMP JUMPDEST PUSH1 0xC SLOAD DUP2 JUMP JUMPDEST PUSH1 0x0 DUP1 PUSH20 0xFFFFFFFFFFFFFFFFFFFFFFFFFFFFFFFFFFFFFFFF AND DUP3 PUSH20 0xFFFFFFFFFFFFFFFFFFFFFFFFFFFFFFFFFFFFFFFF AND SUB PUSH2 0x19C0 JUMPI PUSH1 0x0 PUSH1 0x40 MLOAD PUSH32 0x89C62B6400000000000000000000000000000000000000000000000000000000 DUP2 MSTORE PUSH1 0x4 ADD PUSH2 0x19B7 SWAP2 SWAP1 PUSH2 0x3B17 JUMP JUMPDEST PUSH1 0x40 MLOAD DUP1 SWAP2 SUB SWAP1 REVERT JUMPDEST PUSH1 0x3 PUSH1 0x0 DUP4 PUSH20 0xFFFFFFFFFFFFFFFFFFFFFFFFFFFFFFFFFFFFFFFF AND PUSH20 0xFFFFFFFFFFFFFFFFFFFFFFFFFFFFFFFFFFFFFFFF AND DUP2 MSTORE PUSH1 0x20 ADD SWAP1 DUP2 MSTORE PUSH1 0x20 ADD PUSH1 0x0 KECCAK256 SLOAD SWAP1 POP SWAP2 SWAP1 POP JUMP JUMPDEST PUSH2 0x1A0F PUSH2 0x25D4 JUMP JUMPDEST PUSH2 0x1A19 PUSH1 0x0 PUSH2 0x28AB JUMP JUMPDEST JUMP JUMPDEST PUSH1 0x10 PUSH1 0x20 MSTORE DUP1 PUSH1 0x0 MSTORE PUSH1 0x40 PUSH1 0x0 KECCAK256 PUSH1 0x0 SWAP2 POP SWAP1 POP DUP1 PUSH1 0x0 ADD DUP1 SLOAD PUSH2 0x1A3E SWAP1 PUSH2 0x4952 JUMP JUMPDEST DUP1 PUSH1 0x1F ADD PUSH1 0x20 DUP1 SWAP2 DIV MUL PUSH1 0x20 ADD PUSH1 0x40 MLOAD SWAP1 DUP2 ADD PUSH1 0x40 MSTORE DUP1 SWAP3 SWAP2 SWAP1 DUP2 DUP2 MSTORE PUSH1 0x20 ADD DUP3 DUP1 SLOAD PUSH2 0x1A6A SWAP1 PUSH2 0x4952 JUMP JUMPDEST DUP1 ISZERO PUSH2 0x1AB7 JUMPI DUP1 PUSH1 0x1F LT PUSH2 0x1A8C JUMPI PUSH2 0x100 DUP1 DUP4 SLOAD DIV MUL DUP4 MSTORE SWAP2 PUSH1 0x20 ADD SWAP2 PUSH2 0x1AB7 JUMP JUMPDEST DUP3 ADD SWAP2 SWAP1 PUSH1 0x0 MSTORE PUSH1 0x20 PUSH1 0x0 KECCAK256 SWAP1 JUMPDEST DUP2 SLOAD DUP2 MSTORE SWAP1 PUSH1 0x1 ADD SWAP1 PUSH1 0x20 ADD DUP1 DUP4 GT PUSH2 0x1A9A JUMPI DUP3 SWAP1 SUB PUSH1 0x1F AND DUP3 ADD SWAP2 JUMPDEST POP POP POP POP POP SWAP1 DUP1 PUSH1 0x1 ADD DUP1 SLOAD PUSH2 0x1ACC SWAP1 PUSH2 0x4952 JUMP JUMPDEST DUP1 PUSH1 0x1F ADD PUSH1 0x20 DUP1 SWAP2 DIV MUL PUSH1 0x20 ADD PUSH1 0x40 MLOAD SWAP1 DUP2 ADD PUSH1 0x40 MSTORE DUP1 SWAP3 SWAP2 SWAP1 DUP2 DUP2 MSTORE PUSH1 0x20 ADD DUP3 DUP1 SLOAD PUSH2 0x1AF8 SWAP1 PUSH2 0x4952 JUMP JUMPDEST DUP1 ISZERO PUSH2 0x1B45 JUMPI DUP1 PUSH1 0x1F LT PUSH2 0x1B1A JUMPI PUSH2 0x100 DUP1 DUP4 SLOAD DIV MUL DUP4 MSTORE SWAP2 PUSH1 0x20 ADD SWAP2 PUSH2 0x1B45 JUMP JUMPDEST DUP3 ADD SWAP2 SWAP1 PUSH1 0x0 MSTORE PUSH1 0x20 PUSH1 0x0 KECCAK256 SWAP1 JUMPDEST DUP2 SLOAD DUP2 MSTORE SWAP1 PUSH1 0x1 ADD SWAP1 PUSH1 0x20 ADD DUP1 DUP4 GT PUSH2 0x1B28 JUMPI DUP3 SWAP1 SUB PUSH1 0x1F AND DUP3 ADD SWAP2 JUMPDEST POP POP POP POP POP SWAP1 DUP1 PUSH1 0x2 ADD SLOAD SWAP1 POP DUP4 JUMP JUMPDEST PUSH1 0xB SLOAD DUP2 JUMP JUMPDEST PUSH1 0x0 PUSH1 0x7 PUSH1 0x0 SWAP1 SLOAD SWAP1 PUSH2 0x100 EXP SWAP1 DIV PUSH20 0xFFFFFFFFFFFFFFFFFFFFFFFFFFFFFFFFFFFFFFFF AND SWAP1 POP SWAP1 JUMP JUMPDEST PUSH1 0x60 PUSH1 0x1 DUP1 SLOAD PUSH2 0x1B94 SWAP1 PUSH2 0x4952 JUMP JUMPDEST DUP1 PUSH1 0x1F ADD PUSH1 0x20 DUP1 SWAP2 DIV MUL PUSH1 0x20 ADD PUSH1 0x40 MLOAD SWAP1 DUP2 ADD PUSH1 0x40 MSTORE DUP1 SWAP3 SWAP2 SWAP1 DUP2 DUP2 MSTORE PUSH1 0x20 ADD DUP3 DUP1 SLOAD PUSH2 0x1BC0 SWAP1 PUSH2 0x4952 JUMP JUMPDEST DUP1 ISZERO PUSH2 0x1C0D JUMPI DUP1 PUSH1 0x1F LT PUSH2 0x1BE2 JUMPI PUSH2 0x100 DUP1 DUP4 SLOAD DIV MUL DUP4 MSTORE SWAP2 PUSH1 0x20 ADD SWAP2 PUSH2 0x1C0D JUMP JUMPDEST DUP3 ADD SWAP2 SWAP1 PUSH1 0x0 MSTORE PUSH1 0x20 PUSH1 0x0 KECCAK256 SWAP1 JUMPDEST DUP2 SLOAD DUP2 MSTORE SWAP1 PUSH1 0x1 ADD SWAP1 PUSH1 0x20 ADD DUP1 DUP4 GT PUSH2 0x1BF0 JUMPI DUP3 SWAP1 SUB PUSH1 0x1F AND DUP3 ADD SWAP2 JUMPDEST POP POP POP POP POP SWAP1 POP SWAP1 JUMP JUMPDEST PUSH1 0x60 PUSH1 0x11 PUSH1 0x0 DUP4 DUP2 MSTORE PUSH1 0x20 ADD SWAP1 DUP2 MSTORE PUSH1 0x20 ADD PUSH1 0x0 KECCAK256 DUP1 SLOAD DUP1 PUSH1 0x20 MUL PUSH1 0x20 ADD PUSH1 0x40 MLOAD SWAP1 DUP2 ADD PUSH1 0x40 MSTORE DUP1 SWAP3 SWAP2 SWAP1 DUP2 DUP2 MSTORE PUSH1 0x20 ADD DUP3 DUP1 SLOAD DUP1 ISZERO PUSH2 0x1C76 JUMPI PUSH1 0x20 MUL DUP3 ADD SWAP2 SWAP1 PUSH1 0x0 MSTORE PUSH1 0x20 PUSH1 0x0 KECCAK256 SWAP1 JUMPDEST DUP2 SLOAD DUP2 MSTORE PUSH1 0x20 ADD SWAP1 PUSH1 0x1 ADD SWAP1 DUP1 DUP4 GT PUSH2 0x1C62 JUMPI JUMPDEST POP POP POP POP POP SWAP1 POP SWAP2 SWAP1 POP JUMP JUMPDEST PUSH2 0x1C94 PUSH2 0x1C8D PUSH2 0x2536 JUMP JUMPDEST DUP4 DUP4 PUSH2 0x2971 JUMP JUMPDEST POP POP JUMP JUMPDEST PUSH1 0x0 DUP1 PUSH8 0xF43FC2C04EE0000 SWAP1 POP PUSH1 0x0 PUSH1 0xA SLOAD SWAP1 POP PUSH1 0x0 JUMPDEST PUSH1 0xC SLOAD DUP2 LT ISZERO PUSH2 0x1CEE JUMPI PUSH8 0xDE0B6B3A7640000 DUP4 DUP4 PUSH2 0x1CCF SWAP2 SWAP1 PUSH2 0x4802 JUMP JUMPDEST PUSH2 0x1CD9 SWAP2 SWAP1 PUSH2 0x4873 JUMP JUMPDEST SWAP2 POP DUP1 DUP1 PUSH2 0x1CE6 SWAP1 PUSH2 0x48A4 JUMP JUMPDEST SWAP2 POP POP PUSH2 0x1CB0 JUMP JUMPDEST POP DUP1 SWAP3 POP POP POP SWAP1 JUMP JUMPDEST PUSH1 0x0 DUP1 PUSH1 0xF PUSH1 0x0 DUP5 DUP2 MSTORE PUSH1 0x20 ADD SWAP1 DUP2 MSTORE PUSH1 0x20 ADD PUSH1 0x0 KECCAK256 PUSH1 0x4 ADD SLOAD GT PUSH2 0x1D51 JUMPI PUSH1 0x40 MLOAD PUSH32 0x8C379A000000000000000000000000000000000000000000000000000000000 DUP2 MSTORE PUSH1 0x4 ADD PUSH2 0x1D48 SWAP1 PUSH2 0x477F JUMP JUMPDEST PUSH1 0x40 MLOAD DUP1 SWAP2 SUB SWAP1 REVERT JUMPDEST PUSH1 0xF PUSH1 0x0 DUP4 DUP2 MSTORE PUSH1 0x20 ADD SWAP1 DUP2 MSTORE PUSH1 0x20 ADD PUSH1 0x0 KECCAK256 PUSH1 0x2 ADD SLOAD SWAP1 POP SWAP2 SWAP1 POP JUMP JUMPDEST PUSH2 0x1D7A DUP5 DUP5 DUP5 PUSH2 0xF9D JUMP JUMPDEST PUSH2 0x1D8E PUSH2 0x1D85 PUSH2 0x2536 JUMP JUMPDEST DUP6 DUP6 DUP6 DUP6 PUSH2 0x2AE0 JUMP JUMPDEST POP POP POP POP JUMP JUMPDEST PUSH1 0x60 PUSH2 0x1D9F DUP3 PUSH2 0x2C91 JUMP JUMPDEST PUSH2 0x1DDE JUMPI PUSH1 0x40 MLOAD PUSH32 0x8C379A000000000000000000000000000000000000000000000000000000000 DUP2 MSTORE PUSH1 0x4 ADD PUSH2 0x1DD5 SWAP1 PUSH2 0x53D2 JUMP JUMPDEST PUSH1 0x40 MLOAD DUP1 SWAP2 SUB SWAP1 REVERT JUMPDEST PUSH2 0x1DE7 DUP3 PUSH2 0x2CD2 JUMP JUMPDEST SWAP1 POP SWAP2 SWAP1 POP JUMP JUMPDEST PUSH1 0x60 PUSH1 0xD PUSH1 0x0 DUP4 DUP2 MSTORE PUSH1 0x20 ADD SWAP1 DUP2 MSTORE PUSH1 0x20 ADD PUSH1 0x0 KECCAK256 DUP1 SLOAD DUP1 PUSH1 0x20 MUL PUSH1 0x20 ADD PUSH1 0x40 MLOAD SWAP1 DUP2 ADD PUSH1 0x40 MSTORE DUP1 SWAP3 SWAP2 SWAP1 DUP2 DUP2 MSTORE PUSH1 0x20 ADD DUP3 DUP1 SLOAD DUP1 ISZERO PUSH2 0x1E4D JUMPI PUSH1 0x20 MUL DUP3 ADD SWAP2 SWAP1 PUSH1 0x0 MSTORE PUSH1 0x20 PUSH1 0x0 KECCAK256 SWAP1 JUMPDEST DUP2 SLOAD DUP2 MSTORE PUSH1 0x20 ADD SWAP1 PUSH1 0x1 ADD SWAP1 DUP1 DUP4 GT PUSH2 0x1E39 JUMPI JUMPDEST POP POP POP POP POP SWAP1 POP SWAP2 SWAP1 POP JUMP JUMPDEST PUSH1 0x9 PUSH1 0x0 SWAP1 SLOAD SWAP1 PUSH2 0x100 EXP SWAP1 DIV PUSH20 0xFFFFFFFFFFFFFFFFFFFFFFFFFFFFFFFFFFFFFFFF AND DUP2 JUMP JUMPDEST PUSH1 0x17 PUSH1 0x20 MSTORE DUP1 PUSH1 0x0 MSTORE PUSH1 0x40 PUSH1 0x0 KECCAK256 PUSH1 0x0 SWAP2 POP SLOAD SWAP1 PUSH2 0x100 EXP SWAP1 DIV PUSH1 0xFF AND DUP2 JUMP JUMPDEST PUSH1 0xF PUSH1 0x20 MSTORE DUP1 PUSH1 0x0 MSTORE PUSH1 0x40 PUSH1 0x0 KECCAK256 PUSH1 0x0 SWAP2 POP SWAP1 POP DUP1 PUSH1 0x2 ADD SLOAD SWAP1 DUP1 PUSH1 0x3 ADD PUSH1 0x0 SWAP1 SLOAD SWAP1 PUSH2 0x100 EXP SWAP1 DIV PUSH20 0xFFFFFFFFFFFFFFFFFFFFFFFFFFFFFFFFFFFFFFFF AND SWAP1 DUP1 PUSH1 0x4 ADD SLOAD SWAP1 DUP1 PUSH1 0x5 ADD SLOAD SWAP1 DUP1 PUSH1 0x6 ADD SLOAD SWAP1 POP DUP6 JUMP JUMPDEST PUSH2 0x1EFD PUSH2 0x381E JUMP JUMPDEST PUSH1 0xF PUSH1 0x0 DUP4 DUP2 MSTORE PUSH1 0x20 ADD SWAP1 DUP2 MSTORE PUSH1 0x20 ADD PUSH1 0x0 KECCAK256 PUSH1 0x40 MLOAD DUP1 PUSH1 0xE0 ADD PUSH1 0x40 MSTORE SWAP1 DUP2 PUSH1 0x0 DUP3 ADD DUP1 SLOAD DUP1 PUSH1 0x20 MUL PUSH1 0x20 ADD PUSH1 0x40 MLOAD SWAP1 DUP2 ADD PUSH1 0x40 MSTORE DUP1 SWAP3 SWAP2 SWAP1 DUP2 DUP2 MSTORE PUSH1 0x20 ADD PUSH1 0x0 SWAP1 JUMPDEST DUP3 DUP3 LT ISZERO PUSH2 0x1FEC JUMPI DUP4 DUP3 SWAP1 PUSH1 0x0 MSTORE PUSH1 0x20 PUSH1 0x0 KECCAK256 ADD DUP1 SLOAD PUSH2 0x1F5F SWAP1 PUSH2 0x4952 JUMP JUMPDEST DUP1 PUSH1 0x1F ADD PUSH1 0x20 DUP1 SWAP2 DIV MUL PUSH1 0x20 ADD PUSH1 0x40 MLOAD SWAP1 DUP2 ADD PUSH1 0x40 MSTORE DUP1 SWAP3 SWAP2 SWAP1 DUP2 DUP2 MSTORE PUSH1 0x20 ADD DUP3 DUP1 SLOAD PUSH2 0x1F8B SWAP1 PUSH2 0x4952 JUMP JUMPDEST DUP1 ISZERO PUSH2 0x1FD8 JUMPI DUP1 PUSH1 0x1F LT PUSH2 0x1FAD JUMPI PUSH2 0x100 DUP1 DUP4 SLOAD DIV MUL DUP4 MSTORE SWAP2 PUSH1 0x20 ADD SWAP2 PUSH2 0x1FD8 JUMP JUMPDEST DUP3 ADD SWAP2 SWAP1 PUSH1 0x0 MSTORE PUSH1 0x20 PUSH1 0x0 KECCAK256 SWAP1 JUMPDEST DUP2 SLOAD DUP2 MSTORE SWAP1 PUSH1 0x1 ADD SWAP1 PUSH1 0x20 ADD DUP1 DUP4 GT PUSH2 0x1FBB JUMPI DUP3 SWAP1 SUB PUSH1 0x1F AND DUP3 ADD SWAP2 JUMPDEST POP POP POP POP POP DUP2 MSTORE PUSH1 0x20 ADD SWAP1 PUSH1 0x1 ADD SWAP1 PUSH2 0x1F40 JUMP JUMPDEST POP POP POP POP DUP2 MSTORE PUSH1 0x20 ADD PUSH1 0x1 DUP3 ADD DUP1 SLOAD DUP1 PUSH1 0x20 MUL PUSH1 0x20 ADD PUSH1 0x40 MLOAD SWAP1 DUP2 ADD PUSH1 0x40 MSTORE DUP1 SWAP3 SWAP2 SWAP1 DUP2 DUP2 MSTORE PUSH1 0x20 ADD DUP3 DUP1 SLOAD DUP1 ISZERO PUSH2 0x2043 JUMPI PUSH1 0x20 MUL DUP3 ADD SWAP2 SWAP1 PUSH1 0x0 MSTORE PUSH1 0x20 PUSH1 0x0 KECCAK256 SWAP1 JUMPDEST DUP2 SLOAD DUP2 MSTORE PUSH1 0x20 ADD SWAP1 PUSH1 0x1 ADD SWAP1 DUP1 DUP4 GT PUSH2 0x202F JUMPI JUMPDEST POP POP POP POP POP DUP2 MSTORE PUSH1 0x20 ADD PUSH1 0x2 DUP3 ADD SLOAD DUP2 MSTORE PUSH1 0x20 ADD PUSH1 0x3 DUP3 ADD PUSH1 0x0 SWAP1 SLOAD SWAP1 PUSH2 0x100 EXP SWAP1 DIV PUSH20 0xFFFFFFFFFFFFFFFFFFFFFFFFFFFFFFFFFFFFFFFF AND PUSH20 0xFFFFFFFFFFFFFFFFFFFFFFFFFFFFFFFFFFFFFFFF AND PUSH20 0xFFFFFFFFFFFFFFFFFFFFFFFFFFFFFFFFFFFFFFFF AND DUP2 MSTORE PUSH1 0x20 ADD PUSH1 0x4 DUP3 ADD SLOAD DUP2 MSTORE PUSH1 0x20 ADD PUSH1 0x5 DUP3 ADD SLOAD DUP2 MSTORE PUSH1 0x20 ADD PUSH1 0x6 DUP3 ADD SLOAD DUP2 MSTORE POP POP SWAP1 POP SWAP2 SWAP1 POP JUMP JUMPDEST PUSH1 0x0 PUSH1 0x5 PUSH1 0x0 DUP5 PUSH20 0xFFFFFFFFFFFFFFFFFFFFFFFFFFFFFFFFFFFFFFFF AND PUSH20 0xFFFFFFFFFFFFFFFFFFFFFFFFFFFFFFFFFFFFFFFF AND DUP2 MSTORE PUSH1 0x20 ADD SWAP1 DUP2 MSTORE PUSH1 0x20 ADD PUSH1 0x0 KECCAK256 PUSH1 0x0 DUP4 PUSH20 0xFFFFFFFFFFFFFFFFFFFFFFFFFFFFFFFFFFFFFFFF AND PUSH20 0xFFFFFFFFFFFFFFFFFFFFFFFFFFFFFFFFFFFFFFFF AND DUP2 MSTORE PUSH1 0x20 ADD SWAP1 DUP2 MSTORE PUSH1 0x20 ADD PUSH1 0x0 KECCAK256 PUSH1 0x0 SWAP1 SLOAD SWAP1 PUSH2 0x100 EXP SWAP1 DIV PUSH1 0xFF AND SWAP1 POP SWAP3 SWAP2 POP POP JUMP JUMPDEST PUSH1 0xD PUSH1 0x20 MSTORE DUP2 PUSH1 0x0 MSTORE PUSH1 0x40 PUSH1 0x0 KECCAK256 DUP2 DUP2 SLOAD DUP2 LT PUSH2 0x2181 JUMPI PUSH1 0x0 DUP1 REVERT JUMPDEST SWAP1 PUSH1 0x0 MSTORE PUSH1 0x20 PUSH1 0x0 KECCAK256 ADD PUSH1 0x0 SWAP2 POP SWAP2 POP POP SLOAD DUP2 JUMP JUMPDEST PUSH1 0xA SLOAD DUP2 JUMP JUMPDEST PUSH2 0x21A4 PUSH2 0x25D4 JUMP JUMPDEST PUSH1 0x0 PUSH20 0xFFFFFFFFFFFFFFFFFFFFFFFFFFFFFFFFFFFFFFFF AND DUP2 PUSH20 0xFFFFFFFFFFFFFFFFFFFFFFFFFFFFFFFFFFFFFFFF AND SUB PUSH2 0x2216 JUMPI PUSH1 0x0 PUSH1 0x40 MLOAD PUSH32 0x1E4FBDF700000000000000000000000000000000000000000000000000000000 DUP2 MSTORE PUSH1 0x4 ADD PUSH2 0x220D SWAP2 SWAP1 PUSH2 0x3B17 JUMP JUMPDEST PUSH1 0x40 MLOAD DUP1 SWAP2 SUB SWAP1 REVERT JUMPDEST PUSH2 0x221F DUP2 PUSH2 0x28AB JUMP JUMPDEST POP JUMP JUMPDEST PUSH1 0x0 PUSH20 0xFFFFFFFFFFFFFFFFFFFFFFFFFFFFFFFFFFFFFFFF AND DUP3 PUSH20 0xFFFFFFFFFFFFFFFFFFFFFFFFFFFFFFFFFFFFFFFF AND SUB PUSH2 0x2294 JUMPI PUSH1 0x0 PUSH1 0x40 MLOAD PUSH32 0x64A0AE9200000000000000000000000000000000000000000000000000000000 DUP2 MSTORE PUSH1 0x4 ADD PUSH2 0x228B SWAP2 SWAP1 PUSH2 0x3B17 JUMP JUMPDEST PUSH1 0x40 MLOAD DUP1 SWAP2 SUB SWAP1 REVERT JUMPDEST PUSH1 0x0 PUSH2 0x22A2 DUP4 DUP4 PUSH1 0x0 PUSH2 0x2550 JUMP JUMPDEST SWAP1 POP PUSH1 0x0 PUSH20 0xFFFFFFFFFFFFFFFFFFFFFFFFFFFFFFFFFFFFFFFF AND DUP2 PUSH20 0xFFFFFFFFFFFFFFFFFFFFFFFFFFFFFFFFFFFFFFFF AND SUB PUSH2 0x2315 JUMPI DUP2 PUSH1 0x40 MLOAD PUSH32 0x7E27328900000000000000000000000000000000000000000000000000000000 DUP2 MSTORE PUSH1 0x4 ADD PUSH2 0x230C SWAP2 SWAP1 PUSH2 0x3C40 JUMP JUMPDEST PUSH1 0x40 MLOAD DUP1 SWAP2 SUB SWAP1 REVERT JUMPDEST DUP4 PUSH20 0xFFFFFFFFFFFFFFFFFFFFFFFFFFFFFFFFFFFFFFFF AND DUP2 PUSH20 0xFFFFFFFFFFFFFFFFFFFFFFFFFFFFFFFFFFFFFFFF AND EQ PUSH2 0x2389 JUMPI DUP4 DUP3 DUP3 PUSH1 0x40 MLOAD PUSH32 0x64283D7B00000000000000000000000000000000000000000000000000000000 DUP2 MSTORE PUSH1 0x4 ADD PUSH2 0x2380 SWAP4 SWAP3 SWAP2 SWAP1 PUSH2 0x4983 JUMP JUMPDEST PUSH1 0x40 MLOAD DUP1 SWAP2 SUB SWAP1 REVERT JUMPDEST POP POP POP POP JUMP JUMPDEST PUSH1 0x0 PUSH32 0x80AC58CD00000000000000000000000000000000000000000000000000000000 PUSH28 0xFFFFFFFFFFFFFFFFFFFFFFFFFFFFFFFFFFFFFFFFFFFFFFFFFFFFFFFF NOT AND DUP3 PUSH28 0xFFFFFFFFFFFFFFFFFFFFFFFFFFFFFFFFFFFFFFFFFFFFFFFFFFFFFFFF NOT AND EQ DUP1 PUSH2 0x245A JUMPI POP PUSH32 0x5B5E139F00000000000000000000000000000000000000000000000000000000 PUSH28 0xFFFFFFFFFFFFFFFFFFFFFFFFFFFFFFFFFFFFFFFFFFFFFFFFFFFFFFFF NOT AND DUP3 PUSH28 0xFFFFFFFFFFFFFFFFFFFFFFFFFFFFFFFFFFFFFFFFFFFFFFFFFFFFFFFF NOT AND EQ JUMPDEST DUP1 PUSH2 0x246A JUMPI POP PUSH2 0x2469 DUP3 PUSH2 0x2DE5 JUMP JUMPDEST JUMPDEST SWAP1 POP SWAP2 SWAP1 POP JUMP JUMPDEST PUSH1 0x0 DUP1 PUSH2 0x247D DUP4 PUSH2 0x2E4F JUMP JUMPDEST SWAP1 POP PUSH1 0x0 PUSH20 0xFFFFFFFFFFFFFFFFFFFFFFFFFFFFFFFFFFFFFFFF AND DUP2 PUSH20 0xFFFFFFFFFFFFFFFFFFFFFFFFFFFFFFFFFFFFFFFF AND SUB PUSH2 0x24F0 JUMPI DUP3 PUSH1 0x40 MLOAD PUSH32 0x7E27328900000000000000000000000000000000000000000000000000000000 DUP2 MSTORE PUSH1 0x4 ADD PUSH2 0x24E7 SWAP2 SWAP1 PUSH2 0x3C40 JUMP JUMPDEST PUSH1 0x40 MLOAD DUP1 SWAP2 SUB SWAP1 REVERT JUMPDEST DUP1 SWAP2 POP POP SWAP2 SWAP1 POP JUMP JUMPDEST PUSH1 0x0 PUSH1 0x4 PUSH1 0x0 DUP4 DUP2 MSTORE PUSH1 0x20 ADD SWAP1 DUP2 MSTORE PUSH1 0x20 ADD PUSH1 0x0 KECCAK256 PUSH1 0x0 SWAP1 SLOAD SWAP1 PUSH2 0x100 EXP SWAP1 DIV PUSH20 0xFFFFFFFFFFFFFFFFFFFFFFFFFFFFFFFFFFFFFFFF AND SWAP1 POP SWAP2 SWAP1 POP JUMP JUMPDEST PUSH1 0x0 CALLER SWAP1 POP SWAP1 JUMP JUMPDEST PUSH2 0x254B DUP4 DUP4 DUP4 PUSH1 0x1 PUSH2 0x2E8C JUMP JUMPDEST POP POP POP JUMP JUMPDEST PUSH1 0x0 DUP1 PUSH20 0xFFFFFFFFFFFFFFFFFFFFFFFFFFFFFFFFFFFFFFFF AND DUP5 PUSH20 0xFFFFFFFFFFFFFFFFFFFFFFFFFFFFFFFFFFFFFFFF AND SUB PUSH2 0x25C0 JUMPI PUSH1 0x40 MLOAD PUSH32 0x8C379A000000000000000000000000000000000000000000000000000000000 DUP2 MSTORE PUSH1 0x4 ADD PUSH2 0x25B7 SWAP1 PUSH2 0x543E JUMP JUMPDEST PUSH1 0x40 MLOAD DUP1 SWAP2 SUB SWAP1 REVERT JUMPDEST PUSH2 0x25CB DUP5 DUP5 DUP5 PUSH2 0x3051 JUMP JUMPDEST SWAP1 POP SWAP4 SWAP3 POP POP POP JUMP JUMPDEST PUSH2 0x25DC PUSH2 0x2536 JUMP JUMPDEST PUSH20 0xFFFFFFFFFFFFFFFFFFFFFFFFFFFFFFFFFFFFFFFF AND PUSH2 0x25FA PUSH2 0x1B5B JUMP JUMPDEST PUSH20 0xFFFFFFFFFFFFFFFFFFFFFFFFFFFFFFFFFFFFFFFF AND EQ PUSH2 0x2659 JUMPI PUSH2 0x261D PUSH2 0x2536 JUMP JUMPDEST PUSH1 0x40 MLOAD PUSH32 0x118CDAA700000000000000000000000000000000000000000000000000000000 DUP2 MSTORE PUSH1 0x4 ADD PUSH2 0x2650 SWAP2 SWAP1 PUSH2 0x3B17 JUMP JUMPDEST PUSH1 0x40 MLOAD DUP1 SWAP2 SUB SWAP1 REVERT JUMPDEST JUMP JUMPDEST PUSH1 0x60 PUSH1 0x0 PUSH1 0x1 PUSH2 0x266A DUP5 PUSH2 0x326B JUMP JUMPDEST ADD SWAP1 POP PUSH1 0x0 DUP2 PUSH8 0xFFFFFFFFFFFFFFFF DUP2 GT ISZERO PUSH2 0x2689 JUMPI PUSH2 0x2688 PUSH2 0x3CA0 JUMP JUMPDEST JUMPDEST PUSH1 0x40 MLOAD SWAP1 DUP1 DUP3 MSTORE DUP1 PUSH1 0x1F ADD PUSH1 0x1F NOT AND PUSH1 0x20 ADD DUP3 ADD PUSH1 0x40 MSTORE DUP1 ISZERO PUSH2 0x26BB JUMPI DUP2 PUSH1 0x20 ADD PUSH1 0x1 DUP3 MUL DUP1 CALLDATASIZE DUP4 CALLDATACOPY DUP1 DUP3 ADD SWAP2 POP POP SWAP1 POP JUMPDEST POP SWAP1 POP PUSH1 0x0 DUP3 PUSH1 0x20 ADD DUP3 ADD SWAP1 POP JUMPDEST PUSH1 0x1 ISZERO PUSH2 0x271E JUMPI DUP1 DUP1 PUSH1 0x1 SWAP1 SUB SWAP2 POP POP PUSH32 0x3031323334353637383961626364656600000000000000000000000000000000 PUSH1 0xA DUP7 MOD BYTE DUP2 MSTORE8 PUSH1 0xA DUP6 DUP2 PUSH2 0x2712 JUMPI PUSH2 0x2711 PUSH2 0x4844 JUMP JUMPDEST JUMPDEST DIV SWAP5 POP PUSH1 0x0 DUP6 SUB PUSH2 0x26C9 JUMPI JUMPDEST DUP2 SWAP4 POP POP POP POP SWAP2 SWAP1 POP JUMP JUMPDEST PUSH1 0x60 PUSH2 0x274F DUP3 PUSH1 0x40 MLOAD DUP1 PUSH1 0x60 ADD PUSH1 0x40 MSTORE DUP1 PUSH1 0x40 DUP2 MSTORE PUSH1 0x20 ADD PUSH2 0x558F PUSH1 0x40 SWAP2 CODECOPY PUSH1 0x1 PUSH2 0x33BE JUMP JUMPDEST SWAP1 POP SWAP2 SWAP1 POP JUMP JUMPDEST PUSH1 0x0 PUSH20 0xFFFFFFFFFFFFFFFFFFFFFFFFFFFFFFFFFFFFFFFF AND DUP3 PUSH20 0xFFFFFFFFFFFFFFFFFFFFFFFFFFFFFFFFFFFFFFFF AND SUB PUSH2 0x27C8 JUMPI PUSH1 0x0 PUSH1 0x40 MLOAD PUSH32 0x64A0AE9200000000000000000000000000000000000000000000000000000000 DUP2 MSTORE PUSH1 0x4 ADD PUSH2 0x27BF SWAP2 SWAP1 PUSH2 0x3B17 JUMP JUMPDEST PUSH1 0x40 MLOAD DUP1 SWAP2 SUB SWAP1 REVERT JUMPDEST PUSH1 0x0 PUSH2 0x27D6 DUP4 DUP4 PUSH1 0x0 PUSH2 0x2550 JUMP JUMPDEST SWAP1 POP PUSH1 0x0 PUSH20 0xFFFFFFFFFFFFFFFFFFFFFFFFFFFFFFFFFFFFFFFF AND DUP2 PUSH20 0xFFFFFFFFFFFFFFFFFFFFFFFFFFFFFFFFFFFFFFFF AND EQ PUSH2 0x284A JUMPI PUSH1 0x0 PUSH1 0x40 MLOAD PUSH32 0x73C6AC6E00000000000000000000000000000000000000000000000000000000 DUP2 MSTORE PUSH1 0x4 ADD PUSH2 0x2841 SWAP2 SWAP1 PUSH2 0x3B17 JUMP JUMPDEST PUSH1 0x40 MLOAD DUP1 SWAP2 SUB SWAP1 REVERT JUMPDEST POP POP POP JUMP JUMPDEST DUP1 PUSH1 0x6 PUSH1 0x0 DUP5 DUP2 MSTORE PUSH1 0x20 ADD SWAP1 DUP2 MSTORE PUSH1 0x20 ADD PUSH1 0x0 KECCAK256 SWAP1 DUP2 PUSH2 0x286F SWAP2 SWAP1 PUSH2 0x4EDB JUMP JUMPDEST POP PUSH32 0xF8E1A15ABA9398E019F0B49DF1A4FDE98EE17AE345CB5F6B5E2C27F5033E8CE7 DUP3 PUSH1 0x40 MLOAD PUSH2 0x289F SWAP2 SWAP1 PUSH2 0x3C40 JUMP JUMPDEST PUSH1 0x40 MLOAD DUP1 SWAP2 SUB SWAP1 LOG1 POP POP JUMP JUMPDEST PUSH1 0x0 PUSH1 0x7 PUSH1 0x0 SWAP1 SLOAD SWAP1 PUSH2 0x100 EXP SWAP1 DIV PUSH20 0xFFFFFFFFFFFFFFFFFFFFFFFFFFFFFFFFFFFFFFFF AND SWAP1 POP DUP2 PUSH1 0x7 PUSH1 0x0 PUSH2 0x100 EXP DUP2 SLOAD DUP2 PUSH20 0xFFFFFFFFFFFFFFFFFFFFFFFFFFFFFFFFFFFFFFFF MUL NOT AND SWAP1 DUP4 PUSH20 0xFFFFFFFFFFFFFFFFFFFFFFFFFFFFFFFFFFFFFFFF AND MUL OR SWAP1 SSTORE POP DUP2 PUSH20 0xFFFFFFFFFFFFFFFFFFFFFFFFFFFFFFFFFFFFFFFF AND DUP2 PUSH20 0xFFFFFFFFFFFFFFFFFFFFFFFFFFFFFFFFFFFFFFFF AND PUSH32 0x8BE0079C531659141344CD1FD0A4F28419497F9722A3DAAFE3B4186F6B6457E0 PUSH1 0x40 MLOAD PUSH1 0x40 MLOAD DUP1 SWAP2 SUB SWAP1 LOG3 POP POP JUMP JUMPDEST PUSH1 0x0 PUSH20 0xFFFFFFFFFFFFFFFFFFFFFFFFFFFFFFFFFFFFFFFF AND DUP3 PUSH20 0xFFFFFFFFFFFFFFFFFFFFFFFFFFFFFFFFFFFFFFFF AND SUB PUSH2 0x29E2 JUMPI DUP2 PUSH1 0x40 MLOAD PUSH32 0x5B08BA1800000000000000000000000000000000000000000000000000000000 DUP2 MSTORE PUSH1 0x4 ADD PUSH2 0x29D9 SWAP2 SWAP1 PUSH2 0x3B17 JUMP JUMPDEST PUSH1 0x40 MLOAD DUP1 SWAP2 SUB SWAP1 REVERT JUMPDEST DUP1 PUSH1 0x5 PUSH1 0x0 DUP6 PUSH20 0xFFFFFFFFFFFFFFFFFFFFFFFFFFFFFFFFFFFFFFFF AND PUSH20 0xFFFFFFFFFFFFFFFFFFFFFFFFFFFFFFFFFFFFFFFF AND DUP2 MSTORE PUSH1 0x20 ADD SWAP1 DUP2 MSTORE PUSH1 0x20 ADD PUSH1 0x0 KECCAK256 PUSH1 0x0 DUP5 PUSH20 0xFFFFFFFFFFFFFFFFFFFFFFFFFFFFFFFFFFFFFFFF AND PUSH20 0xFFFFFFFFFFFFFFFFFFFFFFFFFFFFFFFFFFFFFFFF AND DUP2 MSTORE PUSH1 0x20 ADD SWAP1 DUP2 MSTORE PUSH1 0x20 ADD PUSH1 0x0 KECCAK256 PUSH1 0x0 PUSH2 0x100 EXP DUP2 SLOAD DUP2 PUSH1 0xFF MUL NOT AND SWAP1 DUP4 ISZERO ISZERO MUL OR SWAP1 SSTORE POP DUP2 PUSH20 0xFFFFFFFFFFFFFFFFFFFFFFFFFFFFFFFFFFFFFFFF AND DUP4 PUSH20 0xFFFFFFFFFFFFFFFFFFFFFFFFFFFFFFFFFFFFFFFF AND PUSH32 0x17307EAB39AB6107E8899845AD3D59BD9653F200F220920489CA2B5937696C31 DUP4 PUSH1 0x40 MLOAD PUSH2 0x2AD3 SWAP2 SWAP1 PUSH2 0x3A09 JUMP JUMPDEST PUSH1 0x40 MLOAD DUP1 SWAP2 SUB SWAP1 LOG3 POP POP POP JUMP JUMPDEST PUSH1 0x0 DUP4 PUSH20 0xFFFFFFFFFFFFFFFFFFFFFFFFFFFFFFFFFFFFFFFF AND EXTCODESIZE GT ISZERO PUSH2 0x2C8A JUMPI DUP3 PUSH20 0xFFFFFFFFFFFFFFFFFFFFFFFFFFFFFFFFFFFFFFFF AND PUSH4 0x150B7A02 DUP7 DUP7 DUP6 DUP6 PUSH1 0x40 MLOAD DUP6 PUSH4 0xFFFFFFFF AND PUSH1 0xE0 SHL DUP2 MSTORE PUSH1 0x4 ADD PUSH2 0x2B3F SWAP5 SWAP4 SWAP3 SWAP2 SWAP1 PUSH2 0x54B3 JUMP JUMPDEST PUSH1 0x20 PUSH1 0x40 MLOAD DUP1 DUP4 SUB DUP2 PUSH1 0x0 DUP8 GAS CALL SWAP3 POP POP POP DUP1 ISZERO PUSH2 0x2B7B JUMPI POP PUSH1 0x40 MLOAD RETURNDATASIZE PUSH1 0x1F NOT PUSH1 0x1F DUP3 ADD AND DUP3 ADD DUP1 PUSH1 0x40 MSTORE POP DUP2 ADD SWAP1 PUSH2 0x2B78 SWAP2 SWAP1 PUSH2 0x5514 JUMP JUMPDEST PUSH1 0x1 JUMPDEST PUSH2 0x2BFF JUMPI RETURNDATASIZE DUP1 PUSH1 0x0 DUP2 EQ PUSH2 0x2BAB JUMPI PUSH1 0x40 MLOAD SWAP2 POP PUSH1 0x1F NOT PUSH1 0x3F RETURNDATASIZE ADD AND DUP3 ADD PUSH1 0x40 MSTORE RETURNDATASIZE DUP3 MSTORE RETURNDATASIZE PUSH1 0x0 PUSH1 0x20 DUP5 ADD RETURNDATACOPY PUSH2 0x2BB0 JUMP JUMPDEST PUSH1 0x60 SWAP2 POP JUMPDEST POP PUSH1 0x0 DUP2 MLOAD SUB PUSH2 0x2BF7 JUMPI DUP4 PUSH1 0x40 MLOAD PUSH32 0x64A0AE9200000000000000000000000000000000000000000000000000000000 DUP2 MSTORE PUSH1 0x4 ADD PUSH2 0x2BEE SWAP2 SWAP1 PUSH2 0x3B17 JUMP JUMPDEST PUSH1 0x40 MLOAD DUP1 SWAP2 SUB SWAP1 REVERT JUMPDEST DUP1 MLOAD DUP2 PUSH1 0x20 ADD REVERT JUMPDEST PUSH4 0x150B7A02 PUSH1 0xE0 SHL PUSH28 0xFFFFFFFFFFFFFFFFFFFFFFFFFFFFFFFFFFFFFFFFFFFFFFFFFFFFFFFF NOT AND DUP2 PUSH28 0xFFFFFFFFFFFFFFFFFFFFFFFFFFFFFFFFFFFFFFFFFFFFFFFFFFFFFFFF NOT AND EQ PUSH2 0x2C88 JUMPI DUP4 PUSH1 0x40 MLOAD PUSH32 0x64A0AE9200000000000000000000000000000000000000000000000000000000 DUP2 MSTORE PUSH1 0x4 ADD PUSH2 0x2C7F SWAP2 SWAP1 PUSH2 0x3B17 JUMP JUMPDEST PUSH1 0x40 MLOAD DUP1 SWAP2 SUB SWAP1 REVERT JUMPDEST POP JUMPDEST POP POP POP POP POP JUMP JUMPDEST PUSH1 0x0 DUP1 PUSH20 0xFFFFFFFFFFFFFFFFFFFFFFFFFFFFFFFFFFFFFFFF AND PUSH2 0x2CB3 DUP4 PUSH2 0x2E4F JUMP JUMPDEST PUSH20 0xFFFFFFFFFFFFFFFFFFFFFFFFFFFFFFFFFFFFFFFF AND EQ ISZERO SWAP1 POP SWAP2 SWAP1 POP JUMP JUMPDEST PUSH1 0x60 PUSH2 0x2CDD DUP3 PUSH2 0x2471 JUMP JUMPDEST POP PUSH1 0x0 PUSH1 0x6 PUSH1 0x0 DUP5 DUP2 MSTORE PUSH1 0x20 ADD SWAP1 DUP2 MSTORE PUSH1 0x20 ADD PUSH1 0x0 KECCAK256 DUP1 SLOAD PUSH2 0x2CFE SWAP1 PUSH2 0x4952 JUMP JUMPDEST DUP1 PUSH1 0x1F ADD PUSH1 0x20 DUP1 SWAP2 DIV MUL PUSH1 0x20 ADD PUSH1 0x40 MLOAD SWAP1 DUP2 ADD PUSH1 0x40 MSTORE DUP1 SWAP3 SWAP2 SWAP1 DUP2 DUP2 MSTORE PUSH1 0x20 ADD DUP3 DUP1 SLOAD PUSH2 0x2D2A SWAP1 PUSH2 0x4952 JUMP JUMPDEST DUP1 ISZERO PUSH2 0x2D77 JUMPI DUP1 PUSH1 0x1F LT PUSH2 0x2D4C JUMPI PUSH2 0x100 DUP1 DUP4 SLOAD DIV MUL DUP4 MSTORE SWAP2 PUSH1 0x20 ADD SWAP2 PUSH2 0x2D77 JUMP JUMPDEST DUP3 ADD SWAP2 SWAP1 PUSH1 0x0 MSTORE PUSH1 0x20 PUSH1 0x0 KECCAK256 SWAP1 JUMPDEST DUP2 SLOAD DUP2 MSTORE SWAP1 PUSH1 0x1 ADD SWAP1 PUSH1 0x20 ADD DUP1 DUP4 GT PUSH2 0x2D5A JUMPI DUP3 SWAP1 SUB PUSH1 0x1F AND DUP3 ADD SWAP2 JUMPDEST POP POP POP POP POP SWAP1 POP PUSH1 0x0 PUSH2 0x2D88 PUSH2 0x3552 JUMP JUMPDEST SWAP1 POP PUSH1 0x0 DUP2 MLOAD SUB PUSH2 0x2D9D JUMPI DUP2 SWAP3 POP POP POP PUSH2 0x2DE0 JUMP JUMPDEST PUSH1 0x0 DUP3 MLOAD GT ISZERO PUSH2 0x2DD2 JUMPI DUP1 DUP3 PUSH1 0x40 MLOAD PUSH1 0x20 ADD PUSH2 0x2DBA SWAP3 SWAP2 SWAP1 PUSH2 0x5541 JUMP JUMPDEST PUSH1 0x40 MLOAD PUSH1 0x20 DUP2 DUP4 SUB SUB DUP2 MSTORE SWAP1 PUSH1 0x40 MSTORE SWAP3 POP POP POP PUSH2 0x2DE0 JUMP JUMPDEST PUSH2 0x2DDB DUP5 PUSH2 0x3569 JUMP JUMPDEST SWAP3 POP POP POP JUMPDEST SWAP2 SWAP1 POP JUMP JUMPDEST PUSH1 0x0 PUSH32 0x1FFC9A700000000000000000000000000000000000000000000000000000000 PUSH28 0xFFFFFFFFFFFFFFFFFFFFFFFFFFFFFFFFFFFFFFFFFFFFFFFFFFFFFFFF NOT AND DUP3 PUSH28 0xFFFFFFFFFFFFFFFFFFFFFFFFFFFFFFFFFFFFFFFFFFFFFFFFFFFFFFFF NOT AND EQ SWAP1 POP SWAP2 SWAP1 POP JUMP JUMPDEST PUSH1 0x0 PUSH1 0x2 PUSH1 0x0 DUP4 DUP2 MSTORE PUSH1 0x20 ADD SWAP1 DUP2 MSTORE PUSH1 0x20 ADD PUSH1 0x0 KECCAK256 PUSH1 0x0 SWAP1 SLOAD SWAP1 PUSH2 0x100 EXP SWAP1 DIV PUSH20 0xFFFFFFFFFFFFFFFFFFFFFFFFFFFFFFFFFFFFFFFF AND SWAP1 POP SWAP2 SWAP1 POP JUMP JUMPDEST DUP1 DUP1 PUSH2 0x2EC5 JUMPI POP PUSH1 0x0 PUSH20 0xFFFFFFFFFFFFFFFFFFFFFFFFFFFFFFFFFFFFFFFF AND DUP3 PUSH20 0xFFFFFFFFFFFFFFFFFFFFFFFFFFFFFFFFFFFFFFFF AND EQ ISZERO JUMPDEST ISZERO PUSH2 0x2FF9 JUMPI PUSH1 0x0 PUSH2 0x2ED5 DUP5 PUSH2 0x2471 JUMP JUMPDEST SWAP1 POP PUSH1 0x0 PUSH20 0xFFFFFFFFFFFFFFFFFFFFFFFFFFFFFFFFFFFFFFFF AND DUP4 PUSH20 0xFFFFFFFFFFFFFFFFFFFFFFFFFFFFFFFFFFFFFFFF AND EQ ISZERO DUP1 ISZERO PUSH2 0x2F40 JUMPI POP DUP3 PUSH20 0xFFFFFFFFFFFFFFFFFFFFFFFFFFFFFFFFFFFFFFFF AND DUP2 PUSH20 0xFFFFFFFFFFFFFFFFFFFFFFFFFFFFFFFFFFFFFFFF AND EQ ISZERO JUMPDEST DUP1 ISZERO PUSH2 0x2F53 JUMPI POP PUSH2 0x2F51 DUP2 DUP5 PUSH2 0x20D1 JUMP JUMPDEST ISZERO JUMPDEST ISZERO PUSH2 0x2F95 JUMPI DUP3 PUSH1 0x40 MLOAD PUSH32 0xA9FBF51F00000000000000000000000000000000000000000000000000000000 DUP2 MSTORE PUSH1 0x4 ADD PUSH2 0x2F8C SWAP2 SWAP1 PUSH2 0x3B17 JUMP JUMPDEST PUSH1 0x40 MLOAD DUP1 SWAP2 SUB SWAP1 REVERT JUMPDEST DUP2 ISZERO PUSH2 0x2FF7 JUMPI DUP4 DUP6 PUSH20 0xFFFFFFFFFFFFFFFFFFFFFFFFFFFFFFFFFFFFFFFF AND DUP3 PUSH20 0xFFFFFFFFFFFFFFFFFFFFFFFFFFFFFFFFFFFFFFFF AND PUSH32 0x8C5BE1E5EBEC7D5BD14F71427D1E84F3DD0314C0F7B2291E5B200AC8C7C3B925 PUSH1 0x40 MLOAD PUSH1 0x40 MLOAD DUP1 SWAP2 SUB SWAP1 LOG4 JUMPDEST POP JUMPDEST DUP4 PUSH1 0x4 PUSH1 0x0 DUP6 DUP2 MSTORE PUSH1 0x20 ADD SWAP1 DUP2 MSTORE PUSH1 0x20 ADD PUSH1 0x0 KECCAK256 PUSH1 0x0 PUSH2 0x100 EXP DUP2 SLOAD DUP2 PUSH20 0xFFFFFFFFFFFFFFFFFFFFFFFFFFFFFFFFFFFFFFFF MUL NOT AND SWAP1 DUP4 PUSH20 0xFFFFFFFFFFFFFFFFFFFFFFFFFFFFFFFFFFFFFFFF AND MUL OR SWAP1 SSTORE POP POP POP POP POP JUMP JUMPDEST PUSH1 0x0 DUP1 PUSH2 0x305D DUP5 PUSH2 0x2E4F JUMP JUMPDEST SWAP1 POP PUSH1 0x0 PUSH20 0xFFFFFFFFFFFFFFFFFFFFFFFFFFFFFFFFFFFFFFFF AND DUP4 PUSH20 0xFFFFFFFFFFFFFFFFFFFFFFFFFFFFFFFFFFFFFFFF AND EQ PUSH2 0x309F JUMPI PUSH2 0x309E DUP2 DUP5 DUP7 PUSH2 0x35D2 JUMP JUMPDEST JUMPDEST PUSH1 0x0 PUSH20 0xFFFFFFFFFFFFFFFFFFFFFFFFFFFFFFFFFFFFFFFF AND DUP2 PUSH20 0xFFFFFFFFFFFFFFFFFFFFFFFFFFFFFFFFFFFFFFFF AND EQ PUSH2 0x3130 JUMPI PUSH2 0x30E1 PUSH1 0x0 DUP6 PUSH1 0x0 DUP1 PUSH2 0x2E8C JUMP JUMPDEST PUSH1 0x1 PUSH1 0x3 PUSH1 0x0 DUP4 PUSH20 0xFFFFFFFFFFFFFFFFFFFFFFFFFFFFFFFFFFFFFFFF AND PUSH20 0xFFFFFFFFFFFFFFFFFFFFFFFFFFFFFFFFFFFFFFFF AND DUP2 MSTORE PUSH1 0x20 ADD SWAP1 DUP2 MSTORE PUSH1 0x20 ADD PUSH1 0x0 KECCAK256 PUSH1 0x0 DUP3 DUP3 SLOAD SUB SWAP3 POP POP DUP2 SWAP1 SSTORE POP JUMPDEST PUSH1 0x0 PUSH20 0xFFFFFFFFFFFFFFFFFFFFFFFFFFFFFFFFFFFFFFFF AND DUP6 PUSH20 0xFFFFFFFFFFFFFFFFFFFFFFFFFFFFFFFFFFFFFFFF AND EQ PUSH2 0x31B3 JUMPI PUSH1 0x1 PUSH1 0x3 PUSH1 0x0 DUP8 PUSH20 0xFFFFFFFFFFFFFFFFFFFFFFFFFFFFFFFFFFFFFFFF AND PUSH20 0xFFFFFFFFFFFFFFFFFFFFFFFFFFFFFFFFFFFFFFFF AND DUP2 MSTORE PUSH1 0x20 ADD SWAP1 DUP2 MSTORE PUSH1 0x20 ADD PUSH1 0x0 KECCAK256 PUSH1 0x0 DUP3 DUP3 SLOAD ADD SWAP3 POP POP DUP2 SWAP1 SSTORE POP JUMPDEST DUP5 PUSH1 0x2 PUSH1 0x0 DUP7 DUP2 MSTORE PUSH1 0x20 ADD SWAP1 DUP2 MSTORE PUSH1 0x20 ADD PUSH1 0x0 KECCAK256 PUSH1 0x0 PUSH2 0x100 EXP DUP2 SLOAD DUP2 PUSH20 0xFFFFFFFFFFFFFFFFFFFFFFFFFFFFFFFFFFFFFFFF MUL NOT AND SWAP1 DUP4 PUSH20 0xFFFFFFFFFFFFFFFFFFFFFFFFFFFFFFFFFFFFFFFF AND MUL OR SWAP1 SSTORE POP DUP4 DUP6 PUSH20 0xFFFFFFFFFFFFFFFFFFFFFFFFFFFFFFFFFFFFFFFF AND DUP3 PUSH20 0xFFFFFFFFFFFFFFFFFFFFFFFFFFFFFFFFFFFFFFFF AND PUSH32 0xDDF252AD1BE2C89B69C2B068FC378DAA952BA7F163C4A11628F55A4DF523B3EF PUSH1 0x40 MLOAD PUSH1 0x40 MLOAD DUP1 SWAP2 SUB SWAP1 LOG4 DUP1 SWAP2 POP POP SWAP4 SWAP3 POP POP POP JUMP JUMPDEST PUSH1 0x0 DUP1 PUSH1 0x0 SWAP1 POP PUSH27 0x184F03E93FF9F4DAA797ED6E38ED64BF6A1F010000000000000000 DUP4 LT PUSH2 0x32C9 JUMPI PUSH27 0x184F03E93FF9F4DAA797ED6E38ED64BF6A1F010000000000000000 DUP4 DUP2 PUSH2 0x32BF JUMPI PUSH2 0x32BE PUSH2 0x4844 JUMP JUMPDEST JUMPDEST DIV SWAP3 POP PUSH1 0x40 DUP2 ADD SWAP1 POP JUMPDEST PUSH14 0x4EE2D6D415B85ACEF8100000000 DUP4 LT PUSH2 0x3306 JUMPI PUSH14 0x4EE2D6D415B85ACEF8100000000 DUP4 DUP2 PUSH2 0x32FC JUMPI PUSH2 0x32FB PUSH2 0x4844 JUMP JUMPDEST JUMPDEST DIV SWAP3 POP PUSH1 0x20 DUP2 ADD SWAP1 POP JUMPDEST PUSH7 0x2386F26FC10000 DUP4 LT PUSH2 0x3335 JUMPI PUSH7 0x2386F26FC10000 DUP4 DUP2 PUSH2 0x332B JUMPI PUSH2 0x332A PUSH2 0x4844 JUMP JUMPDEST JUMPDEST DIV SWAP3 POP PUSH1 0x10 DUP2 ADD SWAP1 POP JUMPDEST PUSH4 0x5F5E100 DUP4 LT PUSH2 0x335E JUMPI PUSH4 0x5F5E100 DUP4 DUP2 PUSH2 0x3354 JUMPI PUSH2 0x3353 PUSH2 0x4844 JUMP JUMPDEST JUMPDEST DIV SWAP3 POP PUSH1 0x8 DUP2 ADD SWAP1 POP JUMPDEST PUSH2 0x2710 DUP4 LT PUSH2 0x3383 JUMPI PUSH2 0x2710 DUP4 DUP2 PUSH2 0x3379 JUMPI PUSH2 0x3378 PUSH2 0x4844 JUMP JUMPDEST JUMPDEST DIV SWAP3 POP PUSH1 0x4 DUP2 ADD SWAP1 POP JUMPDEST PUSH1 0x64 DUP4 LT PUSH2 0x33A6 JUMPI PUSH1 0x64 DUP4 DUP2 PUSH2 0x339C JUMPI PUSH2 0x339B PUSH2 0x4844 JUMP JUMPDEST JUMPDEST DIV SWAP3 POP PUSH1 0x2 DUP2 ADD SWAP1 POP JUMPDEST PUSH1 0xA DUP4 LT PUSH2 0x33B5 JUMPI PUSH1 0x1 DUP2 ADD SWAP1 POP JUMPDEST DUP1 SWAP2 POP POP SWAP2 SWAP1 POP JUMP JUMPDEST PUSH1 0x60 PUSH1 0x0 DUP5 MLOAD SUB PUSH2 0x33E0 JUMPI PUSH1 0x40 MLOAD DUP1 PUSH1 0x20 ADD PUSH1 0x40 MSTORE DUP1 PUSH1 0x0 DUP2 MSTORE POP SWAP1 POP PUSH2 0x354B JUMP JUMPDEST PUSH1 0x0 DUP3 PUSH2 0x3412 JUMPI PUSH1 0x3 PUSH1 0x2 DUP7 MLOAD PUSH1 0x4 PUSH2 0x33F9 SWAP2 SWAP1 PUSH2 0x4802 JUMP JUMPDEST PUSH2 0x3403 SWAP2 SWAP1 PUSH2 0x47CE JUMP JUMPDEST PUSH2 0x340D SWAP2 SWAP1 PUSH2 0x4873 JUMP JUMPDEST PUSH2 0x3439 JUMP JUMPDEST PUSH1 0x3 PUSH1 0x2 DUP7 MLOAD PUSH2 0x3422 SWAP2 SWAP1 PUSH2 0x47CE JUMP JUMPDEST PUSH2 0x342C SWAP2 SWAP1 PUSH2 0x4873 JUMP JUMPDEST PUSH1 0x4 PUSH2 0x3438 SWAP2 SWAP1 PUSH2 0x4802 JUMP JUMPDEST JUMPDEST SWAP1 POP PUSH1 0x0 DUP2 PUSH8 0xFFFFFFFFFFFFFFFF DUP2 GT ISZERO PUSH2 0x3457 JUMPI PUSH2 0x3456 PUSH2 0x3CA0 JUMP JUMPDEST JUMPDEST PUSH1 0x40 MLOAD SWAP1 DUP1 DUP3 MSTORE DUP1 PUSH1 0x1F ADD PUSH1 0x1F NOT AND PUSH1 0x20 ADD DUP3 ADD PUSH1 0x40 MSTORE DUP1 ISZERO PUSH2 0x3489 JUMPI DUP2 PUSH1 0x20 ADD PUSH1 0x1 DUP3 MUL DUP1 CALLDATASIZE DUP4 CALLDATACOPY DUP1 DUP3 ADD SWAP2 POP POP SWAP1 POP JUMPDEST POP SWAP1 POP PUSH1 0x1 DUP6 ADD PUSH1 0x20 DUP3 ADD DUP8 DUP9 MLOAD DUP10 ADD PUSH1 0x20 DUP2 ADD DUP1 MLOAD PUSH1 0x0 DUP3 MSTORE JUMPDEST DUP3 DUP5 LT ISZERO PUSH2 0x34FF JUMPI PUSH1 0x3 DUP5 ADD SWAP4 POP DUP4 MLOAD PUSH1 0x3F DUP2 PUSH1 0x12 SHR AND DUP8 ADD MLOAD DUP7 MSTORE8 PUSH1 0x1 DUP7 ADD SWAP6 POP PUSH1 0x3F DUP2 PUSH1 0xC SHR AND DUP8 ADD MLOAD DUP7 MSTORE8 PUSH1 0x1 DUP7 ADD SWAP6 POP PUSH1 0x3F DUP2 PUSH1 0x6 SHR AND DUP8 ADD MLOAD DUP7 MSTORE8 PUSH1 0x1 DUP7 ADD SWAP6 POP PUSH1 0x3F DUP2 AND DUP8 ADD MLOAD DUP7 MSTORE8 PUSH1 0x1 DUP7 ADD SWAP6 POP POP PUSH2 0x34A4 JUMP JUMPDEST DUP1 DUP3 MSTORE DUP10 ISZERO PUSH2 0x353F JUMPI PUSH1 0x3 DUP13 MLOAD MOD PUSH1 0x1 DUP2 EQ PUSH2 0x3522 JUMPI PUSH1 0x2 DUP2 EQ PUSH2 0x3535 JUMPI PUSH2 0x353D JUMP JUMPDEST PUSH1 0x3D PUSH1 0x1 DUP8 SUB MSTORE8 PUSH1 0x3D PUSH1 0x2 DUP8 SUB MSTORE8 PUSH2 0x353D JUMP JUMPDEST PUSH1 0x3D PUSH1 0x1 DUP8 SUB MSTORE8 JUMPDEST POP JUMPDEST POP POP POP POP POP POP DUP1 SWAP3 POP POP POP JUMPDEST SWAP4 SWAP3 POP POP POP JUMP JUMPDEST PUSH1 0x60 PUSH1 0x40 MLOAD DUP1 PUSH1 0x20 ADD PUSH1 0x40 MSTORE DUP1 PUSH1 0x0 DUP2 MSTORE POP SWAP1 POP SWAP1 JUMP JUMPDEST PUSH1 0x60 PUSH2 0x3574 DUP3 PUSH2 0x2471 JUMP JUMPDEST POP PUSH1 0x0 PUSH2 0x357F PUSH2 0x3552 JUMP JUMPDEST SWAP1 POP PUSH1 0x0 DUP2 MLOAD GT PUSH2 0x359F JUMPI PUSH1 0x40 MLOAD DUP1 PUSH1 0x20 ADD PUSH1 0x40 MSTORE DUP1 PUSH1 0x0 DUP2 MSTORE POP PUSH2 0x35CA JUMP JUMPDEST DUP1 PUSH2 0x35A9 DUP5 PUSH2 0x265B JUMP JUMPDEST PUSH1 0x40 MLOAD PUSH1 0x20 ADD PUSH2 0x35BA SWAP3 SWAP2 SWAP1 PUSH2 0x5541 JUMP JUMPDEST PUSH1 0x40 MLOAD PUSH1 0x20 DUP2 DUP4 SUB SUB DUP2 MSTORE SWAP1 PUSH1 0x40 MSTORE JUMPDEST SWAP2 POP POP SWAP2 SWAP1 POP JUMP JUMPDEST PUSH2 0x35DD DUP4 DUP4 DUP4 PUSH2 0x3696 JUMP JUMPDEST PUSH2 0x3691 JUMPI PUSH1 0x0 PUSH20 0xFFFFFFFFFFFFFFFFFFFFFFFFFFFFFFFFFFFFFFFF AND DUP4 PUSH20 0xFFFFFFFFFFFFFFFFFFFFFFFFFFFFFFFFFFFFFFFF AND SUB PUSH2 0x3652 JUMPI DUP1 PUSH1 0x40 MLOAD PUSH32 0x7E27328900000000000000000000000000000000000000000000000000000000 DUP2 MSTORE PUSH1 0x4 ADD PUSH2 0x3649 SWAP2 SWAP1 PUSH2 0x3C40 JUMP JUMPDEST PUSH1 0x40 MLOAD DUP1 SWAP2 SUB SWAP1 REVERT JUMPDEST DUP2 DUP2 PUSH1 0x40 MLOAD PUSH32 0x177E802F00000000000000000000000000000000000000000000000000000000 DUP2 MSTORE PUSH1 0x4 ADD PUSH2 0x3688 SWAP3 SWAP2 SWAP1 PUSH2 0x5565 JUMP JUMPDEST PUSH1 0x40 MLOAD DUP1 SWAP2 SUB SWAP1 REVERT JUMPDEST POP POP POP JUMP JUMPDEST PUSH1 0x0 DUP1 PUSH20 0xFFFFFFFFFFFFFFFFFFFFFFFFFFFFFFFFFFFFFFFF AND DUP4 PUSH20 0xFFFFFFFFFFFFFFFFFFFFFFFFFFFFFFFFFFFFFFFF AND EQ ISZERO DUP1 ISZERO PUSH2 0x374E JUMPI POP DUP3 PUSH20 0xFFFFFFFFFFFFFFFFFFFFFFFFFFFFFFFFFFFFFFFF AND DUP5 PUSH20 0xFFFFFFFFFFFFFFFFFFFFFFFFFFFFFFFFFFFFFFFF AND EQ DUP1 PUSH2 0x370F JUMPI POP PUSH2 0x370E DUP5 DUP5 PUSH2 0x20D1 JUMP JUMPDEST JUMPDEST DUP1 PUSH2 0x374D JUMPI POP DUP3 PUSH20 0xFFFFFFFFFFFFFFFFFFFFFFFFFFFFFFFFFFFFFFFF AND PUSH2 0x3735 DUP4 PUSH2 0x24F9 JUMP JUMPDEST PUSH20 0xFFFFFFFFFFFFFFFFFFFFFFFFFFFFFFFFFFFFFFFF AND EQ JUMPDEST JUMPDEST SWAP1 POP SWAP4 SWAP3 POP POP POP JUMP JUMPDEST DUP3 DUP1 SLOAD DUP3 DUP3 SSTORE SWAP1 PUSH1 0x0 MSTORE PUSH1 0x20 PUSH1 0x0 KECCAK256 SWAP1 DUP2 ADD SWAP3 DUP3 ISZERO PUSH2 0x379F JUMPI SWAP2 PUSH1 0x20 MUL DUP3 ADD JUMPDEST DUP3 DUP2 GT ISZERO PUSH2 0x379E JUMPI DUP3 MLOAD DUP3 SWAP1 DUP2 PUSH2 0x378E SWAP2 SWAP1 PUSH2 0x4EDB JUMP JUMPDEST POP SWAP2 PUSH1 0x20 ADD SWAP2 SWAP1 PUSH1 0x1 ADD SWAP1 PUSH2 0x3777 JUMP JUMPDEST JUMPDEST POP SWAP1 POP PUSH2 0x37AC SWAP2 SWAP1 PUSH2 0x3871 JUMP JUMPDEST POP SWAP1 JUMP JUMPDEST DUP3 DUP1 SLOAD DUP3 DUP3 SSTORE SWAP1 PUSH1 0x0 MSTORE PUSH1 0x20 PUSH1 0x0 KECCAK256 SWAP1 DUP2 ADD SWAP3 DUP3 ISZERO PUSH2 0x37EC JUMPI SWAP2 PUSH1 0x20 MUL DUP3 ADD JUMPDEST DUP3 DUP2 GT ISZERO PUSH2 0x37EB JUMPI DUP3 MLOAD DUP3 SSTORE SWAP2 PUSH1 0x20 ADD SWAP2 SWAP1 PUSH1 0x1 ADD SWAP1 PUSH2 0x37D0 JUMP JUMPDEST JUMPDEST POP SWAP1 POP PUSH2 0x37F9 SWAP2 SWAP1 PUSH2 0x3895 JUMP JUMPDEST POP SWAP1 JUMP JUMPDEST PUSH1 0x40 MLOAD DUP1 PUSH1 0x60 ADD PUSH1 0x40 MSTORE DUP1 PUSH1 0x60 DUP2 MSTORE PUSH1 0x20 ADD PUSH1 0x60 DUP2 MSTORE PUSH1 0x20 ADD PUSH1 0x0 DUP2 MSTORE POP SWAP1 JUMP JUMPDEST PUSH1 0x40 MLOAD DUP1 PUSH1 0xE0 ADD PUSH1 0x40 MSTORE DUP1 PUSH1 0x60 DUP2 MSTORE PUSH1 0x20 ADD PUSH1 0x60 DUP2 MSTORE PUSH1 0x20 ADD PUSH1 0x0 DUP2 MSTORE PUSH1 0x20 ADD PUSH1 0x0 PUSH20 0xFFFFFFFFFFFFFFFFFFFFFFFFFFFFFFFFFFFFFFFF AND DUP2 MSTORE PUSH1 0x20 ADD PUSH1 0x0 DUP2 MSTORE PUSH1 0x20 ADD PUSH1 0x0 DUP2 MSTORE PUSH1 0x20 ADD PUSH1 0x0 DUP2 MSTORE POP SWAP1 JUMP JUMPDEST JUMPDEST DUP1 DUP3 GT ISZERO PUSH2 0x3891 JUMPI PUSH1 0x0 DUP2 DUP2 PUSH2 0x3888 SWAP2 SWAP1 PUSH2 0x38B2 JUMP JUMPDEST POP PUSH1 0x1 ADD PUSH2 0x3872 JUMP JUMPDEST POP SWAP1 JUMP JUMPDEST JUMPDEST DUP1 DUP3 GT ISZERO PUSH2 0x38AE JUMPI PUSH1 0x0 DUP2 PUSH1 0x0 SWAP1 SSTORE POP PUSH1 0x1 ADD PUSH2 0x3896 JUMP JUMPDEST POP SWAP1 JUMP JUMPDEST POP DUP1 SLOAD PUSH2 0x38BE SWAP1 PUSH2 0x4952 JUMP JUMPDEST PUSH1 0x0 DUP3 SSTORE DUP1 PUSH1 0x1F LT PUSH2 0x38D0 JUMPI POP PUSH2 0x38EF JUMP JUMPDEST PUSH1 0x1F ADD PUSH1 0x20 SWAP1 DIV SWAP1 PUSH1 0x0 MSTORE PUSH1 0x20 PUSH1 0x0 KECCAK256 SWAP1 DUP2 ADD SWAP1 PUSH2 0x38EE SWAP2 SWAP1 PUSH2 0x3895 JUMP JUMPDEST JUMPDEST POP JUMP JUMPDEST PUSH1 0x0 PUSH1 0x40 MLOAD SWAP1 POP SWAP1 JUMP JUMPDEST PUSH1 0x0 DUP1 REVERT JUMPDEST PUSH1 0x0 DUP1 REVERT JUMPDEST PUSH1 0x0 DUP2 SWAP1 POP SWAP2 SWAP1 POP JUMP JUMPDEST PUSH2 0x3919 DUP2 PUSH2 0x3906 JUMP JUMPDEST DUP2 EQ PUSH2 0x3924 JUMPI PUSH1 0x0 DUP1 REVERT JUMPDEST POP JUMP JUMPDEST PUSH1 0x0 DUP2 CALLDATALOAD SWAP1 POP PUSH2 0x3936 DUP2 PUSH2 0x3910 JUMP JUMPDEST SWAP3 SWAP2 POP POP JUMP JUMPDEST PUSH1 0x0 PUSH1 0x20 DUP3 DUP5 SUB SLT ISZERO PUSH2 0x3952 JUMPI PUSH2 0x3951 PUSH2 0x38FC JUMP JUMPDEST JUMPDEST PUSH1 0x0 PUSH2 0x3960 DUP5 DUP3 DUP6 ADD PUSH2 0x3927 JUMP JUMPDEST SWAP2 POP POP SWAP3 SWAP2 POP POP JUMP JUMPDEST PUSH1 0x0 PUSH32 0xFFFFFFFF00000000000000000000000000000000000000000000000000000000 DUP3 AND SWAP1 POP SWAP2 SWAP1 POP JUMP JUMPDEST PUSH2 0x399E DUP2 PUSH2 0x3969 JUMP JUMPDEST DUP2 EQ PUSH2 0x39A9 JUMPI PUSH1 0x0 DUP1 REVERT JUMPDEST POP JUMP JUMPDEST PUSH1 0x0 DUP2 CALLDATALOAD SWAP1 POP PUSH2 0x39BB DUP2 PUSH2 0x3995 JUMP JUMPDEST SWAP3 SWAP2 POP POP JUMP JUMPDEST PUSH1 0x0 PUSH1 0x20 DUP3 DUP5 SUB SLT ISZERO PUSH2 0x39D7 JUMPI PUSH2 0x39D6 PUSH2 0x38FC JUMP JUMPDEST JUMPDEST PUSH1 0x0 PUSH2 0x39E5 DUP5 DUP3 DUP6 ADD PUSH2 0x39AC JUMP JUMPDEST SWAP2 POP POP SWAP3 SWAP2 POP POP JUMP JUMPDEST PUSH1 0x0 DUP2 ISZERO ISZERO SWAP1 POP SWAP2 SWAP1 POP JUMP JUMPDEST PUSH2 0x3A03 DUP2 PUSH2 0x39EE JUMP JUMPDEST DUP3 MSTORE POP POP JUMP JUMPDEST PUSH1 0x0 PUSH1 0x20 DUP3 ADD SWAP1 POP PUSH2 0x3A1E PUSH1 0x0 DUP4 ADD DUP5 PUSH2 0x39FA JUMP JUMPDEST SWAP3 SWAP2 POP POP JUMP JUMPDEST PUSH1 0x0 DUP2 MLOAD SWAP1 POP SWAP2 SWAP1 POP JUMP JUMPDEST PUSH1 0x0 DUP3 DUP3 MSTORE PUSH1 0x20 DUP3 ADD SWAP1 POP SWAP3 SWAP2 POP POP JUMP JUMPDEST PUSH1 0x0 JUMPDEST DUP4 DUP2 LT ISZERO PUSH2 0x3A5E JUMPI DUP1 DUP3 ADD MLOAD DUP2 DUP5 ADD MSTORE PUSH1 0x20 DUP2 ADD SWAP1 POP PUSH2 0x3A43 JUMP JUMPDEST PUSH1 0x0 DUP5 DUP5 ADD MSTORE POP POP POP POP JUMP JUMPDEST PUSH1 0x0 PUSH1 0x1F NOT PUSH1 0x1F DUP4 ADD AND SWAP1 POP SWAP2 SWAP1 POP JUMP JUMPDEST PUSH1 0x0 PUSH2 0x3A86 DUP3 PUSH2 0x3A24 JUMP JUMPDEST PUSH2 0x3A90 DUP2 DUP6 PUSH2 0x3A2F JUMP JUMPDEST SWAP4 POP PUSH2 0x3AA0 DUP2 DUP6 PUSH1 0x20 DUP7 ADD PUSH2 0x3A40 JUMP JUMPDEST PUSH2 0x3AA9 DUP2 PUSH2 0x3A6A JUMP JUMPDEST DUP5 ADD SWAP2 POP POP SWAP3 SWAP2 POP POP JUMP JUMPDEST PUSH1 0x0 PUSH1 0x20 DUP3 ADD SWAP1 POP DUP2 DUP2 SUB PUSH1 0x0 DUP4 ADD MSTORE PUSH2 0x3ACE DUP2 DUP5 PUSH2 0x3A7B JUMP JUMPDEST SWAP1 POP SWAP3 SWAP2 POP POP JUMP JUMPDEST PUSH1 0x0 PUSH20 0xFFFFFFFFFFFFFFFFFFFFFFFFFFFFFFFFFFFFFFFF DUP3 AND SWAP1 POP SWAP2 SWAP1 POP JUMP JUMPDEST PUSH1 0x0 PUSH2 0x3B01 DUP3 PUSH2 0x3AD6 JUMP JUMPDEST SWAP1 POP SWAP2 SWAP1 POP JUMP JUMPDEST PUSH2 0x3B11 DUP2 PUSH2 0x3AF6 JUMP JUMPDEST DUP3 MSTORE POP POP JUMP JUMPDEST PUSH1 0x0 PUSH1 0x20 DUP3 ADD SWAP1 POP PUSH2 0x3B2C PUSH1 0x0 DUP4 ADD DUP5 PUSH2 0x3B08 JUMP JUMPDEST SWAP3 SWAP2 POP POP JUMP JUMPDEST PUSH2 0x3B3B DUP2 PUSH2 0x3AF6 JUMP JUMPDEST DUP2 EQ PUSH2 0x3B46 JUMPI PUSH1 0x0 DUP1 REVERT JUMPDEST POP JUMP JUMPDEST PUSH1 0x0 DUP2 CALLDATALOAD SWAP1 POP PUSH2 0x3B58 DUP2 PUSH2 0x3B32 JUMP JUMPDEST SWAP3 SWAP2 POP POP JUMP JUMPDEST PUSH1 0x0 DUP1 PUSH1 0x40 DUP4 DUP6 SUB SLT ISZERO PUSH2 0x3B75 JUMPI PUSH2 0x3B74 PUSH2 0x38FC JUMP JUMPDEST JUMPDEST PUSH1 0x0 PUSH2 0x3B83 DUP6 DUP3 DUP7 ADD PUSH2 0x3B49 JUMP JUMPDEST SWAP3 POP POP PUSH1 0x20 PUSH2 0x3B94 DUP6 DUP3 DUP7 ADD PUSH2 0x3927 JUMP JUMPDEST SWAP2 POP POP SWAP3 POP SWAP3 SWAP1 POP JUMP JUMPDEST PUSH1 0x0 DUP1 PUSH1 0x0 PUSH1 0x60 DUP5 DUP7 SUB SLT ISZERO PUSH2 0x3BB7 JUMPI PUSH2 0x3BB6 PUSH2 0x38FC JUMP JUMPDEST JUMPDEST PUSH1 0x0 PUSH2 0x3BC5 DUP7 DUP3 DUP8 ADD PUSH2 0x3B49 JUMP JUMPDEST SWAP4 POP POP PUSH1 0x20 PUSH2 0x3BD6 DUP7 DUP3 DUP8 ADD PUSH2 0x3B49 JUMP JUMPDEST SWAP3 POP POP PUSH1 0x40 PUSH2 0x3BE7 DUP7 DUP3 DUP8 ADD PUSH2 0x3927 JUMP JUMPDEST SWAP2 POP POP SWAP3 POP SWAP3 POP SWAP3 JUMP JUMPDEST PUSH1 0x0 DUP1 PUSH1 0x40 DUP4 DUP6 SUB SLT ISZERO PUSH2 0x3C08 JUMPI PUSH2 0x3C07 PUSH2 0x38FC JUMP JUMPDEST JUMPDEST PUSH1 0x0 PUSH2 0x3C16 DUP6 DUP3 DUP7 ADD PUSH2 0x3927 JUMP JUMPDEST SWAP3 POP POP PUSH1 0x20 PUSH2 0x3C27 DUP6 DUP3 DUP7 ADD PUSH2 0x3927 JUMP JUMPDEST SWAP2 POP POP SWAP3 POP SWAP3 SWAP1 POP JUMP JUMPDEST PUSH2 0x3C3A DUP2 PUSH2 0x3906 JUMP JUMPDEST DUP3 MSTORE POP POP JUMP JUMPDEST PUSH1 0x0 PUSH1 0x20 DUP3 ADD SWAP1 POP PUSH2 0x3C55 PUSH1 0x0 DUP4 ADD DUP5 PUSH2 0x3C31 JUMP JUMPDEST SWAP3 SWAP2 POP POP JUMP JUMPDEST PUSH1 0x0 DUP1 PUSH1 0x40 DUP4 DUP6 SUB SLT ISZERO PUSH2 0x3C72 JUMPI PUSH2 0x3C71 PUSH2 0x38FC JUMP JUMPDEST JUMPDEST PUSH1 0x0 PUSH2 0x3C80 DUP6 DUP3 DUP7 ADD PUSH2 0x3927 JUMP JUMPDEST SWAP3 POP POP PUSH1 0x20 PUSH2 0x3C91 DUP6 DUP3 DUP7 ADD PUSH2 0x3B49 JUMP JUMPDEST SWAP2 POP POP SWAP3 POP SWAP3 SWAP1 POP JUMP JUMPDEST PUSH1 0x0 DUP1 REVERT JUMPDEST PUSH32 0x4E487B7100000000000000000000000000000000000000000000000000000000 PUSH1 0x0 MSTORE PUSH1 0x41 PUSH1 0x4 MSTORE PUSH1 0x24 PUSH1 0x0 REVERT JUMPDEST PUSH2 0x3CD8 DUP3 PUSH2 0x3A6A JUMP JUMPDEST DUP2 ADD DUP2 DUP2 LT PUSH8 0xFFFFFFFFFFFFFFFF DUP3 GT OR ISZERO PUSH2 0x3CF7 JUMPI PUSH2 0x3CF6 PUSH2 0x3CA0 JUMP JUMPDEST JUMPDEST DUP1 PUSH1 0x40 MSTORE POP POP POP JUMP JUMPDEST PUSH1 0x0 PUSH2 0x3D0A PUSH2 0x38F2 JUMP JUMPDEST SWAP1 POP PUSH2 0x3D16 DUP3 DUP3 PUSH2 0x3CCF JUMP JUMPDEST SWAP2 SWAP1 POP JUMP JUMPDEST PUSH1 0x0 PUSH8 0xFFFFFFFFFFFFFFFF DUP3 GT ISZERO PUSH2 0x3D36 JUMPI PUSH2 0x3D35 PUSH2 0x3CA0 JUMP JUMPDEST JUMPDEST PUSH1 0x20 DUP3 MUL SWAP1 POP PUSH1 0x20 DUP2 ADD SWAP1 POP SWAP2 SWAP1 POP JUMP JUMPDEST PUSH1 0x0 DUP1 REVERT JUMPDEST PUSH1 0x0 DUP1 REVERT JUMPDEST PUSH1 0x0 PUSH8 0xFFFFFFFFFFFFFFFF DUP3 GT ISZERO PUSH2 0x3D6C JUMPI PUSH2 0x3D6B PUSH2 0x3CA0 JUMP JUMPDEST JUMPDEST PUSH2 0x3D75 DUP3 PUSH2 0x3A6A JUMP JUMPDEST SWAP1 POP PUSH1 0x20 DUP2 ADD SWAP1 POP SWAP2 SWAP1 POP JUMP JUMPDEST DUP3 DUP2 DUP4 CALLDATACOPY PUSH1 0x0 DUP4 DUP4 ADD MSTORE POP POP POP JUMP JUMPDEST PUSH1 0x0 PUSH2 0x3DA4 PUSH2 0x3D9F DUP5 PUSH2 0x3D51 JUMP JUMPDEST PUSH2 0x3D00 JUMP JUMPDEST SWAP1 POP DUP3 DUP2 MSTORE PUSH1 0x20 DUP2 ADD DUP5 DUP5 DUP5 ADD GT ISZERO PUSH2 0x3DC0 JUMPI PUSH2 0x3DBF PUSH2 0x3D4C JUMP JUMPDEST JUMPDEST PUSH2 0x3DCB DUP5 DUP3 DUP6 PUSH2 0x3D82 JUMP JUMPDEST POP SWAP4 SWAP3 POP POP POP JUMP JUMPDEST PUSH1 0x0 DUP3 PUSH1 0x1F DUP4 ADD SLT PUSH2 0x3DE8 JUMPI PUSH2 0x3DE7 PUSH2 0x3C9B JUMP JUMPDEST JUMPDEST DUP2 CALLDATALOAD PUSH2 0x3DF8 DUP5 DUP3 PUSH1 0x20 DUP7 ADD PUSH2 0x3D91 JUMP JUMPDEST SWAP2 POP POP SWAP3 SWAP2 POP POP JUMP JUMPDEST PUSH1 0x0 PUSH2 0x3E14 PUSH2 0x3E0F DUP5 PUSH2 0x3D1B JUMP JUMPDEST PUSH2 0x3D00 JUMP JUMPDEST SWAP1 POP DUP1 DUP4 DUP3 MSTORE PUSH1 0x20 DUP3 ADD SWAP1 POP PUSH1 0x20 DUP5 MUL DUP4 ADD DUP6 DUP2 GT ISZERO PUSH2 0x3E37 JUMPI PUSH2 0x3E36 PUSH2 0x3D47 JUMP JUMPDEST JUMPDEST DUP4 JUMPDEST DUP2 DUP2 LT ISZERO PUSH2 0x3E7E JUMPI DUP1 CALLDATALOAD PUSH8 0xFFFFFFFFFFFFFFFF DUP2 GT ISZERO PUSH2 0x3E5C JUMPI PUSH2 0x3E5B PUSH2 0x3C9B JUMP JUMPDEST JUMPDEST DUP1 DUP7 ADD PUSH2 0x3E69 DUP10 DUP3 PUSH2 0x3DD3 JUMP JUMPDEST DUP6 MSTORE PUSH1 0x20 DUP6 ADD SWAP5 POP POP POP PUSH1 0x20 DUP2 ADD SWAP1 POP PUSH2 0x3E39 JUMP JUMPDEST POP POP POP SWAP4 SWAP3 POP POP POP JUMP JUMPDEST PUSH1 0x0 DUP3 PUSH1 0x1F DUP4 ADD SLT PUSH2 0x3E9D JUMPI PUSH2 0x3E9C PUSH2 0x3C9B JUMP JUMPDEST JUMPDEST DUP2 CALLDATALOAD PUSH2 0x3EAD DUP5 DUP3 PUSH1 0x20 DUP7 ADD PUSH2 0x3E01 JUMP JUMPDEST SWAP2 POP POP SWAP3 SWAP2 POP POP JUMP JUMPDEST PUSH1 0x0 PUSH8 0xFFFFFFFFFFFFFFFF DUP3 GT ISZERO PUSH2 0x3ED1 JUMPI PUSH2 0x3ED0 PUSH2 0x3CA0 JUMP JUMPDEST JUMPDEST PUSH1 0x20 DUP3 MUL SWAP1 POP PUSH1 0x20 DUP2 ADD SWAP1 POP SWAP2 SWAP1 POP JUMP JUMPDEST PUSH1 0x0 PUSH2 0x3EF5 PUSH2 0x3EF0 DUP5 PUSH2 0x3EB6 JUMP JUMPDEST PUSH2 0x3D00 JUMP JUMPDEST SWAP1 POP DUP1 DUP4 DUP3 MSTORE PUSH1 0x20 DUP3 ADD SWAP1 POP PUSH1 0x20 DUP5 MUL DUP4 ADD DUP6 DUP2 GT ISZERO PUSH2 0x3F18 JUMPI PUSH2 0x3F17 PUSH2 0x3D47 JUMP JUMPDEST JUMPDEST DUP4 JUMPDEST DUP2 DUP2 LT ISZERO PUSH2 0x3F41 JUMPI DUP1 PUSH2 0x3F2D DUP9 DUP3 PUSH2 0x3927 JUMP JUMPDEST DUP5 MSTORE PUSH1 0x20 DUP5 ADD SWAP4 POP POP PUSH1 0x20 DUP2 ADD SWAP1 POP PUSH2 0x3F1A JUMP JUMPDEST POP POP POP SWAP4 SWAP3 POP POP POP JUMP JUMPDEST PUSH1 0x0 DUP3 PUSH1 0x1F DUP4 ADD SLT PUSH2 0x3F60 JUMPI PUSH2 0x3F5F PUSH2 0x3C9B JUMP JUMPDEST JUMPDEST DUP2 CALLDATALOAD PUSH2 0x3F70 DUP5 DUP3 PUSH1 0x20 DUP7 ADD PUSH2 0x3EE2 JUMP JUMPDEST SWAP2 POP POP SWAP3 SWAP2 POP POP JUMP JUMPDEST PUSH1 0x0 DUP1 PUSH1 0x0 PUSH1 0x60 DUP5 DUP7 SUB SLT ISZERO PUSH2 0x3F92 JUMPI PUSH2 0x3F91 PUSH2 0x38FC JUMP JUMPDEST JUMPDEST PUSH1 0x0 DUP5 ADD CALLDATALOAD PUSH8 0xFFFFFFFFFFFFFFFF DUP2 GT ISZERO PUSH2 0x3FB0 JUMPI PUSH2 0x3FAF PUSH2 0x3901 JUMP JUMPDEST JUMPDEST PUSH2 0x3FBC DUP7 DUP3 DUP8 ADD PUSH2 0x3E88 JUMP JUMPDEST SWAP4 POP POP PUSH1 0x20 DUP5 ADD CALLDATALOAD PUSH8 0xFFFFFFFFFFFFFFFF DUP2 GT ISZERO PUSH2 0x3FDD JUMPI PUSH2 0x3FDC PUSH2 0x3901 JUMP JUMPDEST JUMPDEST PUSH2 0x3FE9 DUP7 DUP3 DUP8 ADD PUSH2 0x3F4B JUMP JUMPDEST SWAP3 POP POP PUSH1 0x40 PUSH2 0x3FFA DUP7 DUP3 DUP8 ADD PUSH2 0x3927 JUMP JUMPDEST SWAP2 POP POP SWAP3 POP SWAP3 POP SWAP3 JUMP JUMPDEST PUSH1 0x0 DUP3 DUP3 MSTORE PUSH1 0x20 DUP3 ADD SWAP1 POP SWAP3 SWAP2 POP POP JUMP JUMPDEST PUSH1 0x0 PUSH2 0x4020 DUP3 PUSH2 0x3A24 JUMP JUMPDEST PUSH2 0x402A DUP2 DUP6 PUSH2 0x4004 JUMP JUMPDEST SWAP4 POP PUSH2 0x403A DUP2 DUP6 PUSH1 0x20 DUP7 ADD PUSH2 0x3A40 JUMP JUMPDEST PUSH2 0x4043 DUP2 PUSH2 0x3A6A JUMP JUMPDEST DUP5 ADD SWAP2 POP POP SWAP3 SWAP2 POP POP JUMP JUMPDEST PUSH2 0x4057 DUP2 PUSH2 0x3906 JUMP JUMPDEST DUP3 MSTORE POP POP JUMP JUMPDEST PUSH1 0x0 PUSH1 0x60 DUP4 ADD PUSH1 0x0 DUP4 ADD MLOAD DUP5 DUP3 SUB PUSH1 0x0 DUP7 ADD MSTORE PUSH2 0x407A DUP3 DUP3 PUSH2 0x4015 JUMP JUMPDEST SWAP2 POP POP PUSH1 0x20 DUP4 ADD MLOAD DUP5 DUP3 SUB PUSH1 0x20 DUP7 ADD MSTORE PUSH2 0x4094 DUP3 DUP3 PUSH2 0x4015 JUMP JUMPDEST SWAP2 POP POP PUSH1 0x40 DUP4 ADD MLOAD PUSH2 0x40A9 PUSH1 0x40 DUP7 ADD DUP3 PUSH2 0x404E JUMP JUMPDEST POP DUP1 SWAP2 POP POP SWAP3 SWAP2 POP POP JUMP JUMPDEST PUSH1 0x0 PUSH1 0x20 DUP3 ADD SWAP1 POP DUP2 DUP2 SUB PUSH1 0x0 DUP4 ADD MSTORE PUSH2 0x40CE DUP2 DUP5 PUSH2 0x405D JUMP JUMPDEST SWAP1 POP SWAP3 SWAP2 POP POP JUMP JUMPDEST PUSH1 0x0 DUP1 PUSH1 0x40 DUP4 DUP6 SUB SLT ISZERO PUSH2 0x40ED JUMPI PUSH2 0x40EC PUSH2 0x38FC JUMP JUMPDEST JUMPDEST PUSH1 0x0 DUP4 ADD CALLDATALOAD PUSH8 0xFFFFFFFFFFFFFFFF DUP2 GT ISZERO PUSH2 0x410B JUMPI PUSH2 0x410A PUSH2 0x3901 JUMP JUMPDEST JUMPDEST PUSH2 0x4117 DUP6 DUP3 DUP7 ADD PUSH2 0x3DD3 JUMP JUMPDEST SWAP3 POP POP PUSH1 0x20 DUP4 ADD CALLDATALOAD PUSH8 0xFFFFFFFFFFFFFFFF DUP2 GT ISZERO PUSH2 0x4138 JUMPI PUSH2 0x4137 PUSH2 0x3901 JUMP JUMPDEST JUMPDEST PUSH2 0x4144 DUP6 DUP3 DUP7 ADD PUSH2 0x3DD3 JUMP JUMPDEST SWAP2 POP POP SWAP3 POP SWAP3 SWAP1 POP JUMP JUMPDEST PUSH1 0x0 PUSH1 0x20 DUP3 DUP5 SUB SLT ISZERO PUSH2 0x4164 JUMPI PUSH2 0x4163 PUSH2 0x38FC JUMP JUMPDEST JUMPDEST PUSH1 0x0 PUSH2 0x4172 DUP5 DUP3 DUP6 ADD PUSH2 0x3B49 JUMP JUMPDEST SWAP2 POP POP SWAP3 SWAP2 POP POP JUMP JUMPDEST PUSH1 0x0 PUSH1 0x60 DUP3 ADD SWAP1 POP DUP2 DUP2 SUB PUSH1 0x0 DUP4 ADD MSTORE PUSH2 0x4195 DUP2 DUP7 PUSH2 0x3A7B JUMP JUMPDEST SWAP1 POP DUP2 DUP2 SUB PUSH1 0x20 DUP4 ADD MSTORE PUSH2 0x41A9 DUP2 DUP6 PUSH2 0x3A7B JUMP JUMPDEST SWAP1 POP PUSH2 0x41B8 PUSH1 0x40 DUP4 ADD DUP5 PUSH2 0x3C31 JUMP JUMPDEST SWAP5 SWAP4 POP POP POP POP JUMP JUMPDEST PUSH1 0x0 DUP2 MLOAD SWAP1 POP SWAP2 SWAP1 POP JUMP JUMPDEST PUSH1 0x0 DUP3 DUP3 MSTORE PUSH1 0x20 DUP3 ADD SWAP1 POP SWAP3 SWAP2 POP POP JUMP JUMPDEST PUSH1 0x0 DUP2 SWAP1 POP PUSH1 0x20 DUP3 ADD SWAP1 POP SWAP2 SWAP1 POP JUMP JUMPDEST PUSH1 0x0 PUSH2 0x41F8 DUP4 DUP4 PUSH2 0x404E JUMP JUMPDEST PUSH1 0x20 DUP4 ADD SWAP1 POP SWAP3 SWAP2 POP POP JUMP JUMPDEST PUSH1 0x0 PUSH1 0x20 DUP3 ADD SWAP1 POP SWAP2 SWAP1 POP JUMP JUMPDEST PUSH1 0x0 PUSH2 0x421C DUP3 PUSH2 0x41C0 JUMP JUMPDEST PUSH2 0x4226 DUP2 DUP6 PUSH2 0x41CB JUMP JUMPDEST SWAP4 POP PUSH2 0x4231 DUP4 PUSH2 0x41DC JUMP JUMPDEST DUP1 PUSH1 0x0 JUMPDEST DUP4 DUP2 LT ISZERO PUSH2 0x4262 JUMPI DUP2 MLOAD PUSH2 0x4249 DUP9 DUP3 PUSH2 0x41EC JUMP JUMPDEST SWAP8 POP PUSH2 0x4254 DUP4 PUSH2 0x4204 JUMP JUMPDEST SWAP3 POP POP PUSH1 0x1 DUP2 ADD SWAP1 POP PUSH2 0x4235 JUMP JUMPDEST POP DUP6 SWAP4 POP POP POP POP SWAP3 SWAP2 POP POP JUMP JUMPDEST PUSH1 0x0 PUSH1 0x20 DUP3 ADD SWAP1 POP DUP2 DUP2 SUB PUSH1 0x0 DUP4 ADD MSTORE PUSH2 0x4289 DUP2 DUP5 PUSH2 0x4211 JUMP JUMPDEST SWAP1 POP SWAP3 SWAP2 POP POP JUMP JUMPDEST PUSH2 0x429A DUP2 PUSH2 0x39EE JUMP JUMPDEST DUP2 EQ PUSH2 0x42A5 JUMPI PUSH1 0x0 DUP1 REVERT JUMPDEST POP JUMP JUMPDEST PUSH1 0x0 DUP2 CALLDATALOAD SWAP1 POP PUSH2 0x42B7 DUP2 PUSH2 0x4291 JUMP JUMPDEST SWAP3 SWAP2 POP POP JUMP JUMPDEST PUSH1 0x0 DUP1 PUSH1 0x40 DUP4 DUP6 SUB SLT ISZERO PUSH2 0x42D4 JUMPI PUSH2 0x42D3 PUSH2 0x38FC JUMP JUMPDEST JUMPDEST PUSH1 0x0 PUSH2 0x42E2 DUP6 DUP3 DUP7 ADD PUSH2 0x3B49 JUMP JUMPDEST SWAP3 POP POP PUSH1 0x20 PUSH2 0x42F3 DUP6 DUP3 DUP7 ADD PUSH2 0x42A8 JUMP JUMPDEST SWAP2 POP POP SWAP3 POP SWAP3 SWAP1 POP JUMP JUMPDEST PUSH1 0x0 PUSH8 0xFFFFFFFFFFFFFFFF DUP3 GT ISZERO PUSH2 0x4318 JUMPI PUSH2 0x4317 PUSH2 0x3CA0 JUMP JUMPDEST JUMPDEST PUSH2 0x4321 DUP3 PUSH2 0x3A6A JUMP JUMPDEST SWAP1 POP PUSH1 0x20 DUP2 ADD SWAP1 POP SWAP2 SWAP1 POP JUMP JUMPDEST PUSH1 0x0 PUSH2 0x4341 PUSH2 0x433C DUP5 PUSH2 0x42FD JUMP JUMPDEST PUSH2 0x3D00 JUMP JUMPDEST SWAP1 POP DUP3 DUP2 MSTORE PUSH1 0x20 DUP2 ADD DUP5 DUP5 DUP5 ADD GT ISZERO PUSH2 0x435D JUMPI PUSH2 0x435C PUSH2 0x3D4C JUMP JUMPDEST JUMPDEST PUSH2 0x4368 DUP5 DUP3 DUP6 PUSH2 0x3D82 JUMP JUMPDEST POP SWAP4 SWAP3 POP POP POP JUMP JUMPDEST PUSH1 0x0 DUP3 PUSH1 0x1F DUP4 ADD SLT PUSH2 0x4385 JUMPI PUSH2 0x4384 PUSH2 0x3C9B JUMP JUMPDEST JUMPDEST DUP2 CALLDATALOAD PUSH2 0x4395 DUP5 DUP3 PUSH1 0x20 DUP7 ADD PUSH2 0x432E JUMP JUMPDEST SWAP2 POP POP SWAP3 SWAP2 POP POP JUMP JUMPDEST PUSH1 0x0 DUP1 PUSH1 0x0 DUP1 PUSH1 0x80 DUP6 DUP8 SUB SLT ISZERO PUSH2 0x43B8 JUMPI PUSH2 0x43B7 PUSH2 0x38FC JUMP JUMPDEST JUMPDEST PUSH1 0x0 PUSH2 0x43C6 DUP8 DUP3 DUP9 ADD PUSH2 0x3B49 JUMP JUMPDEST SWAP5 POP POP PUSH1 0x20 PUSH2 0x43D7 DUP8 DUP3 DUP9 ADD PUSH2 0x3B49 JUMP JUMPDEST SWAP4 POP POP PUSH1 0x40 PUSH2 0x43E8 DUP8 DUP3 DUP9 ADD PUSH2 0x3927 JUMP JUMPDEST SWAP3 POP POP PUSH1 0x60 DUP6 ADD CALLDATALOAD PUSH8 0xFFFFFFFFFFFFFFFF DUP2 GT ISZERO PUSH2 0x4409 JUMPI PUSH2 0x4408 PUSH2 0x3901 JUMP JUMPDEST JUMPDEST PUSH2 0x4415 DUP8 DUP3 DUP9 ADD PUSH2 0x4370 JUMP JUMPDEST SWAP2 POP POP SWAP3 SWAP6 SWAP2 SWAP5 POP SWAP3 POP JUMP JUMPDEST PUSH1 0x0 DUP2 SWAP1 POP SWAP2 SWAP1 POP JUMP JUMPDEST PUSH1 0x0 PUSH2 0x4446 PUSH2 0x4441 PUSH2 0x443C DUP5 PUSH2 0x3AD6 JUMP JUMPDEST PUSH2 0x4421 JUMP JUMPDEST PUSH2 0x3AD6 JUMP JUMPDEST SWAP1 POP SWAP2 SWAP1 POP JUMP JUMPDEST PUSH1 0x0 PUSH2 0x4458 DUP3 PUSH2 0x442B JUMP JUMPDEST SWAP1 POP SWAP2 SWAP1 POP JUMP JUMPDEST PUSH1 0x0 PUSH2 0x446A DUP3 PUSH2 0x444D JUMP JUMPDEST SWAP1 POP SWAP2 SWAP1 POP JUMP JUMPDEST PUSH2 0x447A DUP2 PUSH2 0x445F JUMP JUMPDEST DUP3 MSTORE POP POP JUMP JUMPDEST PUSH1 0x0 PUSH1 0x20 DUP3 ADD SWAP1 POP PUSH2 0x4495 PUSH1 0x0 DUP4 ADD DUP5 PUSH2 0x4471 JUMP JUMPDEST SWAP3 SWAP2 POP POP JUMP JUMPDEST PUSH1 0x0 PUSH1 0xA0 DUP3 ADD SWAP1 POP PUSH2 0x44B0 PUSH1 0x0 DUP4 ADD DUP9 PUSH2 0x3C31 JUMP JUMPDEST PUSH2 0x44BD PUSH1 0x20 DUP4 ADD DUP8 PUSH2 0x3B08 JUMP JUMPDEST PUSH2 0x44CA PUSH1 0x40 DUP4 ADD DUP7 PUSH2 0x3C31 JUMP JUMPDEST PUSH2 0x44D7 PUSH1 0x60 DUP4 ADD DUP6 PUSH2 0x3C31 JUMP JUMPDEST PUSH2 0x44E4 PUSH1 0x80 DUP4 ADD DUP5 PUSH2 0x3C31 JUMP JUMPDEST SWAP7 SWAP6 POP POP POP POP POP POP JUMP JUMPDEST PUSH1 0x0 DUP2 MLOAD SWAP1 POP SWAP2 SWAP1 POP JUMP JUMPDEST PUSH1 0x0 DUP3 DUP3 MSTORE PUSH1 0x20 DUP3 ADD SWAP1 POP SWAP3 SWAP2 POP POP JUMP JUMPDEST PUSH1 0x0 DUP2 SWAP1 POP PUSH1 0x20 DUP3 ADD SWAP1 POP SWAP2 SWAP1 POP JUMP JUMPDEST PUSH1 0x0 PUSH2 0x4526 DUP4 DUP4 PUSH2 0x4015 JUMP JUMPDEST SWAP1 POP SWAP3 SWAP2 POP POP JUMP JUMPDEST PUSH1 0x0 PUSH1 0x20 DUP3 ADD SWAP1 POP SWAP2 SWAP1 POP JUMP JUMPDEST PUSH1 0x0 PUSH2 0x4546 DUP3 PUSH2 0x44EE JUMP JUMPDEST PUSH2 0x4550 DUP2 DUP6 PUSH2 0x44F9 JUMP JUMPDEST SWAP4 POP DUP4 PUSH1 0x20 DUP3 MUL DUP6 ADD PUSH2 0x4562 DUP6 PUSH2 0x450A JUMP JUMPDEST DUP1 PUSH1 0x0 JUMPDEST DUP6 DUP2 LT ISZERO PUSH2 0x459E JUMPI DUP5 DUP5 SUB DUP10 MSTORE DUP2 MLOAD PUSH2 0x457F DUP6 DUP3 PUSH2 0x451A JUMP JUMPDEST SWAP5 POP PUSH2 0x458A DUP4 PUSH2 0x452E JUMP JUMPDEST SWAP3 POP PUSH1 0x20 DUP11 ADD SWAP10 POP POP PUSH1 0x1 DUP2 ADD SWAP1 POP PUSH2 0x4566 JUMP JUMPDEST POP DUP3 SWAP8 POP DUP8 SWAP6 POP POP POP POP POP POP SWAP3 SWAP2 POP POP JUMP JUMPDEST PUSH1 0x0 DUP3 DUP3 MSTORE PUSH1 0x20 DUP3 ADD SWAP1 POP SWAP3 SWAP2 POP POP JUMP JUMPDEST PUSH1 0x0 PUSH2 0x45CC DUP3 PUSH2 0x41C0 JUMP JUMPDEST PUSH2 0x45D6 DUP2 DUP6 PUSH2 0x45B0 JUMP JUMPDEST SWAP4 POP PUSH2 0x45E1 DUP4 PUSH2 0x41DC JUMP JUMPDEST DUP1 PUSH1 0x0 JUMPDEST DUP4 DUP2 LT ISZERO PUSH2 0x4612 JUMPI DUP2 MLOAD PUSH2 0x45F9 DUP9 DUP3 PUSH2 0x41EC JUMP JUMPDEST SWAP8 POP PUSH2 0x4604 DUP4 PUSH2 0x4204 JUMP JUMPDEST SWAP3 POP POP PUSH1 0x1 DUP2 ADD SWAP1 POP PUSH2 0x45E5 JUMP JUMPDEST POP DUP6 SWAP4 POP POP POP POP SWAP3 SWAP2 POP POP JUMP JUMPDEST PUSH2 0x4628 DUP2 PUSH2 0x3AF6 JUMP JUMPDEST DUP3 MSTORE POP POP JUMP JUMPDEST PUSH1 0x0 PUSH1 0xE0 DUP4 ADD PUSH1 0x0 DUP4 ADD MLOAD DUP5 DUP3 SUB PUSH1 0x0 DUP7 ADD MSTORE PUSH2 0x464B DUP3 DUP3 PUSH2 0x453B JUMP JUMPDEST SWAP2 POP POP PUSH1 0x20 DUP4 ADD MLOAD DUP5 DUP3 SUB PUSH1 0x20 DUP7 ADD MSTORE PUSH2 0x4665 DUP3 DUP3 PUSH2 0x45C1 JUMP JUMPDEST SWAP2 POP POP PUSH1 0x40 DUP4 ADD MLOAD PUSH2 0x467A PUSH1 0x40 DUP7 ADD DUP3 PUSH2 0x404E JUMP JUMPDEST POP PUSH1 0x60 DUP4 ADD MLOAD PUSH2 0x468D PUSH1 0x60 DUP7 ADD DUP3 PUSH2 0x461F JUMP JUMPDEST POP PUSH1 0x80 DUP4 ADD MLOAD PUSH2 0x46A0 PUSH1 0x80 DUP7 ADD DUP3 PUSH2 0x404E JUMP JUMPDEST POP PUSH1 0xA0 DUP4 ADD MLOAD PUSH2 0x46B3 PUSH1 0xA0 DUP7 ADD DUP3 PUSH2 0x404E JUMP JUMPDEST POP PUSH1 0xC0 DUP4 ADD MLOAD PUSH2 0x46C6 PUSH1 0xC0 DUP7 ADD DUP3 PUSH2 0x404E JUMP JUMPDEST POP DUP1 SWAP2 POP POP SWAP3 SWAP2 POP POP JUMP JUMPDEST PUSH1 0x0 PUSH1 0x20 DUP3 ADD SWAP1 POP DUP2 DUP2 SUB PUSH1 0x0 DUP4 ADD MSTORE PUSH2 0x46EB DUP2 DUP5 PUSH2 0x462E JUMP JUMPDEST SWAP1 POP SWAP3 SWAP2 POP POP JUMP JUMPDEST PUSH1 0x0 DUP1 PUSH1 0x40 DUP4 DUP6 SUB SLT ISZERO PUSH2 0x470A JUMPI PUSH2 0x4709 PUSH2 0x38FC JUMP JUMPDEST JUMPDEST PUSH1 0x0 PUSH2 0x4718 DUP6 DUP3 DUP7 ADD PUSH2 0x3B49 JUMP JUMPDEST SWAP3 POP POP PUSH1 0x20 PUSH2 0x4729 DUP6 DUP3 DUP7 ADD PUSH2 0x3B49 JUMP JUMPDEST SWAP2 POP POP SWAP3 POP SWAP3 SWAP1 POP JUMP JUMPDEST PUSH32 0x537472697020646F6573206E6F74206578697374000000000000000000000000 PUSH1 0x0 DUP3 ADD MSTORE POP JUMP JUMPDEST PUSH1 0x0 PUSH2 0x4769 PUSH1 0x14 DUP4 PUSH2 0x3A2F JUMP JUMPDEST SWAP2 POP PUSH2 0x4774 DUP3 PUSH2 0x4733 JUMP JUMPDEST PUSH1 0x20 DUP3 ADD SWAP1 POP SWAP2 SWAP1 POP JUMP JUMPDEST PUSH1 0x0 PUSH1 0x20 DUP3 ADD SWAP1 POP DUP2 DUP2 SUB PUSH1 0x0 DUP4 ADD MSTORE PUSH2 0x4798 DUP2 PUSH2 0x475C JUMP JUMPDEST SWAP1 POP SWAP2 SWAP1 POP JUMP JUMPDEST PUSH32 0x4E487B7100000000000000000000000000000000000000000000000000000000 PUSH1 0x0 MSTORE PUSH1 0x11 PUSH1 0x4 MSTORE PUSH1 0x24 PUSH1 0x0 REVERT JUMPDEST PUSH1 0x0 PUSH2 0x47D9 DUP3 PUSH2 0x3906 JUMP JUMPDEST SWAP2 POP PUSH2 0x47E4 DUP4 PUSH2 0x3906 JUMP JUMPDEST SWAP3 POP DUP3 DUP3 ADD SWAP1 POP DUP1 DUP3 GT ISZERO PUSH2 0x47FC JUMPI PUSH2 0x47FB PUSH2 0x479F JUMP JUMPDEST JUMPDEST SWAP3 SWAP2 POP POP JUMP JUMPDEST PUSH1 0x0 PUSH2 0x480D DUP3 PUSH2 0x3906 JUMP JUMPDEST SWAP2 POP PUSH2 0x4818 DUP4 PUSH2 0x3906 JUMP JUMPDEST SWAP3 POP DUP3 DUP3 MUL PUSH2 0x4826 DUP2 PUSH2 0x3906 JUMP JUMPDEST SWAP2 POP DUP3 DUP3 DIV DUP5 EQ DUP4 ISZERO OR PUSH2 0x483D JUMPI PUSH2 0x483C PUSH2 0x479F JUMP JUMPDEST JUMPDEST POP SWAP3 SWAP2 POP POP JUMP JUMPDEST PUSH32 0x4E487B7100000000000000000000000000000000000000000000000000000000 PUSH1 0x0 MSTORE PUSH1 0x12 PUSH1 0x4 MSTORE PUSH1 0x24 PUSH1 0x0 REVERT JUMPDEST PUSH1 0x0 PUSH2 0x487E DUP3 PUSH2 0x3906 JUMP JUMPDEST SWAP2 POP PUSH2 0x4889 DUP4 PUSH2 0x3906 JUMP JUMPDEST SWAP3 POP DUP3 PUSH2 0x4899 JUMPI PUSH2 0x4898 PUSH2 0x4844 JUMP JUMPDEST JUMPDEST DUP3 DUP3 DIV SWAP1 POP SWAP3 SWAP2 POP POP JUMP JUMPDEST PUSH1 0x0 PUSH2 0x48AF DUP3 PUSH2 0x3906 JUMP JUMPDEST SWAP2 POP PUSH32 0xFFFFFFFFFFFFFFFFFFFFFFFFFFFFFFFFFFFFFFFFFFFFFFFFFFFFFFFFFFFFFFFF DUP3 SUB PUSH2 0x48E1 JUMPI PUSH2 0x48E0 PUSH2 0x479F JUMP JUMPDEST JUMPDEST PUSH1 0x1 DUP3 ADD SWAP1 POP SWAP2 SWAP1 POP JUMP JUMPDEST PUSH1 0x0 PUSH1 0x60 DUP3 ADD SWAP1 POP PUSH2 0x4901 PUSH1 0x0 DUP4 ADD DUP7 PUSH2 0x3C31 JUMP JUMPDEST PUSH2 0x490E PUSH1 0x20 DUP4 ADD DUP6 PUSH2 0x3C31 JUMP JUMPDEST PUSH2 0x491B PUSH1 0x40 DUP4 ADD DUP5 PUSH2 0x3C31 JUMP JUMPDEST SWAP5 SWAP4 POP POP POP POP JUMP JUMPDEST PUSH32 0x4E487B7100000000000000000000000000000000000000000000000000000000 PUSH1 0x0 MSTORE PUSH1 0x22 PUSH1 0x4 MSTORE PUSH1 0x24 PUSH1 0x0 REVERT JUMPDEST PUSH1 0x0 PUSH1 0x2 DUP3 DIV SWAP1 POP PUSH1 0x1 DUP3 AND DUP1 PUSH2 0x496A JUMPI PUSH1 0x7F DUP3 AND SWAP2 POP JUMPDEST PUSH1 0x20 DUP3 LT DUP2 SUB PUSH2 0x497D JUMPI PUSH2 0x497C PUSH2 0x4923 JUMP JUMPDEST JUMPDEST POP SWAP2 SWAP1 POP JUMP JUMPDEST PUSH1 0x0 PUSH1 0x60 DUP3 ADD SWAP1 POP PUSH2 0x4998 PUSH1 0x0 DUP4 ADD DUP7 PUSH2 0x3B08 JUMP JUMPDEST PUSH2 0x49A5 PUSH1 0x20 DUP4 ADD DUP6 PUSH2 0x3C31 JUMP JUMPDEST PUSH2 0x49B2 PUSH1 0x40 DUP4 ADD DUP5 PUSH2 0x3B08 JUMP JUMPDEST SWAP5 SWAP4 POP POP POP POP JUMP JUMPDEST PUSH1 0x0 PUSH1 0x40 DUP3 ADD SWAP1 POP PUSH2 0x49CF PUSH1 0x0 DUP4 ADD DUP6 PUSH2 0x3C31 JUMP JUMPDEST PUSH2 0x49DC PUSH1 0x20 DUP4 ADD DUP5 PUSH2 0x3C31 JUMP JUMPDEST SWAP4 SWAP3 POP POP POP JUMP JUMPDEST PUSH32 0x4D7573742070726F76696465206174206C65617374206F6E6520696D61676500 PUSH1 0x0 DUP3 ADD MSTORE POP JUMP JUMPDEST PUSH1 0x0 PUSH2 0x4A19 PUSH1 0x1F DUP4 PUSH2 0x3A2F JUMP JUMPDEST SWAP2 POP PUSH2 0x4A24 DUP3 PUSH2 0x49E3 JUMP JUMPDEST PUSH1 0x20 DUP3 ADD SWAP1 POP SWAP2 SWAP1 POP JUMP JUMPDEST PUSH1 0x0 PUSH1 0x20 DUP3 ADD SWAP1 POP DUP2 DUP2 SUB PUSH1 0x0 DUP4 ADD MSTORE PUSH2 0x4A48 DUP2 PUSH2 0x4A0C JUMP JUMPDEST SWAP1 POP SWAP2 SWAP1 POP JUMP JUMPDEST PUSH32 0x436F6D696320646F6573206E6F74206578697374000000000000000000000000 PUSH1 0x0 DUP3 ADD MSTORE POP JUMP JUMPDEST PUSH1 0x0 PUSH2 0x4A85 PUSH1 0x14 DUP4 PUSH2 0x3A2F JUMP JUMPDEST SWAP2 POP PUSH2 0x4A90 DUP3 PUSH2 0x4A4F JUMP JUMPDEST PUSH1 0x20 DUP3 ADD SWAP1 POP SWAP2 SWAP1 POP JUMP JUMPDEST PUSH1 0x0 PUSH1 0x20 DUP3 ADD SWAP1 POP DUP2 DUP2 SUB PUSH1 0x0 DUP4 ADD MSTORE PUSH2 0x4AB4 DUP2 PUSH2 0x4A78 JUMP JUMPDEST SWAP1 POP SWAP2 SWAP1 POP JUMP JUMPDEST PUSH32 0x4E487B7100000000000000000000000000000000000000000000000000000000 PUSH1 0x0 MSTORE PUSH1 0x32 PUSH1 0x4 MSTORE PUSH1 0x24 PUSH1 0x0 REVERT JUMPDEST PUSH1 0x0 DUP2 MLOAD SWAP1 POP PUSH2 0x4AF9 DUP2 PUSH2 0x4291 JUMP JUMPDEST SWAP3 SWAP2 POP POP JUMP JUMPDEST PUSH1 0x0 PUSH1 0x20 DUP3 DUP5 SUB SLT ISZERO PUSH2 0x4B15 JUMPI PUSH2 0x4B14 PUSH2 0x38FC JUMP JUMPDEST JUMPDEST PUSH1 0x0 PUSH2 0x4B23 DUP5 DUP3 DUP6 ADD PUSH2 0x4AEA JUMP JUMPDEST SWAP2 POP POP SWAP3 SWAP2 POP POP JUMP JUMPDEST PUSH32 0x416C6C2063686172616374657273206D75737420626520616C69766500000000 PUSH1 0x0 DUP3 ADD MSTORE POP JUMP JUMPDEST PUSH1 0x0 PUSH2 0x4B62 PUSH1 0x1C DUP4 PUSH2 0x3A2F JUMP JUMPDEST SWAP2 POP PUSH2 0x4B6D DUP3 PUSH2 0x4B2C JUMP JUMPDEST PUSH1 0x20 DUP3 ADD SWAP1 POP SWAP2 SWAP1 POP JUMP JUMPDEST PUSH1 0x0 PUSH1 0x20 DUP3 ADD SWAP1 POP DUP2 DUP2 SUB PUSH1 0x0 DUP4 ADD MSTORE PUSH2 0x4B91 DUP2 PUSH2 0x4B55 JUMP JUMPDEST SWAP1 POP SWAP2 SWAP1 POP JUMP JUMPDEST PUSH1 0x0 PUSH1 0x60 DUP3 ADD SWAP1 POP PUSH2 0x4BAD PUSH1 0x0 DUP4 ADD DUP7 PUSH2 0x3C31 JUMP JUMPDEST PUSH2 0x4BBA PUSH1 0x20 DUP4 ADD DUP6 PUSH2 0x3B08 JUMP JUMPDEST PUSH2 0x4BC7 PUSH1 0x40 DUP4 ADD DUP5 PUSH2 0x3C31 JUMP JUMPDEST SWAP5 SWAP4 POP POP POP POP JUMP JUMPDEST PUSH32 0x496E73756666696369656E74207061796D656E7420666F7220636F6D69632063 PUSH1 0x0 DUP3 ADD MSTORE PUSH32 0x72656174696F6E00000000000000000000000000000000000000000000000000 PUSH1 0x20 DUP3 ADD MSTORE POP JUMP JUMPDEST PUSH1 0x0 PUSH2 0x4C2B PUSH1 0x27 DUP4 PUSH2 0x3A2F JUMP JUMPDEST SWAP2 POP PUSH2 0x4C36 DUP3 PUSH2 0x4BCF JUMP JUMPDEST PUSH1 0x40 DUP3 ADD SWAP1 POP SWAP2 SWAP1 POP JUMP JUMPDEST PUSH1 0x0 PUSH1 0x20 DUP3 ADD SWAP1 POP DUP2 DUP2 SUB PUSH1 0x0 DUP4 ADD MSTORE PUSH2 0x4C5A DUP2 PUSH2 0x4C1E JUMP JUMPDEST SWAP1 POP SWAP2 SWAP1 POP JUMP JUMPDEST PUSH32 0x4E616D652063616E6E6F7420626520656D707479000000000000000000000000 PUSH1 0x0 DUP3 ADD MSTORE POP JUMP JUMPDEST PUSH1 0x0 PUSH2 0x4C97 PUSH1 0x14 DUP4 PUSH2 0x3A2F JUMP JUMPDEST SWAP2 POP PUSH2 0x4CA2 DUP3 PUSH2 0x4C61 JUMP JUMPDEST PUSH1 0x20 DUP3 ADD SWAP1 POP SWAP2 SWAP1 POP JUMP JUMPDEST PUSH1 0x0 PUSH1 0x20 DUP3 ADD SWAP1 POP DUP2 DUP2 SUB PUSH1 0x0 DUP4 ADD MSTORE PUSH2 0x4CC6 DUP2 PUSH2 0x4C8A JUMP JUMPDEST SWAP1 POP SWAP2 SWAP1 POP JUMP JUMPDEST PUSH32 0x496D6167652063616E6E6F7420626520656D7074790000000000000000000000 PUSH1 0x0 DUP3 ADD MSTORE POP JUMP JUMPDEST PUSH1 0x0 PUSH2 0x4D03 PUSH1 0x15 DUP4 PUSH2 0x3A2F JUMP JUMPDEST SWAP2 POP PUSH2 0x4D0E DUP3 PUSH2 0x4CCD JUMP JUMPDEST PUSH1 0x20 DUP3 ADD SWAP1 POP SWAP2 SWAP1 POP JUMP JUMPDEST PUSH1 0x0 PUSH1 0x20 DUP3 ADD SWAP1 POP DUP2 DUP2 SUB PUSH1 0x0 DUP4 ADD MSTORE PUSH2 0x4D32 DUP2 PUSH2 0x4CF6 JUMP JUMPDEST SWAP1 POP SWAP2 SWAP1 POP JUMP JUMPDEST PUSH1 0x0 DUP2 SWAP1 POP DUP2 PUSH1 0x0 MSTORE PUSH1 0x20 PUSH1 0x0 KECCAK256 SWAP1 POP SWAP2 SWAP1 POP JUMP JUMPDEST PUSH1 0x0 PUSH1 0x20 PUSH1 0x1F DUP4 ADD DIV SWAP1 POP SWAP2 SWAP1 POP JUMP JUMPDEST PUSH1 0x0 DUP3 DUP3 SHL SWAP1 POP SWAP3 SWAP2 POP POP JUMP JUMPDEST PUSH1 0x0 PUSH1 0x8 DUP4 MUL PUSH2 0x4D9B PUSH32 0xFFFFFFFFFFFFFFFFFFFFFFFFFFFFFFFFFFFFFFFFFFFFFFFFFFFFFFFFFFFFFFFF DUP3 PUSH2 0x4D5E JUMP JUMPDEST PUSH2 0x4DA5 DUP7 DUP4 PUSH2 0x4D5E JUMP JUMPDEST SWAP6 POP DUP1 NOT DUP5 AND SWAP4 POP DUP1 DUP7 AND DUP5 OR SWAP3 POP POP POP SWAP4 SWAP3 POP POP POP JUMP JUMPDEST PUSH1 0x0 PUSH2 0x4DD8 PUSH2 0x4DD3 PUSH2 0x4DCE DUP5 PUSH2 0x3906 JUMP JUMPDEST PUSH2 0x4421 JUMP JUMPDEST PUSH2 0x3906 JUMP JUMPDEST SWAP1 POP SWAP2 SWAP1 POP JUMP JUMPDEST PUSH1 0x0 DUP2 SWAP1 POP SWAP2 SWAP1 POP JUMP JUMPDEST PUSH2 0x4DF2 DUP4 PUSH2 0x4DBD JUMP JUMPDEST PUSH2 0x4E06 PUSH2 0x4DFE DUP3 PUSH2 0x4DDF JUMP JUMPDEST DUP5 DUP5 SLOAD PUSH2 0x4D6B JUMP JUMPDEST DUP3 SSTORE POP POP POP POP JUMP JUMPDEST PUSH1 0x0 SWAP1 JUMP JUMPDEST PUSH2 0x4E1B PUSH2 0x4E0E JUMP JUMPDEST PUSH2 0x4E26 DUP2 DUP5 DUP5 PUSH2 0x4DE9 JUMP JUMPDEST POP POP POP JUMP JUMPDEST JUMPDEST DUP2 DUP2 LT ISZERO PUSH2 0x4E4A JUMPI PUSH2 0x4E3F PUSH1 0x0 DUP3 PUSH2 0x4E13 JUMP JUMPDEST PUSH1 0x1 DUP2 ADD SWAP1 POP PUSH2 0x4E2C JUMP JUMPDEST POP POP JUMP JUMPDEST PUSH1 0x1F DUP3 GT ISZERO PUSH2 0x4E8F JUMPI PUSH2 0x4E60 DUP2 PUSH2 0x4D39 JUMP JUMPDEST PUSH2 0x4E69 DUP5 PUSH2 0x4D4E JUMP JUMPDEST DUP2 ADD PUSH1 0x20 DUP6 LT ISZERO PUSH2 0x4E78 JUMPI DUP2 SWAP1 POP JUMPDEST PUSH2 0x4E8C PUSH2 0x4E84 DUP6 PUSH2 0x4D4E JUMP JUMPDEST DUP4 ADD DUP3 PUSH2 0x4E2B JUMP JUMPDEST POP POP JUMPDEST POP POP POP JUMP JUMPDEST PUSH1 0x0 DUP3 DUP3 SHR SWAP1 POP SWAP3 SWAP2 POP POP JUMP JUMPDEST PUSH1 0x0 PUSH2 0x4EB2 PUSH1 0x0 NOT DUP5 PUSH1 0x8 MUL PUSH2 0x4E94 JUMP JUMPDEST NOT DUP1 DUP4 AND SWAP2 POP POP SWAP3 SWAP2 POP POP JUMP JUMPDEST PUSH1 0x0 PUSH2 0x4ECB DUP4 DUP4 PUSH2 0x4EA1 JUMP JUMPDEST SWAP2 POP DUP3 PUSH1 0x2 MUL DUP3 OR SWAP1 POP SWAP3 SWAP2 POP POP JUMP JUMPDEST PUSH2 0x4EE4 DUP3 PUSH2 0x3A24 JUMP JUMPDEST PUSH8 0xFFFFFFFFFFFFFFFF DUP2 GT ISZERO PUSH2 0x4EFD JUMPI PUSH2 0x4EFC PUSH2 0x3CA0 JUMP JUMPDEST JUMPDEST PUSH2 0x4F07 DUP3 SLOAD PUSH2 0x4952 JUMP JUMPDEST PUSH2 0x4F12 DUP3 DUP3 DUP6 PUSH2 0x4E4E JUMP JUMPDEST PUSH1 0x0 PUSH1 0x20 SWAP1 POP PUSH1 0x1F DUP4 GT PUSH1 0x1 DUP2 EQ PUSH2 0x4F45 JUMPI PUSH1 0x0 DUP5 ISZERO PUSH2 0x4F33 JUMPI DUP3 DUP8 ADD MLOAD SWAP1 POP JUMPDEST PUSH2 0x4F3D DUP6 DUP3 PUSH2 0x4EBF JUMP JUMPDEST DUP7 SSTORE POP PUSH2 0x4FA5 JUMP JUMPDEST PUSH1 0x1F NOT DUP5 AND PUSH2 0x4F53 DUP7 PUSH2 0x4D39 JUMP JUMPDEST PUSH1 0x0 JUMPDEST DUP3 DUP2 LT ISZERO PUSH2 0x4F7B JUMPI DUP5 DUP10 ADD MLOAD DUP3 SSTORE PUSH1 0x1 DUP3 ADD SWAP2 POP PUSH1 0x20 DUP6 ADD SWAP5 POP PUSH1 0x20 DUP2 ADD SWAP1 POP PUSH2 0x4F56 JUMP JUMPDEST DUP7 DUP4 LT ISZERO PUSH2 0x4F98 JUMPI DUP5 DUP10 ADD MLOAD PUSH2 0x4F94 PUSH1 0x1F DUP10 AND DUP3 PUSH2 0x4EA1 JUMP JUMPDEST DUP4 SSTORE POP JUMPDEST PUSH1 0x1 PUSH1 0x2 DUP9 MUL ADD DUP9 SSTORE POP POP POP JUMPDEST POP POP POP POP POP POP JUMP JUMPDEST PUSH1 0x0 DUP2 SWAP1 POP SWAP3 SWAP2 POP POP JUMP JUMPDEST PUSH32 0x7B226E616D65223A220000000000000000000000000000000000000000000000 PUSH1 0x0 DUP3 ADD MSTORE POP JUMP JUMPDEST PUSH1 0x0 PUSH2 0x4FEE PUSH1 0x9 DUP4 PUSH2 0x4FAD JUMP JUMPDEST SWAP2 POP PUSH2 0x4FF9 DUP3 PUSH2 0x4FB8 JUMP JUMPDEST PUSH1 0x9 DUP3 ADD SWAP1 POP SWAP2 SWAP1 POP JUMP JUMPDEST PUSH1 0x0 PUSH2 0x500F DUP3 PUSH2 0x3A24 JUMP JUMPDEST PUSH2 0x5019 DUP2 DUP6 PUSH2 0x4FAD JUMP JUMPDEST SWAP4 POP PUSH2 0x5029 DUP2 DUP6 PUSH1 0x20 DUP7 ADD PUSH2 0x3A40 JUMP JUMPDEST DUP1 DUP5 ADD SWAP2 POP POP SWAP3 SWAP2 POP POP JUMP JUMPDEST PUSH32 0x222C000000000000000000000000000000000000000000000000000000000000 PUSH1 0x0 DUP3 ADD MSTORE POP JUMP JUMPDEST PUSH1 0x0 PUSH2 0x506B PUSH1 0x2 DUP4 PUSH2 0x4FAD JUMP JUMPDEST SWAP2 POP PUSH2 0x5076 DUP3 PUSH2 0x5035 JUMP JUMPDEST PUSH1 0x2 DUP3 ADD SWAP1 POP SWAP2 SWAP1 POP JUMP JUMPDEST PUSH32 0x226465736372697074696F6E223A224120636F6D69632066726F6D20576F726C PUSH1 0x0 DUP3 ADD MSTORE PUSH32 0x6420436F6D696373222C00000000000000000000000000000000000000000000 PUSH1 0x20 DUP3 ADD MSTORE POP JUMP JUMPDEST PUSH1 0x0 PUSH2 0x50DD PUSH1 0x2A DUP4 PUSH2 0x4FAD JUMP JUMPDEST SWAP2 POP PUSH2 0x50E8 DUP3 PUSH2 0x5081 JUMP JUMPDEST PUSH1 0x2A DUP3 ADD SWAP1 POP SWAP2 SWAP1 POP JUMP JUMPDEST PUSH32 0x22696D616765223A220000000000000000000000000000000000000000000000 PUSH1 0x0 DUP3 ADD MSTORE POP JUMP JUMPDEST PUSH1 0x0 PUSH2 0x5129 PUSH1 0x9 DUP4 PUSH2 0x4FAD JUMP JUMPDEST SWAP2 POP PUSH2 0x5134 DUP3 PUSH2 0x50F3 JUMP JUMPDEST PUSH1 0x9 DUP3 ADD SWAP1 POP SWAP2 SWAP1 POP JUMP JUMPDEST PUSH32 0x2261747472696275746573223A5B000000000000000000000000000000000000 PUSH1 0x0 DUP3 ADD MSTORE POP JUMP JUMPDEST PUSH1 0x0 PUSH2 0x5175 PUSH1 0xE DUP4 PUSH2 0x4FAD JUMP JUMPDEST SWAP2 POP PUSH2 0x5180 DUP3 PUSH2 0x513F JUMP JUMPDEST PUSH1 0xE DUP3 ADD SWAP1 POP SWAP2 SWAP1 POP JUMP JUMPDEST PUSH32 0x7B2274726169745F74797065223A2243726561746564204174222C2276616C75 PUSH1 0x0 DUP3 ADD MSTORE PUSH32 0x65223A2200000000000000000000000000000000000000000000000000000000 PUSH1 0x20 DUP3 ADD MSTORE POP JUMP JUMPDEST PUSH1 0x0 PUSH2 0x51E7 PUSH1 0x24 DUP4 PUSH2 0x4FAD JUMP JUMPDEST SWAP2 POP PUSH2 0x51F2 DUP3 PUSH2 0x518B JUMP JUMPDEST PUSH1 0x24 DUP3 ADD SWAP1 POP SWAP2 SWAP1 POP JUMP JUMPDEST PUSH32 0x227D000000000000000000000000000000000000000000000000000000000000 PUSH1 0x0 DUP3 ADD MSTORE POP JUMP JUMPDEST PUSH1 0x0 PUSH2 0x5233 PUSH1 0x2 DUP4 PUSH2 0x4FAD JUMP JUMPDEST SWAP2 POP PUSH2 0x523E DUP3 PUSH2 0x51FD JUMP JUMPDEST PUSH1 0x2 DUP3 ADD SWAP1 POP SWAP2 SWAP1 POP JUMP JUMPDEST PUSH32 0x5D7D000000000000000000000000000000000000000000000000000000000000 PUSH1 0x0 DUP3 ADD MSTORE POP JUMP JUMPDEST PUSH1 0x0 PUSH2 0x527F PUSH1 0x2 DUP4 PUSH2 0x4FAD JUMP JUMPDEST SWAP2 POP PUSH2 0x528A DUP3 PUSH2 0x5249 JUMP JUMPDEST PUSH1 0x2 DUP3 ADD SWAP1 POP SWAP2 SWAP1 POP JUMP JUMPDEST PUSH1 0x0 PUSH2 0x52A0 DUP3 PUSH2 0x4FE1 JUMP JUMPDEST SWAP2 POP PUSH2 0x52AC DUP3 DUP7 PUSH2 0x5004 JUMP JUMPDEST SWAP2 POP PUSH2 0x52B7 DUP3 PUSH2 0x505E JUMP JUMPDEST SWAP2 POP PUSH2 0x52C2 DUP3 PUSH2 0x50D0 JUMP JUMPDEST SWAP2 POP PUSH2 0x52CD DUP3 PUSH2 0x511C JUMP JUMPDEST SWAP2 POP PUSH2 0x52D9 DUP3 DUP6 PUSH2 0x5004 JUMP JUMPDEST SWAP2 POP PUSH2 0x52E4 DUP3 PUSH2 0x505E JUMP JUMPDEST SWAP2 POP PUSH2 0x52EF DUP3 PUSH2 0x5168 JUMP JUMPDEST SWAP2 POP PUSH2 0x52FA DUP3 PUSH2 0x51DA JUMP JUMPDEST SWAP2 POP PUSH2 0x5306 DUP3 DUP5 PUSH2 0x5004 JUMP JUMPDEST SWAP2 POP PUSH2 0x5311 DUP3 PUSH2 0x5226 JUMP JUMPDEST SWAP2 POP PUSH2 0x531C DUP3 PUSH2 0x5272 JUMP JUMPDEST SWAP2 POP DUP2 SWAP1 POP SWAP5 SWAP4 POP POP POP POP JUMP JUMPDEST PUSH1 0x0 PUSH1 0x40 DUP3 ADD SWAP1 POP DUP2 DUP2 SUB PUSH1 0x0 DUP4 ADD MSTORE PUSH2 0x5343 DUP2 DUP6 PUSH2 0x3A7B JUMP JUMPDEST SWAP1 POP DUP2 DUP2 SUB PUSH1 0x20 DUP4 ADD MSTORE PUSH2 0x5357 DUP2 DUP5 PUSH2 0x3A7B JUMP JUMPDEST SWAP1 POP SWAP4 SWAP3 POP POP POP JUMP JUMPDEST PUSH32 0x4552433732314D657461646174613A2055524920717565727920666F72206E6F PUSH1 0x0 DUP3 ADD MSTORE PUSH32 0x6E6578697374656E7420746F6B656E0000000000000000000000000000000000 PUSH1 0x20 DUP3 ADD MSTORE POP JUMP JUMPDEST PUSH1 0x0 PUSH2 0x53BC PUSH1 0x2F DUP4 PUSH2 0x3A2F JUMP JUMPDEST SWAP2 POP PUSH2 0x53C7 DUP3 PUSH2 0x5360 JUMP JUMPDEST PUSH1 0x40 DUP3 ADD SWAP1 POP SWAP2 SWAP1 POP JUMP JUMPDEST PUSH1 0x0 PUSH1 0x20 DUP3 ADD SWAP1 POP DUP2 DUP2 SUB PUSH1 0x0 DUP4 ADD MSTORE PUSH2 0x53EB DUP2 PUSH2 0x53AF JUMP JUMPDEST SWAP1 POP SWAP2 SWAP1 POP JUMP JUMPDEST PUSH32 0x436F6D6963207472616E7366657273206172652064697361626C656400000000 PUSH1 0x0 DUP3 ADD MSTORE POP JUMP JUMPDEST PUSH1 0x0 PUSH2 0x5428 PUSH1 0x1C DUP4 PUSH2 0x3A2F JUMP JUMPDEST SWAP2 POP PUSH2 0x5433 DUP3 PUSH2 0x53F2 JUMP JUMPDEST PUSH1 0x20 DUP3 ADD SWAP1 POP SWAP2 SWAP1 POP JUMP JUMPDEST PUSH1 0x0 PUSH1 0x20 DUP3 ADD SWAP1 POP DUP2 DUP2 SUB PUSH1 0x0 DUP4 ADD MSTORE PUSH2 0x5457 DUP2 PUSH2 0x541B JUMP JUMPDEST SWAP1 POP SWAP2 SWAP1 POP JUMP JUMPDEST PUSH1 0x0 DUP2 MLOAD SWAP1 POP SWAP2 SWAP1 POP JUMP JUMPDEST PUSH1 0x0 DUP3 DUP3 MSTORE PUSH1 0x20 DUP3 ADD SWAP1 POP SWAP3 SWAP2 POP POP JUMP JUMPDEST PUSH1 0x0 PUSH2 0x5485 DUP3 PUSH2 0x545E JUMP JUMPDEST PUSH2 0x548F DUP2 DUP6 PUSH2 0x5469 JUMP JUMPDEST SWAP4 POP PUSH2 0x549F DUP2 DUP6 PUSH1 0x20 DUP7 ADD PUSH2 0x3A40 JUMP JUMPDEST PUSH2 0x54A8 DUP2 PUSH2 0x3A6A JUMP JUMPDEST DUP5 ADD SWAP2 POP POP SWAP3 SWAP2 POP POP JUMP JUMPDEST PUSH1 0x0 PUSH1 0x80 DUP3 ADD SWAP1 POP PUSH2 0x54C8 PUSH1 0x0 DUP4 ADD DUP8 PUSH2 0x3B08 JUMP JUMPDEST PUSH2 0x54D5 PUSH1 0x20 DUP4 ADD DUP7 PUSH2 0x3B08 JUMP JUMPDEST PUSH2 0x54E2 PUSH1 0x40 DUP4 ADD DUP6 PUSH2 0x3C31 JUMP JUMPDEST DUP2 DUP2 SUB PUSH1 0x60 DUP4 ADD MSTORE PUSH2 0x54F4 DUP2 DUP5 PUSH2 0x547A JUMP JUMPDEST SWAP1 POP SWAP6 SWAP5 POP POP POP POP POP JUMP JUMPDEST PUSH1 0x0 DUP2 MLOAD SWAP1 POP PUSH2 0x550E DUP2 PUSH2 0x3995 JUMP JUMPDEST SWAP3 SWAP2 POP POP JUMP JUMPDEST PUSH1 0x0 PUSH1 0x20 DUP3 DUP5 SUB SLT ISZERO PUSH2 0x552A JUMPI PUSH2 0x5529 PUSH2 0x38FC JUMP JUMPDEST JUMPDEST PUSH1 0x0 PUSH2 0x5538 DUP5 DUP3 DUP6 ADD PUSH2 0x54FF JUMP JUMPDEST SWAP2 POP POP SWAP3 SWAP2 POP POP JUMP JUMPDEST PUSH1 0x0 PUSH2 0x554D DUP3 DUP6 PUSH2 0x5004 JUMP JUMPDEST SWAP2 POP PUSH2 0x5559 DUP3 DUP5 PUSH2 0x5004 JUMP JUMPDEST SWAP2 POP DUP2 SWAP1 POP SWAP4 SWAP3 POP POP POP JUMP JUMPDEST PUSH1 0x0 PUSH1 0x40 DUP3 ADD SWAP1 POP PUSH2 0x557A PUSH1 0x0 DUP4 ADD DUP6 PUSH2 0x3B08 JUMP JUMPDEST PUSH2 0x5587 PUSH1 0x20 DUP4 ADD DUP5 PUSH2 0x3C31 JUMP JUMPDEST SWAP4 SWAP3 POP POP POP JUMP INVALID COINBASE TIMESTAMP NUMBER PREVRANDAO GASLIMIT CHAINID SELFBALANCE BASEFEE 0x49 0x4A 0x4B 0x4C 0x4D 0x4E 0x4F POP MLOAD MSTORE MSTORE8 SLOAD SSTORE JUMP JUMPI PC MSIZE GAS PUSH2 0x6263 PUSH5 0x6566676869 PUSH11 0x6B6C6D6E6F707172737475 PUSH23 0x7778797A303132333435363738392B2FA2646970667358 0x22 SLT KECCAK256 0xDD 0xB4 MLOAD GT 0xE9 LOG3 0xA6 PUSH20 0x5219231E4D7979D6E2BDBA1F4FBECC9DFD9E97F1 0xF8 0xC3 0xF8 0xC4 PUSH5 0x736F6C6343 STOP ADDMOD EQ STOP CALLER "},"methodIdentifiers":{"BASE_COMIC_FEE()":"f2171487","BASE_STRIP_FEE()":"835f5996","approve(address,uint256)":"095ea7b3","balanceOf(address)":"70a08231","characters()":"d070bb54","comicCount()":"703a2c4b","comicOwners(uint256)":"37fa09aa","comicStrips(uint256,uint256)":"4c47ec64","comics(uint256)":"7a80dc1d","contributions(uint256,address)":"3d891f59","createComic(string,string)":"48fcf243","createStrip(string[],uint256[],uint256)":"43f52ba9","currentStripDay(uint256)":"4ef39827","dailyStrips(uint256,uint256)":"f1f28cbf","getApproved(uint256)":"081812fc","getComic(uint256)":"47ac33ee","getComicCreationFee()":"b0c5dfa3","getComicStrips(uint256)":"9d076031","getCurrentDay(uint256)":"384316e8","getDailyStrips(uint256)":"cb223904","getStrip(uint256)":"e5c49324","getVoteCount(uint256)":"b2c2f2e8","isAlive(uint256)":"d84b2361","isApprovedForAll(address,address)":"e985e9c5","name()":"06fdde03","owner()":"8da5cb5b","ownerOf(uint256)":"6352211e","renounceOwnership()":"715018a6","safeTransferFrom(address,address,uint256)":"42842e0e","safeTransferFrom(address,address,uint256,bytes)":"b88d4fde","setApprovalForAll(address,bool)":"a22cb465","strips(uint256)":"d9ad0a6b","supportsInterface(bytes4)":"01ffc9a7","symbol()":"95d89b41","tokenURI(uint256)":"c87b56dd","transferFrom(address,address,uint256)":"23b872dd","transferOwnership(address)":"f2fde38b","updateBaseFee(uint256,uint256)":"23f13765","vote(uint256)":"0121b93f","withdraw()":"3ccfd60b"}}}}}