{
  "_format": "hh-sol-artifact-1",
  "contractName": "Admin",
  "sourceName": "contracts/Admin.sol",
  "abi": [
    {
      "inputs": [
        {
          "internalType": "address",
          "name": "_charactersAddress",
          "type": "address"
        },
        {
          "internalType": "address",
          "name": "_propsAddress",
          "type": "address"
        },
        {
          "internalType": "address",
          "name": "_comicsAddress",
          "type": "address"
        },
        {
          "internalType": "address",
          "name": "_scenesAddress",
          "type": "address"
        }
      ],
      "stateMutability": "nonpayable",
      "type": "constructor"
    },
    {
      "inputs": [
        {
          "internalType": "address",
          "name": "owner",
          "type": "address"
        }
      ],
      "name": "OwnableInvalidOwner",
      "type": "error"
    },
    {
      "inputs": [
        {
          "internalType": "address",
          "name": "account",
          "type": "address"
        }
      ],
      "name": "OwnableUnauthorizedAccount",
      "type": "error"
    },
    {
      "anonymous": false,
      "inputs": [
        {
          "indexed": true,
          "internalType": "uint256",
          "name": "comicId",
          "type": "uint256"
        },
        {
          "indexed": false,
          "internalType": "address",
          "name": "comicsAddress",
          "type": "address"
        },
        {
          "indexed": false,
          "internalType": "string",
          "name": "name",
          "type": "string"
        }
      ],
      "name": "ComicCreated",
      "type": "event"
    },
    {
      "anonymous": false,
      "inputs": [
        {
          "indexed": false,
          "internalType": "address",
          "name": "characters",
          "type": "address"
        },
        {
          "indexed": false,
          "internalType": "address",
          "name": "props",
          "type": "address"
        },
        {
          "indexed": false,
          "internalType": "address",
          "name": "comics",
          "type": "address"
        },
        {
          "indexed": false,
          "internalType": "address",
          "name": "scenes",
          "type": "address"
        }
      ],
      "name": "ContractsDeployed",
      "type": "event"
    },
    {
      "anonymous": false,
      "inputs": [
        {
          "indexed": true,
          "internalType": "address",
          "name": "previousOwner",
          "type": "address"
        },
        {
          "indexed": true,
          "internalType": "address",
          "name": "newOwner",
          "type": "address"
        }
      ],
      "name": "OwnershipTransferred",
      "type": "event"
    },
    {
      "anonymous": false,
      "inputs": [
        {
          "indexed": true,
          "internalType": "address",
          "name": "user",
          "type": "address"
        },
        {
          "indexed": false,
          "internalType": "uint256",
          "name": "amount",
          "type": "uint256"
        }
      ],
      "name": "PromptPaid",
      "type": "event"
    },
    {
      "inputs": [],
      "name": "PROMPT_PRICE",
      "outputs": [
        {
          "internalType": "uint256",
          "name": "",
          "type": "uint256"
        }
      ],
      "stateMutability": "view",
      "type": "function"
    },
    {
      "inputs": [],
      "name": "charactersAddress",
      "outputs": [
        {
          "internalType": "address",
          "name": "",
          "type": "address"
        }
      ],
      "stateMutability": "view",
      "type": "function"
    },
    {
      "inputs": [
        {
          "internalType": "uint256",
          "name": "",
          "type": "uint256"
        }
      ],
      "name": "comicAddresses",
      "outputs": [
        {
          "internalType": "address",
          "name": "",
          "type": "address"
        }
      ],
      "stateMutability": "view",
      "type": "function"
    },
    {
      "inputs": [],
      "name": "comicsAddress",
      "outputs": [
        {
          "internalType": "address",
          "name": "",
          "type": "address"
        }
      ],
      "stateMutability": "view",
      "type": "function"
    },
    {
      "inputs": [
        {
          "internalType": "string",
          "name": "_name",
          "type": "string"
        },
        {
          "internalType": "string",
          "name": "_image",
          "type": "string"
        }
      ],
      "name": "createComic",
      "outputs": [
        {
          "internalType": "uint256",
          "name": "",
          "type": "uint256"
        }
      ],
      "stateMutability": "payable",
      "type": "function"
    },
    {
      "inputs": [],
      "name": "getCharactersAddress",
      "outputs": [
        {
          "internalType": "address",
          "name": "",
          "type": "address"
        }
      ],
      "stateMutability": "view",
      "type": "function"
    },
    {
      "inputs": [
        {
          "internalType": "uint256",
          "name": "_comicId",
          "type": "uint256"
        }
      ],
      "name": "getComicAddress",
      "outputs": [
        {
          "internalType": "address",
          "name": "",
          "type": "address"
        }
      ],
      "stateMutability": "view",
      "type": "function"
    },
    {
      "inputs": [],
      "name": "getComicsAddress",
      "outputs": [
        {
          "internalType": "address",
          "name": "",
          "type": "address"
        }
      ],
      "stateMutability": "view",
      "type": "function"
    },
    {
      "inputs": [],
      "name": "getPropsAddress",
      "outputs": [
        {
          "internalType": "address",
          "name": "",
          "type": "address"
        }
      ],
      "stateMutability": "view",
      "type": "function"
    },
    {
      "inputs": [],
      "name": "getScenesAddress",
      "outputs": [
        {
          "internalType": "address",
          "name": "",
          "type": "address"
        }
      ],
      "stateMutability": "view",
      "type": "function"
    },
    {
      "inputs": [],
      "name": "owner",
      "outputs": [
        {
          "internalType": "address",
          "name": "",
          "type": "address"
        }
      ],
      "stateMutability": "view",
      "type": "function"
    },
    {
      "inputs": [],
      "name": "payForPrompt",
      "outputs": [],
      "stateMutability": "payable",
      "type": "function"
    },
    {
      "inputs": [],
      "name": "propsAddress",
      "outputs": [
        {
          "internalType": "address",
          "name": "",
          "type": "address"
        }
      ],
      "stateMutability": "view",
      "type": "function"
    },
    {
      "inputs": [],
      "name": "renounceOwnership",
      "outputs": [],
      "stateMutability": "nonpayable",
      "type": "function"
    },
    {
      "inputs": [],
      "name": "scenesAddress",
      "outputs": [
        {
          "internalType": "address",
          "name": "",
          "type": "address"
        }
      ],
      "stateMutability": "view",
      "type": "function"
    },
    {
      "inputs": [
        {
          "internalType": "address",
          "name": "newOwner",
          "type": "address"
        }
      ],
      "name": "transferOwnership",
      "outputs": [],
      "stateMutability": "nonpayable",
      "type": "function"
    },
    {
      "inputs": [
        {
          "internalType": "uint256",
          "name": "_promptPrice",
          "type": "uint256"
        }
      ],
      "name": "updatePromptPrice",
      "outputs": [],
      "stateMutability": "nonpayable",
      "type": "function"
    },
    {
      "inputs": [],
      "name": "withdraw",
      "outputs": [],
      "stateMutability": "nonpayable",
      "type": "function"
    }
  ],
  "bytecode": "0x61010060405260006001553480156200001757600080fd5b50604051620013d6380380620013d683398181016040528101906200003d91906200030c565b33600073ffffffffffffffffffffffffffffffffffffffff168173ffffffffffffffffffffffffffffffffffffffff1603620000b35760006040517f1e4fbdf7000000000000000000000000000000000000000000000000000000008152600401620000aa91906200038f565b60405180910390fd5b620000c481620001de60201b60201c565b508373ffffffffffffffffffffffffffffffffffffffff1660808173ffffffffffffffffffffffffffffffffffffffff16815250508273ffffffffffffffffffffffffffffffffffffffff1660a08173ffffffffffffffffffffffffffffffffffffffff16815250508173ffffffffffffffffffffffffffffffffffffffff1660c08173ffffffffffffffffffffffffffffffffffffffff16815250508073ffffffffffffffffffffffffffffffffffffffff1660e08173ffffffffffffffffffffffffffffffffffffffff16815250507f4b75aa1a13a160f48feea5d6d4f23760de2ae3e26f90d390b095aa4faa48548584848484604051620001cc9493929190620003ac565b60405180910390a150505050620003f9565b60008060009054906101000a900473ffffffffffffffffffffffffffffffffffffffff169050816000806101000a81548173ffffffffffffffffffffffffffffffffffffffff021916908373ffffffffffffffffffffffffffffffffffffffff1602179055508173ffffffffffffffffffffffffffffffffffffffff168173ffffffffffffffffffffffffffffffffffffffff167f8be0079c531659141344cd1fd0a4f28419497f9722a3daafe3b4186f6b6457e060405160405180910390a35050565b600080fd5b600073ffffffffffffffffffffffffffffffffffffffff82169050919050565b6000620002d482620002a7565b9050919050565b620002e681620002c7565b8114620002f257600080fd5b50565b6000815190506200030681620002db565b92915050565b60008060008060808587031215620003295762000328620002a2565b5b60006200033987828801620002f5565b94505060206200034c87828801620002f5565b93505060406200035f87828801620002f5565b92505060606200037287828801620002f5565b91505092959194509250565b6200038981620002c7565b82525050565b6000602082019050620003a660008301846200037e565b92915050565b6000608082019050620003c360008301876200037e565b620003d260208301866200037e565b620003e160408301856200037e565b620003f060608301846200037e565b95945050505050565b60805160a05160c05160e051610f7262000464600039600081816105a101526107ab0152600081816103f2015281816105ca01528181610670015281816107040152610749015260008181610771015261091f01526000818161081201526108fb0152610f726000f3fe6080604052600436106101095760003560e01c806379b8d171116100955780639f1c2d30116100645780639f1c2d3014610309578063eba0c51414610334578063f2fde38b14610371578063f7dc8d281461039a578063f8376d5e146103c557610109565b806379b8d1711461025f5780637a18cf561461028a5780638da5cb5b146102b55780638f9946be146102e057610109565b80634386c464116100dc5780634386c4641461019757806348fcf243146101c257806350ab256d146101f25780635c5c78571461021d578063715018a61461024857610109565b80632986f77e1461010e57806332982aea1461013957806338c5da60146101765780633ccfd60b14610180575b600080fd5b34801561011a57600080fd5b506101236103f0565b6040516101309190610ad5565b60405180910390f35b34801561014557600080fd5b50610160600480360381019061015b9190610b3a565b610414565b60405161016d9190610ad5565b60405180910390f35b61017e610447565b005b34801561018c57600080fd5b50610195610545565b005b3480156101a357600080fd5b506101ac61059d565b6040516101b99190610ad5565b60405180910390f35b6101dc60048036038101906101d79190610cad565b6105c5565b6040516101e99190610d34565b60405180910390f35b3480156101fe57600080fd5b50610207610745565b6040516102149190610ad5565b60405180910390f35b34801561022957600080fd5b5061023261076d565b60405161023f9190610ad5565b60405180910390f35b34801561025457600080fd5b5061025d610795565b005b34801561026b57600080fd5b506102746107a9565b6040516102819190610ad5565b60405180910390f35b34801561029657600080fd5b5061029f6107cd565b6040516102ac9190610d34565b60405180910390f35b3480156102c157600080fd5b506102ca6107d3565b6040516102d79190610ad5565b60405180910390f35b3480156102ec57600080fd5b5061030760048036038101906103029190610b3a565b6107fc565b005b34801561031557600080fd5b5061031e61080e565b60405161032b9190610ad5565b60405180910390f35b34801561034057600080fd5b5061035b60048036038101906103569190610b3a565b610836565b6040516103689190610ad5565b60405180910390f35b34801561037d57600080fd5b5061039860048036038101906103939190610d7b565b610873565b005b3480156103a657600080fd5b506103af6108f9565b6040516103bc9190610ad5565b60405180910390f35b3480156103d157600080fd5b506103da61091d565b6040516103e79190610ad5565b60405180910390f35b7f000000000000000000000000000000000000000000000000000000000000000081565b60036020528060005260406000206000915054906101000a900473ffffffffffffffffffffffffffffffffffffffff1681565b60015434101561048c576040517f08c379a000000000000000000000000000000000000000000000000000000000815260040161048390610e05565b60405180910390fd5b60016002600043815260200190815260200160002060003373ffffffffffffffffffffffffffffffffffffffff1673ffffffffffffffffffffffffffffffffffffffff16815260200190815260200160002060006101000a81548160ff0219169083151502179055503373ffffffffffffffffffffffffffffffffffffffff167f9ae960452d6e408de27ec9817223245ade63bf20f5519ade300af70a14ffbe3a3460405161053b9190610d34565b60405180910390a2565b61054d610941565b6105556107d3565b73ffffffffffffffffffffffffffffffffffffffff166108fc479081150290604051600060405180830381858888f1935050505015801561059a573d6000803e3d6000fd5b50565b60007f0000000000000000000000000000000000000000000000000000000000000000905090565b6000807f0000000000000000000000000000000000000000000000000000000000000000905060008173ffffffffffffffffffffffffffffffffffffffff166348fcf2433487876040518463ffffffff1660e01b8152600401610629929190610e93565b60206040518083038185885af1158015610647573d6000803e3d6000fd5b50505050506040513d601f19601f8201168201806040525081019061066c9190610edf565b90507f00000000000000000000000000000000000000000000000000000000000000006003600083815260200190815260200160002060006101000a81548173ffffffffffffffffffffffffffffffffffffffff021916908373ffffffffffffffffffffffffffffffffffffffff160217905550807f710f23c42401b5e0d67b3f8b5e6a3274c50401f4c8ae24a4bc9134cf3402ea627f000000000000000000000000000000000000000000000000000000000000000087604051610732929190610f0c565b60405180910390a2809250505092915050565b60007f0000000000000000000000000000000000000000000000000000000000000000905090565b60007f0000000000000000000000000000000000000000000000000000000000000000905090565b61079d610941565b6107a760006109c8565b565b7f000000000000000000000000000000000000000000000000000000000000000081565b60015481565b60008060009054906101000a900473ffffffffffffffffffffffffffffffffffffffff16905090565b610804610941565b8060018190555050565b60007f0000000000000000000000000000000000000000000000000000000000000000905090565b60006003600083815260200190815260200160002060009054906101000a900473ffffffffffffffffffffffffffffffffffffffff169050919050565b61087b610941565b600073ffffffffffffffffffffffffffffffffffffffff168173ffffffffffffffffffffffffffffffffffffffff16036108ed5760006040517f1e4fbdf70000000000000000000000000000000000000000000000000000000081526004016108e49190610ad5565b60405180910390fd5b6108f6816109c8565b50565b7f000000000000000000000000000000000000000000000000000000000000000081565b7f000000000000000000000000000000000000000000000000000000000000000081565b610949610a8c565b73ffffffffffffffffffffffffffffffffffffffff166109676107d3565b73ffffffffffffffffffffffffffffffffffffffff16146109c65761098a610a8c565b6040517f118cdaa70000000000000000000000000000000000000000000000000000000081526004016109bd9190610ad5565b60405180910390fd5b565b60008060009054906101000a900473ffffffffffffffffffffffffffffffffffffffff169050816000806101000a81548173ffffffffffffffffffffffffffffffffffffffff021916908373ffffffffffffffffffffffffffffffffffffffff1602179055508173ffffffffffffffffffffffffffffffffffffffff168173ffffffffffffffffffffffffffffffffffffffff167f8be0079c531659141344cd1fd0a4f28419497f9722a3daafe3b4186f6b6457e060405160405180910390a35050565b600033905090565b600073ffffffffffffffffffffffffffffffffffffffff82169050919050565b6000610abf82610a94565b9050919050565b610acf81610ab4565b82525050565b6000602082019050610aea6000830184610ac6565b92915050565b6000604051905090565b600080fd5b600080fd5b6000819050919050565b610b1781610b04565b8114610b2257600080fd5b50565b600081359050610b3481610b0e565b92915050565b600060208284031215610b5057610b4f610afa565b5b6000610b5e84828501610b25565b91505092915050565b600080fd5b600080fd5b6000601f19601f8301169050919050565b7f4e487b7100000000000000000000000000000000000000000000000000000000600052604160045260246000fd5b610bba82610b71565b810181811067ffffffffffffffff82111715610bd957610bd8610b82565b5b80604052505050565b6000610bec610af0565b9050610bf88282610bb1565b919050565b600067ffffffffffffffff821115610c1857610c17610b82565b5b610c2182610b71565b9050602081019050919050565b82818337600083830152505050565b6000610c50610c4b84610bfd565b610be2565b905082815260208101848484011115610c6c57610c6b610b6c565b5b610c77848285610c2e565b509392505050565b600082601f830112610c9457610c93610b67565b5b8135610ca4848260208601610c3d565b91505092915050565b60008060408385031215610cc457610cc3610afa565b5b600083013567ffffffffffffffff811115610ce257610ce1610aff565b5b610cee85828601610c7f565b925050602083013567ffffffffffffffff811115610d0f57610d0e610aff565b5b610d1b85828601610c7f565b9150509250929050565b610d2e81610b04565b82525050565b6000602082019050610d496000830184610d25565b92915050565b610d5881610ab4565b8114610d6357600080fd5b50565b600081359050610d7581610d4f565b92915050565b600060208284031215610d9157610d90610afa565b5b6000610d9f84828501610d66565b91505092915050565b600082825260208201905092915050565b7f4d7573742073656e642045544820746f2070617920666f722070726f6d707400600082015250565b6000610def601f83610da8565b9150610dfa82610db9565b602082019050919050565b60006020820190508181036000830152610e1e81610de2565b9050919050565b600081519050919050565b60005b83811015610e4e578082015181840152602081019050610e33565b60008484015250505050565b6000610e6582610e25565b610e6f8185610da8565b9350610e7f818560208601610e30565b610e8881610b71565b840191505092915050565b60006040820190508181036000830152610ead8185610e5a565b90508181036020830152610ec18184610e5a565b90509392505050565b600081519050610ed981610b0e565b92915050565b600060208284031215610ef557610ef4610afa565b5b6000610f0384828501610eca565b91505092915050565b6000604082019050610f216000830185610ac6565b8181036020830152610f338184610e5a565b9050939250505056fea2646970667358221220784167590fecce30e0b96fb3d86dbab00bfab2e370dfe7bc657585ae09f9542e64736f6c63430008140033",
  "linkReferences": {},
  "deployedLinkReferences": {}
}