{
  "_format": "hh-sol-artifact-1",
  "contractName": "Admin",
  "sourceName": "contracts/Admin.sol",
  "abi": [
    {
      "inputs": [
        {
          "internalType": "address",
          "name": "_charactersAddress",
          "type": "address"
        },
        {
          "internalType": "address",
          "name": "_propsAddress",
          "type": "address"
        },
        {
          "internalType": "address",
          "name": "_comicsAddress",
          "type": "address"
        }
      ],
      "stateMutability": "nonpayable",
      "type": "constructor"
    },
    {
      "inputs": [
        {
          "internalType": "address",
          "name": "owner",
          "type": "address"
        }
      ],
      "name": "OwnableInvalidOwner",
      "type": "error"
    },
    {
      "inputs": [
        {
          "internalType": "address",
          "name": "account",
          "type": "address"
        }
      ],
      "name": "OwnableUnauthorizedAccount",
      "type": "error"
    },
    {
      "anonymous": false,
      "inputs": [
        {
          "indexed": true,
          "internalType": "uint256",
          "name": "comicId",
          "type": "uint256"
        },
        {
          "indexed": false,
          "internalType": "address",
          "name": "comicsAddress",
          "type": "address"
        },
        {
          "indexed": false,
          "internalType": "string",
          "name": "name",
          "type": "string"
        }
      ],
      "name": "ComicCreated",
      "type": "event"
    },
    {
      "anonymous": false,
      "inputs": [
        {
          "indexed": false,
          "internalType": "address",
          "name": "characters",
          "type": "address"
        },
        {
          "indexed": false,
          "internalType": "address",
          "name": "props",
          "type": "address"
        },
        {
          "indexed": false,
          "internalType": "address",
          "name": "comics",
          "type": "address"
        }
      ],
      "name": "ContractsDeployed",
      "type": "event"
    },
    {
      "anonymous": false,
      "inputs": [
        {
          "indexed": true,
          "internalType": "address",
          "name": "previousOwner",
          "type": "address"
        },
        {
          "indexed": true,
          "internalType": "address",
          "name": "newOwner",
          "type": "address"
        }
      ],
      "name": "OwnershipTransferred",
      "type": "event"
    },
    {
      "anonymous": false,
      "inputs": [
        {
          "indexed": true,
          "internalType": "address",
          "name": "user",
          "type": "address"
        },
        {
          "indexed": false,
          "internalType": "uint256",
          "name": "amount",
          "type": "uint256"
        }
      ],
      "name": "PromptPaid",
      "type": "event"
    },
    {
      "inputs": [],
      "name": "PROMPT_PRICE",
      "outputs": [
        {
          "internalType": "uint256",
          "name": "",
          "type": "uint256"
        }
      ],
      "stateMutability": "view",
      "type": "function"
    },
    {
      "inputs": [],
      "name": "charactersAddress",
      "outputs": [
        {
          "internalType": "address",
          "name": "",
          "type": "address"
        }
      ],
      "stateMutability": "view",
      "type": "function"
    },
    {
      "inputs": [
        {
          "internalType": "uint256",
          "name": "",
          "type": "uint256"
        }
      ],
      "name": "comicAddresses",
      "outputs": [
        {
          "internalType": "address",
          "name": "",
          "type": "address"
        }
      ],
      "stateMutability": "view",
      "type": "function"
    },
    {
      "inputs": [],
      "name": "comicsAddress",
      "outputs": [
        {
          "internalType": "address",
          "name": "",
          "type": "address"
        }
      ],
      "stateMutability": "view",
      "type": "function"
    },
    {
      "inputs": [
        {
          "internalType": "string",
          "name": "_name",
          "type": "string"
        },
        {
          "internalType": "string",
          "name": "_image",
          "type": "string"
        }
      ],
      "name": "createComic",
      "outputs": [
        {
          "internalType": "uint256",
          "name": "",
          "type": "uint256"
        }
      ],
      "stateMutability": "payable",
      "type": "function"
    },
    {
      "inputs": [],
      "name": "getCharactersAddress",
      "outputs": [
        {
          "internalType": "address",
          "name": "",
          "type": "address"
        }
      ],
      "stateMutability": "view",
      "type": "function"
    },
    {
      "inputs": [
        {
          "internalType": "uint256",
          "name": "_comicId",
          "type": "uint256"
        }
      ],
      "name": "getComicAddress",
      "outputs": [
        {
          "internalType": "address",
          "name": "",
          "type": "address"
        }
      ],
      "stateMutability": "view",
      "type": "function"
    },
    {
      "inputs": [],
      "name": "getComicsAddress",
      "outputs": [
        {
          "internalType": "address",
          "name": "",
          "type": "address"
        }
      ],
      "stateMutability": "view",
      "type": "function"
    },
    {
      "inputs": [],
      "name": "getPropsAddress",
      "outputs": [
        {
          "internalType": "address",
          "name": "",
          "type": "address"
        }
      ],
      "stateMutability": "view",
      "type": "function"
    },
    {
      "inputs": [],
      "name": "owner",
      "outputs": [
        {
          "internalType": "address",
          "name": "",
          "type": "address"
        }
      ],
      "stateMutability": "view",
      "type": "function"
    },
    {
      "inputs": [],
      "name": "payForPrompt",
      "outputs": [],
      "stateMutability": "payable",
      "type": "function"
    },
    {
      "inputs": [],
      "name": "propsAddress",
      "outputs": [
        {
          "internalType": "address",
          "name": "",
          "type": "address"
        }
      ],
      "stateMutability": "view",
      "type": "function"
    },
    {
      "inputs": [],
      "name": "renounceOwnership",
      "outputs": [],
      "stateMutability": "nonpayable",
      "type": "function"
    },
    {
      "inputs": [
        {
          "internalType": "address",
          "name": "newOwner",
          "type": "address"
        }
      ],
      "name": "transferOwnership",
      "outputs": [],
      "stateMutability": "nonpayable",
      "type": "function"
    },
    {
      "inputs": [
        {
          "internalType": "uint256",
          "name": "_promptPrice",
          "type": "uint256"
        }
      ],
      "name": "updatePromptPrice",
      "outputs": [],
      "stateMutability": "nonpayable",
      "type": "function"
    },
    {
      "inputs": [],
      "name": "withdraw",
      "outputs": [],
      "stateMutability": "nonpayable",
      "type": "function"
    }
  ],
  "bytecode": "0x60e060405260006001553480156200001657600080fd5b50604051620012af380380620012af83398181016040528101906200003c9190620002d4565b33600073ffffffffffffffffffffffffffffffffffffffff168173ffffffffffffffffffffffffffffffffffffffff1603620000b25760006040517f1e4fbdf7000000000000000000000000000000000000000000000000000000008152600401620000a9919062000341565b60405180910390fd5b620000c381620001a660201b60201c565b508273ffffffffffffffffffffffffffffffffffffffff1660808173ffffffffffffffffffffffffffffffffffffffff16815250508173ffffffffffffffffffffffffffffffffffffffff1660a08173ffffffffffffffffffffffffffffffffffffffff16815250508073ffffffffffffffffffffffffffffffffffffffff1660c08173ffffffffffffffffffffffffffffffffffffffff16815250507f64ff5f080a9fbac5fd2b92ee5d223ab47abf2bc09caad8eefb67cdf7f7a1796c83838360405162000195939291906200035e565b60405180910390a15050506200039b565b60008060009054906101000a900473ffffffffffffffffffffffffffffffffffffffff169050816000806101000a81548173ffffffffffffffffffffffffffffffffffffffff021916908373ffffffffffffffffffffffffffffffffffffffff1602179055508173ffffffffffffffffffffffffffffffffffffffff168173ffffffffffffffffffffffffffffffffffffffff167f8be0079c531659141344cd1fd0a4f28419497f9722a3daafe3b4186f6b6457e060405160405180910390a35050565b600080fd5b600073ffffffffffffffffffffffffffffffffffffffff82169050919050565b60006200029c826200026f565b9050919050565b620002ae816200028f565b8114620002ba57600080fd5b50565b600081519050620002ce81620002a3565b92915050565b600080600060608486031215620002f057620002ef6200026a565b5b60006200030086828701620002bd565b93505060206200031386828701620002bd565b92505060406200032686828701620002bd565b9150509250925092565b6200033b816200028f565b82525050565b600060208201905062000358600083018462000330565b92915050565b600060608201905062000375600083018662000330565b62000384602083018562000330565b62000393604083018462000330565b949350505050565b60805160a05160c051610eba620003f56000396000818161038601528181610536015281816105dc0152818161067001526106b50152600081816106dd015261086701526000818161075a01526108430152610eba6000f3fe6080604052600436106100f35760003560e01c80637a18cf561161008a578063eba0c51411610059578063eba0c514146102c8578063f2fde38b14610305578063f7dc8d281461032e578063f8376d5e14610359576100f3565b80637a18cf561461021e5780638da5cb5b146102495780638f9946be146102745780639f1c2d301461029d576100f3565b806348fcf243116100c657806348fcf2431461018157806350ab256d146101b15780635c5c7857146101dc578063715018a614610207576100f3565b80632986f77e146100f857806332982aea1461012357806338c5da60146101605780633ccfd60b1461016a575b600080fd5b34801561010457600080fd5b5061010d610384565b60405161011a9190610a1d565b60405180910390f35b34801561012f57600080fd5b5061014a60048036038101906101459190610a82565b6103a8565b6040516101579190610a1d565b60405180910390f35b6101686103db565b005b34801561017657600080fd5b5061017f6104d9565b005b61019b60048036038101906101969190610bf5565b610531565b6040516101a89190610c7c565b60405180910390f35b3480156101bd57600080fd5b506101c66106b1565b6040516101d39190610a1d565b60405180910390f35b3480156101e857600080fd5b506101f16106d9565b6040516101fe9190610a1d565b60405180910390f35b34801561021357600080fd5b5061021c610701565b005b34801561022a57600080fd5b50610233610715565b6040516102409190610c7c565b60405180910390f35b34801561025557600080fd5b5061025e61071b565b60405161026b9190610a1d565b60405180910390f35b34801561028057600080fd5b5061029b60048036038101906102969190610a82565b610744565b005b3480156102a957600080fd5b506102b2610756565b6040516102bf9190610a1d565b60405180910390f35b3480156102d457600080fd5b506102ef60048036038101906102ea9190610a82565b61077e565b6040516102fc9190610a1d565b60405180910390f35b34801561031157600080fd5b5061032c60048036038101906103279190610cc3565b6107bb565b005b34801561033a57600080fd5b50610343610841565b6040516103509190610a1d565b60405180910390f35b34801561036557600080fd5b5061036e610865565b60405161037b9190610a1d565b60405180910390f35b7f000000000000000000000000000000000000000000000000000000000000000081565b60036020528060005260406000206000915054906101000a900473ffffffffffffffffffffffffffffffffffffffff1681565b600154341015610420576040517f08c379a000000000000000000000000000000000000000000000000000000000815260040161041790610d4d565b60405180910390fd5b60016002600043815260200190815260200160002060003373ffffffffffffffffffffffffffffffffffffffff1673ffffffffffffffffffffffffffffffffffffffff16815260200190815260200160002060006101000a81548160ff0219169083151502179055503373ffffffffffffffffffffffffffffffffffffffff167f9ae960452d6e408de27ec9817223245ade63bf20f5519ade300af70a14ffbe3a346040516104cf9190610c7c565b60405180910390a2565b6104e1610889565b6104e961071b565b73ffffffffffffffffffffffffffffffffffffffff166108fc479081150290604051600060405180830381858888f1935050505015801561052e573d6000803e3d6000fd5b50565b6000807f0000000000000000000000000000000000000000000000000000000000000000905060008173ffffffffffffffffffffffffffffffffffffffff166348fcf2433487876040518463ffffffff1660e01b8152600401610595929190610ddb565b60206040518083038185885af11580156105b3573d6000803e3d6000fd5b50505050506040513d601f19601f820116820180604052508101906105d89190610e27565b90507f00000000000000000000000000000000000000000000000000000000000000006003600083815260200190815260200160002060006101000a81548173ffffffffffffffffffffffffffffffffffffffff021916908373ffffffffffffffffffffffffffffffffffffffff160217905550807f710f23c42401b5e0d67b3f8b5e6a3274c50401f4c8ae24a4bc9134cf3402ea627f00000000000000000000000000000000000000000000000000000000000000008760405161069e929190610e54565b60405180910390a2809250505092915050565b60007f0000000000000000000000000000000000000000000000000000000000000000905090565b60007f0000000000000000000000000000000000000000000000000000000000000000905090565b610709610889565b6107136000610910565b565b60015481565b60008060009054906101000a900473ffffffffffffffffffffffffffffffffffffffff16905090565b61074c610889565b8060018190555050565b60007f0000000000000000000000000000000000000000000000000000000000000000905090565b60006003600083815260200190815260200160002060009054906101000a900473ffffffffffffffffffffffffffffffffffffffff169050919050565b6107c3610889565b600073ffffffffffffffffffffffffffffffffffffffff168173ffffffffffffffffffffffffffffffffffffffff16036108355760006040517f1e4fbdf700000000000000000000000000000000000000000000000000000000815260040161082c9190610a1d565b60405180910390fd5b61083e81610910565b50565b7f000000000000000000000000000000000000000000000000000000000000000081565b7f000000000000000000000000000000000000000000000000000000000000000081565b6108916109d4565b73ffffffffffffffffffffffffffffffffffffffff166108af61071b565b73ffffffffffffffffffffffffffffffffffffffff161461090e576108d26109d4565b6040517f118cdaa70000000000000000000000000000000000000000000000000000000081526004016109059190610a1d565b60405180910390fd5b565b60008060009054906101000a900473ffffffffffffffffffffffffffffffffffffffff169050816000806101000a81548173ffffffffffffffffffffffffffffffffffffffff021916908373ffffffffffffffffffffffffffffffffffffffff1602179055508173ffffffffffffffffffffffffffffffffffffffff168173ffffffffffffffffffffffffffffffffffffffff167f8be0079c531659141344cd1fd0a4f28419497f9722a3daafe3b4186f6b6457e060405160405180910390a35050565b600033905090565b600073ffffffffffffffffffffffffffffffffffffffff82169050919050565b6000610a07826109dc565b9050919050565b610a17816109fc565b82525050565b6000602082019050610a326000830184610a0e565b92915050565b6000604051905090565b600080fd5b600080fd5b6000819050919050565b610a5f81610a4c565b8114610a6a57600080fd5b50565b600081359050610a7c81610a56565b92915050565b600060208284031215610a9857610a97610a42565b5b6000610aa684828501610a6d565b91505092915050565b600080fd5b600080fd5b6000601f19601f8301169050919050565b7f4e487b7100000000000000000000000000000000000000000000000000000000600052604160045260246000fd5b610b0282610ab9565b810181811067ffffffffffffffff82111715610b2157610b20610aca565b5b80604052505050565b6000610b34610a38565b9050610b408282610af9565b919050565b600067ffffffffffffffff821115610b6057610b5f610aca565b5b610b6982610ab9565b9050602081019050919050565b82818337600083830152505050565b6000610b98610b9384610b45565b610b2a565b905082815260208101848484011115610bb457610bb3610ab4565b5b610bbf848285610b76565b509392505050565b600082601f830112610bdc57610bdb610aaf565b5b8135610bec848260208601610b85565b91505092915050565b60008060408385031215610c0c57610c0b610a42565b5b600083013567ffffffffffffffff811115610c2a57610c29610a47565b5b610c3685828601610bc7565b925050602083013567ffffffffffffffff811115610c5757610c56610a47565b5b610c6385828601610bc7565b9150509250929050565b610c7681610a4c565b82525050565b6000602082019050610c916000830184610c6d565b92915050565b610ca0816109fc565b8114610cab57600080fd5b50565b600081359050610cbd81610c97565b92915050565b600060208284031215610cd957610cd8610a42565b5b6000610ce784828501610cae565b91505092915050565b600082825260208201905092915050565b7f4d7573742073656e642045544820746f2070617920666f722070726f6d707400600082015250565b6000610d37601f83610cf0565b9150610d4282610d01565b602082019050919050565b60006020820190508181036000830152610d6681610d2a565b9050919050565b600081519050919050565b60005b83811015610d96578082015181840152602081019050610d7b565b60008484015250505050565b6000610dad82610d6d565b610db78185610cf0565b9350610dc7818560208601610d78565b610dd081610ab9565b840191505092915050565b60006040820190508181036000830152610df58185610da2565b90508181036020830152610e098184610da2565b90509392505050565b600081519050610e2181610a56565b92915050565b600060208284031215610e3d57610e3c610a42565b5b6000610e4b84828501610e12565b91505092915050565b6000604082019050610e696000830185610a0e565b8181036020830152610e7b8184610da2565b9050939250505056fea26469706673582212205da18d30021eb233989626291c52363d59648ef35e4d9b7327e5d4eab8db251364736f6c63430008140033",
  "linkReferences": {},
  "deployedLinkReferences": {}
}