{
  "_format": "hh-sol-artifact-1",
  "contractName": "Comics",
  "sourceName": "contracts/Comics.sol",
  "abi": [
    {
      "inputs": [
        {
          "internalType": "address",
          "name": "_characters",
          "type": "address"
        }
      ],
      "stateMutability": "nonpayable",
      "type": "constructor"
    },
    {
      "inputs": [
        {
          "internalType": "address",
          "name": "sender",
          "type": "address"
        },
        {
          "internalType": "uint256",
          "name": "tokenId",
          "type": "uint256"
        },
        {
          "internalType": "address",
          "name": "owner",
          "type": "address"
        }
      ],
      "name": "ERC721IncorrectOwner",
      "type": "error"
    },
    {
      "inputs": [
        {
          "internalType": "address",
          "name": "operator",
          "type": "address"
        },
        {
          "internalType": "uint256",
          "name": "tokenId",
          "type": "uint256"
        }
      ],
      "name": "ERC721InsufficientApproval",
      "type": "error"
    },
    {
      "inputs": [
        {
          "internalType": "address",
          "name": "approver",
          "type": "address"
        }
      ],
      "name": "ERC721InvalidApprover",
      "type": "error"
    },
    {
      "inputs": [
        {
          "internalType": "address",
          "name": "operator",
          "type": "address"
        }
      ],
      "name": "ERC721InvalidOperator",
      "type": "error"
    },
    {
      "inputs": [
        {
          "internalType": "address",
          "name": "owner",
          "type": "address"
        }
      ],
      "name": "ERC721InvalidOwner",
      "type": "error"
    },
    {
      "inputs": [
        {
          "internalType": "address",
          "name": "receiver",
          "type": "address"
        }
      ],
      "name": "ERC721InvalidReceiver",
      "type": "error"
    },
    {
      "inputs": [
        {
          "internalType": "address",
          "name": "sender",
          "type": "address"
        }
      ],
      "name": "ERC721InvalidSender",
      "type": "error"
    },
    {
      "inputs": [
        {
          "internalType": "uint256",
          "name": "tokenId",
          "type": "uint256"
        }
      ],
      "name": "ERC721NonexistentToken",
      "type": "error"
    },
    {
      "inputs": [
        {
          "internalType": "address",
          "name": "owner",
          "type": "address"
        }
      ],
      "name": "OwnableInvalidOwner",
      "type": "error"
    },
    {
      "inputs": [
        {
          "internalType": "address",
          "name": "account",
          "type": "address"
        }
      ],
      "name": "OwnableUnauthorizedAccount",
      "type": "error"
    },
    {
      "anonymous": false,
      "inputs": [
        {
          "indexed": true,
          "internalType": "address",
          "name": "owner",
          "type": "address"
        },
        {
          "indexed": true,
          "internalType": "address",
          "name": "approved",
          "type": "address"
        },
        {
          "indexed": true,
          "internalType": "uint256",
          "name": "tokenId",
          "type": "uint256"
        }
      ],
      "name": "Approval",
      "type": "event"
    },
    {
      "anonymous": false,
      "inputs": [
        {
          "indexed": true,
          "internalType": "address",
          "name": "owner",
          "type": "address"
        },
        {
          "indexed": true,
          "internalType": "address",
          "name": "operator",
          "type": "address"
        },
        {
          "indexed": false,
          "internalType": "bool",
          "name": "approved",
          "type": "bool"
        }
      ],
      "name": "ApprovalForAll",
      "type": "event"
    },
    {
      "anonymous": false,
      "inputs": [
        {
          "indexed": false,
          "internalType": "uint256",
          "name": "comicFee",
          "type": "uint256"
        },
        {
          "indexed": false,
          "internalType": "uint256",
          "name": "stripFee",
          "type": "uint256"
        }
      ],
      "name": "BaseFeeUpdated",
      "type": "event"
    },
    {
      "anonymous": false,
      "inputs": [
        {
          "indexed": false,
          "internalType": "uint256",
          "name": "_fromTokenId",
          "type": "uint256"
        },
        {
          "indexed": false,
          "internalType": "uint256",
          "name": "_toTokenId",
          "type": "uint256"
        }
      ],
      "name": "BatchMetadataUpdate",
      "type": "event"
    },
    {
      "anonymous": false,
      "inputs": [
        {
          "indexed": true,
          "internalType": "uint256",
          "name": "comicId",
          "type": "uint256"
        },
        {
          "indexed": false,
          "internalType": "string",
          "name": "name",
          "type": "string"
        },
        {
          "indexed": false,
          "internalType": "string",
          "name": "image",
          "type": "string"
        }
      ],
      "name": "ComicCreated",
      "type": "event"
    },
    {
      "anonymous": false,
      "inputs": [
        {
          "indexed": true,
          "internalType": "uint256",
          "name": "comicId",
          "type": "uint256"
        },
        {
          "indexed": false,
          "internalType": "address",
          "name": "newOwner",
          "type": "address"
        }
      ],
      "name": "ComicOwnershipChanged",
      "type": "event"
    },
    {
      "anonymous": false,
      "inputs": [
        {
          "indexed": false,
          "internalType": "uint256",
          "name": "_tokenId",
          "type": "uint256"
        }
      ],
      "name": "MetadataUpdate",
      "type": "event"
    },
    {
      "anonymous": false,
      "inputs": [
        {
          "indexed": true,
          "internalType": "address",
          "name": "previousOwner",
          "type": "address"
        },
        {
          "indexed": true,
          "internalType": "address",
          "name": "newOwner",
          "type": "address"
        }
      ],
      "name": "OwnershipTransferred",
      "type": "event"
    },
    {
      "anonymous": false,
      "inputs": [
        {
          "indexed": true,
          "internalType": "uint256",
          "name": "stripId",
          "type": "uint256"
        },
        {
          "indexed": false,
          "internalType": "uint256",
          "name": "day",
          "type": "uint256"
        },
        {
          "indexed": false,
          "internalType": "address",
          "name": "creator",
          "type": "address"
        },
        {
          "indexed": false,
          "internalType": "uint256",
          "name": "comicId",
          "type": "uint256"
        }
      ],
      "name": "StripCreated",
      "type": "event"
    },
    {
      "anonymous": false,
      "inputs": [
        {
          "indexed": true,
          "internalType": "uint256",
          "name": "stripId",
          "type": "uint256"
        },
        {
          "indexed": false,
          "internalType": "uint256",
          "name": "amount",
          "type": "uint256"
        }
      ],
      "name": "StripDonated",
      "type": "event"
    },
    {
      "anonymous": false,
      "inputs": [
        {
          "indexed": false,
          "internalType": "uint256",
          "name": "comicId",
          "type": "uint256"
        },
        {
          "indexed": false,
          "internalType": "uint256",
          "name": "stripId",
          "type": "uint256"
        },
        {
          "indexed": false,
          "internalType": "uint256",
          "name": "updatedDay",
          "type": "uint256"
        }
      ],
      "name": "StripFrozen",
      "type": "event"
    },
    {
      "anonymous": false,
      "inputs": [
        {
          "indexed": true,
          "internalType": "uint256",
          "name": "stripId",
          "type": "uint256"
        },
        {
          "indexed": false,
          "internalType": "uint256",
          "name": "amount",
          "type": "uint256"
        }
      ],
      "name": "StripVoted",
      "type": "event"
    },
    {
      "anonymous": false,
      "inputs": [
        {
          "indexed": true,
          "internalType": "address",
          "name": "from",
          "type": "address"
        },
        {
          "indexed": true,
          "internalType": "address",
          "name": "to",
          "type": "address"
        },
        {
          "indexed": true,
          "internalType": "uint256",
          "name": "tokenId",
          "type": "uint256"
        }
      ],
      "name": "Transfer",
      "type": "event"
    },
    {
      "inputs": [],
      "name": "BASE_COMIC_FEE",
      "outputs": [
        {
          "internalType": "uint256",
          "name": "",
          "type": "uint256"
        }
      ],
      "stateMutability": "view",
      "type": "function"
    },
    {
      "inputs": [],
      "name": "BASE_STRIP_FEE",
      "outputs": [
        {
          "internalType": "uint256",
          "name": "",
          "type": "uint256"
        }
      ],
      "stateMutability": "view",
      "type": "function"
    },
    {
      "inputs": [
        {
          "internalType": "address",
          "name": "to",
          "type": "address"
        },
        {
          "internalType": "uint256",
          "name": "tokenId",
          "type": "uint256"
        }
      ],
      "name": "approve",
      "outputs": [],
      "stateMutability": "nonpayable",
      "type": "function"
    },
    {
      "inputs": [
        {
          "internalType": "address",
          "name": "owner",
          "type": "address"
        }
      ],
      "name": "balanceOf",
      "outputs": [
        {
          "internalType": "uint256",
          "name": "",
          "type": "uint256"
        }
      ],
      "stateMutability": "view",
      "type": "function"
    },
    {
      "inputs": [],
      "name": "characters",
      "outputs": [
        {
          "internalType": "contract Characters",
          "name": "",
          "type": "address"
        }
      ],
      "stateMutability": "view",
      "type": "function"
    },
    {
      "inputs": [],
      "name": "comicCount",
      "outputs": [
        {
          "internalType": "uint256",
          "name": "",
          "type": "uint256"
        }
      ],
      "stateMutability": "view",
      "type": "function"
    },
    {
      "inputs": [
        {
          "internalType": "uint256",
          "name": "",
          "type": "uint256"
        }
      ],
      "name": "comicOwners",
      "outputs": [
        {
          "internalType": "address",
          "name": "",
          "type": "address"
        }
      ],
      "stateMutability": "view",
      "type": "function"
    },
    {
      "inputs": [
        {
          "internalType": "uint256",
          "name": "",
          "type": "uint256"
        },
        {
          "internalType": "uint256",
          "name": "",
          "type": "uint256"
        }
      ],
      "name": "comicStrips",
      "outputs": [
        {
          "internalType": "uint256",
          "name": "",
          "type": "uint256"
        }
      ],
      "stateMutability": "view",
      "type": "function"
    },
    {
      "inputs": [
        {
          "internalType": "uint256",
          "name": "",
          "type": "uint256"
        }
      ],
      "name": "comics",
      "outputs": [
        {
          "internalType": "string",
          "name": "name",
          "type": "string"
        },
        {
          "internalType": "string",
          "name": "image",
          "type": "string"
        },
        {
          "internalType": "uint256",
          "name": "createdAt",
          "type": "uint256"
        }
      ],
      "stateMutability": "view",
      "type": "function"
    },
    {
      "inputs": [
        {
          "internalType": "uint256",
          "name": "",
          "type": "uint256"
        },
        {
          "internalType": "address",
          "name": "",
          "type": "address"
        }
      ],
      "name": "contributions",
      "outputs": [
        {
          "internalType": "uint256",
          "name": "",
          "type": "uint256"
        }
      ],
      "stateMutability": "view",
      "type": "function"
    },
    {
      "inputs": [
        {
          "internalType": "string",
          "name": "name",
          "type": "string"
        },
        {
          "internalType": "string",
          "name": "image",
          "type": "string"
        }
      ],
      "name": "createComic",
      "outputs": [
        {
          "internalType": "uint256",
          "name": "",
          "type": "uint256"
        }
      ],
      "stateMutability": "payable",
      "type": "function"
    },
    {
      "inputs": [
        {
          "internalType": "string[]",
          "name": "imageUrls",
          "type": "string[]"
        },
        {
          "internalType": "uint256[]",
          "name": "characterIds",
          "type": "uint256[]"
        },
        {
          "internalType": "uint256",
          "name": "comicId",
          "type": "uint256"
        }
      ],
      "name": "createStrip",
      "outputs": [],
      "stateMutability": "nonpayable",
      "type": "function"
    },
    {
      "inputs": [
        {
          "internalType": "uint256",
          "name": "",
          "type": "uint256"
        }
      ],
      "name": "currentStripDay",
      "outputs": [
        {
          "internalType": "uint256",
          "name": "",
          "type": "uint256"
        }
      ],
      "stateMutability": "view",
      "type": "function"
    },
    {
      "inputs": [
        {
          "internalType": "uint256",
          "name": "",
          "type": "uint256"
        },
        {
          "internalType": "uint256",
          "name": "",
          "type": "uint256"
        }
      ],
      "name": "dailyStrips",
      "outputs": [
        {
          "internalType": "uint256",
          "name": "",
          "type": "uint256"
        }
      ],
      "stateMutability": "view",
      "type": "function"
    },
    {
      "inputs": [
        {
          "internalType": "uint256",
          "name": "tokenId",
          "type": "uint256"
        }
      ],
      "name": "getApproved",
      "outputs": [
        {
          "internalType": "address",
          "name": "",
          "type": "address"
        }
      ],
      "stateMutability": "view",
      "type": "function"
    },
    {
      "inputs": [
        {
          "internalType": "uint256",
          "name": "comicId",
          "type": "uint256"
        }
      ],
      "name": "getComic",
      "outputs": [
        {
          "components": [
            {
              "internalType": "string",
              "name": "name",
              "type": "string"
            },
            {
              "internalType": "string",
              "name": "image",
              "type": "string"
            },
            {
              "internalType": "uint256",
              "name": "createdAt",
              "type": "uint256"
            }
          ],
          "internalType": "struct Comics.Comic",
          "name": "",
          "type": "tuple"
        }
      ],
      "stateMutability": "view",
      "type": "function"
    },
    {
      "inputs": [],
      "name": "getComicCreationFee",
      "outputs": [
        {
          "internalType": "uint256",
          "name": "",
          "type": "uint256"
        }
      ],
      "stateMutability": "view",
      "type": "function"
    },
    {
      "inputs": [
        {
          "internalType": "uint256",
          "name": "comicId",
          "type": "uint256"
        }
      ],
      "name": "getComicStrips",
      "outputs": [
        {
          "internalType": "uint256[]",
          "name": "",
          "type": "uint256[]"
        }
      ],
      "stateMutability": "view",
      "type": "function"
    },
    {
      "inputs": [
        {
          "internalType": "uint256",
          "name": "comicId",
          "type": "uint256"
        }
      ],
      "name": "getCurrentDay",
      "outputs": [
        {
          "internalType": "uint256",
          "name": "",
          "type": "uint256"
        }
      ],
      "stateMutability": "view",
      "type": "function"
    },
    {
      "inputs": [
        {
          "internalType": "uint256",
          "name": "day",
          "type": "uint256"
        }
      ],
      "name": "getDailyStrips",
      "outputs": [
        {
          "internalType": "uint256[]",
          "name": "",
          "type": "uint256[]"
        }
      ],
      "stateMutability": "view",
      "type": "function"
    },
    {
      "inputs": [
        {
          "internalType": "uint256",
          "name": "stripId",
          "type": "uint256"
        }
      ],
      "name": "getStrip",
      "outputs": [
        {
          "components": [
            {
              "internalType": "string[]",
              "name": "imageUrls",
              "type": "string[]"
            },
            {
              "internalType": "uint256[]",
              "name": "characterIds",
              "type": "uint256[]"
            },
            {
              "internalType": "uint256",
              "name": "voteCount",
              "type": "uint256"
            },
            {
              "internalType": "address",
              "name": "creator",
              "type": "address"
            },
            {
              "internalType": "uint256",
              "name": "createdAt",
              "type": "uint256"
            },
            {
              "internalType": "uint256",
              "name": "comicId",
              "type": "uint256"
            },
            {
              "internalType": "uint256",
              "name": "day",
              "type": "uint256"
            }
          ],
          "internalType": "struct Comics.Strip",
          "name": "",
          "type": "tuple"
        }
      ],
      "stateMutability": "view",
      "type": "function"
    },
    {
      "inputs": [
        {
          "internalType": "uint256",
          "name": "stripId",
          "type": "uint256"
        }
      ],
      "name": "getVoteCount",
      "outputs": [
        {
          "internalType": "uint256",
          "name": "",
          "type": "uint256"
        }
      ],
      "stateMutability": "view",
      "type": "function"
    },
    {
      "inputs": [
        {
          "internalType": "uint256",
          "name": "day",
          "type": "uint256"
        }
      ],
      "name": "getVoteThreshold",
      "outputs": [
        {
          "internalType": "uint256",
          "name": "",
          "type": "uint256"
        }
      ],
      "stateMutability": "view",
      "type": "function"
    },
    {
      "inputs": [
        {
          "internalType": "uint256",
          "name": "",
          "type": "uint256"
        }
      ],
      "name": "isAlive",
      "outputs": [
        {
          "internalType": "bool",
          "name": "",
          "type": "bool"
        }
      ],
      "stateMutability": "view",
      "type": "function"
    },
    {
      "inputs": [
        {
          "internalType": "address",
          "name": "owner",
          "type": "address"
        },
        {
          "internalType": "address",
          "name": "operator",
          "type": "address"
        }
      ],
      "name": "isApprovedForAll",
      "outputs": [
        {
          "internalType": "bool",
          "name": "",
          "type": "bool"
        }
      ],
      "stateMutability": "view",
      "type": "function"
    },
    {
      "inputs": [],
      "name": "name",
      "outputs": [
        {
          "internalType": "string",
          "name": "",
          "type": "string"
        }
      ],
      "stateMutability": "view",
      "type": "function"
    },
    {
      "inputs": [],
      "name": "owner",
      "outputs": [
        {
          "internalType": "address",
          "name": "",
          "type": "address"
        }
      ],
      "stateMutability": "view",
      "type": "function"
    },
    {
      "inputs": [
        {
          "internalType": "uint256",
          "name": "tokenId",
          "type": "uint256"
        }
      ],
      "name": "ownerOf",
      "outputs": [
        {
          "internalType": "address",
          "name": "",
          "type": "address"
        }
      ],
      "stateMutability": "view",
      "type": "function"
    },
    {
      "inputs": [],
      "name": "renounceOwnership",
      "outputs": [],
      "stateMutability": "nonpayable",
      "type": "function"
    },
    {
      "inputs": [
        {
          "internalType": "address",
          "name": "from",
          "type": "address"
        },
        {
          "internalType": "address",
          "name": "to",
          "type": "address"
        },
        {
          "internalType": "uint256",
          "name": "tokenId",
          "type": "uint256"
        }
      ],
      "name": "safeTransferFrom",
      "outputs": [],
      "stateMutability": "nonpayable",
      "type": "function"
    },
    {
      "inputs": [
        {
          "internalType": "address",
          "name": "from",
          "type": "address"
        },
        {
          "internalType": "address",
          "name": "to",
          "type": "address"
        },
        {
          "internalType": "uint256",
          "name": "tokenId",
          "type": "uint256"
        },
        {
          "internalType": "bytes",
          "name": "data",
          "type": "bytes"
        }
      ],
      "name": "safeTransferFrom",
      "outputs": [],
      "stateMutability": "nonpayable",
      "type": "function"
    },
    {
      "inputs": [
        {
          "internalType": "address",
          "name": "operator",
          "type": "address"
        },
        {
          "internalType": "bool",
          "name": "approved",
          "type": "bool"
        }
      ],
      "name": "setApprovalForAll",
      "outputs": [],
      "stateMutability": "nonpayable",
      "type": "function"
    },
    {
      "inputs": [
        {
          "internalType": "uint256",
          "name": "",
          "type": "uint256"
        }
      ],
      "name": "strips",
      "outputs": [
        {
          "internalType": "uint256",
          "name": "voteCount",
          "type": "uint256"
        },
        {
          "internalType": "address",
          "name": "creator",
          "type": "address"
        },
        {
          "internalType": "uint256",
          "name": "createdAt",
          "type": "uint256"
        },
        {
          "internalType": "uint256",
          "name": "comicId",
          "type": "uint256"
        },
        {
          "internalType": "uint256",
          "name": "day",
          "type": "uint256"
        }
      ],
      "stateMutability": "view",
      "type": "function"
    },
    {
      "inputs": [
        {
          "internalType": "bytes4",
          "name": "interfaceId",
          "type": "bytes4"
        }
      ],
      "name": "supportsInterface",
      "outputs": [
        {
          "internalType": "bool",
          "name": "",
          "type": "bool"
        }
      ],
      "stateMutability": "view",
      "type": "function"
    },
    {
      "inputs": [],
      "name": "symbol",
      "outputs": [
        {
          "internalType": "string",
          "name": "",
          "type": "string"
        }
      ],
      "stateMutability": "view",
      "type": "function"
    },
    {
      "inputs": [
        {
          "internalType": "uint256",
          "name": "tokenId",
          "type": "uint256"
        }
      ],
      "name": "tokenURI",
      "outputs": [
        {
          "internalType": "string",
          "name": "",
          "type": "string"
        }
      ],
      "stateMutability": "view",
      "type": "function"
    },
    {
      "inputs": [
        {
          "internalType": "address",
          "name": "from",
          "type": "address"
        },
        {
          "internalType": "address",
          "name": "to",
          "type": "address"
        },
        {
          "internalType": "uint256",
          "name": "tokenId",
          "type": "uint256"
        }
      ],
      "name": "transferFrom",
      "outputs": [],
      "stateMutability": "nonpayable",
      "type": "function"
    },
    {
      "inputs": [
        {
          "internalType": "address",
          "name": "newOwner",
          "type": "address"
        }
      ],
      "name": "transferOwnership",
      "outputs": [],
      "stateMutability": "nonpayable",
      "type": "function"
    },
    {
      "inputs": [
        {
          "internalType": "uint256",
          "name": "_comicFee",
          "type": "uint256"
        },
        {
          "internalType": "uint256",
          "name": "_stripFee",
          "type": "uint256"
        }
      ],
      "name": "updateBaseFee",
      "outputs": [],
      "stateMutability": "nonpayable",
      "type": "function"
    },
    {
      "inputs": [
        {
          "internalType": "uint256",
          "name": "stripId",
          "type": "uint256"
        }
      ],
      "name": "vote",
      "outputs": [],
      "stateMutability": "payable",
      "type": "function"
    },
    {
      "inputs": [],
      "name": "withdraw",
      "outputs": [],
      "stateMutability": "nonpayable",
      "type": "function"
    }
  ],
  "bytecode": "0x60806040526000600a556000600b553480156200001b57600080fd5b5060405162005d0138038062005d018339818101604052810190620000419190620002d3565b336040518060400160405280600c81526020017f576f726c6420436f6d69637300000000000000000000000000000000000000008152506040518060400160405280600281526020017f57430000000000000000000000000000000000000000000000000000000000008152508160009081620000bf91906200057f565b508060019081620000d191906200057f565b505050600073ffffffffffffffffffffffffffffffffffffffff168173ffffffffffffffffffffffffffffffffffffffff1603620001495760006040517f1e4fbdf700000000000000000000000000000000000000000000000000000000815260040162000140919062000677565b60405180910390fd5b6200015a81620001a360201b60201c565b5080600960006101000a81548173ffffffffffffffffffffffffffffffffffffffff021916908373ffffffffffffffffffffffffffffffffffffffff1602179055505062000694565b6000600760009054906101000a900473ffffffffffffffffffffffffffffffffffffffff16905081600760006101000a81548173ffffffffffffffffffffffffffffffffffffffff021916908373ffffffffffffffffffffffffffffffffffffffff1602179055508173ffffffffffffffffffffffffffffffffffffffff168173ffffffffffffffffffffffffffffffffffffffff167f8be0079c531659141344cd1fd0a4f28419497f9722a3daafe3b4186f6b6457e060405160405180910390a35050565b600080fd5b600073ffffffffffffffffffffffffffffffffffffffff82169050919050565b60006200029b826200026e565b9050919050565b620002ad816200028e565b8114620002b957600080fd5b50565b600081519050620002cd81620002a2565b92915050565b600060208284031215620002ec57620002eb62000269565b5b6000620002fc84828501620002bc565b91505092915050565b600081519050919050565b7f4e487b7100000000000000000000000000000000000000000000000000000000600052604160045260246000fd5b7f4e487b7100000000000000000000000000000000000000000000000000000000600052602260045260246000fd5b600060028204905060018216806200038757607f821691505b6020821081036200039d576200039c6200033f565b5b50919050565b60008190508160005260206000209050919050565b60006020601f8301049050919050565b600082821b905092915050565b600060088302620004077fffffffffffffffffffffffffffffffffffffffffffffffffffffffffffffffff82620003c8565b620004138683620003c8565b95508019841693508086168417925050509392505050565b6000819050919050565b6000819050919050565b6000620004606200045a62000454846200042b565b62000435565b6200042b565b9050919050565b6000819050919050565b6200047c836200043f565b620004946200048b8262000467565b848454620003d5565b825550505050565b600090565b620004ab6200049c565b620004b881848462000471565b505050565b5b81811015620004e057620004d4600082620004a1565b600181019050620004be565b5050565b601f8211156200052f57620004f981620003a3565b6200050484620003b8565b8101602085101562000514578190505b6200052c6200052385620003b8565b830182620004bd565b50505b505050565b600082821c905092915050565b6000620005546000198460080262000534565b1980831691505092915050565b60006200056f838362000541565b9150826002028217905092915050565b6200058a8262000305565b67ffffffffffffffff811115620005a657620005a562000310565b5b620005b282546200036e565b620005bf828285620004e4565b600060209050601f831160018114620005f75760008415620005e2578287015190505b620005ee858262000561565b8655506200065e565b601f1984166200060786620003a3565b60005b8281101562000631578489015182556001820191506020850194506020810190506200060a565b868310156200065157848901516200064d601f89168262000541565b8355505b6001600288020188555050505b505050505050565b62000671816200028e565b82525050565b60006020820190506200068e600083018462000666565b92915050565b61565d80620006a46000396000f3fe6080604052600436106102465760003560e01c8063715018a611610139578063c87b56dd116100b6578063d9ad0a6b1161007a578063d9ad0a6b14610920578063e5c4932414610961578063e985e9c51461099e578063f1f28cbf146109db578063f217148714610a18578063f2fde38b14610a4357610246565b8063c87b56dd14610801578063cb2239041461083e578063ceec8b701461087b578063d070bb54146108b8578063d84b2361146108e357610246565b80639d076031116100fd5780639d0760311461070a578063a22cb46514610747578063b0c5dfa314610770578063b2c2f2e81461079b578063b88d4fde146107d857610246565b8063715018a6146106335780637a80dc1d1461064a578063835f5996146106895780638da5cb5b146106b457806395d89b41146106df57610246565b80633d891f59116101c75780634c47ec641161018b5780634c47ec64146105145780634ef39827146105515780636352211e1461058e578063703a2c4b146105cb57806370a08231146105f657610246565b80633d891f591461041857806342842e0e1461045557806343f52ba91461047e57806347ac33ee146104a757806348fcf243146104e457610246565b806323b872dd1161020e57806323b872dd1461033557806323f137651461035e57806337fa09aa14610387578063384316e8146103c45780633ccfd60b1461040157610246565b80630121b93f1461024b57806301ffc9a71461026757806306fdde03146102a4578063081812fc146102cf578063095ea7b31461030c575b600080fd5b61026560048036038101906102609190613995565b610a6c565b005b34801561027357600080fd5b5061028e60048036038101906102899190613a1a565b610e6b565b60405161029b9190613a62565b60405180910390f35b3480156102b057600080fd5b506102b9610ecc565b6040516102c69190613b0d565b60405180910390f35b3480156102db57600080fd5b506102f660048036038101906102f19190613995565b610f5e565b6040516103039190613b70565b60405180910390f35b34801561031857600080fd5b50610333600480360381019061032e9190613bb7565b610f7a565b005b34801561034157600080fd5b5061035c60048036038101906103579190613bf7565b610f90565b005b34801561036a57600080fd5b5061038560048036038101906103809190613c4a565b611092565b005b34801561039357600080fd5b506103ae60048036038101906103a99190613995565b6110e5565b6040516103bb9190613b70565b60405180910390f35b3480156103d057600080fd5b506103eb60048036038101906103e69190613995565b611118565b6040516103f89190613c99565b60405180910390f35b34801561040d57600080fd5b50610416611135565b005b34801561042457600080fd5b5061043f600480360381019061043a9190613cb4565b61118d565b60405161044c9190613c99565b60405180910390f35b34801561046157600080fd5b5061047c60048036038101906104779190613bf7565b6111b2565b005b34801561048a57600080fd5b506104a560048036038101906104a09190613fd2565b6111d2565b005b3480156104b357600080fd5b506104ce60048036038101906104c99190613995565b61157b565b6040516104db919061410d565b60405180910390f35b6104fe60048036038101906104f9919061412f565b6116d6565b60405161050b9190613c99565b60405180910390f35b34801561052057600080fd5b5061053b60048036038101906105369190613c4a565b6118df565b6040516105489190613c99565b60405180910390f35b34801561055d57600080fd5b5061057860048036038101906105739190613995565b611910565b6040516105859190613c99565b60405180910390f35b34801561059a57600080fd5b506105b560048036038101906105b09190613995565b611928565b6040516105c29190613b70565b60405180910390f35b3480156105d757600080fd5b506105e061193a565b6040516105ed9190613c99565b60405180910390f35b34801561060257600080fd5b5061061d600480360381019061061891906141a7565b611940565b60405161062a9190613c99565b60405180910390f35b34801561063f57600080fd5b506106486119fa565b005b34801561065657600080fd5b50610671600480360381019061066c9190613995565b611a0e565b604051610680939291906141d4565b60405180910390f35b34801561069557600080fd5b5061069e611b48565b6040516106ab9190613c99565b60405180910390f35b3480156106c057600080fd5b506106c9611b4e565b6040516106d69190613b70565b60405180910390f35b3480156106eb57600080fd5b506106f4611b78565b6040516107019190613b0d565b60405180910390f35b34801561071657600080fd5b50610731600480360381019061072c9190613995565b611c0a565b60405161073e91906142c8565b60405180910390f35b34801561075357600080fd5b5061076e60048036038101906107699190614316565b611c75565b005b34801561077c57600080fd5b50610785611c8b565b6040516107929190613c99565b60405180910390f35b3480156107a757600080fd5b506107c260048036038101906107bd9190613995565b611cea565b6040516107cf9190613c99565b60405180910390f35b3480156107e457600080fd5b506107ff60048036038101906107fa91906143f7565b611d62565b005b34801561080d57600080fd5b5061082860048036038101906108239190613995565b611d87565b6040516108359190613b0d565b60405180910390f35b34801561084a57600080fd5b5061086560048036038101906108609190613995565b611de1565b60405161087291906142c8565b60405180910390f35b34801561088757600080fd5b506108a2600480360381019061089d9190613995565b611e4c565b6040516108af9190613c99565b60405180910390f35b3480156108c457600080fd5b506108cd611eb2565b6040516108da91906144d9565b60405180910390f35b3480156108ef57600080fd5b5061090a60048036038101906109059190613995565b611ed8565b6040516109179190613a62565b60405180910390f35b34801561092c57600080fd5b5061094760048036038101906109429190613995565b611ef8565b6040516109589594939291906144f4565b60405180910390f35b34801561096d57600080fd5b5061098860048036038101906109839190613995565b611f4e565b604051610995919061472a565b60405180910390f35b3480156109aa57600080fd5b506109c560048036038101906109c0919061474c565b61212a565b6040516109d29190613a62565b60405180910390f35b3480156109e757600080fd5b50610a0260048036038101906109fd9190613c4a565b6121be565b604051610a0f9190613c99565b60405180910390f35b348015610a2457600080fd5b50610a2d6121ef565b604051610a3a9190613c99565b60405180910390f35b348015610a4f57600080fd5b50610a6a6004803603810190610a6591906141a7565b6121f5565b005b6000600f60008381526020019081526020016000206004015411610ac5576040517f08c379a0000000000000000000000000000000000000000000000000000000008152600401610abc906147d8565b60405180910390fd5b6000600f60008381526020019081526020016000206005015490506000600f60008381526020019081526020016000206006015490506000600e6000848152602001908152602001600020549050808203610b845734600f60008681526020019081526020016000206002016000828254610b409190614827565b92505081905550837f6fc8dd6002d67cb1ae354d87238c6a738c991370fe32d39154561323a81d2f9634604051610b779190613c99565b60405180910390a2610bbd565b837f5acd5e9fad91ebf22d261b37a9d8099685f41cd5f8ca160caaa5448c66da767934604051610bb49190613c99565b60405180910390a25b610bc681611e4c565b600f60008681526020019081526020016000206002015410610c5a57600e60008481526020019081526020016000206000815480929190610c069061485b565b91905055507f55c20485919a463a87f20e5a0fde1c7a307ce024d22a3d3a166eb0f693b119748385600e600087815260200190815260200160002054604051610c51939291906148a3565b60405180910390a15b346013600085815260200190815260200160002060003373ffffffffffffffffffffffffffffffffffffffff1673ffffffffffffffffffffffffffffffffffffffff1681526020019081526020016000206000828254610cba9190614827565b925050819055506013600084815260200190815260200160002060006012600086815260200190815260200160002060009054906101000a900473ffffffffffffffffffffffffffffffffffffffff1673ffffffffffffffffffffffffffffffffffffffff1673ffffffffffffffffffffffffffffffffffffffff168152602001908152602001600020546013600085815260200190815260200160002060003373ffffffffffffffffffffffffffffffffffffffff1673ffffffffffffffffffffffffffffffffffffffff168152602001908152602001600020541115610e6557610dda6012600085815260200190815260200160002060009054906101000a900473ffffffffffffffffffffffffffffffffffffffff16338561227b565b336012600085815260200190815260200160002060006101000a81548173ffffffffffffffffffffffffffffffffffffffff021916908373ffffffffffffffffffffffffffffffffffffffff160217905550827f57e833cf85bc0124c4529bd7acfbc9c0ec204dab25a6265ac957d41fd6ae29e633604051610e5c9190613b70565b60405180910390a25b50505050565b6000634906490660e01b7bffffffffffffffffffffffffffffffffffffffffffffffffffffffff1916827bffffffffffffffffffffffffffffffffffffffffffffffffffffffff19161480610ec55750610ec4826123e8565b5b9050919050565b606060008054610edb90614909565b80601f0160208091040260200160405190810160405280929190818152602001828054610f0790614909565b8015610f545780601f10610f2957610100808354040283529160200191610f54565b820191906000526020600020905b815481529060010190602001808311610f3757829003601f168201915b5050505050905090565b6000610f69826124ca565b50610f7382612552565b9050919050565b610f8c8282610f8761258f565b612597565b5050565b600073ffffffffffffffffffffffffffffffffffffffff168273ffffffffffffffffffffffffffffffffffffffff16036110025760006040517f64a0ae92000000000000000000000000000000000000000000000000000000008152600401610ff99190613b70565b60405180910390fd5b6000611016838361101161258f565b6125a9565b90508373ffffffffffffffffffffffffffffffffffffffff168173ffffffffffffffffffffffffffffffffffffffff161461108c578382826040517f64283d7b0000000000000000000000000000000000000000000000000000000081526004016110839392919061493a565b60405180910390fd5b50505050565b61109a61262d565b81600a8190555080600b819055507f19ad72acd40a59cad104f97c7897cc5675e52fe1e2679088c4bfffd96a9d58a782826040516110d9929190614971565b60405180910390a15050565b60126020528060005260406000206000915054906101000a900473ffffffffffffffffffffffffffffffffffffffff1681565b6000600e6000838152602001908152602001600020549050919050565b61113d61262d565b611145611b4e565b73ffffffffffffffffffffffffffffffffffffffff166108fc479081150290604051600060405180830381858888f1935050505015801561118a573d6000803e3d6000fd5b50565b6013602052816000526040600020602052806000526040600020600091509150505481565b6111cd83838360405180602001604052806000815250611d62565b505050565b6000835111611216576040517f08c379a000000000000000000000000000000000000000000000000000000000815260040161120d906149e6565b60405180910390fd5b600060106000838152602001908152602001600020600201541161126f576040517f08c379a000000000000000000000000000000000000000000000000000000000815260040161126690614a52565b60405180910390fd5b60005b825181101561138357600960009054906101000a900473ffffffffffffffffffffffffffffffffffffffff1673ffffffffffffffffffffffffffffffffffffffff16630eb597458483815181106112cc576112cb614a72565b5b60200260200101516040518263ffffffff1660e01b81526004016112f09190613c99565b602060405180830381865afa15801561130d573d6000803e3d6000fd5b505050506040513d601f19601f820116820180604052508101906113319190614ab6565b611370576040517f08c379a000000000000000000000000000000000000000000000000000000000815260040161136790614b2f565b60405180910390fd5b808061137b9061485b565b915050611272565b506000600e6000838152602001908152602001600020549050601460008154809291906113af9061485b565b9190505550600060145490506040518060e00160405280868152602001858152602001600081526020013373ffffffffffffffffffffffffffffffffffffffff16815260200142815260200184815260200183815250600f600083815260200190815260200160002060008201518160000190805190602001906114349291906137b0565b506020820151816001019080519060200190611451929190613809565b506040820151816002015560608201518160030160006101000a81548173ffffffffffffffffffffffffffffffffffffffff021916908373ffffffffffffffffffffffffffffffffffffffff1602179055506080820151816004015560a0820151816005015560c08201518160060155905050600d600083815260200190815260200160002081908060018154018082558091505060019003906000526020600020016000909190919091505560116000848152602001908152602001600020819080600181540180825580915050600190039060005260206000200160009091909190915055807f2cfe2dc7cdc89b899ef0f4ab22907e75644491af3a2ba898b5b4daf6d5f393cf83338660405161156c93929190614b4f565b60405180910390a25050505050565b611583613856565b601060008381526020019081526020016000206040518060600160405290816000820180546115b190614909565b80601f01602080910402602001604051908101604052809291908181526020018280546115dd90614909565b801561162a5780601f106115ff5761010080835404028352916020019161162a565b820191906000526020600020905b81548152906001019060200180831161160d57829003601f168201915b5050505050815260200160018201805461164390614909565b80601f016020809104026020016040519081016040528092919081815260200182805461166f90614909565b80156116bc5780601f10611691576101008083540402835291602001916116bc565b820191906000526020600020905b81548152906001019060200180831161169f57829003601f168201915b505050505081526020016002820154815250509050919050565b60006116e0611c8b565b341015611722576040517f08c379a000000000000000000000000000000000000000000000000000000000815260040161171990614bf8565b60405180910390fd5b6000835111611766576040517f08c379a000000000000000000000000000000000000000000000000000000000815260040161175d90614c64565b60405180910390fd5b60008251116117aa576040517f08c379a00000000000000000000000000000000000000000000000000000000081526004016117a190614cd0565b60405180910390fd5b601560008154809291906117bd9061485b565b919050555060006015549050600c60008154809291906117dc9061485b565b91905055506040518060600160405280858152602001848152602001428152506010600083815260200190815260200160002060008201518160000190816118249190614e92565b50602082015181600101908161183a9190614e92565b506040820151816002015590505060008484611855426126b4565b6040516020016118679392919061524c565b6040516020818303038152906040529050600061188382612782565b905061188f30846127af565b61189983826128a8565b827f19cdbc7a3feec82d7c3fb925d35745fe6d58185b77cf39856951bc6a1c4fede887876040516118cb9291906152e0565b60405180910390a282935050505092915050565b601160205281600052604060002081815481106118fb57600080fd5b90600052602060002001600091509150505481565b600e6020528060005260406000206000915090505481565b6000611933826124ca565b9050919050565b600c5481565b60008073ffffffffffffffffffffffffffffffffffffffff168273ffffffffffffffffffffffffffffffffffffffff16036119b35760006040517f89c62b640000000000000000000000000000000000000000000000000000000081526004016119aa9190613b70565b60405180910390fd5b600360008373ffffffffffffffffffffffffffffffffffffffff1673ffffffffffffffffffffffffffffffffffffffff168152602001908152602001600020549050919050565b611a0261262d565b611a0c6000612904565b565b6010602052806000526040600020600091509050806000018054611a3190614909565b80601f0160208091040260200160405190810160405280929190818152602001828054611a5d90614909565b8015611aaa5780601f10611a7f57610100808354040283529160200191611aaa565b820191906000526020600020905b815481529060010190602001808311611a8d57829003601f168201915b505050505090806001018054611abf90614909565b80601f0160208091040260200160405190810160405280929190818152602001828054611aeb90614909565b8015611b385780601f10611b0d57610100808354040283529160200191611b38565b820191906000526020600020905b815481529060010190602001808311611b1b57829003601f168201915b5050505050908060020154905083565b600b5481565b6000600760009054906101000a900473ffffffffffffffffffffffffffffffffffffffff16905090565b606060018054611b8790614909565b80601f0160208091040260200160405190810160405280929190818152602001828054611bb390614909565b8015611c005780601f10611bd557610100808354040283529160200191611c00565b820191906000526020600020905b815481529060010190602001808311611be357829003601f168201915b5050505050905090565b606060116000838152602001908152602001600020805480602002602001604051908101604052809291908181526020018280548015611c6957602002820191906000526020600020905b815481526020019060010190808311611c55575b50505050509050919050565b611c87611c8061258f565b83836129ca565b5050565b600080670f43fc2c04ee000090506000600a54905060005b600c54811015611ce157670de0b6b3a76400008383611cc29190615317565b611ccc9190615388565b91508080611cd99061485b565b915050611ca3565b50809250505090565b600080600f60008481526020019081526020016000206004015411611d44576040517f08c379a0000000000000000000000000000000000000000000000000000000008152600401611d3b906147d8565b60405180910390fd5b600f6000838152602001908152602001600020600201549050919050565b611d6d848484610f90565b611d81611d7861258f565b85858585612b39565b50505050565b6060611d9282612cea565b611dd1576040517f08c379a0000000000000000000000000000000000000000000000000000000008152600401611dc89061542b565b60405180910390fd5b611dda82612d2b565b9050919050565b6060600d6000838152602001908152602001600020805480602002602001604051908101604052809291908181526020018280548015611e4057602002820191906000526020600020905b815481526020019060010190808311611e2c575b50505050509050919050565b600080670de0b6b3a7640000600b54611e659190615317565b905060005b83811015611ea857670de0b6b3a7640000600b54611e889190615388565b82611e939190615317565b91508080611ea09061485b565b915050611e6a565b5080915050919050565b600960009054906101000a900473ffffffffffffffffffffffffffffffffffffffff1681565b60176020528060005260406000206000915054906101000a900460ff1681565b600f6020528060005260406000206000915090508060020154908060030160009054906101000a900473ffffffffffffffffffffffffffffffffffffffff16908060040154908060050154908060060154905085565b611f56613877565b600f60008381526020019081526020016000206040518060e001604052908160008201805480602002602001604051908101604052809291908181526020016000905b82821015612045578382906000526020600020018054611fb890614909565b80601f0160208091040260200160405190810160405280929190818152602001828054611fe490614909565b80156120315780601f1061200657610100808354040283529160200191612031565b820191906000526020600020905b81548152906001019060200180831161201457829003601f168201915b505050505081526020019060010190611f99565b5050505081526020016001820180548060200260200160405190810160405280929190818152602001828054801561209c57602002820191906000526020600020905b815481526020019060010190808311612088575b50505050508152602001600282015481526020016003820160009054906101000a900473ffffffffffffffffffffffffffffffffffffffff1673ffffffffffffffffffffffffffffffffffffffff1673ffffffffffffffffffffffffffffffffffffffff16815260200160048201548152602001600582015481526020016006820154815250509050919050565b6000600560008473ffffffffffffffffffffffffffffffffffffffff1673ffffffffffffffffffffffffffffffffffffffff16815260200190815260200160002060008373ffffffffffffffffffffffffffffffffffffffff1673ffffffffffffffffffffffffffffffffffffffff16815260200190815260200160002060009054906101000a900460ff16905092915050565b600d60205281600052604060002081815481106121da57600080fd5b90600052602060002001600091509150505481565b600a5481565b6121fd61262d565b600073ffffffffffffffffffffffffffffffffffffffff168173ffffffffffffffffffffffffffffffffffffffff160361226f5760006040517f1e4fbdf70000000000000000000000000000000000000000000000000000000081526004016122669190613b70565b60405180910390fd5b61227881612904565b50565b600073ffffffffffffffffffffffffffffffffffffffff168273ffffffffffffffffffffffffffffffffffffffff16036122ed5760006040517f64a0ae920000000000000000000000000000000000000000000000000000000081526004016122e49190613b70565b60405180910390fd5b60006122fb838360006125a9565b9050600073ffffffffffffffffffffffffffffffffffffffff168173ffffffffffffffffffffffffffffffffffffffff160361236e57816040517f7e2732890000000000000000000000000000000000000000000000000000000081526004016123659190613c99565b60405180910390fd5b8373ffffffffffffffffffffffffffffffffffffffff168173ffffffffffffffffffffffffffffffffffffffff16146123e2578382826040517f64283d7b0000000000000000000000000000000000000000000000000000000081526004016123d99392919061493a565b60405180910390fd5b50505050565b60007f80ac58cd000000000000000000000000000000000000000000000000000000007bffffffffffffffffffffffffffffffffffffffffffffffffffffffff1916827bffffffffffffffffffffffffffffffffffffffffffffffffffffffff191614806124b357507f5b5e139f000000000000000000000000000000000000000000000000000000007bffffffffffffffffffffffffffffffffffffffffffffffffffffffff1916827bffffffffffffffffffffffffffffffffffffffffffffffffffffffff1916145b806124c357506124c282612e3e565b5b9050919050565b6000806124d683612ea8565b9050600073ffffffffffffffffffffffffffffffffffffffff168173ffffffffffffffffffffffffffffffffffffffff160361254957826040517f7e2732890000000000000000000000000000000000000000000000000000000081526004016125409190613c99565b60405180910390fd5b80915050919050565b60006004600083815260200190815260200160002060009054906101000a900473ffffffffffffffffffffffffffffffffffffffff169050919050565b600033905090565b6125a48383836001612ee5565b505050565b60008073ffffffffffffffffffffffffffffffffffffffff168473ffffffffffffffffffffffffffffffffffffffff1603612619576040517f08c379a000000000000000000000000000000000000000000000000000000000815260040161261090615497565b60405180910390fd5b6126248484846130aa565b90509392505050565b61263561258f565b73ffffffffffffffffffffffffffffffffffffffff16612653611b4e565b73ffffffffffffffffffffffffffffffffffffffff16146126b25761267661258f565b6040517f118cdaa70000000000000000000000000000000000000000000000000000000081526004016126a99190613b70565b60405180910390fd5b565b6060600060016126c3846132c4565b01905060008167ffffffffffffffff8111156126e2576126e1613cf9565b5b6040519080825280601f01601f1916602001820160405280156127145781602001600182028036833780820191505090505b509050600082602001820190505b600115612777578080600190039150507f3031323334353637383961626364656600000000000000000000000000000000600a86061a8153600a858161276b5761276a615359565b5b04945060008503612722575b819350505050919050565b60606127a8826040518060600160405280604081526020016155e8604091396001613417565b9050919050565b600073ffffffffffffffffffffffffffffffffffffffff168273ffffffffffffffffffffffffffffffffffffffff16036128215760006040517f64a0ae920000000000000000000000000000000000000000000000000000000081526004016128189190613b70565b60405180910390fd5b600061282f838360006125a9565b9050600073ffffffffffffffffffffffffffffffffffffffff168173ffffffffffffffffffffffffffffffffffffffff16146128a35760006040517f73c6ac6e00000000000000000000000000000000000000000000000000000000815260040161289a9190613b70565b60405180910390fd5b505050565b806006600084815260200190815260200160002090816128c89190614e92565b507ff8e1a15aba9398e019f0b49df1a4fde98ee17ae345cb5f6b5e2c27f5033e8ce7826040516128f89190613c99565b60405180910390a15050565b6000600760009054906101000a900473ffffffffffffffffffffffffffffffffffffffff16905081600760006101000a81548173ffffffffffffffffffffffffffffffffffffffff021916908373ffffffffffffffffffffffffffffffffffffffff1602179055508173ffffffffffffffffffffffffffffffffffffffff168173ffffffffffffffffffffffffffffffffffffffff167f8be0079c531659141344cd1fd0a4f28419497f9722a3daafe3b4186f6b6457e060405160405180910390a35050565b600073ffffffffffffffffffffffffffffffffffffffff168273ffffffffffffffffffffffffffffffffffffffff1603612a3b57816040517f5b08ba18000000000000000000000000000000000000000000000000000000008152600401612a329190613b70565b60405180910390fd5b80600560008573ffffffffffffffffffffffffffffffffffffffff1673ffffffffffffffffffffffffffffffffffffffff16815260200190815260200160002060008473ffffffffffffffffffffffffffffffffffffffff1673ffffffffffffffffffffffffffffffffffffffff16815260200190815260200160002060006101000a81548160ff0219169083151502179055508173ffffffffffffffffffffffffffffffffffffffff168373ffffffffffffffffffffffffffffffffffffffff167f17307eab39ab6107e8899845ad3d59bd9653f200f220920489ca2b5937696c3183604051612b2c9190613a62565b60405180910390a3505050565b60008373ffffffffffffffffffffffffffffffffffffffff163b1115612ce3578273ffffffffffffffffffffffffffffffffffffffff1663150b7a02868685856040518563ffffffff1660e01b8152600401612b98949392919061550c565b6020604051808303816000875af1925050508015612bd457506040513d601f19601f82011682018060405250810190612bd1919061556d565b60015b612c58573d8060008114612c04576040519150601f19603f3d011682016040523d82523d6000602084013e612c09565b606091505b506000815103612c5057836040517f64a0ae92000000000000000000000000000000000000000000000000000000008152600401612c479190613b70565b60405180910390fd5b805181602001fd5b63150b7a0260e01b7bffffffffffffffffffffffffffffffffffffffffffffffffffffffff1916817bffffffffffffffffffffffffffffffffffffffffffffffffffffffff191614612ce157836040517f64a0ae92000000000000000000000000000000000000000000000000000000008152600401612cd89190613b70565b60405180910390fd5b505b5050505050565b60008073ffffffffffffffffffffffffffffffffffffffff16612d0c83612ea8565b73ffffffffffffffffffffffffffffffffffffffff1614159050919050565b6060612d36826124ca565b506000600660008481526020019081526020016000208054612d5790614909565b80601f0160208091040260200160405190810160405280929190818152602001828054612d8390614909565b8015612dd05780601f10612da557610100808354040283529160200191612dd0565b820191906000526020600020905b815481529060010190602001808311612db357829003601f168201915b505050505090506000612de16135ab565b90506000815103612df6578192505050612e39565b600082511115612e2b578082604051602001612e1392919061559a565b60405160208183030381529060405292505050612e39565b612e34846135c2565b925050505b919050565b60007f01ffc9a7000000000000000000000000000000000000000000000000000000007bffffffffffffffffffffffffffffffffffffffffffffffffffffffff1916827bffffffffffffffffffffffffffffffffffffffffffffffffffffffff1916149050919050565b60006002600083815260200190815260200160002060009054906101000a900473ffffffffffffffffffffffffffffffffffffffff169050919050565b8080612f1e5750600073ffffffffffffffffffffffffffffffffffffffff168273ffffffffffffffffffffffffffffffffffffffff1614155b15613052576000612f2e846124ca565b9050600073ffffffffffffffffffffffffffffffffffffffff168373ffffffffffffffffffffffffffffffffffffffff1614158015612f9957508273ffffffffffffffffffffffffffffffffffffffff168173ffffffffffffffffffffffffffffffffffffffff1614155b8015612fac5750612faa818461212a565b155b15612fee57826040517fa9fbf51f000000000000000000000000000000000000000000000000000000008152600401612fe59190613b70565b60405180910390fd5b811561305057838573ffffffffffffffffffffffffffffffffffffffff168273ffffffffffffffffffffffffffffffffffffffff167f8c5be1e5ebec7d5bd14f71427d1e84f3dd0314c0f7b2291e5b200ac8c7c3b92560405160405180910390a45b505b836004600085815260200190815260200160002060006101000a81548173ffffffffffffffffffffffffffffffffffffffff021916908373ffffffffffffffffffffffffffffffffffffffff16021790555050505050565b6000806130b684612ea8565b9050600073ffffffffffffffffffffffffffffffffffffffff168373ffffffffffffffffffffffffffffffffffffffff16146130f8576130f781848661362b565b5b600073ffffffffffffffffffffffffffffffffffffffff168173ffffffffffffffffffffffffffffffffffffffff16146131895761313a600085600080612ee5565b6001600360008373ffffffffffffffffffffffffffffffffffffffff1673ffffffffffffffffffffffffffffffffffffffff168152602001908152602001600020600082825403925050819055505b600073ffffffffffffffffffffffffffffffffffffffff168573ffffffffffffffffffffffffffffffffffffffff161461320c576001600360008773ffffffffffffffffffffffffffffffffffffffff1673ffffffffffffffffffffffffffffffffffffffff168152602001908152602001600020600082825401925050819055505b846002600086815260200190815260200160002060006101000a81548173ffffffffffffffffffffffffffffffffffffffff021916908373ffffffffffffffffffffffffffffffffffffffff160217905550838573ffffffffffffffffffffffffffffffffffffffff168273ffffffffffffffffffffffffffffffffffffffff167fddf252ad1be2c89b69c2b068fc378daa952ba7f163c4a11628f55a4df523b3ef60405160405180910390a4809150509392505050565b600080600090507a184f03e93ff9f4daa797ed6e38ed64bf6a1f0100000000000000008310613322577a184f03e93ff9f4daa797ed6e38ed64bf6a1f010000000000000000838161331857613317615359565b5b0492506040810190505b6d04ee2d6d415b85acef8100000000831061335f576d04ee2d6d415b85acef8100000000838161335557613354615359565b5b0492506020810190505b662386f26fc10000831061338e57662386f26fc10000838161338457613383615359565b5b0492506010810190505b6305f5e10083106133b7576305f5e10083816133ad576133ac615359565b5b0492506008810190505b61271083106133dc5761271083816133d2576133d1615359565b5b0492506004810190505b606483106133ff57606483816133f5576133f4615359565b5b0492506002810190505b600a831061340e576001810190505b80915050919050565b60606000845103613439576040518060200160405280600081525090506135a4565b60008261346b5760036002865160046134529190615317565b61345c9190614827565b6134669190615388565b613492565b60036002865161347b9190614827565b6134859190615388565b60046134919190615317565b5b905060008167ffffffffffffffff8111156134b0576134af613cf9565b5b6040519080825280601f01601f1916602001820160405280156134e25781602001600182028036833780820191505090505b50905060018501602082018788518901602081018051600082525b82841015613558576003840193508351603f8160121c168701518653600186019550603f81600c1c168701518653600186019550603f8160061c168701518653600186019550603f81168701518653600186019550506134fd565b80825289156135985760038c51066001811461357b576002811461358e57613596565b603d6001870353603d6002870353613596565b603d60018703535b505b50505050505080925050505b9392505050565b606060405180602001604052806000815250905090565b60606135cd826124ca565b5060006135d86135ab565b905060008151116135f85760405180602001604052806000815250613623565b80613602846126b4565b60405160200161361392919061559a565b6040516020818303038152906040525b915050919050565b6136368383836136ef565b6136ea57600073ffffffffffffffffffffffffffffffffffffffff168373ffffffffffffffffffffffffffffffffffffffff16036136ab57806040517f7e2732890000000000000000000000000000000000000000000000000000000081526004016136a29190613c99565b60405180910390fd5b81816040517f177e802f0000000000000000000000000000000000000000000000000000000081526004016136e19291906155be565b60405180910390fd5b505050565b60008073ffffffffffffffffffffffffffffffffffffffff168373ffffffffffffffffffffffffffffffffffffffff16141580156137a757508273ffffffffffffffffffffffffffffffffffffffff168473ffffffffffffffffffffffffffffffffffffffff1614806137685750613767848461212a565b5b806137a657508273ffffffffffffffffffffffffffffffffffffffff1661378e83612552565b73ffffffffffffffffffffffffffffffffffffffff16145b5b90509392505050565b8280548282559060005260206000209081019282156137f8579160200282015b828111156137f75782518290816137e79190614e92565b50916020019190600101906137d0565b5b50905061380591906138ca565b5090565b828054828255906000526020600020908101928215613845579160200282015b82811115613844578251825591602001919060010190613829565b5b50905061385291906138ee565b5090565b60405180606001604052806060815260200160608152602001600081525090565b6040518060e00160405280606081526020016060815260200160008152602001600073ffffffffffffffffffffffffffffffffffffffff1681526020016000815260200160008152602001600081525090565b5b808211156138ea57600081816138e1919061390b565b506001016138cb565b5090565b5b808211156139075760008160009055506001016138ef565b5090565b50805461391790614909565b6000825580601f106139295750613948565b601f01602090049060005260206000209081019061394791906138ee565b5b50565b6000604051905090565b600080fd5b600080fd5b6000819050919050565b6139728161395f565b811461397d57600080fd5b50565b60008135905061398f81613969565b92915050565b6000602082840312156139ab576139aa613955565b5b60006139b984828501613980565b91505092915050565b60007fffffffff0000000000000000000000000000000000000000000000000000000082169050919050565b6139f7816139c2565b8114613a0257600080fd5b50565b600081359050613a14816139ee565b92915050565b600060208284031215613a3057613a2f613955565b5b6000613a3e84828501613a05565b91505092915050565b60008115159050919050565b613a5c81613a47565b82525050565b6000602082019050613a776000830184613a53565b92915050565b600081519050919050565b600082825260208201905092915050565b60005b83811015613ab7578082015181840152602081019050613a9c565b60008484015250505050565b6000601f19601f8301169050919050565b6000613adf82613a7d565b613ae98185613a88565b9350613af9818560208601613a99565b613b0281613ac3565b840191505092915050565b60006020820190508181036000830152613b278184613ad4565b905092915050565b600073ffffffffffffffffffffffffffffffffffffffff82169050919050565b6000613b5a82613b2f565b9050919050565b613b6a81613b4f565b82525050565b6000602082019050613b856000830184613b61565b92915050565b613b9481613b4f565b8114613b9f57600080fd5b50565b600081359050613bb181613b8b565b92915050565b60008060408385031215613bce57613bcd613955565b5b6000613bdc85828601613ba2565b9250506020613bed85828601613980565b9150509250929050565b600080600060608486031215613c1057613c0f613955565b5b6000613c1e86828701613ba2565b9350506020613c2f86828701613ba2565b9250506040613c4086828701613980565b9150509250925092565b60008060408385031215613c6157613c60613955565b5b6000613c6f85828601613980565b9250506020613c8085828601613980565b9150509250929050565b613c938161395f565b82525050565b6000602082019050613cae6000830184613c8a565b92915050565b60008060408385031215613ccb57613cca613955565b5b6000613cd985828601613980565b9250506020613cea85828601613ba2565b9150509250929050565b600080fd5b7f4e487b7100000000000000000000000000000000000000000000000000000000600052604160045260246000fd5b613d3182613ac3565b810181811067ffffffffffffffff82111715613d5057613d4f613cf9565b5b80604052505050565b6000613d6361394b565b9050613d6f8282613d28565b919050565b600067ffffffffffffffff821115613d8f57613d8e613cf9565b5b602082029050602081019050919050565b600080fd5b600080fd5b600067ffffffffffffffff821115613dc557613dc4613cf9565b5b613dce82613ac3565b9050602081019050919050565b82818337600083830152505050565b6000613dfd613df884613daa565b613d59565b905082815260208101848484011115613e1957613e18613da5565b5b613e24848285613ddb565b509392505050565b600082601f830112613e4157613e40613cf4565b5b8135613e51848260208601613dea565b91505092915050565b6000613e6d613e6884613d74565b613d59565b90508083825260208201905060208402830185811115613e9057613e8f613da0565b5b835b81811015613ed757803567ffffffffffffffff811115613eb557613eb4613cf4565b5b808601613ec28982613e2c565b85526020850194505050602081019050613e92565b5050509392505050565b600082601f830112613ef657613ef5613cf4565b5b8135613f06848260208601613e5a565b91505092915050565b600067ffffffffffffffff821115613f2a57613f29613cf9565b5b602082029050602081019050919050565b6000613f4e613f4984613f0f565b613d59565b90508083825260208201905060208402830185811115613f7157613f70613da0565b5b835b81811015613f9a5780613f868882613980565b845260208401935050602081019050613f73565b5050509392505050565b600082601f830112613fb957613fb8613cf4565b5b8135613fc9848260208601613f3b565b91505092915050565b600080600060608486031215613feb57613fea613955565b5b600084013567ffffffffffffffff8111156140095761400861395a565b5b61401586828701613ee1565b935050602084013567ffffffffffffffff8111156140365761403561395a565b5b61404286828701613fa4565b925050604061405386828701613980565b9150509250925092565b600082825260208201905092915050565b600061407982613a7d565b614083818561405d565b9350614093818560208601613a99565b61409c81613ac3565b840191505092915050565b6140b08161395f565b82525050565b600060608301600083015184820360008601526140d3828261406e565b915050602083015184820360208601526140ed828261406e565b915050604083015161410260408601826140a7565b508091505092915050565b6000602082019050818103600083015261412781846140b6565b905092915050565b6000806040838503121561414657614145613955565b5b600083013567ffffffffffffffff8111156141645761416361395a565b5b61417085828601613e2c565b925050602083013567ffffffffffffffff8111156141915761419061395a565b5b61419d85828601613e2c565b9150509250929050565b6000602082840312156141bd576141bc613955565b5b60006141cb84828501613ba2565b91505092915050565b600060608201905081810360008301526141ee8186613ad4565b905081810360208301526142028185613ad4565b90506142116040830184613c8a565b949350505050565b600081519050919050565b600082825260208201905092915050565b6000819050602082019050919050565b600061425183836140a7565b60208301905092915050565b6000602082019050919050565b600061427582614219565b61427f8185614224565b935061428a83614235565b8060005b838110156142bb5781516142a28882614245565b97506142ad8361425d565b92505060018101905061428e565b5085935050505092915050565b600060208201905081810360008301526142e2818461426a565b905092915050565b6142f381613a47565b81146142fe57600080fd5b50565b600081359050614310816142ea565b92915050565b6000806040838503121561432d5761432c613955565b5b600061433b85828601613ba2565b925050602061434c85828601614301565b9150509250929050565b600067ffffffffffffffff82111561437157614370613cf9565b5b61437a82613ac3565b9050602081019050919050565b600061439a61439584614356565b613d59565b9050828152602081018484840111156143b6576143b5613da5565b5b6143c1848285613ddb565b509392505050565b600082601f8301126143de576143dd613cf4565b5b81356143ee848260208601614387565b91505092915050565b6000806000806080858703121561441157614410613955565b5b600061441f87828801613ba2565b945050602061443087828801613ba2565b935050604061444187828801613980565b925050606085013567ffffffffffffffff8111156144625761446161395a565b5b61446e878288016143c9565b91505092959194509250565b6000819050919050565b600061449f61449a61449584613b2f565b61447a565b613b2f565b9050919050565b60006144b182614484565b9050919050565b60006144c3826144a6565b9050919050565b6144d3816144b8565b82525050565b60006020820190506144ee60008301846144ca565b92915050565b600060a0820190506145096000830188613c8a565b6145166020830187613b61565b6145236040830186613c8a565b6145306060830185613c8a565b61453d6080830184613c8a565b9695505050505050565b600081519050919050565b600082825260208201905092915050565b6000819050602082019050919050565b600061457f838361406e565b905092915050565b6000602082019050919050565b600061459f82614547565b6145a98185614552565b9350836020820285016145bb85614563565b8060005b858110156145f757848403895281516145d88582614573565b94506145e383614587565b925060208a019950506001810190506145bf565b50829750879550505050505092915050565b600082825260208201905092915050565b600061462582614219565b61462f8185614609565b935061463a83614235565b8060005b8381101561466b5781516146528882614245565b975061465d8361425d565b92505060018101905061463e565b5085935050505092915050565b61468181613b4f565b82525050565b600060e08301600083015184820360008601526146a48282614594565b915050602083015184820360208601526146be828261461a565b91505060408301516146d360408601826140a7565b5060608301516146e66060860182614678565b5060808301516146f960808601826140a7565b5060a083015161470c60a08601826140a7565b5060c083015161471f60c08601826140a7565b508091505092915050565b600060208201905081810360008301526147448184614687565b905092915050565b6000806040838503121561476357614762613955565b5b600061477185828601613ba2565b925050602061478285828601613ba2565b9150509250929050565b7f537472697020646f6573206e6f74206578697374000000000000000000000000600082015250565b60006147c2601483613a88565b91506147cd8261478c565b602082019050919050565b600060208201905081810360008301526147f1816147b5565b9050919050565b7f4e487b7100000000000000000000000000000000000000000000000000000000600052601160045260246000fd5b60006148328261395f565b915061483d8361395f565b9250828201905080821115614855576148546147f8565b5b92915050565b60006148668261395f565b91507fffffffffffffffffffffffffffffffffffffffffffffffffffffffffffffffff8203614898576148976147f8565b5b600182019050919050565b60006060820190506148b86000830186613c8a565b6148c56020830185613c8a565b6148d26040830184613c8a565b949350505050565b7f4e487b7100000000000000000000000000000000000000000000000000000000600052602260045260246000fd5b6000600282049050600182168061492157607f821691505b602082108103614934576149336148da565b5b50919050565b600060608201905061494f6000830186613b61565b61495c6020830185613c8a565b6149696040830184613b61565b949350505050565b60006040820190506149866000830185613c8a565b6149936020830184613c8a565b9392505050565b7f4d7573742070726f76696465206174206c65617374206f6e6520696d61676500600082015250565b60006149d0601f83613a88565b91506149db8261499a565b602082019050919050565b600060208201905081810360008301526149ff816149c3565b9050919050565b7f436f6d696320646f6573206e6f74206578697374000000000000000000000000600082015250565b6000614a3c601483613a88565b9150614a4782614a06565b602082019050919050565b60006020820190508181036000830152614a6b81614a2f565b9050919050565b7f4e487b7100000000000000000000000000000000000000000000000000000000600052603260045260246000fd5b600081519050614ab0816142ea565b92915050565b600060208284031215614acc57614acb613955565b5b6000614ada84828501614aa1565b91505092915050565b7f416c6c2063686172616374657273206d75737420626520616c69766500000000600082015250565b6000614b19601c83613a88565b9150614b2482614ae3565b602082019050919050565b60006020820190508181036000830152614b4881614b0c565b9050919050565b6000606082019050614b646000830186613c8a565b614b716020830185613b61565b614b7e6040830184613c8a565b949350505050565b7f496e73756666696369656e74207061796d656e7420666f7220636f6d6963206360008201527f72656174696f6e00000000000000000000000000000000000000000000000000602082015250565b6000614be2602783613a88565b9150614bed82614b86565b604082019050919050565b60006020820190508181036000830152614c1181614bd5565b9050919050565b7f4e616d652063616e6e6f7420626520656d707479000000000000000000000000600082015250565b6000614c4e601483613a88565b9150614c5982614c18565b602082019050919050565b60006020820190508181036000830152614c7d81614c41565b9050919050565b7f496d6167652063616e6e6f7420626520656d7074790000000000000000000000600082015250565b6000614cba601583613a88565b9150614cc582614c84565b602082019050919050565b60006020820190508181036000830152614ce981614cad565b9050919050565b60008190508160005260206000209050919050565b60006020601f8301049050919050565b600082821b905092915050565b600060088302614d527fffffffffffffffffffffffffffffffffffffffffffffffffffffffffffffffff82614d15565b614d5c8683614d15565b95508019841693508086168417925050509392505050565b6000614d8f614d8a614d858461395f565b61447a565b61395f565b9050919050565b6000819050919050565b614da983614d74565b614dbd614db582614d96565b848454614d22565b825550505050565b600090565b614dd2614dc5565b614ddd818484614da0565b505050565b5b81811015614e0157614df6600082614dca565b600181019050614de3565b5050565b601f821115614e4657614e1781614cf0565b614e2084614d05565b81016020851015614e2f578190505b614e43614e3b85614d05565b830182614de2565b50505b505050565b600082821c905092915050565b6000614e6960001984600802614e4b565b1980831691505092915050565b6000614e828383614e58565b9150826002028217905092915050565b614e9b82613a7d565b67ffffffffffffffff811115614eb457614eb3613cf9565b5b614ebe8254614909565b614ec9828285614e05565b600060209050601f831160018114614efc5760008415614eea578287015190505b614ef48582614e76565b865550614f5c565b601f198416614f0a86614cf0565b60005b82811015614f3257848901518255600182019150602085019450602081019050614f0d565b86831015614f4f5784890151614f4b601f891682614e58565b8355505b6001600288020188555050505b505050505050565b600081905092915050565b7f7b226e616d65223a220000000000000000000000000000000000000000000000600082015250565b6000614fa5600983614f64565b9150614fb082614f6f565b600982019050919050565b6000614fc682613a7d565b614fd08185614f64565b9350614fe0818560208601613a99565b80840191505092915050565b7f222c000000000000000000000000000000000000000000000000000000000000600082015250565b6000615022600283614f64565b915061502d82614fec565b600282019050919050565b7f226465736372697074696f6e223a224120636f6d69632066726f6d20576f726c60008201527f6420436f6d696373222c00000000000000000000000000000000000000000000602082015250565b6000615094602a83614f64565b915061509f82615038565b602a82019050919050565b7f22696d616765223a220000000000000000000000000000000000000000000000600082015250565b60006150e0600983614f64565b91506150eb826150aa565b600982019050919050565b7f2261747472696275746573223a5b000000000000000000000000000000000000600082015250565b600061512c600e83614f64565b9150615137826150f6565b600e82019050919050565b7f7b2274726169745f74797065223a2243726561746564204174222c2276616c7560008201527f65223a2200000000000000000000000000000000000000000000000000000000602082015250565b600061519e602483614f64565b91506151a982615142565b602482019050919050565b7f227d000000000000000000000000000000000000000000000000000000000000600082015250565b60006151ea600283614f64565b91506151f5826151b4565b600282019050919050565b7f5d7d000000000000000000000000000000000000000000000000000000000000600082015250565b6000615236600283614f64565b915061524182615200565b600282019050919050565b600061525782614f98565b91506152638286614fbb565b915061526e82615015565b915061527982615087565b9150615284826150d3565b91506152908285614fbb565b915061529b82615015565b91506152a68261511f565b91506152b182615191565b91506152bd8284614fbb565b91506152c8826151dd565b91506152d382615229565b9150819050949350505050565b600060408201905081810360008301526152fa8185613ad4565b9050818103602083015261530e8184613ad4565b90509392505050565b60006153228261395f565b915061532d8361395f565b925082820261533b8161395f565b91508282048414831517615352576153516147f8565b5b5092915050565b7f4e487b7100000000000000000000000000000000000000000000000000000000600052601260045260246000fd5b60006153938261395f565b915061539e8361395f565b9250826153ae576153ad615359565b5b828204905092915050565b7f4552433732314d657461646174613a2055524920717565727920666f72206e6f60008201527f6e6578697374656e7420746f6b656e0000000000000000000000000000000000602082015250565b6000615415602f83613a88565b9150615420826153b9565b604082019050919050565b6000602082019050818103600083015261544481615408565b9050919050565b7f436f6d6963207472616e7366657273206172652064697361626c656400000000600082015250565b6000615481601c83613a88565b915061548c8261544b565b602082019050919050565b600060208201905081810360008301526154b081615474565b9050919050565b600081519050919050565b600082825260208201905092915050565b60006154de826154b7565b6154e881856154c2565b93506154f8818560208601613a99565b61550181613ac3565b840191505092915050565b60006080820190506155216000830187613b61565b61552e6020830186613b61565b61553b6040830185613c8a565b818103606083015261554d81846154d3565b905095945050505050565b600081519050615567816139ee565b92915050565b60006020828403121561558357615582613955565b5b600061559184828501615558565b91505092915050565b60006155a68285614fbb565b91506155b28284614fbb565b91508190509392505050565b60006040820190506155d36000830185613b61565b6155e06020830184613c8a565b939250505056fe4142434445464748494a4b4c4d4e4f505152535455565758595a6162636465666768696a6b6c6d6e6f707172737475767778797a303132333435363738392b2fa264697066735822122052dbdea0acc556b0e91c17317aa5792dd4905e6c79fc9bd359bcae9c8556ef7564736f6c63430008140033",
  "linkReferences": {},
  "deployedLinkReferences": {}
}