{
  "_format": "hh-sol-artifact-1",
  "contractName": "Comics",
  "sourceName": "contracts/Comics.sol",
  "abi": [
    {
      "inputs": [
        {
          "internalType": "address",
          "name": "_characters",
          "type": "address"
        }
      ],
      "stateMutability": "nonpayable",
      "type": "constructor"
    },
    {
      "inputs": [
        {
          "internalType": "address",
          "name": "sender",
          "type": "address"
        },
        {
          "internalType": "uint256",
          "name": "tokenId",
          "type": "uint256"
        },
        {
          "internalType": "address",
          "name": "owner",
          "type": "address"
        }
      ],
      "name": "ERC721IncorrectOwner",
      "type": "error"
    },
    {
      "inputs": [
        {
          "internalType": "address",
          "name": "operator",
          "type": "address"
        },
        {
          "internalType": "uint256",
          "name": "tokenId",
          "type": "uint256"
        }
      ],
      "name": "ERC721InsufficientApproval",
      "type": "error"
    },
    {
      "inputs": [
        {
          "internalType": "address",
          "name": "approver",
          "type": "address"
        }
      ],
      "name": "ERC721InvalidApprover",
      "type": "error"
    },
    {
      "inputs": [
        {
          "internalType": "address",
          "name": "operator",
          "type": "address"
        }
      ],
      "name": "ERC721InvalidOperator",
      "type": "error"
    },
    {
      "inputs": [
        {
          "internalType": "address",
          "name": "owner",
          "type": "address"
        }
      ],
      "name": "ERC721InvalidOwner",
      "type": "error"
    },
    {
      "inputs": [
        {
          "internalType": "address",
          "name": "receiver",
          "type": "address"
        }
      ],
      "name": "ERC721InvalidReceiver",
      "type": "error"
    },
    {
      "inputs": [
        {
          "internalType": "address",
          "name": "sender",
          "type": "address"
        }
      ],
      "name": "ERC721InvalidSender",
      "type": "error"
    },
    {
      "inputs": [
        {
          "internalType": "uint256",
          "name": "tokenId",
          "type": "uint256"
        }
      ],
      "name": "ERC721NonexistentToken",
      "type": "error"
    },
    {
      "inputs": [
        {
          "internalType": "address",
          "name": "owner",
          "type": "address"
        }
      ],
      "name": "OwnableInvalidOwner",
      "type": "error"
    },
    {
      "inputs": [
        {
          "internalType": "address",
          "name": "account",
          "type": "address"
        }
      ],
      "name": "OwnableUnauthorizedAccount",
      "type": "error"
    },
    {
      "anonymous": false,
      "inputs": [
        {
          "indexed": true,
          "internalType": "address",
          "name": "owner",
          "type": "address"
        },
        {
          "indexed": true,
          "internalType": "address",
          "name": "approved",
          "type": "address"
        },
        {
          "indexed": true,
          "internalType": "uint256",
          "name": "tokenId",
          "type": "uint256"
        }
      ],
      "name": "Approval",
      "type": "event"
    },
    {
      "anonymous": false,
      "inputs": [
        {
          "indexed": true,
          "internalType": "address",
          "name": "owner",
          "type": "address"
        },
        {
          "indexed": true,
          "internalType": "address",
          "name": "operator",
          "type": "address"
        },
        {
          "indexed": false,
          "internalType": "bool",
          "name": "approved",
          "type": "bool"
        }
      ],
      "name": "ApprovalForAll",
      "type": "event"
    },
    {
      "anonymous": false,
      "inputs": [
        {
          "indexed": false,
          "internalType": "uint256",
          "name": "comicFee",
          "type": "uint256"
        },
        {
          "indexed": false,
          "internalType": "uint256",
          "name": "stripFee",
          "type": "uint256"
        }
      ],
      "name": "BaseFeeUpdated",
      "type": "event"
    },
    {
      "anonymous": false,
      "inputs": [
        {
          "indexed": false,
          "internalType": "uint256",
          "name": "_fromTokenId",
          "type": "uint256"
        },
        {
          "indexed": false,
          "internalType": "uint256",
          "name": "_toTokenId",
          "type": "uint256"
        }
      ],
      "name": "BatchMetadataUpdate",
      "type": "event"
    },
    {
      "anonymous": false,
      "inputs": [
        {
          "indexed": true,
          "internalType": "uint256",
          "name": "comicId",
          "type": "uint256"
        },
        {
          "indexed": false,
          "internalType": "string",
          "name": "name",
          "type": "string"
        },
        {
          "indexed": false,
          "internalType": "string",
          "name": "image",
          "type": "string"
        }
      ],
      "name": "ComicCreated",
      "type": "event"
    },
    {
      "anonymous": false,
      "inputs": [
        {
          "indexed": true,
          "internalType": "uint256",
          "name": "comicId",
          "type": "uint256"
        },
        {
          "indexed": false,
          "internalType": "address",
          "name": "newOwner",
          "type": "address"
        }
      ],
      "name": "ComicOwnershipChanged",
      "type": "event"
    },
    {
      "anonymous": false,
      "inputs": [
        {
          "indexed": false,
          "internalType": "uint256",
          "name": "_tokenId",
          "type": "uint256"
        }
      ],
      "name": "MetadataUpdate",
      "type": "event"
    },
    {
      "anonymous": false,
      "inputs": [
        {
          "indexed": true,
          "internalType": "address",
          "name": "previousOwner",
          "type": "address"
        },
        {
          "indexed": true,
          "internalType": "address",
          "name": "newOwner",
          "type": "address"
        }
      ],
      "name": "OwnershipTransferred",
      "type": "event"
    },
    {
      "anonymous": false,
      "inputs": [
        {
          "indexed": true,
          "internalType": "uint256",
          "name": "stripId",
          "type": "uint256"
        },
        {
          "indexed": false,
          "internalType": "uint256",
          "name": "day",
          "type": "uint256"
        },
        {
          "indexed": false,
          "internalType": "address",
          "name": "creator",
          "type": "address"
        },
        {
          "indexed": false,
          "internalType": "uint256",
          "name": "comicId",
          "type": "uint256"
        }
      ],
      "name": "StripCreated",
      "type": "event"
    },
    {
      "anonymous": false,
      "inputs": [
        {
          "indexed": true,
          "internalType": "uint256",
          "name": "stripId",
          "type": "uint256"
        },
        {
          "indexed": false,
          "internalType": "uint256",
          "name": "amount",
          "type": "uint256"
        }
      ],
      "name": "StripDonated",
      "type": "event"
    },
    {
      "anonymous": false,
      "inputs": [
        {
          "indexed": false,
          "internalType": "uint256",
          "name": "comicId",
          "type": "uint256"
        },
        {
          "indexed": false,
          "internalType": "uint256",
          "name": "stripId",
          "type": "uint256"
        },
        {
          "indexed": false,
          "internalType": "uint256",
          "name": "updatedDay",
          "type": "uint256"
        }
      ],
      "name": "StripFrozen",
      "type": "event"
    },
    {
      "anonymous": false,
      "inputs": [
        {
          "indexed": true,
          "internalType": "uint256",
          "name": "stripId",
          "type": "uint256"
        },
        {
          "indexed": false,
          "internalType": "uint256",
          "name": "amount",
          "type": "uint256"
        }
      ],
      "name": "StripVoted",
      "type": "event"
    },
    {
      "anonymous": false,
      "inputs": [
        {
          "indexed": true,
          "internalType": "address",
          "name": "from",
          "type": "address"
        },
        {
          "indexed": true,
          "internalType": "address",
          "name": "to",
          "type": "address"
        },
        {
          "indexed": true,
          "internalType": "uint256",
          "name": "tokenId",
          "type": "uint256"
        }
      ],
      "name": "Transfer",
      "type": "event"
    },
    {
      "inputs": [],
      "name": "BASE_COMIC_FEE",
      "outputs": [
        {
          "internalType": "uint256",
          "name": "",
          "type": "uint256"
        }
      ],
      "stateMutability": "view",
      "type": "function"
    },
    {
      "inputs": [],
      "name": "BASE_STRIP_FEE",
      "outputs": [
        {
          "internalType": "uint256",
          "name": "",
          "type": "uint256"
        }
      ],
      "stateMutability": "view",
      "type": "function"
    },
    {
      "inputs": [
        {
          "internalType": "address",
          "name": "to",
          "type": "address"
        },
        {
          "internalType": "uint256",
          "name": "tokenId",
          "type": "uint256"
        }
      ],
      "name": "approve",
      "outputs": [],
      "stateMutability": "nonpayable",
      "type": "function"
    },
    {
      "inputs": [
        {
          "internalType": "address",
          "name": "owner",
          "type": "address"
        }
      ],
      "name": "balanceOf",
      "outputs": [
        {
          "internalType": "uint256",
          "name": "",
          "type": "uint256"
        }
      ],
      "stateMutability": "view",
      "type": "function"
    },
    {
      "inputs": [],
      "name": "characters",
      "outputs": [
        {
          "internalType": "contract Characters",
          "name": "",
          "type": "address"
        }
      ],
      "stateMutability": "view",
      "type": "function"
    },
    {
      "inputs": [],
      "name": "comicCount",
      "outputs": [
        {
          "internalType": "uint256",
          "name": "",
          "type": "uint256"
        }
      ],
      "stateMutability": "view",
      "type": "function"
    },
    {
      "inputs": [
        {
          "internalType": "uint256",
          "name": "",
          "type": "uint256"
        }
      ],
      "name": "comicOwners",
      "outputs": [
        {
          "internalType": "address",
          "name": "",
          "type": "address"
        }
      ],
      "stateMutability": "view",
      "type": "function"
    },
    {
      "inputs": [
        {
          "internalType": "uint256",
          "name": "",
          "type": "uint256"
        },
        {
          "internalType": "uint256",
          "name": "",
          "type": "uint256"
        }
      ],
      "name": "comicStrips",
      "outputs": [
        {
          "internalType": "uint256",
          "name": "",
          "type": "uint256"
        }
      ],
      "stateMutability": "view",
      "type": "function"
    },
    {
      "inputs": [
        {
          "internalType": "uint256",
          "name": "",
          "type": "uint256"
        }
      ],
      "name": "comics",
      "outputs": [
        {
          "internalType": "string",
          "name": "name",
          "type": "string"
        },
        {
          "internalType": "string",
          "name": "image",
          "type": "string"
        },
        {
          "internalType": "uint256",
          "name": "createdAt",
          "type": "uint256"
        }
      ],
      "stateMutability": "view",
      "type": "function"
    },
    {
      "inputs": [
        {
          "internalType": "uint256",
          "name": "",
          "type": "uint256"
        },
        {
          "internalType": "address",
          "name": "",
          "type": "address"
        }
      ],
      "name": "contributions",
      "outputs": [
        {
          "internalType": "uint256",
          "name": "",
          "type": "uint256"
        }
      ],
      "stateMutability": "view",
      "type": "function"
    },
    {
      "inputs": [
        {
          "internalType": "string",
          "name": "name",
          "type": "string"
        },
        {
          "internalType": "string",
          "name": "image",
          "type": "string"
        }
      ],
      "name": "createComic",
      "outputs": [
        {
          "internalType": "uint256",
          "name": "",
          "type": "uint256"
        }
      ],
      "stateMutability": "payable",
      "type": "function"
    },
    {
      "inputs": [
        {
          "internalType": "string[]",
          "name": "imageUrls",
          "type": "string[]"
        },
        {
          "internalType": "uint256[]",
          "name": "characterIds",
          "type": "uint256[]"
        },
        {
          "internalType": "uint256",
          "name": "comicId",
          "type": "uint256"
        }
      ],
      "name": "createStrip",
      "outputs": [],
      "stateMutability": "nonpayable",
      "type": "function"
    },
    {
      "inputs": [
        {
          "internalType": "uint256",
          "name": "",
          "type": "uint256"
        }
      ],
      "name": "currentStripDay",
      "outputs": [
        {
          "internalType": "uint256",
          "name": "",
          "type": "uint256"
        }
      ],
      "stateMutability": "view",
      "type": "function"
    },
    {
      "inputs": [
        {
          "internalType": "uint256",
          "name": "",
          "type": "uint256"
        },
        {
          "internalType": "uint256",
          "name": "",
          "type": "uint256"
        }
      ],
      "name": "dailyStrips",
      "outputs": [
        {
          "internalType": "uint256",
          "name": "",
          "type": "uint256"
        }
      ],
      "stateMutability": "view",
      "type": "function"
    },
    {
      "inputs": [
        {
          "internalType": "uint256",
          "name": "tokenId",
          "type": "uint256"
        }
      ],
      "name": "getApproved",
      "outputs": [
        {
          "internalType": "address",
          "name": "",
          "type": "address"
        }
      ],
      "stateMutability": "view",
      "type": "function"
    },
    {
      "inputs": [
        {
          "internalType": "uint256",
          "name": "comicId",
          "type": "uint256"
        }
      ],
      "name": "getComic",
      "outputs": [
        {
          "components": [
            {
              "internalType": "string",
              "name": "name",
              "type": "string"
            },
            {
              "internalType": "string",
              "name": "image",
              "type": "string"
            },
            {
              "internalType": "uint256",
              "name": "createdAt",
              "type": "uint256"
            }
          ],
          "internalType": "struct Comics.Comic",
          "name": "",
          "type": "tuple"
        }
      ],
      "stateMutability": "view",
      "type": "function"
    },
    {
      "inputs": [],
      "name": "getComicCreationFee",
      "outputs": [
        {
          "internalType": "uint256",
          "name": "",
          "type": "uint256"
        }
      ],
      "stateMutability": "view",
      "type": "function"
    },
    {
      "inputs": [
        {
          "internalType": "uint256",
          "name": "comicId",
          "type": "uint256"
        }
      ],
      "name": "getComicStrips",
      "outputs": [
        {
          "internalType": "uint256[]",
          "name": "",
          "type": "uint256[]"
        }
      ],
      "stateMutability": "view",
      "type": "function"
    },
    {
      "inputs": [
        {
          "internalType": "uint256",
          "name": "comicId",
          "type": "uint256"
        }
      ],
      "name": "getCurrentDay",
      "outputs": [
        {
          "internalType": "uint256",
          "name": "",
          "type": "uint256"
        }
      ],
      "stateMutability": "view",
      "type": "function"
    },
    {
      "inputs": [
        {
          "internalType": "uint256",
          "name": "day",
          "type": "uint256"
        }
      ],
      "name": "getDailyStrips",
      "outputs": [
        {
          "internalType": "uint256[]",
          "name": "",
          "type": "uint256[]"
        }
      ],
      "stateMutability": "view",
      "type": "function"
    },
    {
      "inputs": [
        {
          "internalType": "uint256",
          "name": "stripId",
          "type": "uint256"
        }
      ],
      "name": "getStrip",
      "outputs": [
        {
          "components": [
            {
              "internalType": "string[]",
              "name": "imageUrls",
              "type": "string[]"
            },
            {
              "internalType": "uint256[]",
              "name": "characterIds",
              "type": "uint256[]"
            },
            {
              "internalType": "uint256",
              "name": "voteCount",
              "type": "uint256"
            },
            {
              "internalType": "address",
              "name": "creator",
              "type": "address"
            },
            {
              "internalType": "uint256",
              "name": "createdAt",
              "type": "uint256"
            },
            {
              "internalType": "uint256",
              "name": "comicId",
              "type": "uint256"
            },
            {
              "internalType": "uint256",
              "name": "day",
              "type": "uint256"
            }
          ],
          "internalType": "struct Comics.Strip",
          "name": "",
          "type": "tuple"
        }
      ],
      "stateMutability": "view",
      "type": "function"
    },
    {
      "inputs": [
        {
          "internalType": "uint256",
          "name": "stripId",
          "type": "uint256"
        }
      ],
      "name": "getVoteCount",
      "outputs": [
        {
          "internalType": "uint256",
          "name": "",
          "type": "uint256"
        }
      ],
      "stateMutability": "view",
      "type": "function"
    },
    {
      "inputs": [
        {
          "internalType": "uint256",
          "name": "",
          "type": "uint256"
        }
      ],
      "name": "isAlive",
      "outputs": [
        {
          "internalType": "bool",
          "name": "",
          "type": "bool"
        }
      ],
      "stateMutability": "view",
      "type": "function"
    },
    {
      "inputs": [
        {
          "internalType": "address",
          "name": "owner",
          "type": "address"
        },
        {
          "internalType": "address",
          "name": "operator",
          "type": "address"
        }
      ],
      "name": "isApprovedForAll",
      "outputs": [
        {
          "internalType": "bool",
          "name": "",
          "type": "bool"
        }
      ],
      "stateMutability": "view",
      "type": "function"
    },
    {
      "inputs": [],
      "name": "name",
      "outputs": [
        {
          "internalType": "string",
          "name": "",
          "type": "string"
        }
      ],
      "stateMutability": "view",
      "type": "function"
    },
    {
      "inputs": [],
      "name": "owner",
      "outputs": [
        {
          "internalType": "address",
          "name": "",
          "type": "address"
        }
      ],
      "stateMutability": "view",
      "type": "function"
    },
    {
      "inputs": [
        {
          "internalType": "uint256",
          "name": "tokenId",
          "type": "uint256"
        }
      ],
      "name": "ownerOf",
      "outputs": [
        {
          "internalType": "address",
          "name": "",
          "type": "address"
        }
      ],
      "stateMutability": "view",
      "type": "function"
    },
    {
      "inputs": [],
      "name": "renounceOwnership",
      "outputs": [],
      "stateMutability": "nonpayable",
      "type": "function"
    },
    {
      "inputs": [
        {
          "internalType": "address",
          "name": "from",
          "type": "address"
        },
        {
          "internalType": "address",
          "name": "to",
          "type": "address"
        },
        {
          "internalType": "uint256",
          "name": "tokenId",
          "type": "uint256"
        }
      ],
      "name": "safeTransferFrom",
      "outputs": [],
      "stateMutability": "nonpayable",
      "type": "function"
    },
    {
      "inputs": [
        {
          "internalType": "address",
          "name": "from",
          "type": "address"
        },
        {
          "internalType": "address",
          "name": "to",
          "type": "address"
        },
        {
          "internalType": "uint256",
          "name": "tokenId",
          "type": "uint256"
        },
        {
          "internalType": "bytes",
          "name": "data",
          "type": "bytes"
        }
      ],
      "name": "safeTransferFrom",
      "outputs": [],
      "stateMutability": "nonpayable",
      "type": "function"
    },
    {
      "inputs": [
        {
          "internalType": "address",
          "name": "operator",
          "type": "address"
        },
        {
          "internalType": "bool",
          "name": "approved",
          "type": "bool"
        }
      ],
      "name": "setApprovalForAll",
      "outputs": [],
      "stateMutability": "nonpayable",
      "type": "function"
    },
    {
      "inputs": [
        {
          "internalType": "uint256",
          "name": "",
          "type": "uint256"
        }
      ],
      "name": "strips",
      "outputs": [
        {
          "internalType": "uint256",
          "name": "voteCount",
          "type": "uint256"
        },
        {
          "internalType": "address",
          "name": "creator",
          "type": "address"
        },
        {
          "internalType": "uint256",
          "name": "createdAt",
          "type": "uint256"
        },
        {
          "internalType": "uint256",
          "name": "comicId",
          "type": "uint256"
        },
        {
          "internalType": "uint256",
          "name": "day",
          "type": "uint256"
        }
      ],
      "stateMutability": "view",
      "type": "function"
    },
    {
      "inputs": [
        {
          "internalType": "bytes4",
          "name": "interfaceId",
          "type": "bytes4"
        }
      ],
      "name": "supportsInterface",
      "outputs": [
        {
          "internalType": "bool",
          "name": "",
          "type": "bool"
        }
      ],
      "stateMutability": "view",
      "type": "function"
    },
    {
      "inputs": [],
      "name": "symbol",
      "outputs": [
        {
          "internalType": "string",
          "name": "",
          "type": "string"
        }
      ],
      "stateMutability": "view",
      "type": "function"
    },
    {
      "inputs": [
        {
          "internalType": "uint256",
          "name": "tokenId",
          "type": "uint256"
        }
      ],
      "name": "tokenURI",
      "outputs": [
        {
          "internalType": "string",
          "name": "",
          "type": "string"
        }
      ],
      "stateMutability": "view",
      "type": "function"
    },
    {
      "inputs": [
        {
          "internalType": "address",
          "name": "from",
          "type": "address"
        },
        {
          "internalType": "address",
          "name": "to",
          "type": "address"
        },
        {
          "internalType": "uint256",
          "name": "tokenId",
          "type": "uint256"
        }
      ],
      "name": "transferFrom",
      "outputs": [],
      "stateMutability": "nonpayable",
      "type": "function"
    },
    {
      "inputs": [
        {
          "internalType": "address",
          "name": "newOwner",
          "type": "address"
        }
      ],
      "name": "transferOwnership",
      "outputs": [],
      "stateMutability": "nonpayable",
      "type": "function"
    },
    {
      "inputs": [
        {
          "internalType": "uint256",
          "name": "_comicFee",
          "type": "uint256"
        },
        {
          "internalType": "uint256",
          "name": "_stripFee",
          "type": "uint256"
        }
      ],
      "name": "updateBaseFee",
      "outputs": [],
      "stateMutability": "nonpayable",
      "type": "function"
    },
    {
      "inputs": [
        {
          "internalType": "uint256",
          "name": "stripId",
          "type": "uint256"
        }
      ],
      "name": "vote",
      "outputs": [],
      "stateMutability": "payable",
      "type": "function"
    },
    {
      "inputs": [],
      "name": "withdraw",
      "outputs": [],
      "stateMutability": "nonpayable",
      "type": "function"
    }
  ],
  "bytecode": "0x60806040526000600a556000600b553480156200001b57600080fd5b5060405162005ca838038062005ca88339818101604052810190620000419190620002d3565b336040518060400160405280600c81526020017f576f726c6420436f6d69637300000000000000000000000000000000000000008152506040518060400160405280600281526020017f57430000000000000000000000000000000000000000000000000000000000008152508160009081620000bf91906200057f565b508060019081620000d191906200057f565b505050600073ffffffffffffffffffffffffffffffffffffffff168173ffffffffffffffffffffffffffffffffffffffff1603620001495760006040517f1e4fbdf700000000000000000000000000000000000000000000000000000000815260040162000140919062000677565b60405180910390fd5b6200015a81620001a360201b60201c565b5080600960006101000a81548173ffffffffffffffffffffffffffffffffffffffff021916908373ffffffffffffffffffffffffffffffffffffffff1602179055505062000694565b6000600760009054906101000a900473ffffffffffffffffffffffffffffffffffffffff16905081600760006101000a81548173ffffffffffffffffffffffffffffffffffffffff021916908373ffffffffffffffffffffffffffffffffffffffff1602179055508173ffffffffffffffffffffffffffffffffffffffff168173ffffffffffffffffffffffffffffffffffffffff167f8be0079c531659141344cd1fd0a4f28419497f9722a3daafe3b4186f6b6457e060405160405180910390a35050565b600080fd5b600073ffffffffffffffffffffffffffffffffffffffff82169050919050565b60006200029b826200026e565b9050919050565b620002ad816200028e565b8114620002b957600080fd5b50565b600081519050620002cd81620002a2565b92915050565b600060208284031215620002ec57620002eb62000269565b5b6000620002fc84828501620002bc565b91505092915050565b600081519050919050565b7f4e487b7100000000000000000000000000000000000000000000000000000000600052604160045260246000fd5b7f4e487b7100000000000000000000000000000000000000000000000000000000600052602260045260246000fd5b600060028204905060018216806200038757607f821691505b6020821081036200039d576200039c6200033f565b5b50919050565b60008190508160005260206000209050919050565b60006020601f8301049050919050565b600082821b905092915050565b600060088302620004077fffffffffffffffffffffffffffffffffffffffffffffffffffffffffffffffff82620003c8565b620004138683620003c8565b95508019841693508086168417925050509392505050565b6000819050919050565b6000819050919050565b6000620004606200045a62000454846200042b565b62000435565b6200042b565b9050919050565b6000819050919050565b6200047c836200043f565b620004946200048b8262000467565b848454620003d5565b825550505050565b600090565b620004ab6200049c565b620004b881848462000471565b505050565b5b81811015620004e057620004d4600082620004a1565b600181019050620004be565b5050565b601f8211156200052f57620004f981620003a3565b6200050484620003b8565b8101602085101562000514578190505b6200052c6200052385620003b8565b830182620004bd565b50505b505050565b600082821c905092915050565b6000620005546000198460080262000534565b1980831691505092915050565b60006200056f838362000541565b9150826002028217905092915050565b6200058a8262000305565b67ffffffffffffffff811115620005a657620005a562000310565b5b620005b282546200036e565b620005bf828285620004e4565b600060209050601f831160018114620005f75760008415620005e2578287015190505b620005ee858262000561565b8655506200065e565b601f1984166200060786620003a3565b60005b8281101562000631578489015182556001820191506020850194506020810190506200060a565b868310156200065157848901516200064d601f89168262000541565b8355505b6001600288020188555050505b505050505050565b62000671816200028e565b82525050565b60006020820190506200068e600083018462000666565b92915050565b61560480620006a46000396000f3fe60806040526004361061023b5760003560e01c8063715018a61161012e578063c87b56dd116100ab578063e5c493241161006f578063e5c4932414610919578063e985e9c514610956578063f1f28cbf14610993578063f2171487146109d0578063f2fde38b146109fb5761023b565b8063c87b56dd146107f6578063cb22390414610833578063d070bb5414610870578063d84b23611461089b578063d9ad0a6b146108d85761023b565b80639d076031116100f25780639d076031146106ff578063a22cb4651461073c578063b0c5dfa314610765578063b2c2f2e814610790578063b88d4fde146107cd5761023b565b8063715018a6146106285780637a80dc1d1461063f578063835f59961461067e5780638da5cb5b146106a957806395d89b41146106d45761023b565b80633d891f59116101bc5780634c47ec64116101805780634c47ec64146105095780634ef39827146105465780636352211e14610583578063703a2c4b146105c057806370a08231146105eb5761023b565b80633d891f591461040d57806342842e0e1461044a57806343f52ba91461047357806347ac33ee1461049c57806348fcf243146104d95761023b565b806323b872dd1161020357806323b872dd1461032a57806323f137651461035357806337fa09aa1461037c578063384316e8146103b95780633ccfd60b146103f65761023b565b80630121b93f1461024057806301ffc9a71461025c57806306fdde0314610299578063081812fc146102c4578063095ea7b314610301575b600080fd5b61025a6004803603810190610255919061393c565b610a24565b005b34801561026857600080fd5b50610283600480360381019061027e91906139c1565b610e78565b6040516102909190613a09565b60405180910390f35b3480156102a557600080fd5b506102ae610ed9565b6040516102bb9190613ab4565b60405180910390f35b3480156102d057600080fd5b506102eb60048036038101906102e6919061393c565b610f6b565b6040516102f89190613b17565b60405180910390f35b34801561030d57600080fd5b5061032860048036038101906103239190613b5e565b610f87565b005b34801561033657600080fd5b50610351600480360381019061034c9190613b9e565b610f9d565b005b34801561035f57600080fd5b5061037a60048036038101906103759190613bf1565b61109f565b005b34801561038857600080fd5b506103a3600480360381019061039e919061393c565b6110f2565b6040516103b09190613b17565b60405180910390f35b3480156103c557600080fd5b506103e060048036038101906103db919061393c565b611125565b6040516103ed9190613c40565b60405180910390f35b34801561040257600080fd5b5061040b611142565b005b34801561041957600080fd5b50610434600480360381019061042f9190613c5b565b61119a565b6040516104419190613c40565b60405180910390f35b34801561045657600080fd5b50610471600480360381019061046c9190613b9e565b6111bf565b005b34801561047f57600080fd5b5061049a60048036038101906104959190613f79565b6111df565b005b3480156104a857600080fd5b506104c360048036038101906104be919061393c565b611588565b6040516104d091906140b4565b60405180910390f35b6104f360048036038101906104ee91906140d6565b6116e3565b6040516105009190613c40565b60405180910390f35b34801561051557600080fd5b50610530600480360381019061052b9190613bf1565b6118ec565b60405161053d9190613c40565b60405180910390f35b34801561055257600080fd5b5061056d6004803603810190610568919061393c565b61191d565b60405161057a9190613c40565b60405180910390f35b34801561058f57600080fd5b506105aa60048036038101906105a5919061393c565b611935565b6040516105b79190613b17565b60405180910390f35b3480156105cc57600080fd5b506105d5611947565b6040516105e29190613c40565b60405180910390f35b3480156105f757600080fd5b50610612600480360381019061060d919061414e565b61194d565b60405161061f9190613c40565b60405180910390f35b34801561063457600080fd5b5061063d611a07565b005b34801561064b57600080fd5b506106666004803603810190610661919061393c565b611a1b565b6040516106759392919061417b565b60405180910390f35b34801561068a57600080fd5b50610693611b55565b6040516106a09190613c40565b60405180910390f35b3480156106b557600080fd5b506106be611b5b565b6040516106cb9190613b17565b60405180910390f35b3480156106e057600080fd5b506106e9611b85565b6040516106f69190613ab4565b60405180910390f35b34801561070b57600080fd5b506107266004803603810190610721919061393c565b611c17565b604051610733919061426f565b60405180910390f35b34801561074857600080fd5b50610763600480360381019061075e91906142bd565b611c82565b005b34801561077157600080fd5b5061077a611c98565b6040516107879190613c40565b60405180910390f35b34801561079c57600080fd5b506107b760048036038101906107b2919061393c565b611cf7565b6040516107c49190613c40565b60405180910390f35b3480156107d957600080fd5b506107f460048036038101906107ef919061439e565b611d6f565b005b34801561080257600080fd5b5061081d6004803603810190610818919061393c565b611d94565b60405161082a9190613ab4565b60405180910390f35b34801561083f57600080fd5b5061085a6004803603810190610855919061393c565b611dee565b604051610867919061426f565b60405180910390f35b34801561087c57600080fd5b50610885611e59565b6040516108929190614480565b60405180910390f35b3480156108a757600080fd5b506108c260048036038101906108bd919061393c565b611e7f565b6040516108cf9190613a09565b60405180910390f35b3480156108e457600080fd5b506108ff60048036038101906108fa919061393c565b611e9f565b60405161091095949392919061449b565b60405180910390f35b34801561092557600080fd5b50610940600480360381019061093b919061393c565b611ef5565b60405161094d91906146d1565b60405180910390f35b34801561096257600080fd5b5061097d600480360381019061097891906146f3565b6120d1565b60405161098a9190613a09565b60405180910390f35b34801561099f57600080fd5b506109ba60048036038101906109b59190613bf1565b612165565b6040516109c79190613c40565b60405180910390f35b3480156109dc57600080fd5b506109e5612196565b6040516109f29190613c40565b60405180910390f35b348015610a0757600080fd5b50610a226004803603810190610a1d919061414e565b61219c565b005b6000600f60008381526020019081526020016000206004015411610a7d576040517f08c379a0000000000000000000000000000000000000000000000000000000008152600401610a749061477f565b60405180910390fd5b6000600f60008381526020019081526020016000206005015490506000600f60008381526020019081526020016000206006015490506000600e6000848152602001908152602001600020549050808203610b3c5734600f60008681526020019081526020016000206002016000828254610af891906147ce565b92505081905550837f6fc8dd6002d67cb1ae354d87238c6a738c991370fe32d39154561323a81d2f9634604051610b2f9190613c40565b60405180910390a2610b75565b837f5acd5e9fad91ebf22d261b37a9d8099685f41cd5f8ca160caaa5448c66da767934604051610b6c9190613c40565b60405180910390a25b6000670de0b6b3a7640000600b54610b8d9190614802565b905060005b82811015610bd057670de0b6b3a7640000600b54610bb09190614873565b82610bbb9190614802565b91508080610bc8906148a4565b915050610b92565b5080600f60008781526020019081526020016000206002015410610c6657600e60008581526020019081526020016000206000815480929190610c12906148a4565b91905055507f55c20485919a463a87f20e5a0fde1c7a307ce024d22a3d3a166eb0f693b119748486600e600088815260200190815260200160002054604051610c5d939291906148ec565b60405180910390a15b346013600086815260200190815260200160002060003373ffffffffffffffffffffffffffffffffffffffff1673ffffffffffffffffffffffffffffffffffffffff1681526020019081526020016000206000828254610cc691906147ce565b925050819055506013600085815260200190815260200160002060006012600087815260200190815260200160002060009054906101000a900473ffffffffffffffffffffffffffffffffffffffff1673ffffffffffffffffffffffffffffffffffffffff1673ffffffffffffffffffffffffffffffffffffffff168152602001908152602001600020546013600086815260200190815260200160002060003373ffffffffffffffffffffffffffffffffffffffff1673ffffffffffffffffffffffffffffffffffffffff168152602001908152602001600020541115610e7157610de66012600086815260200190815260200160002060009054906101000a900473ffffffffffffffffffffffffffffffffffffffff163386612222565b336012600086815260200190815260200160002060006101000a81548173ffffffffffffffffffffffffffffffffffffffff021916908373ffffffffffffffffffffffffffffffffffffffff160217905550837f57e833cf85bc0124c4529bd7acfbc9c0ec204dab25a6265ac957d41fd6ae29e633604051610e689190613b17565b60405180910390a25b5050505050565b6000634906490660e01b7bffffffffffffffffffffffffffffffffffffffffffffffffffffffff1916827bffffffffffffffffffffffffffffffffffffffffffffffffffffffff19161480610ed25750610ed18261238f565b5b9050919050565b606060008054610ee890614952565b80601f0160208091040260200160405190810160405280929190818152602001828054610f1490614952565b8015610f615780601f10610f3657610100808354040283529160200191610f61565b820191906000526020600020905b815481529060010190602001808311610f4457829003601f168201915b5050505050905090565b6000610f7682612471565b50610f80826124f9565b9050919050565b610f998282610f94612536565b61253e565b5050565b600073ffffffffffffffffffffffffffffffffffffffff168273ffffffffffffffffffffffffffffffffffffffff160361100f5760006040517f64a0ae920000000000000000000000000000000000000000000000000000000081526004016110069190613b17565b60405180910390fd5b6000611023838361101e612536565b612550565b90508373ffffffffffffffffffffffffffffffffffffffff168173ffffffffffffffffffffffffffffffffffffffff1614611099578382826040517f64283d7b00000000000000000000000000000000000000000000000000000000815260040161109093929190614983565b60405180910390fd5b50505050565b6110a76125d4565b81600a8190555080600b819055507f19ad72acd40a59cad104f97c7897cc5675e52fe1e2679088c4bfffd96a9d58a782826040516110e69291906149ba565b60405180910390a15050565b60126020528060005260406000206000915054906101000a900473ffffffffffffffffffffffffffffffffffffffff1681565b6000600e6000838152602001908152602001600020549050919050565b61114a6125d4565b611152611b5b565b73ffffffffffffffffffffffffffffffffffffffff166108fc479081150290604051600060405180830381858888f19350505050158015611197573d6000803e3d6000fd5b50565b6013602052816000526040600020602052806000526040600020600091509150505481565b6111da83838360405180602001604052806000815250611d6f565b505050565b6000835111611223576040517f08c379a000000000000000000000000000000000000000000000000000000000815260040161121a90614a2f565b60405180910390fd5b600060106000838152602001908152602001600020600201541161127c576040517f08c379a000000000000000000000000000000000000000000000000000000000815260040161127390614a9b565b60405180910390fd5b60005b825181101561139057600960009054906101000a900473ffffffffffffffffffffffffffffffffffffffff1673ffffffffffffffffffffffffffffffffffffffff16630eb597458483815181106112d9576112d8614abb565b5b60200260200101516040518263ffffffff1660e01b81526004016112fd9190613c40565b602060405180830381865afa15801561131a573d6000803e3d6000fd5b505050506040513d601f19601f8201168201806040525081019061133e9190614aff565b61137d576040517f08c379a000000000000000000000000000000000000000000000000000000000815260040161137490614b78565b60405180910390fd5b8080611388906148a4565b91505061127f565b506000600e6000838152602001908152602001600020549050601460008154809291906113bc906148a4565b9190505550600060145490506040518060e00160405280868152602001858152602001600081526020013373ffffffffffffffffffffffffffffffffffffffff16815260200142815260200184815260200183815250600f60008381526020019081526020016000206000820151816000019080519060200190611441929190613757565b50602082015181600101908051906020019061145e9291906137b0565b506040820151816002015560608201518160030160006101000a81548173ffffffffffffffffffffffffffffffffffffffff021916908373ffffffffffffffffffffffffffffffffffffffff1602179055506080820151816004015560a0820151816005015560c08201518160060155905050600d600083815260200190815260200160002081908060018154018082558091505060019003906000526020600020016000909190919091505560116000848152602001908152602001600020819080600181540180825580915050600190039060005260206000200160009091909190915055807f2cfe2dc7cdc89b899ef0f4ab22907e75644491af3a2ba898b5b4daf6d5f393cf83338660405161157993929190614b98565b60405180910390a25050505050565b6115906137fd565b601060008381526020019081526020016000206040518060600160405290816000820180546115be90614952565b80601f01602080910402602001604051908101604052809291908181526020018280546115ea90614952565b80156116375780601f1061160c57610100808354040283529160200191611637565b820191906000526020600020905b81548152906001019060200180831161161a57829003601f168201915b5050505050815260200160018201805461165090614952565b80601f016020809104026020016040519081016040528092919081815260200182805461167c90614952565b80156116c95780601f1061169e576101008083540402835291602001916116c9565b820191906000526020600020905b8154815290600101906020018083116116ac57829003601f168201915b505050505081526020016002820154815250509050919050565b60006116ed611c98565b34101561172f576040517f08c379a000000000000000000000000000000000000000000000000000000000815260040161172690614c41565b60405180910390fd5b6000835111611773576040517f08c379a000000000000000000000000000000000000000000000000000000000815260040161176a90614cad565b60405180910390fd5b60008251116117b7576040517f08c379a00000000000000000000000000000000000000000000000000000000081526004016117ae90614d19565b60405180910390fd5b601560008154809291906117ca906148a4565b919050555060006015549050600c60008154809291906117e9906148a4565b91905055506040518060600160405280858152602001848152602001428152506010600083815260200190815260200160002060008201518160000190816118319190614edb565b5060208201518160010190816118479190614edb565b5060408201518160020155905050600084846118624261265b565b60405160200161187493929190615295565b6040516020818303038152906040529050600061189082612729565b905061189c3084612756565b6118a6838261284f565b827f19cdbc7a3feec82d7c3fb925d35745fe6d58185b77cf39856951bc6a1c4fede887876040516118d8929190615329565b60405180910390a282935050505092915050565b6011602052816000526040600020818154811061190857600080fd5b90600052602060002001600091509150505481565b600e6020528060005260406000206000915090505481565b600061194082612471565b9050919050565b600c5481565b60008073ffffffffffffffffffffffffffffffffffffffff168273ffffffffffffffffffffffffffffffffffffffff16036119c05760006040517f89c62b640000000000000000000000000000000000000000000000000000000081526004016119b79190613b17565b60405180910390fd5b600360008373ffffffffffffffffffffffffffffffffffffffff1673ffffffffffffffffffffffffffffffffffffffff168152602001908152602001600020549050919050565b611a0f6125d4565b611a1960006128ab565b565b6010602052806000526040600020600091509050806000018054611a3e90614952565b80601f0160208091040260200160405190810160405280929190818152602001828054611a6a90614952565b8015611ab75780601f10611a8c57610100808354040283529160200191611ab7565b820191906000526020600020905b815481529060010190602001808311611a9a57829003601f168201915b505050505090806001018054611acc90614952565b80601f0160208091040260200160405190810160405280929190818152602001828054611af890614952565b8015611b455780601f10611b1a57610100808354040283529160200191611b45565b820191906000526020600020905b815481529060010190602001808311611b2857829003601f168201915b5050505050908060020154905083565b600b5481565b6000600760009054906101000a900473ffffffffffffffffffffffffffffffffffffffff16905090565b606060018054611b9490614952565b80601f0160208091040260200160405190810160405280929190818152602001828054611bc090614952565b8015611c0d5780601f10611be257610100808354040283529160200191611c0d565b820191906000526020600020905b815481529060010190602001808311611bf057829003601f168201915b5050505050905090565b606060116000838152602001908152602001600020805480602002602001604051908101604052809291908181526020018280548015611c7657602002820191906000526020600020905b815481526020019060010190808311611c62575b50505050509050919050565b611c94611c8d612536565b8383612971565b5050565b600080670f43fc2c04ee000090506000600a54905060005b600c54811015611cee57670de0b6b3a76400008383611ccf9190614802565b611cd99190614873565b91508080611ce6906148a4565b915050611cb0565b50809250505090565b600080600f60008481526020019081526020016000206004015411611d51576040517f08c379a0000000000000000000000000000000000000000000000000000000008152600401611d489061477f565b60405180910390fd5b600f6000838152602001908152602001600020600201549050919050565b611d7a848484610f9d565b611d8e611d85612536565b85858585612ae0565b50505050565b6060611d9f82612c91565b611dde576040517f08c379a0000000000000000000000000000000000000000000000000000000008152600401611dd5906153d2565b60405180910390fd5b611de782612cd2565b9050919050565b6060600d6000838152602001908152602001600020805480602002602001604051908101604052809291908181526020018280548015611e4d57602002820191906000526020600020905b815481526020019060010190808311611e39575b50505050509050919050565b600960009054906101000a900473ffffffffffffffffffffffffffffffffffffffff1681565b60176020528060005260406000206000915054906101000a900460ff1681565b600f6020528060005260406000206000915090508060020154908060030160009054906101000a900473ffffffffffffffffffffffffffffffffffffffff16908060040154908060050154908060060154905085565b611efd61381e565b600f60008381526020019081526020016000206040518060e001604052908160008201805480602002602001604051908101604052809291908181526020016000905b82821015611fec578382906000526020600020018054611f5f90614952565b80601f0160208091040260200160405190810160405280929190818152602001828054611f8b90614952565b8015611fd85780601f10611fad57610100808354040283529160200191611fd8565b820191906000526020600020905b815481529060010190602001808311611fbb57829003601f168201915b505050505081526020019060010190611f40565b5050505081526020016001820180548060200260200160405190810160405280929190818152602001828054801561204357602002820191906000526020600020905b81548152602001906001019080831161202f575b50505050508152602001600282015481526020016003820160009054906101000a900473ffffffffffffffffffffffffffffffffffffffff1673ffffffffffffffffffffffffffffffffffffffff1673ffffffffffffffffffffffffffffffffffffffff16815260200160048201548152602001600582015481526020016006820154815250509050919050565b6000600560008473ffffffffffffffffffffffffffffffffffffffff1673ffffffffffffffffffffffffffffffffffffffff16815260200190815260200160002060008373ffffffffffffffffffffffffffffffffffffffff1673ffffffffffffffffffffffffffffffffffffffff16815260200190815260200160002060009054906101000a900460ff16905092915050565b600d602052816000526040600020818154811061218157600080fd5b90600052602060002001600091509150505481565b600a5481565b6121a46125d4565b600073ffffffffffffffffffffffffffffffffffffffff168173ffffffffffffffffffffffffffffffffffffffff16036122165760006040517f1e4fbdf700000000000000000000000000000000000000000000000000000000815260040161220d9190613b17565b60405180910390fd5b61221f816128ab565b50565b600073ffffffffffffffffffffffffffffffffffffffff168273ffffffffffffffffffffffffffffffffffffffff16036122945760006040517f64a0ae9200000000000000000000000000000000000000000000000000000000815260040161228b9190613b17565b60405180910390fd5b60006122a283836000612550565b9050600073ffffffffffffffffffffffffffffffffffffffff168173ffffffffffffffffffffffffffffffffffffffff160361231557816040517f7e27328900000000000000000000000000000000000000000000000000000000815260040161230c9190613c40565b60405180910390fd5b8373ffffffffffffffffffffffffffffffffffffffff168173ffffffffffffffffffffffffffffffffffffffff1614612389578382826040517f64283d7b00000000000000000000000000000000000000000000000000000000815260040161238093929190614983565b60405180910390fd5b50505050565b60007f80ac58cd000000000000000000000000000000000000000000000000000000007bffffffffffffffffffffffffffffffffffffffffffffffffffffffff1916827bffffffffffffffffffffffffffffffffffffffffffffffffffffffff1916148061245a57507f5b5e139f000000000000000000000000000000000000000000000000000000007bffffffffffffffffffffffffffffffffffffffffffffffffffffffff1916827bffffffffffffffffffffffffffffffffffffffffffffffffffffffff1916145b8061246a575061246982612de5565b5b9050919050565b60008061247d83612e4f565b9050600073ffffffffffffffffffffffffffffffffffffffff168173ffffffffffffffffffffffffffffffffffffffff16036124f057826040517f7e2732890000000000000000000000000000000000000000000000000000000081526004016124e79190613c40565b60405180910390fd5b80915050919050565b60006004600083815260200190815260200160002060009054906101000a900473ffffffffffffffffffffffffffffffffffffffff169050919050565b600033905090565b61254b8383836001612e8c565b505050565b60008073ffffffffffffffffffffffffffffffffffffffff168473ffffffffffffffffffffffffffffffffffffffff16036125c0576040517f08c379a00000000000000000000000000000000000000000000000000000000081526004016125b79061543e565b60405180910390fd5b6125cb848484613051565b90509392505050565b6125dc612536565b73ffffffffffffffffffffffffffffffffffffffff166125fa611b5b565b73ffffffffffffffffffffffffffffffffffffffff16146126595761261d612536565b6040517f118cdaa70000000000000000000000000000000000000000000000000000000081526004016126509190613b17565b60405180910390fd5b565b60606000600161266a8461326b565b01905060008167ffffffffffffffff81111561268957612688613ca0565b5b6040519080825280601f01601f1916602001820160405280156126bb5781602001600182028036833780820191505090505b509050600082602001820190505b60011561271e578080600190039150507f3031323334353637383961626364656600000000000000000000000000000000600a86061a8153600a858161271257612711614844565b5b049450600085036126c9575b819350505050919050565b606061274f8260405180606001604052806040815260200161558f6040913960016133be565b9050919050565b600073ffffffffffffffffffffffffffffffffffffffff168273ffffffffffffffffffffffffffffffffffffffff16036127c85760006040517f64a0ae920000000000000000000000000000000000000000000000000000000081526004016127bf9190613b17565b60405180910390fd5b60006127d683836000612550565b9050600073ffffffffffffffffffffffffffffffffffffffff168173ffffffffffffffffffffffffffffffffffffffff161461284a5760006040517f73c6ac6e0000000000000000000000000000000000000000000000000000000081526004016128419190613b17565b60405180910390fd5b505050565b8060066000848152602001908152602001600020908161286f9190614edb565b507ff8e1a15aba9398e019f0b49df1a4fde98ee17ae345cb5f6b5e2c27f5033e8ce78260405161289f9190613c40565b60405180910390a15050565b6000600760009054906101000a900473ffffffffffffffffffffffffffffffffffffffff16905081600760006101000a81548173ffffffffffffffffffffffffffffffffffffffff021916908373ffffffffffffffffffffffffffffffffffffffff1602179055508173ffffffffffffffffffffffffffffffffffffffff168173ffffffffffffffffffffffffffffffffffffffff167f8be0079c531659141344cd1fd0a4f28419497f9722a3daafe3b4186f6b6457e060405160405180910390a35050565b600073ffffffffffffffffffffffffffffffffffffffff168273ffffffffffffffffffffffffffffffffffffffff16036129e257816040517f5b08ba180000000000000000000000000000000000000000000000000000000081526004016129d99190613b17565b60405180910390fd5b80600560008573ffffffffffffffffffffffffffffffffffffffff1673ffffffffffffffffffffffffffffffffffffffff16815260200190815260200160002060008473ffffffffffffffffffffffffffffffffffffffff1673ffffffffffffffffffffffffffffffffffffffff16815260200190815260200160002060006101000a81548160ff0219169083151502179055508173ffffffffffffffffffffffffffffffffffffffff168373ffffffffffffffffffffffffffffffffffffffff167f17307eab39ab6107e8899845ad3d59bd9653f200f220920489ca2b5937696c3183604051612ad39190613a09565b60405180910390a3505050565b60008373ffffffffffffffffffffffffffffffffffffffff163b1115612c8a578273ffffffffffffffffffffffffffffffffffffffff1663150b7a02868685856040518563ffffffff1660e01b8152600401612b3f94939291906154b3565b6020604051808303816000875af1925050508015612b7b57506040513d601f19601f82011682018060405250810190612b789190615514565b60015b612bff573d8060008114612bab576040519150601f19603f3d011682016040523d82523d6000602084013e612bb0565b606091505b506000815103612bf757836040517f64a0ae92000000000000000000000000000000000000000000000000000000008152600401612bee9190613b17565b60405180910390fd5b805181602001fd5b63150b7a0260e01b7bffffffffffffffffffffffffffffffffffffffffffffffffffffffff1916817bffffffffffffffffffffffffffffffffffffffffffffffffffffffff191614612c8857836040517f64a0ae92000000000000000000000000000000000000000000000000000000008152600401612c7f9190613b17565b60405180910390fd5b505b5050505050565b60008073ffffffffffffffffffffffffffffffffffffffff16612cb383612e4f565b73ffffffffffffffffffffffffffffffffffffffff1614159050919050565b6060612cdd82612471565b506000600660008481526020019081526020016000208054612cfe90614952565b80601f0160208091040260200160405190810160405280929190818152602001828054612d2a90614952565b8015612d775780601f10612d4c57610100808354040283529160200191612d77565b820191906000526020600020905b815481529060010190602001808311612d5a57829003601f168201915b505050505090506000612d88613552565b90506000815103612d9d578192505050612de0565b600082511115612dd2578082604051602001612dba929190615541565b60405160208183030381529060405292505050612de0565b612ddb84613569565b925050505b919050565b60007f01ffc9a7000000000000000000000000000000000000000000000000000000007bffffffffffffffffffffffffffffffffffffffffffffffffffffffff1916827bffffffffffffffffffffffffffffffffffffffffffffffffffffffff1916149050919050565b60006002600083815260200190815260200160002060009054906101000a900473ffffffffffffffffffffffffffffffffffffffff169050919050565b8080612ec55750600073ffffffffffffffffffffffffffffffffffffffff168273ffffffffffffffffffffffffffffffffffffffff1614155b15612ff9576000612ed584612471565b9050600073ffffffffffffffffffffffffffffffffffffffff168373ffffffffffffffffffffffffffffffffffffffff1614158015612f4057508273ffffffffffffffffffffffffffffffffffffffff168173ffffffffffffffffffffffffffffffffffffffff1614155b8015612f535750612f5181846120d1565b155b15612f9557826040517fa9fbf51f000000000000000000000000000000000000000000000000000000008152600401612f8c9190613b17565b60405180910390fd5b8115612ff757838573ffffffffffffffffffffffffffffffffffffffff168273ffffffffffffffffffffffffffffffffffffffff167f8c5be1e5ebec7d5bd14f71427d1e84f3dd0314c0f7b2291e5b200ac8c7c3b92560405160405180910390a45b505b836004600085815260200190815260200160002060006101000a81548173ffffffffffffffffffffffffffffffffffffffff021916908373ffffffffffffffffffffffffffffffffffffffff16021790555050505050565b60008061305d84612e4f565b9050600073ffffffffffffffffffffffffffffffffffffffff168373ffffffffffffffffffffffffffffffffffffffff161461309f5761309e8184866135d2565b5b600073ffffffffffffffffffffffffffffffffffffffff168173ffffffffffffffffffffffffffffffffffffffff1614613130576130e1600085600080612e8c565b6001600360008373ffffffffffffffffffffffffffffffffffffffff1673ffffffffffffffffffffffffffffffffffffffff168152602001908152602001600020600082825403925050819055505b600073ffffffffffffffffffffffffffffffffffffffff168573ffffffffffffffffffffffffffffffffffffffff16146131b3576001600360008773ffffffffffffffffffffffffffffffffffffffff1673ffffffffffffffffffffffffffffffffffffffff168152602001908152602001600020600082825401925050819055505b846002600086815260200190815260200160002060006101000a81548173ffffffffffffffffffffffffffffffffffffffff021916908373ffffffffffffffffffffffffffffffffffffffff160217905550838573ffffffffffffffffffffffffffffffffffffffff168273ffffffffffffffffffffffffffffffffffffffff167fddf252ad1be2c89b69c2b068fc378daa952ba7f163c4a11628f55a4df523b3ef60405160405180910390a4809150509392505050565b600080600090507a184f03e93ff9f4daa797ed6e38ed64bf6a1f01000000000000000083106132c9577a184f03e93ff9f4daa797ed6e38ed64bf6a1f01000000000000000083816132bf576132be614844565b5b0492506040810190505b6d04ee2d6d415b85acef81000000008310613306576d04ee2d6d415b85acef810000000083816132fc576132fb614844565b5b0492506020810190505b662386f26fc10000831061333557662386f26fc10000838161332b5761332a614844565b5b0492506010810190505b6305f5e100831061335e576305f5e100838161335457613353614844565b5b0492506008810190505b612710831061338357612710838161337957613378614844565b5b0492506004810190505b606483106133a6576064838161339c5761339b614844565b5b0492506002810190505b600a83106133b5576001810190505b80915050919050565b606060008451036133e05760405180602001604052806000815250905061354b565b6000826134125760036002865160046133f99190614802565b61340391906147ce565b61340d9190614873565b613439565b60036002865161342291906147ce565b61342c9190614873565b60046134389190614802565b5b905060008167ffffffffffffffff81111561345757613456613ca0565b5b6040519080825280601f01601f1916602001820160405280156134895781602001600182028036833780820191505090505b50905060018501602082018788518901602081018051600082525b828410156134ff576003840193508351603f8160121c168701518653600186019550603f81600c1c168701518653600186019550603f8160061c168701518653600186019550603f81168701518653600186019550506134a4565b808252891561353f5760038c51066001811461352257600281146135355761353d565b603d6001870353603d600287035361353d565b603d60018703535b505b50505050505080925050505b9392505050565b606060405180602001604052806000815250905090565b606061357482612471565b50600061357f613552565b9050600081511161359f57604051806020016040528060008152506135ca565b806135a98461265b565b6040516020016135ba929190615541565b6040516020818303038152906040525b915050919050565b6135dd838383613696565b61369157600073ffffffffffffffffffffffffffffffffffffffff168373ffffffffffffffffffffffffffffffffffffffff160361365257806040517f7e2732890000000000000000000000000000000000000000000000000000000081526004016136499190613c40565b60405180910390fd5b81816040517f177e802f000000000000000000000000000000000000000000000000000000008152600401613688929190615565565b60405180910390fd5b505050565b60008073ffffffffffffffffffffffffffffffffffffffff168373ffffffffffffffffffffffffffffffffffffffff161415801561374e57508273ffffffffffffffffffffffffffffffffffffffff168473ffffffffffffffffffffffffffffffffffffffff16148061370f575061370e84846120d1565b5b8061374d57508273ffffffffffffffffffffffffffffffffffffffff16613735836124f9565b73ffffffffffffffffffffffffffffffffffffffff16145b5b90509392505050565b82805482825590600052602060002090810192821561379f579160200282015b8281111561379e57825182908161378e9190614edb565b5091602001919060010190613777565b5b5090506137ac9190613871565b5090565b8280548282559060005260206000209081019282156137ec579160200282015b828111156137eb5782518255916020019190600101906137d0565b5b5090506137f99190613895565b5090565b60405180606001604052806060815260200160608152602001600081525090565b6040518060e00160405280606081526020016060815260200160008152602001600073ffffffffffffffffffffffffffffffffffffffff1681526020016000815260200160008152602001600081525090565b5b80821115613891576000818161388891906138b2565b50600101613872565b5090565b5b808211156138ae576000816000905550600101613896565b5090565b5080546138be90614952565b6000825580601f106138d057506138ef565b601f0160209004906000526020600020908101906138ee9190613895565b5b50565b6000604051905090565b600080fd5b600080fd5b6000819050919050565b61391981613906565b811461392457600080fd5b50565b60008135905061393681613910565b92915050565b600060208284031215613952576139516138fc565b5b600061396084828501613927565b91505092915050565b60007fffffffff0000000000000000000000000000000000000000000000000000000082169050919050565b61399e81613969565b81146139a957600080fd5b50565b6000813590506139bb81613995565b92915050565b6000602082840312156139d7576139d66138fc565b5b60006139e5848285016139ac565b91505092915050565b60008115159050919050565b613a03816139ee565b82525050565b6000602082019050613a1e60008301846139fa565b92915050565b600081519050919050565b600082825260208201905092915050565b60005b83811015613a5e578082015181840152602081019050613a43565b60008484015250505050565b6000601f19601f8301169050919050565b6000613a8682613a24565b613a908185613a2f565b9350613aa0818560208601613a40565b613aa981613a6a565b840191505092915050565b60006020820190508181036000830152613ace8184613a7b565b905092915050565b600073ffffffffffffffffffffffffffffffffffffffff82169050919050565b6000613b0182613ad6565b9050919050565b613b1181613af6565b82525050565b6000602082019050613b2c6000830184613b08565b92915050565b613b3b81613af6565b8114613b4657600080fd5b50565b600081359050613b5881613b32565b92915050565b60008060408385031215613b7557613b746138fc565b5b6000613b8385828601613b49565b9250506020613b9485828601613927565b9150509250929050565b600080600060608486031215613bb757613bb66138fc565b5b6000613bc586828701613b49565b9350506020613bd686828701613b49565b9250506040613be786828701613927565b9150509250925092565b60008060408385031215613c0857613c076138fc565b5b6000613c1685828601613927565b9250506020613c2785828601613927565b9150509250929050565b613c3a81613906565b82525050565b6000602082019050613c556000830184613c31565b92915050565b60008060408385031215613c7257613c716138fc565b5b6000613c8085828601613927565b9250506020613c9185828601613b49565b9150509250929050565b600080fd5b7f4e487b7100000000000000000000000000000000000000000000000000000000600052604160045260246000fd5b613cd882613a6a565b810181811067ffffffffffffffff82111715613cf757613cf6613ca0565b5b80604052505050565b6000613d0a6138f2565b9050613d168282613ccf565b919050565b600067ffffffffffffffff821115613d3657613d35613ca0565b5b602082029050602081019050919050565b600080fd5b600080fd5b600067ffffffffffffffff821115613d6c57613d6b613ca0565b5b613d7582613a6a565b9050602081019050919050565b82818337600083830152505050565b6000613da4613d9f84613d51565b613d00565b905082815260208101848484011115613dc057613dbf613d4c565b5b613dcb848285613d82565b509392505050565b600082601f830112613de857613de7613c9b565b5b8135613df8848260208601613d91565b91505092915050565b6000613e14613e0f84613d1b565b613d00565b90508083825260208201905060208402830185811115613e3757613e36613d47565b5b835b81811015613e7e57803567ffffffffffffffff811115613e5c57613e5b613c9b565b5b808601613e698982613dd3565b85526020850194505050602081019050613e39565b5050509392505050565b600082601f830112613e9d57613e9c613c9b565b5b8135613ead848260208601613e01565b91505092915050565b600067ffffffffffffffff821115613ed157613ed0613ca0565b5b602082029050602081019050919050565b6000613ef5613ef084613eb6565b613d00565b90508083825260208201905060208402830185811115613f1857613f17613d47565b5b835b81811015613f415780613f2d8882613927565b845260208401935050602081019050613f1a565b5050509392505050565b600082601f830112613f6057613f5f613c9b565b5b8135613f70848260208601613ee2565b91505092915050565b600080600060608486031215613f9257613f916138fc565b5b600084013567ffffffffffffffff811115613fb057613faf613901565b5b613fbc86828701613e88565b935050602084013567ffffffffffffffff811115613fdd57613fdc613901565b5b613fe986828701613f4b565b9250506040613ffa86828701613927565b9150509250925092565b600082825260208201905092915050565b600061402082613a24565b61402a8185614004565b935061403a818560208601613a40565b61404381613a6a565b840191505092915050565b61405781613906565b82525050565b6000606083016000830151848203600086015261407a8282614015565b915050602083015184820360208601526140948282614015565b91505060408301516140a9604086018261404e565b508091505092915050565b600060208201905081810360008301526140ce818461405d565b905092915050565b600080604083850312156140ed576140ec6138fc565b5b600083013567ffffffffffffffff81111561410b5761410a613901565b5b61411785828601613dd3565b925050602083013567ffffffffffffffff81111561413857614137613901565b5b61414485828601613dd3565b9150509250929050565b600060208284031215614164576141636138fc565b5b600061417284828501613b49565b91505092915050565b600060608201905081810360008301526141958186613a7b565b905081810360208301526141a98185613a7b565b90506141b86040830184613c31565b949350505050565b600081519050919050565b600082825260208201905092915050565b6000819050602082019050919050565b60006141f8838361404e565b60208301905092915050565b6000602082019050919050565b600061421c826141c0565b61422681856141cb565b9350614231836141dc565b8060005b8381101561426257815161424988826141ec565b975061425483614204565b925050600181019050614235565b5085935050505092915050565b600060208201905081810360008301526142898184614211565b905092915050565b61429a816139ee565b81146142a557600080fd5b50565b6000813590506142b781614291565b92915050565b600080604083850312156142d4576142d36138fc565b5b60006142e285828601613b49565b92505060206142f3858286016142a8565b9150509250929050565b600067ffffffffffffffff82111561431857614317613ca0565b5b61432182613a6a565b9050602081019050919050565b600061434161433c846142fd565b613d00565b90508281526020810184848401111561435d5761435c613d4c565b5b614368848285613d82565b509392505050565b600082601f83011261438557614384613c9b565b5b813561439584826020860161432e565b91505092915050565b600080600080608085870312156143b8576143b76138fc565b5b60006143c687828801613b49565b94505060206143d787828801613b49565b93505060406143e887828801613927565b925050606085013567ffffffffffffffff81111561440957614408613901565b5b61441587828801614370565b91505092959194509250565b6000819050919050565b600061444661444161443c84613ad6565b614421565b613ad6565b9050919050565b60006144588261442b565b9050919050565b600061446a8261444d565b9050919050565b61447a8161445f565b82525050565b60006020820190506144956000830184614471565b92915050565b600060a0820190506144b06000830188613c31565b6144bd6020830187613b08565b6144ca6040830186613c31565b6144d76060830185613c31565b6144e46080830184613c31565b9695505050505050565b600081519050919050565b600082825260208201905092915050565b6000819050602082019050919050565b60006145268383614015565b905092915050565b6000602082019050919050565b6000614546826144ee565b61455081856144f9565b9350836020820285016145628561450a565b8060005b8581101561459e578484038952815161457f858261451a565b945061458a8361452e565b925060208a01995050600181019050614566565b50829750879550505050505092915050565b600082825260208201905092915050565b60006145cc826141c0565b6145d681856145b0565b93506145e1836141dc565b8060005b838110156146125781516145f988826141ec565b975061460483614204565b9250506001810190506145e5565b5085935050505092915050565b61462881613af6565b82525050565b600060e083016000830151848203600086015261464b828261453b565b9150506020830151848203602086015261466582826145c1565b915050604083015161467a604086018261404e565b50606083015161468d606086018261461f565b5060808301516146a0608086018261404e565b5060a08301516146b360a086018261404e565b5060c08301516146c660c086018261404e565b508091505092915050565b600060208201905081810360008301526146eb818461462e565b905092915050565b6000806040838503121561470a576147096138fc565b5b600061471885828601613b49565b925050602061472985828601613b49565b9150509250929050565b7f537472697020646f6573206e6f74206578697374000000000000000000000000600082015250565b6000614769601483613a2f565b915061477482614733565b602082019050919050565b600060208201905081810360008301526147988161475c565b9050919050565b7f4e487b7100000000000000000000000000000000000000000000000000000000600052601160045260246000fd5b60006147d982613906565b91506147e483613906565b92508282019050808211156147fc576147fb61479f565b5b92915050565b600061480d82613906565b915061481883613906565b925082820261482681613906565b9150828204841483151761483d5761483c61479f565b5b5092915050565b7f4e487b7100000000000000000000000000000000000000000000000000000000600052601260045260246000fd5b600061487e82613906565b915061488983613906565b92508261489957614898614844565b5b828204905092915050565b60006148af82613906565b91507fffffffffffffffffffffffffffffffffffffffffffffffffffffffffffffffff82036148e1576148e061479f565b5b600182019050919050565b60006060820190506149016000830186613c31565b61490e6020830185613c31565b61491b6040830184613c31565b949350505050565b7f4e487b7100000000000000000000000000000000000000000000000000000000600052602260045260246000fd5b6000600282049050600182168061496a57607f821691505b60208210810361497d5761497c614923565b5b50919050565b60006060820190506149986000830186613b08565b6149a56020830185613c31565b6149b26040830184613b08565b949350505050565b60006040820190506149cf6000830185613c31565b6149dc6020830184613c31565b9392505050565b7f4d7573742070726f76696465206174206c65617374206f6e6520696d61676500600082015250565b6000614a19601f83613a2f565b9150614a24826149e3565b602082019050919050565b60006020820190508181036000830152614a4881614a0c565b9050919050565b7f436f6d696320646f6573206e6f74206578697374000000000000000000000000600082015250565b6000614a85601483613a2f565b9150614a9082614a4f565b602082019050919050565b60006020820190508181036000830152614ab481614a78565b9050919050565b7f4e487b7100000000000000000000000000000000000000000000000000000000600052603260045260246000fd5b600081519050614af981614291565b92915050565b600060208284031215614b1557614b146138fc565b5b6000614b2384828501614aea565b91505092915050565b7f416c6c2063686172616374657273206d75737420626520616c69766500000000600082015250565b6000614b62601c83613a2f565b9150614b6d82614b2c565b602082019050919050565b60006020820190508181036000830152614b9181614b55565b9050919050565b6000606082019050614bad6000830186613c31565b614bba6020830185613b08565b614bc76040830184613c31565b949350505050565b7f496e73756666696369656e74207061796d656e7420666f7220636f6d6963206360008201527f72656174696f6e00000000000000000000000000000000000000000000000000602082015250565b6000614c2b602783613a2f565b9150614c3682614bcf565b604082019050919050565b60006020820190508181036000830152614c5a81614c1e565b9050919050565b7f4e616d652063616e6e6f7420626520656d707479000000000000000000000000600082015250565b6000614c97601483613a2f565b9150614ca282614c61565b602082019050919050565b60006020820190508181036000830152614cc681614c8a565b9050919050565b7f496d6167652063616e6e6f7420626520656d7074790000000000000000000000600082015250565b6000614d03601583613a2f565b9150614d0e82614ccd565b602082019050919050565b60006020820190508181036000830152614d3281614cf6565b9050919050565b60008190508160005260206000209050919050565b60006020601f8301049050919050565b600082821b905092915050565b600060088302614d9b7fffffffffffffffffffffffffffffffffffffffffffffffffffffffffffffffff82614d5e565b614da58683614d5e565b95508019841693508086168417925050509392505050565b6000614dd8614dd3614dce84613906565b614421565b613906565b9050919050565b6000819050919050565b614df283614dbd565b614e06614dfe82614ddf565b848454614d6b565b825550505050565b600090565b614e1b614e0e565b614e26818484614de9565b505050565b5b81811015614e4a57614e3f600082614e13565b600181019050614e2c565b5050565b601f821115614e8f57614e6081614d39565b614e6984614d4e565b81016020851015614e78578190505b614e8c614e8485614d4e565b830182614e2b565b50505b505050565b600082821c905092915050565b6000614eb260001984600802614e94565b1980831691505092915050565b6000614ecb8383614ea1565b9150826002028217905092915050565b614ee482613a24565b67ffffffffffffffff811115614efd57614efc613ca0565b5b614f078254614952565b614f12828285614e4e565b600060209050601f831160018114614f455760008415614f33578287015190505b614f3d8582614ebf565b865550614fa5565b601f198416614f5386614d39565b60005b82811015614f7b57848901518255600182019150602085019450602081019050614f56565b86831015614f985784890151614f94601f891682614ea1565b8355505b6001600288020188555050505b505050505050565b600081905092915050565b7f7b226e616d65223a220000000000000000000000000000000000000000000000600082015250565b6000614fee600983614fad565b9150614ff982614fb8565b600982019050919050565b600061500f82613a24565b6150198185614fad565b9350615029818560208601613a40565b80840191505092915050565b7f222c000000000000000000000000000000000000000000000000000000000000600082015250565b600061506b600283614fad565b915061507682615035565b600282019050919050565b7f226465736372697074696f6e223a224120636f6d69632066726f6d20576f726c60008201527f6420436f6d696373222c00000000000000000000000000000000000000000000602082015250565b60006150dd602a83614fad565b91506150e882615081565b602a82019050919050565b7f22696d616765223a220000000000000000000000000000000000000000000000600082015250565b6000615129600983614fad565b9150615134826150f3565b600982019050919050565b7f2261747472696275746573223a5b000000000000000000000000000000000000600082015250565b6000615175600e83614fad565b91506151808261513f565b600e82019050919050565b7f7b2274726169745f74797065223a2243726561746564204174222c2276616c7560008201527f65223a2200000000000000000000000000000000000000000000000000000000602082015250565b60006151e7602483614fad565b91506151f28261518b565b602482019050919050565b7f227d000000000000000000000000000000000000000000000000000000000000600082015250565b6000615233600283614fad565b915061523e826151fd565b600282019050919050565b7f5d7d000000000000000000000000000000000000000000000000000000000000600082015250565b600061527f600283614fad565b915061528a82615249565b600282019050919050565b60006152a082614fe1565b91506152ac8286615004565b91506152b78261505e565b91506152c2826150d0565b91506152cd8261511c565b91506152d98285615004565b91506152e48261505e565b91506152ef82615168565b91506152fa826151da565b91506153068284615004565b915061531182615226565b915061531c82615272565b9150819050949350505050565b600060408201905081810360008301526153438185613a7b565b905081810360208301526153578184613a7b565b90509392505050565b7f4552433732314d657461646174613a2055524920717565727920666f72206e6f60008201527f6e6578697374656e7420746f6b656e0000000000000000000000000000000000602082015250565b60006153bc602f83613a2f565b91506153c782615360565b604082019050919050565b600060208201905081810360008301526153eb816153af565b9050919050565b7f436f6d6963207472616e7366657273206172652064697361626c656400000000600082015250565b6000615428601c83613a2f565b9150615433826153f2565b602082019050919050565b600060208201905081810360008301526154578161541b565b9050919050565b600081519050919050565b600082825260208201905092915050565b60006154858261545e565b61548f8185615469565b935061549f818560208601613a40565b6154a881613a6a565b840191505092915050565b60006080820190506154c86000830187613b08565b6154d56020830186613b08565b6154e26040830185613c31565b81810360608301526154f4818461547a565b905095945050505050565b60008151905061550e81613995565b92915050565b60006020828403121561552a576155296138fc565b5b6000615538848285016154ff565b91505092915050565b600061554d8285615004565b91506155598284615004565b91508190509392505050565b600060408201905061557a6000830185613b08565b6155876020830184613c31565b939250505056fe4142434445464748494a4b4c4d4e4f505152535455565758595a6162636465666768696a6b6c6d6e6f707172737475767778797a303132333435363738392b2fa2646970667358221220ddb45111e9a3a6735219231e4d7979d6e2bdba1f4fbecc9dfd9e97f1f8c3f8c464736f6c63430008140033",
  "linkReferences": {},
  "deployedLinkReferences": {}
}