{
  "_format": "hh-sol-artifact-1",
  "contractName": "ComicNFT",
  "sourceName": "contracts/ComicNFT.sol",
  "abi": [
    {
      "inputs": [],
      "stateMutability": "nonpayable",
      "type": "constructor"
    },
    {
      "inputs": [
        {
          "internalType": "address",
          "name": "sender",
          "type": "address"
        },
        {
          "internalType": "uint256",
          "name": "tokenId",
          "type": "uint256"
        },
        {
          "internalType": "address",
          "name": "owner",
          "type": "address"
        }
      ],
      "name": "ERC721IncorrectOwner",
      "type": "error"
    },
    {
      "inputs": [
        {
          "internalType": "address",
          "name": "operator",
          "type": "address"
        },
        {
          "internalType": "uint256",
          "name": "tokenId",
          "type": "uint256"
        }
      ],
      "name": "ERC721InsufficientApproval",
      "type": "error"
    },
    {
      "inputs": [
        {
          "internalType": "address",
          "name": "approver",
          "type": "address"
        }
      ],
      "name": "ERC721InvalidApprover",
      "type": "error"
    },
    {
      "inputs": [
        {
          "internalType": "address",
          "name": "operator",
          "type": "address"
        }
      ],
      "name": "ERC721InvalidOperator",
      "type": "error"
    },
    {
      "inputs": [
        {
          "internalType": "address",
          "name": "owner",
          "type": "address"
        }
      ],
      "name": "ERC721InvalidOwner",
      "type": "error"
    },
    {
      "inputs": [
        {
          "internalType": "address",
          "name": "receiver",
          "type": "address"
        }
      ],
      "name": "ERC721InvalidReceiver",
      "type": "error"
    },
    {
      "inputs": [
        {
          "internalType": "address",
          "name": "sender",
          "type": "address"
        }
      ],
      "name": "ERC721InvalidSender",
      "type": "error"
    },
    {
      "inputs": [
        {
          "internalType": "uint256",
          "name": "tokenId",
          "type": "uint256"
        }
      ],
      "name": "ERC721NonexistentToken",
      "type": "error"
    },
    {
      "inputs": [
        {
          "internalType": "address",
          "name": "owner",
          "type": "address"
        }
      ],
      "name": "OwnableInvalidOwner",
      "type": "error"
    },
    {
      "inputs": [
        {
          "internalType": "address",
          "name": "account",
          "type": "address"
        }
      ],
      "name": "OwnableUnauthorizedAccount",
      "type": "error"
    },
    {
      "anonymous": false,
      "inputs": [
        {
          "indexed": true,
          "internalType": "address",
          "name": "owner",
          "type": "address"
        },
        {
          "indexed": true,
          "internalType": "address",
          "name": "approved",
          "type": "address"
        },
        {
          "indexed": true,
          "internalType": "uint256",
          "name": "tokenId",
          "type": "uint256"
        }
      ],
      "name": "Approval",
      "type": "event"
    },
    {
      "anonymous": false,
      "inputs": [
        {
          "indexed": true,
          "internalType": "address",
          "name": "owner",
          "type": "address"
        },
        {
          "indexed": true,
          "internalType": "address",
          "name": "operator",
          "type": "address"
        },
        {
          "indexed": false,
          "internalType": "bool",
          "name": "approved",
          "type": "bool"
        }
      ],
      "name": "ApprovalForAll",
      "type": "event"
    },
    {
      "anonymous": false,
      "inputs": [
        {
          "indexed": false,
          "internalType": "uint256",
          "name": "_fromTokenId",
          "type": "uint256"
        },
        {
          "indexed": false,
          "internalType": "uint256",
          "name": "_toTokenId",
          "type": "uint256"
        }
      ],
      "name": "BatchMetadataUpdate",
      "type": "event"
    },
    {
      "anonymous": false,
      "inputs": [
        {
          "indexed": true,
          "internalType": "uint256",
          "name": "comicId",
          "type": "uint256"
        },
        {
          "indexed": false,
          "internalType": "string",
          "name": "name",
          "type": "string"
        },
        {
          "indexed": false,
          "internalType": "string",
          "name": "imageUrl",
          "type": "string"
        }
      ],
      "name": "CharacterAdded",
      "type": "event"
    },
    {
      "anonymous": false,
      "inputs": [
        {
          "indexed": true,
          "internalType": "uint256",
          "name": "comicId",
          "type": "uint256"
        },
        {
          "indexed": true,
          "internalType": "uint256",
          "name": "characterId",
          "type": "uint256"
        },
        {
          "indexed": false,
          "internalType": "address",
          "name": "creator",
          "type": "address"
        },
        {
          "indexed": false,
          "internalType": "string",
          "name": "name",
          "type": "string"
        }
      ],
      "name": "CharacterCreated",
      "type": "event"
    },
    {
      "anonymous": false,
      "inputs": [
        {
          "indexed": true,
          "internalType": "uint256",
          "name": "comicId",
          "type": "uint256"
        },
        {
          "indexed": true,
          "internalType": "address",
          "name": "creator",
          "type": "address"
        },
        {
          "indexed": false,
          "internalType": "string",
          "name": "title",
          "type": "string"
        }
      ],
      "name": "ComicCreated",
      "type": "event"
    },
    {
      "anonymous": false,
      "inputs": [
        {
          "indexed": true,
          "internalType": "uint256",
          "name": "comicId",
          "type": "uint256"
        },
        {
          "indexed": true,
          "internalType": "uint256",
          "name": "tokenId",
          "type": "uint256"
        },
        {
          "indexed": false,
          "internalType": "address",
          "name": "minter",
          "type": "address"
        }
      ],
      "name": "CopyMinted",
      "type": "event"
    },
    {
      "anonymous": false,
      "inputs": [
        {
          "indexed": true,
          "internalType": "uint256",
          "name": "comicId",
          "type": "uint256"
        },
        {
          "indexed": false,
          "internalType": "string",
          "name": "coverImage",
          "type": "string"
        }
      ],
      "name": "CoverImageUpdated",
      "type": "event"
    },
    {
      "anonymous": false,
      "inputs": [
        {
          "indexed": false,
          "internalType": "uint256",
          "name": "_tokenId",
          "type": "uint256"
        }
      ],
      "name": "MetadataUpdate",
      "type": "event"
    },
    {
      "anonymous": false,
      "inputs": [
        {
          "indexed": true,
          "internalType": "address",
          "name": "previousOwner",
          "type": "address"
        },
        {
          "indexed": true,
          "internalType": "address",
          "name": "newOwner",
          "type": "address"
        }
      ],
      "name": "OwnershipTransferred",
      "type": "event"
    },
    {
      "anonymous": false,
      "inputs": [
        {
          "indexed": true,
          "internalType": "address",
          "name": "user",
          "type": "address"
        },
        {
          "indexed": false,
          "internalType": "uint256",
          "name": "amount",
          "type": "uint256"
        }
      ],
      "name": "PromptPaid",
      "type": "event"
    },
    {
      "anonymous": false,
      "inputs": [
        {
          "indexed": true,
          "internalType": "address",
          "name": "from",
          "type": "address"
        },
        {
          "indexed": true,
          "internalType": "address",
          "name": "to",
          "type": "address"
        },
        {
          "indexed": true,
          "internalType": "uint256",
          "name": "tokenId",
          "type": "uint256"
        }
      ],
      "name": "Transfer",
      "type": "event"
    },
    {
      "inputs": [],
      "name": "INITIAL_CHARACTER_PRICE",
      "outputs": [
        {
          "internalType": "uint256",
          "name": "",
          "type": "uint256"
        }
      ],
      "stateMutability": "view",
      "type": "function"
    },
    {
      "inputs": [],
      "name": "MAX_COPIES",
      "outputs": [
        {
          "internalType": "uint256",
          "name": "",
          "type": "uint256"
        }
      ],
      "stateMutability": "view",
      "type": "function"
    },
    {
      "inputs": [],
      "name": "MINT_PRICE",
      "outputs": [
        {
          "internalType": "uint256",
          "name": "",
          "type": "uint256"
        }
      ],
      "stateMutability": "view",
      "type": "function"
    },
    {
      "inputs": [],
      "name": "PROMPT_PRICE",
      "outputs": [
        {
          "internalType": "uint256",
          "name": "",
          "type": "uint256"
        }
      ],
      "stateMutability": "view",
      "type": "function"
    },
    {
      "inputs": [
        {
          "internalType": "address",
          "name": "to",
          "type": "address"
        },
        {
          "internalType": "uint256",
          "name": "tokenId",
          "type": "uint256"
        }
      ],
      "name": "approve",
      "outputs": [],
      "stateMutability": "nonpayable",
      "type": "function"
    },
    {
      "inputs": [
        {
          "internalType": "address",
          "name": "owner",
          "type": "address"
        }
      ],
      "name": "balanceOf",
      "outputs": [
        {
          "internalType": "uint256",
          "name": "",
          "type": "uint256"
        }
      ],
      "stateMutability": "view",
      "type": "function"
    },
    {
      "inputs": [
        {
          "internalType": "uint256",
          "name": "",
          "type": "uint256"
        },
        {
          "internalType": "uint256",
          "name": "",
          "type": "uint256"
        }
      ],
      "name": "characters",
      "outputs": [
        {
          "internalType": "string",
          "name": "name",
          "type": "string"
        },
        {
          "internalType": "string",
          "name": "description",
          "type": "string"
        },
        {
          "internalType": "string",
          "name": "prompt",
          "type": "string"
        },
        {
          "internalType": "string",
          "name": "imageUrl",
          "type": "string"
        },
        {
          "internalType": "address",
          "name": "creator",
          "type": "address"
        },
        {
          "internalType": "uint256",
          "name": "timestamp",
          "type": "uint256"
        }
      ],
      "stateMutability": "view",
      "type": "function"
    },
    {
      "inputs": [
        {
          "internalType": "uint256",
          "name": "",
          "type": "uint256"
        }
      ],
      "name": "comics",
      "outputs": [
        {
          "internalType": "string",
          "name": "title",
          "type": "string"
        },
        {
          "internalType": "string",
          "name": "description",
          "type": "string"
        },
        {
          "internalType": "string",
          "name": "coverImage",
          "type": "string"
        },
        {
          "internalType": "uint256",
          "name": "price",
          "type": "uint256"
        },
        {
          "internalType": "bool",
          "name": "isPublished",
          "type": "bool"
        },
        {
          "internalType": "address",
          "name": "creator",
          "type": "address"
        },
        {
          "internalType": "uint256",
          "name": "createdAt",
          "type": "uint256"
        },
        {
          "internalType": "uint256",
          "name": "copiesMinted",
          "type": "uint256"
        },
        {
          "internalType": "string",
          "name": "baseUri",
          "type": "string"
        },
        {
          "internalType": "uint256",
          "name": "characterCount",
          "type": "uint256"
        },
        {
          "internalType": "uint256",
          "name": "nextCharacterPrice",
          "type": "uint256"
        },
        {
          "internalType": "string",
          "name": "artisticStyle",
          "type": "string"
        }
      ],
      "stateMutability": "view",
      "type": "function"
    },
    {
      "inputs": [
        {
          "internalType": "uint256",
          "name": "comicId",
          "type": "uint256"
        },
        {
          "internalType": "string",
          "name": "name",
          "type": "string"
        },
        {
          "internalType": "string",
          "name": "description",
          "type": "string"
        },
        {
          "internalType": "string",
          "name": "prompt",
          "type": "string"
        },
        {
          "internalType": "string",
          "name": "imageUrl",
          "type": "string"
        }
      ],
      "name": "createCharacter",
      "outputs": [
        {
          "internalType": "uint256",
          "name": "",
          "type": "uint256"
        }
      ],
      "stateMutability": "payable",
      "type": "function"
    },
    {
      "inputs": [
        {
          "internalType": "string",
          "name": "title",
          "type": "string"
        },
        {
          "internalType": "string",
          "name": "description",
          "type": "string"
        },
        {
          "internalType": "string",
          "name": "artisticStyle",
          "type": "string"
        }
      ],
      "name": "createComic",
      "outputs": [
        {
          "internalType": "uint256",
          "name": "",
          "type": "uint256"
        }
      ],
      "stateMutability": "nonpayable",
      "type": "function"
    },
    {
      "inputs": [
        {
          "internalType": "uint256",
          "name": "comicId",
          "type": "uint256"
        },
        {
          "internalType": "string",
          "name": "imageUrl",
          "type": "string"
        }
      ],
      "name": "createCoverImage",
      "outputs": [],
      "stateMutability": "nonpayable",
      "type": "function"
    },
    {
      "inputs": [
        {
          "internalType": "address",
          "name": "",
          "type": "address"
        },
        {
          "internalType": "uint256",
          "name": "",
          "type": "uint256"
        }
      ],
      "name": "creatorComics",
      "outputs": [
        {
          "internalType": "uint256",
          "name": "",
          "type": "uint256"
        }
      ],
      "stateMutability": "view",
      "type": "function"
    },
    {
      "inputs": [
        {
          "internalType": "uint256",
          "name": "tokenId",
          "type": "uint256"
        }
      ],
      "name": "getApproved",
      "outputs": [
        {
          "internalType": "address",
          "name": "",
          "type": "address"
        }
      ],
      "stateMutability": "view",
      "type": "function"
    },
    {
      "inputs": [
        {
          "internalType": "uint256",
          "name": "comicId",
          "type": "uint256"
        }
      ],
      "name": "getCharacters",
      "outputs": [
        {
          "components": [
            {
              "internalType": "string",
              "name": "name",
              "type": "string"
            },
            {
              "internalType": "string",
              "name": "description",
              "type": "string"
            },
            {
              "internalType": "string",
              "name": "prompt",
              "type": "string"
            },
            {
              "internalType": "string",
              "name": "imageUrl",
              "type": "string"
            },
            {
              "internalType": "address",
              "name": "creator",
              "type": "address"
            },
            {
              "internalType": "uint256",
              "name": "timestamp",
              "type": "uint256"
            }
          ],
          "internalType": "struct ComicNFT.Character[]",
          "name": "",
          "type": "tuple[]"
        }
      ],
      "stateMutability": "view",
      "type": "function"
    },
    {
      "inputs": [
        {
          "internalType": "uint256",
          "name": "comicId",
          "type": "uint256"
        }
      ],
      "name": "getComicDetails",
      "outputs": [
        {
          "internalType": "string",
          "name": "title",
          "type": "string"
        },
        {
          "internalType": "string",
          "name": "description",
          "type": "string"
        },
        {
          "internalType": "string",
          "name": "coverImage",
          "type": "string"
        },
        {
          "internalType": "uint256",
          "name": "price",
          "type": "uint256"
        },
        {
          "internalType": "bool",
          "name": "isPublished",
          "type": "bool"
        },
        {
          "internalType": "address",
          "name": "creator",
          "type": "address"
        },
        {
          "internalType": "uint256",
          "name": "createdAt",
          "type": "uint256"
        },
        {
          "internalType": "uint256",
          "name": "copiesMinted",
          "type": "uint256"
        },
        {
          "internalType": "string",
          "name": "baseUri",
          "type": "string"
        },
        {
          "internalType": "uint256",
          "name": "characterCount",
          "type": "uint256"
        },
        {
          "internalType": "uint256",
          "name": "nextCharacterPrice",
          "type": "uint256"
        },
        {
          "internalType": "string",
          "name": "artisticStyle",
          "type": "string"
        }
      ],
      "stateMutability": "view",
      "type": "function"
    },
    {
      "inputs": [
        {
          "internalType": "address",
          "name": "creator",
          "type": "address"
        }
      ],
      "name": "getCreatorComics",
      "outputs": [
        {
          "internalType": "uint256[]",
          "name": "",
          "type": "uint256[]"
        }
      ],
      "stateMutability": "view",
      "type": "function"
    },
    {
      "inputs": [
        {
          "internalType": "uint256",
          "name": "",
          "type": "uint256"
        },
        {
          "internalType": "address",
          "name": "",
          "type": "address"
        }
      ],
      "name": "hasPaidForPrompt",
      "outputs": [
        {
          "internalType": "bool",
          "name": "",
          "type": "bool"
        }
      ],
      "stateMutability": "view",
      "type": "function"
    },
    {
      "inputs": [
        {
          "internalType": "address",
          "name": "owner",
          "type": "address"
        },
        {
          "internalType": "address",
          "name": "operator",
          "type": "address"
        }
      ],
      "name": "isApprovedForAll",
      "outputs": [
        {
          "internalType": "bool",
          "name": "",
          "type": "bool"
        }
      ],
      "stateMutability": "view",
      "type": "function"
    },
    {
      "inputs": [
        {
          "internalType": "uint256",
          "name": "comicId",
          "type": "uint256"
        }
      ],
      "name": "mintCopy",
      "outputs": [],
      "stateMutability": "payable",
      "type": "function"
    },
    {
      "inputs": [],
      "name": "name",
      "outputs": [
        {
          "internalType": "string",
          "name": "",
          "type": "string"
        }
      ],
      "stateMutability": "view",
      "type": "function"
    },
    {
      "inputs": [],
      "name": "owner",
      "outputs": [
        {
          "internalType": "address",
          "name": "",
          "type": "address"
        }
      ],
      "stateMutability": "view",
      "type": "function"
    },
    {
      "inputs": [
        {
          "internalType": "uint256",
          "name": "tokenId",
          "type": "uint256"
        }
      ],
      "name": "ownerOf",
      "outputs": [
        {
          "internalType": "address",
          "name": "",
          "type": "address"
        }
      ],
      "stateMutability": "view",
      "type": "function"
    },
    {
      "inputs": [],
      "name": "payForPrompt",
      "outputs": [],
      "stateMutability": "payable",
      "type": "function"
    },
    {
      "inputs": [],
      "name": "renounceOwnership",
      "outputs": [],
      "stateMutability": "nonpayable",
      "type": "function"
    },
    {
      "inputs": [
        {
          "internalType": "address",
          "name": "from",
          "type": "address"
        },
        {
          "internalType": "address",
          "name": "to",
          "type": "address"
        },
        {
          "internalType": "uint256",
          "name": "tokenId",
          "type": "uint256"
        }
      ],
      "name": "safeTransferFrom",
      "outputs": [],
      "stateMutability": "nonpayable",
      "type": "function"
    },
    {
      "inputs": [
        {
          "internalType": "address",
          "name": "from",
          "type": "address"
        },
        {
          "internalType": "address",
          "name": "to",
          "type": "address"
        },
        {
          "internalType": "uint256",
          "name": "tokenId",
          "type": "uint256"
        },
        {
          "internalType": "bytes",
          "name": "data",
          "type": "bytes"
        }
      ],
      "name": "safeTransferFrom",
      "outputs": [],
      "stateMutability": "nonpayable",
      "type": "function"
    },
    {
      "inputs": [
        {
          "internalType": "address",
          "name": "operator",
          "type": "address"
        },
        {
          "internalType": "bool",
          "name": "approved",
          "type": "bool"
        }
      ],
      "name": "setApprovalForAll",
      "outputs": [],
      "stateMutability": "nonpayable",
      "type": "function"
    },
    {
      "inputs": [
        {
          "internalType": "bytes4",
          "name": "interfaceId",
          "type": "bytes4"
        }
      ],
      "name": "supportsInterface",
      "outputs": [
        {
          "internalType": "bool",
          "name": "",
          "type": "bool"
        }
      ],
      "stateMutability": "view",
      "type": "function"
    },
    {
      "inputs": [],
      "name": "symbol",
      "outputs": [
        {
          "internalType": "string",
          "name": "",
          "type": "string"
        }
      ],
      "stateMutability": "view",
      "type": "function"
    },
    {
      "inputs": [
        {
          "internalType": "uint256",
          "name": "",
          "type": "uint256"
        }
      ],
      "name": "tokenToComic",
      "outputs": [
        {
          "internalType": "uint256",
          "name": "",
          "type": "uint256"
        }
      ],
      "stateMutability": "view",
      "type": "function"
    },
    {
      "inputs": [
        {
          "internalType": "uint256",
          "name": "tokenId",
          "type": "uint256"
        }
      ],
      "name": "tokenURI",
      "outputs": [
        {
          "internalType": "string",
          "name": "",
          "type": "string"
        }
      ],
      "stateMutability": "view",
      "type": "function"
    },
    {
      "inputs": [
        {
          "internalType": "address",
          "name": "from",
          "type": "address"
        },
        {
          "internalType": "address",
          "name": "to",
          "type": "address"
        },
        {
          "internalType": "uint256",
          "name": "tokenId",
          "type": "uint256"
        }
      ],
      "name": "transferFrom",
      "outputs": [],
      "stateMutability": "nonpayable",
      "type": "function"
    },
    {
      "inputs": [
        {
          "internalType": "address",
          "name": "newOwner",
          "type": "address"
        }
      ],
      "name": "transferOwnership",
      "outputs": [],
      "stateMutability": "nonpayable",
      "type": "function"
    },
    {
      "inputs": [],
      "name": "withdraw",
      "outputs": [],
      "stateMutability": "nonpayable",
      "type": "function"
    }
  ],
  "bytecode": "0x60806040523480156200001157600080fd5b50336040518060400160405280600881526020017f436f6d69634e46540000000000000000000000000000000000000000000000008152506040518060400160405280600481526020017f434e465400000000000000000000000000000000000000000000000000000000815250816000908162000090919062000472565b508060019081620000a2919062000472565b505050600073ffffffffffffffffffffffffffffffffffffffff168173ffffffffffffffffffffffffffffffffffffffff16036200011a5760006040517f1e4fbdf70000000000000000000000000000000000000000000000000000000081526004016200011191906200059e565b60405180910390fd5b6200012b816200013260201b60201c565b50620005bb565b6000600760009054906101000a900473ffffffffffffffffffffffffffffffffffffffff16905081600760006101000a81548173ffffffffffffffffffffffffffffffffffffffff021916908373ffffffffffffffffffffffffffffffffffffffff1602179055508173ffffffffffffffffffffffffffffffffffffffff168173ffffffffffffffffffffffffffffffffffffffff167f8be0079c531659141344cd1fd0a4f28419497f9722a3daafe3b4186f6b6457e060405160405180910390a35050565b600081519050919050565b7f4e487b7100000000000000000000000000000000000000000000000000000000600052604160045260246000fd5b7f4e487b7100000000000000000000000000000000000000000000000000000000600052602260045260246000fd5b600060028204905060018216806200027a57607f821691505b60208210810362000290576200028f62000232565b5b50919050565b60008190508160005260206000209050919050565b60006020601f8301049050919050565b600082821b905092915050565b600060088302620002fa7fffffffffffffffffffffffffffffffffffffffffffffffffffffffffffffffff82620002bb565b620003068683620002bb565b95508019841693508086168417925050509392505050565b6000819050919050565b6000819050919050565b6000620003536200034d62000347846200031e565b62000328565b6200031e565b9050919050565b6000819050919050565b6200036f8362000332565b620003876200037e826200035a565b848454620002c8565b825550505050565b600090565b6200039e6200038f565b620003ab81848462000364565b505050565b5b81811015620003d357620003c760008262000394565b600181019050620003b1565b5050565b601f8211156200042257620003ec8162000296565b620003f784620002ab565b8101602085101562000407578190505b6200041f6200041685620002ab565b830182620003b0565b50505b505050565b600082821c905092915050565b6000620004476000198460080262000427565b1980831691505092915050565b600062000462838362000434565b9150826002028217905092915050565b6200047d82620001f8565b67ffffffffffffffff81111562000499576200049862000203565b5b620004a5825462000261565b620004b2828285620003d7565b600060209050601f831160018114620004ea5760008415620004d5578287015190505b620004e1858262000454565b86555062000551565b601f198416620004fa8662000296565b60005b828110156200052457848901518255600182019150602085019450602081019050620004fd565b8683101562000544578489015162000540601f89168262000434565b8355505b6001600288020188555050505b505050505050565b600073ffffffffffffffffffffffffffffffffffffffff82169050919050565b6000620005868262000559565b9050919050565b620005988162000579565b82525050565b6000602082019050620005b560008301846200058d565b92915050565b614ffc80620005cb6000396000f3fe6080604052600436106101f95760003560e01c806370a082311161010d5780639a473682116100a0578063c002d23d1161006f578063c002d23d14610783578063c87b56dd146107ae578063e985e9c5146107eb578063ea703a7714610828578063f2fde38b14610853576101f9565b80639a473682146106cd578063a22cb46514610715578063add8462e1461073e578063b88d4fde1461075a576101f9565b80637d595352116100dc5780637d5953521461060f5780638da5cb5b1461063a578063924790a71461066557806395d89b41146106a2576101f9565b806370a0823114610548578063715018a6146105855780637a18cf561461059c5780637a80dc1d146105c7576101f9565b80632dee4075116101905780633ccfd60b1161015f5780633ccfd60b1461044c57806342842e0e14610463578063487657761461048c5780636352211e146104c957806364510c2a14610506576101f9565b80632dee40751461039857806335163003146103d557806338c5da60146104125780633b09d9f31461041c576101f9565b8063095ea7b3116101cc578063095ea7b3146102e0578063172dd2a0146103095780632056dc721461034657806323b872dd1461036f576101f9565b806301ffc9a7146101fe57806306fdde031461023b578063081812fc1461026657806308650bac146102a3575b600080fd5b34801561020a57600080fd5b5061022560048036038101906102209190613a01565b61087c565b6040516102329190613a49565b60405180910390f35b34801561024757600080fd5b5061025061088e565b60405161025d9190613af4565b60405180910390f35b34801561027257600080fd5b5061028d60048036038101906102889190613b4c565b610920565b60405161029a9190613bba565b60405180910390f35b3480156102af57600080fd5b506102ca60048036038101906102c59190613c01565b61093c565b6040516102d79190613a49565b60405180910390f35b3480156102ec57600080fd5b5061030760048036038101906103029190613c41565b61096b565b005b34801561031557600080fd5b50610330600480360381019061032b9190613b4c565b610981565b60405161033d9190613e49565b60405180910390f35b34801561035257600080fd5b5061036d60048036038101906103689190613fa0565b610cec565b005b34801561037b57600080fd5b5061039660048036038101906103919190613ffc565b610e41565b005b3480156103a457600080fd5b506103bf60048036038101906103ba919061404f565b610f43565b6040516103cc919061412b565b60405180910390f35b3480156103e157600080fd5b506103fc60048036038101906103f7919061414d565b610fda565b6040516104099190614203565b60405180910390f35b61041a6112a4565b005b6104366004803603810190610431919061421e565b6113a1565b6040516104439190614203565b60405180910390f35b34801561045857600080fd5b50610461611614565b005b34801561046f57600080fd5b5061048a60048036038101906104859190613ffc565b61166c565b005b34801561049857600080fd5b506104b360048036038101906104ae9190613b4c565b61168c565b6040516104c09190614203565b60405180910390f35b3480156104d557600080fd5b506104f060048036038101906104eb9190613b4c565b6116a4565b6040516104fd9190613bba565b60405180910390f35b34801561051257600080fd5b5061052d60048036038101906105289190614309565b6116b6565b60405161053f96959493929190614349565b60405180910390f35b34801561055457600080fd5b5061056f600480360381019061056a919061404f565b61194f565b60405161057c9190614203565b60405180910390f35b34801561059157600080fd5b5061059a611a09565b005b3480156105a857600080fd5b506105b1611a1d565b6040516105be9190614203565b60405180910390f35b3480156105d357600080fd5b506105ee60048036038101906105e99190613b4c565b611a22565b6040516106069c9b9a999897969594939291906143c6565b60405180910390f35b34801561061b57600080fd5b50610624611d57565b6040516106319190614203565b60405180910390f35b34801561064657600080fd5b5061064f611d5d565b60405161065c9190613bba565b60405180910390f35b34801561067157600080fd5b5061068c60048036038101906106879190613c41565b611d87565b6040516106999190614203565b60405180910390f35b3480156106ae57600080fd5b506106b7611db8565b6040516106c49190613af4565b60405180910390f35b3480156106d957600080fd5b506106f460048036038101906106ef9190613b4c565b611e4a565b60405161070c9c9b9a999897969594939291906143c6565b60405180910390f35b34801561072157600080fd5b5061073c600480360381019061073791906144cf565b612266565b005b61075860048036038101906107539190613b4c565b61227c565b005b34801561076657600080fd5b50610781600480360381019061077c91906145b0565b612378565b005b34801561078f57600080fd5b5061079861239d565b6040516107a59190614203565b60405180910390f35b3480156107ba57600080fd5b506107d560048036038101906107d09190613b4c565b6123a2565b6040516107e29190613af4565b60405180910390f35b3480156107f757600080fd5b50610812600480360381019061080d9190614633565b6124b5565b60405161081f9190613a49565b60405180910390f35b34801561083457600080fd5b5061083d612549565b60405161084a9190614203565b60405180910390f35b34801561085f57600080fd5b5061087a6004803603810190610875919061404f565b61254e565b005b6000610887826125d4565b9050919050565b60606000805461089d906146a2565b80601f01602080910402602001604051908101604052809291908181526020018280546108c9906146a2565b80156109165780601f106108eb57610100808354040283529160200191610916565b820191906000526020600020905b8154815290600101906020018083116108f957829003601f168201915b5050505050905090565b600061092b82612635565b50610935826126bd565b9050919050565b600d6020528160005260406000206020528060005260406000206000915091509054906101000a900460ff1681565b61097d82826109786126fa565b612702565b5050565b606060008211801561099557506008548211155b6109d4576040517f08c379a00000000000000000000000000000000000000000000000000000000081526004016109cb9061471f565b60405180910390fd5b600c6000838152602001908152602001600020805480602002602001604051908101604052809291908181526020016000905b82821015610ce157838290600052602060002090600602016040518060c0016040529081600082018054610a3a906146a2565b80601f0160208091040260200160405190810160405280929190818152602001828054610a66906146a2565b8015610ab35780601f10610a8857610100808354040283529160200191610ab3565b820191906000526020600020905b815481529060010190602001808311610a9657829003601f168201915b50505050508152602001600182018054610acc906146a2565b80601f0160208091040260200160405190810160405280929190818152602001828054610af8906146a2565b8015610b455780601f10610b1a57610100808354040283529160200191610b45565b820191906000526020600020905b815481529060010190602001808311610b2857829003601f168201915b50505050508152602001600282018054610b5e906146a2565b80601f0160208091040260200160405190810160405280929190818152602001828054610b8a906146a2565b8015610bd75780601f10610bac57610100808354040283529160200191610bd7565b820191906000526020600020905b815481529060010190602001808311610bba57829003601f168201915b50505050508152602001600382018054610bf0906146a2565b80601f0160208091040260200160405190810160405280929190818152602001828054610c1c906146a2565b8015610c695780601f10610c3e57610100808354040283529160200191610c69565b820191906000526020600020905b815481529060010190602001808311610c4c57829003601f168201915b505050505081526020016004820160009054906101000a900473ffffffffffffffffffffffffffffffffffffffff1673ffffffffffffffffffffffffffffffffffffffff1673ffffffffffffffffffffffffffffffffffffffff16815260200160058201548152505081526020019060010190610a07565b505050509050919050565b600082118015610cfe57506008548211155b610d3d576040517f08c379a0000000000000000000000000000000000000000000000000000000008152600401610d349061471f565b60405180910390fd5b3373ffffffffffffffffffffffffffffffffffffffff16600a600084815260200190815260200160002060040160019054906101000a900473ffffffffffffffffffffffffffffffffffffffff1673ffffffffffffffffffffffffffffffffffffffff1614610de1576040517f08c379a0000000000000000000000000000000000000000000000000000000008152600401610dd89061478b565b60405180910390fd5b80600a60008481526020019081526020016000206002019081610e049190614957565b50817ff504254854770a96a4dbfebe36028f415d5b65499dffed44bc25ed6ed3d0e2a182604051610e359190613af4565b60405180910390a25050565b600073ffffffffffffffffffffffffffffffffffffffff168273ffffffffffffffffffffffffffffffffffffffff1603610eb35760006040517f64a0ae92000000000000000000000000000000000000000000000000000000008152600401610eaa9190613bba565b60405180910390fd5b6000610ec78383610ec26126fa565b612714565b90508373ffffffffffffffffffffffffffffffffffffffff168173ffffffffffffffffffffffffffffffffffffffff1614610f3d578382826040517f64283d7b000000000000000000000000000000000000000000000000000000008152600401610f3493929190614a29565b60405180910390fd5b50505050565b6060600e60008373ffffffffffffffffffffffffffffffffffffffff1673ffffffffffffffffffffffffffffffffffffffff168152602001908152602001600020805480602002602001604051908101604052809291908181526020018280548015610fce57602002820191906000526020600020905b815481526020019060010190808311610fba575b50505050509050919050565b600060086000815480929190610fef90614a8f565b919050555060006008549050604051806101800160405280868152602001858152602001604051806020016040528060008152508152602001600081526020016000151581526020013373ffffffffffffffffffffffffffffffffffffffff16815260200142815260200160008152602001604051806020016040528060008152508152602001600081526020016000815260200184815250600a600083815260200190815260200160002060008201518160000190816110b09190614957565b5060208201518160010190816110c69190614957565b5060408201518160020190816110dc9190614957565b506060820151816003015560808201518160040160006101000a81548160ff02191690831515021790555060a08201518160040160016101000a81548173ffffffffffffffffffffffffffffffffffffffff021916908373ffffffffffffffffffffffffffffffffffffffff16021790555060c0820151816005015560e082015181600601556101008201518160070190816111789190614957565b506101208201518160080155610140820151816009015561016082015181600a0190816111a59190614957565b50905050600e60003373ffffffffffffffffffffffffffffffffffffffff1673ffffffffffffffffffffffffffffffffffffffff168152602001908152602001600020819080600181540180825580915050600190039060005260206000200160009091909190915055611219338261292e565b61124a816112268361294c565b6040516020016112369190614b5f565b604051602081830303815290604052612aac565b3373ffffffffffffffffffffffffffffffffffffffff16817f710f23c42401b5e0d67b3f8b5e6a3274c50401f4c8ae24a4bc9134cf3402ea62876040516112919190613af4565b60405180910390a3809150509392505050565b60003410156112e8576040517f08c379a00000000000000000000000000000000000000000000000000000000081526004016112df90614bcd565b60405180910390fd5b6001600d600043815260200190815260200160002060003373ffffffffffffffffffffffffffffffffffffffff1673ffffffffffffffffffffffffffffffffffffffff16815260200190815260200160002060006101000a81548160ff0219169083151502179055503373ffffffffffffffffffffffffffffffffffffffff167f9ae960452d6e408de27ec9817223245ade63bf20f5519ade300af70a14ffbe3a346040516113979190614203565b60405180910390a2565b600080861180156113b457506008548611155b6113f3576040517f08c379a00000000000000000000000000000000000000000000000000000000081526004016113ea9061471f565b60405180910390fd5b6000600a6000888152602001908152602001600020600801549050600c60008881526020019081526020016000206040518060c001604052808881526020018781526020018681526020018581526020013373ffffffffffffffffffffffffffffffffffffffff16815260200142815250908060018154018082558091505060019003906000526020600020906006020160009091909190915060008201518160000190816114a29190614957565b5060208201518160010190816114b89190614957565b5060408201518160020190816114ce9190614957565b5060608201518160030190816114e49190614957565b5060808201518160040160006101000a81548173ffffffffffffffffffffffffffffffffffffffff021916908373ffffffffffffffffffffffffffffffffffffffff16021790555060a082015181600501555050600a6000888152602001908152602001600020600801600081548092919061155f90614a8f565b91905055506002600a6000898152602001908152602001600020600901600082825461158b9190614bed565b9250508190555080877f82f931cedf1822969328a14b8fce44526751db2a8f34f9170a414839ed45ac7a33896040516115c5929190614c2f565b60405180910390a3867fd1a7405e27e0c3d2a9afb6f4ea0ac4667c90f16e7bf0ea89748c52614bb2f86d87856040516115ff929190614c5f565b60405180910390a28091505095945050505050565b61161c612b08565b611624611d5d565b73ffffffffffffffffffffffffffffffffffffffff166108fc479081150290604051600060405180830381858888f19350505050158015611669573d6000803e3d6000fd5b50565b61168783838360405180602001604052806000815250612378565b505050565b600b6020528060005260406000206000915090505481565b60006116af82612635565b9050919050565b600c60205281600052604060002081815481106116d257600080fd5b9060005260206000209060060201600091509150508060000180546116f6906146a2565b80601f0160208091040260200160405190810160405280929190818152602001828054611722906146a2565b801561176f5780601f106117445761010080835404028352916020019161176f565b820191906000526020600020905b81548152906001019060200180831161175257829003601f168201915b505050505090806001018054611784906146a2565b80601f01602080910402602001604051908101604052809291908181526020018280546117b0906146a2565b80156117fd5780601f106117d2576101008083540402835291602001916117fd565b820191906000526020600020905b8154815290600101906020018083116117e057829003601f168201915b505050505090806002018054611812906146a2565b80601f016020809104026020016040519081016040528092919081815260200182805461183e906146a2565b801561188b5780601f106118605761010080835404028352916020019161188b565b820191906000526020600020905b81548152906001019060200180831161186e57829003601f168201915b5050505050908060030180546118a0906146a2565b80601f01602080910402602001604051908101604052809291908181526020018280546118cc906146a2565b80156119195780601f106118ee57610100808354040283529160200191611919565b820191906000526020600020905b8154815290600101906020018083116118fc57829003601f168201915b5050505050908060040160009054906101000a900473ffffffffffffffffffffffffffffffffffffffff16908060050154905086565b60008073ffffffffffffffffffffffffffffffffffffffff168273ffffffffffffffffffffffffffffffffffffffff16036119c25760006040517f89c62b640000000000000000000000000000000000000000000000000000000081526004016119b99190613bba565b60405180910390fd5b600360008373ffffffffffffffffffffffffffffffffffffffff1673ffffffffffffffffffffffffffffffffffffffff168152602001908152602001600020549050919050565b611a11612b08565b611a1b6000612b8f565b565b600081565b600a602052806000526040600020600091509050806000018054611a45906146a2565b80601f0160208091040260200160405190810160405280929190818152602001828054611a71906146a2565b8015611abe5780601f10611a9357610100808354040283529160200191611abe565b820191906000526020600020905b815481529060010190602001808311611aa157829003601f168201915b505050505090806001018054611ad3906146a2565b80601f0160208091040260200160405190810160405280929190818152602001828054611aff906146a2565b8015611b4c5780601f10611b2157610100808354040283529160200191611b4c565b820191906000526020600020905b815481529060010190602001808311611b2f57829003601f168201915b505050505090806002018054611b61906146a2565b80601f0160208091040260200160405190810160405280929190818152602001828054611b8d906146a2565b8015611bda5780601f10611baf57610100808354040283529160200191611bda565b820191906000526020600020905b815481529060010190602001808311611bbd57829003601f168201915b5050505050908060030154908060040160009054906101000a900460ff16908060040160019054906101000a900473ffffffffffffffffffffffffffffffffffffffff1690806005015490806006015490806007018054611c3a906146a2565b80601f0160208091040260200160405190810160405280929190818152602001828054611c66906146a2565b8015611cb35780601f10611c8857610100808354040283529160200191611cb3565b820191906000526020600020905b815481529060010190602001808311611c9657829003601f168201915b50505050509080600801549080600901549080600a018054611cd4906146a2565b80601f0160208091040260200160405190810160405280929190818152602001828054611d00906146a2565b8015611d4d5780601f10611d2257610100808354040283529160200191611d4d565b820191906000526020600020905b815481529060010190602001808311611d3057829003601f168201915b505050505090508c565b61040081565b6000600760009054906101000a900473ffffffffffffffffffffffffffffffffffffffff16905090565b600e6020528160005260406000208181548110611da357600080fd5b90600052602060002001600091509150505481565b606060018054611dc7906146a2565b80601f0160208091040260200160405190810160405280929190818152602001828054611df3906146a2565b8015611e405780601f10611e1557610100808354040283529160200191611e40565b820191906000526020600020905b815481529060010190602001808311611e2357829003601f168201915b5050505050905090565b60608060606000806000806000606060008060606000600a60008f815260200190815260200160002060405180610180016040529081600082018054611e8f906146a2565b80601f0160208091040260200160405190810160405280929190818152602001828054611ebb906146a2565b8015611f085780601f10611edd57610100808354040283529160200191611f08565b820191906000526020600020905b815481529060010190602001808311611eeb57829003601f168201915b50505050508152602001600182018054611f21906146a2565b80601f0160208091040260200160405190810160405280929190818152602001828054611f4d906146a2565b8015611f9a5780601f10611f6f57610100808354040283529160200191611f9a565b820191906000526020600020905b815481529060010190602001808311611f7d57829003601f168201915b50505050508152602001600282018054611fb3906146a2565b80601f0160208091040260200160405190810160405280929190818152602001828054611fdf906146a2565b801561202c5780601f106120015761010080835404028352916020019161202c565b820191906000526020600020905b81548152906001019060200180831161200f57829003601f168201915b50505050508152602001600382015481526020016004820160009054906101000a900460ff161515151581526020016004820160019054906101000a900473ffffffffffffffffffffffffffffffffffffffff1673ffffffffffffffffffffffffffffffffffffffff1673ffffffffffffffffffffffffffffffffffffffff16815260200160058201548152602001600682015481526020016007820180546120d4906146a2565b80601f0160208091040260200160405190810160405280929190818152602001828054612100906146a2565b801561214d5780601f106121225761010080835404028352916020019161214d565b820191906000526020600020905b81548152906001019060200180831161213057829003601f168201915b505050505081526020016008820154815260200160098201548152602001600a8201805461217a906146a2565b80601f01602080910402602001604051908101604052809291908181526020018280546121a6906146a2565b80156121f35780601f106121c8576101008083540402835291602001916121f3565b820191906000526020600020905b8154815290600101906020018083116121d657829003601f168201915b5050505050815250509050806000015181602001518260400151836060015184608001518560a001518660c001518760e001518861010001518961012001518a61014001518b61016001519c509c509c509c509c509c509c509c509c509c509c509c505091939597999b5091939597999b565b6122786122716126fa565b8383612c55565b5050565b60003410156122c0576040517f08c379a00000000000000000000000000000000000000000000000000000000081526004016122b790614ce2565b60405180910390fd5b6000811180156122d257506008548111155b612311576040517f08c379a00000000000000000000000000000000000000000000000000000000081526004016123089061471f565b60405180910390fd5b610400600a6000838152602001908152602001600020600601541061236b576040517f08c379a000000000000000000000000000000000000000000000000000000000815260040161236290614d4e565b60405180910390fd5b6123758133612dc4565b50565b612383848484610e41565b61239761238e6126fa565b85858585612f53565b50505050565b600081565b60606123ad82612635565b5060006006600084815260200190815260200160002080546123ce906146a2565b80601f01602080910402602001604051908101604052809291908181526020018280546123fa906146a2565b80156124475780601f1061241c57610100808354040283529160200191612447565b820191906000526020600020905b81548152906001019060200180831161242a57829003601f168201915b505050505090506000612458613104565b9050600081510361246d5781925050506124b0565b6000825111156124a257808260405160200161248a929190614d6e565b604051602081830303815290604052925050506124b0565b6124ab8461311b565b925050505b919050565b6000600560008473ffffffffffffffffffffffffffffffffffffffff1673ffffffffffffffffffffffffffffffffffffffff16815260200190815260200160002060008373ffffffffffffffffffffffffffffffffffffffff1673ffffffffffffffffffffffffffffffffffffffff16815260200190815260200160002060009054906101000a900460ff16905092915050565b600081565b612556612b08565b600073ffffffffffffffffffffffffffffffffffffffff168173ffffffffffffffffffffffffffffffffffffffff16036125c85760006040517f1e4fbdf70000000000000000000000000000000000000000000000000000000081526004016125bf9190613bba565b60405180910390fd5b6125d181612b8f565b50565b6000634906490660e01b7bffffffffffffffffffffffffffffffffffffffffffffffffffffffff1916827bffffffffffffffffffffffffffffffffffffffffffffffffffffffff1916148061262e575061262d82613184565b5b9050919050565b60008061264183613266565b9050600073ffffffffffffffffffffffffffffffffffffffff168173ffffffffffffffffffffffffffffffffffffffff16036126b457826040517f7e2732890000000000000000000000000000000000000000000000000000000081526004016126ab9190614203565b60405180910390fd5b80915050919050565b60006004600083815260200190815260200160002060009054906101000a900473ffffffffffffffffffffffffffffffffffffffff169050919050565b600033905090565b61270f83838360016132a3565b505050565b60008061272084613266565b9050600073ffffffffffffffffffffffffffffffffffffffff168373ffffffffffffffffffffffffffffffffffffffff161461276257612761818486613468565b5b600073ffffffffffffffffffffffffffffffffffffffff168173ffffffffffffffffffffffffffffffffffffffff16146127f3576127a46000856000806132a3565b6001600360008373ffffffffffffffffffffffffffffffffffffffff1673ffffffffffffffffffffffffffffffffffffffff168152602001908152602001600020600082825403925050819055505b600073ffffffffffffffffffffffffffffffffffffffff168573ffffffffffffffffffffffffffffffffffffffff1614612876576001600360008773ffffffffffffffffffffffffffffffffffffffff1673ffffffffffffffffffffffffffffffffffffffff168152602001908152602001600020600082825401925050819055505b846002600086815260200190815260200160002060006101000a81548173ffffffffffffffffffffffffffffffffffffffff021916908373ffffffffffffffffffffffffffffffffffffffff160217905550838573ffffffffffffffffffffffffffffffffffffffff168273ffffffffffffffffffffffffffffffffffffffff167fddf252ad1be2c89b69c2b068fc378daa952ba7f163c4a11628f55a4df523b3ef60405160405180910390a4809150509392505050565b61294882826040518060200160405280600081525061352c565b5050565b606060008203612993576040518060400160405280600181526020017f30000000000000000000000000000000000000000000000000000000000000008152509050612aa7565b600082905060005b600082146129c55780806129ae90614a8f565b915050600a826129be9190614dc1565b915061299b565b60008167ffffffffffffffff8111156129e1576129e0613e75565b5b6040519080825280601f01601f191660200182016040528015612a135781602001600182028036833780820191505090505b5090505b60008514612aa057600182612a2c9190614df2565b9150600a85612a3b9190614e26565b6030612a479190614e57565b60f81b818381518110612a5d57612a5c614e8b565b5b60200101907effffffffffffffffffffffffffffffffffffffffffffffffffffffffffffff1916908160001a905350600a85612a999190614dc1565b9450612a17565b8093505050505b919050565b80600660008481526020019081526020016000209081612acc9190614957565b507ff8e1a15aba9398e019f0b49df1a4fde98ee17ae345cb5f6b5e2c27f5033e8ce782604051612afc9190614203565b60405180910390a15050565b612b106126fa565b73ffffffffffffffffffffffffffffffffffffffff16612b2e611d5d565b73ffffffffffffffffffffffffffffffffffffffff1614612b8d57612b516126fa565b6040517f118cdaa7000000000000000000000000000000000000000000000000000000008152600401612b849190613bba565b60405180910390fd5b565b6000600760009054906101000a900473ffffffffffffffffffffffffffffffffffffffff16905081600760006101000a81548173ffffffffffffffffffffffffffffffffffffffff021916908373ffffffffffffffffffffffffffffffffffffffff1602179055508173ffffffffffffffffffffffffffffffffffffffff168173ffffffffffffffffffffffffffffffffffffffff167f8be0079c531659141344cd1fd0a4f28419497f9722a3daafe3b4186f6b6457e060405160405180910390a35050565b600073ffffffffffffffffffffffffffffffffffffffff168273ffffffffffffffffffffffffffffffffffffffff1603612cc657816040517f5b08ba18000000000000000000000000000000000000000000000000000000008152600401612cbd9190613bba565b60405180910390fd5b80600560008573ffffffffffffffffffffffffffffffffffffffff1673ffffffffffffffffffffffffffffffffffffffff16815260200190815260200160002060008473ffffffffffffffffffffffffffffffffffffffff1673ffffffffffffffffffffffffffffffffffffffff16815260200190815260200160002060006101000a81548160ff0219169083151502179055508173ffffffffffffffffffffffffffffffffffffffff168373ffffffffffffffffffffffffffffffffffffffff167f17307eab39ab6107e8899845ad3d59bd9653f200f220920489ca2b5937696c3183604051612db79190613a49565b60405180910390a3505050565b6000600a60008481526020019081526020016000209050610400816006015410612e23576040517f08c379a0000000000000000000000000000000000000000000000000000000008152600401612e1a90614d4e565b60405180910390fd5b60096000815480929190612e3690614a8f565b919050555060006009549050612e4c838261292e565b612ee281836007018054612e5f906146a2565b80601f0160208091040260200160405190810160405280929190818152602001828054612e8b906146a2565b8015612ed85780601f10612ead57610100808354040283529160200191612ed8565b820191906000526020600020905b815481529060010190602001808311612ebb57829003601f168201915b5050505050612aac565b83600b600083815260200190815260200160002081905550816006016000815480929190612f0f90614a8f565b919050555080847fb114cce703e9f5e637e8c23c7b279d970736dcd03781dbe9f9095528d6d45ede85604051612f459190613bba565b60405180910390a350505050565b60008373ffffffffffffffffffffffffffffffffffffffff163b11156130fd578273ffffffffffffffffffffffffffffffffffffffff1663150b7a02868685856040518563ffffffff1660e01b8152600401612fb29493929190614f0f565b6020604051808303816000875af1925050508015612fee57506040513d601f19601f82011682018060405250810190612feb9190614f70565b60015b613072573d806000811461301e576040519150601f19603f3d011682016040523d82523d6000602084013e613023565b606091505b50600081510361306a57836040517f64a0ae920000000000000000000000000000000000000000000000000000000081526004016130619190613bba565b60405180910390fd5b805181602001fd5b63150b7a0260e01b7bffffffffffffffffffffffffffffffffffffffffffffffffffffffff1916817bffffffffffffffffffffffffffffffffffffffffffffffffffffffff1916146130fb57836040517f64a0ae920000000000000000000000000000000000000000000000000000000081526004016130f29190613bba565b60405180910390fd5b505b5050505050565b606060405180602001604052806000815250905090565b606061312682612635565b506000613131613104565b90506000815111613151576040518060200160405280600081525061317c565b8061315b84613550565b60405160200161316c929190614d6e565b6040516020818303038152906040525b915050919050565b60007f80ac58cd000000000000000000000000000000000000000000000000000000007bffffffffffffffffffffffffffffffffffffffffffffffffffffffff1916827bffffffffffffffffffffffffffffffffffffffffffffffffffffffff1916148061324f57507f5b5e139f000000000000000000000000000000000000000000000000000000007bffffffffffffffffffffffffffffffffffffffffffffffffffffffff1916827bffffffffffffffffffffffffffffffffffffffffffffffffffffffff1916145b8061325f575061325e8261361e565b5b9050919050565b60006002600083815260200190815260200160002060009054906101000a900473ffffffffffffffffffffffffffffffffffffffff169050919050565b80806132dc5750600073ffffffffffffffffffffffffffffffffffffffff168273ffffffffffffffffffffffffffffffffffffffff1614155b156134105760006132ec84612635565b9050600073ffffffffffffffffffffffffffffffffffffffff168373ffffffffffffffffffffffffffffffffffffffff161415801561335757508273ffffffffffffffffffffffffffffffffffffffff168173ffffffffffffffffffffffffffffffffffffffff1614155b801561336a575061336881846124b5565b155b156133ac57826040517fa9fbf51f0000000000000000000000000000000000000000000000000000000081526004016133a39190613bba565b60405180910390fd5b811561340e57838573ffffffffffffffffffffffffffffffffffffffff168273ffffffffffffffffffffffffffffffffffffffff167f8c5be1e5ebec7d5bd14f71427d1e84f3dd0314c0f7b2291e5b200ac8c7c3b92560405160405180910390a45b505b836004600085815260200190815260200160002060006101000a81548173ffffffffffffffffffffffffffffffffffffffff021916908373ffffffffffffffffffffffffffffffffffffffff16021790555050505050565b613473838383613688565b61352757600073ffffffffffffffffffffffffffffffffffffffff168373ffffffffffffffffffffffffffffffffffffffff16036134e857806040517f7e2732890000000000000000000000000000000000000000000000000000000081526004016134df9190614203565b60405180910390fd5b81816040517f177e802f00000000000000000000000000000000000000000000000000000000815260040161351e929190614f9d565b60405180910390fd5b505050565b6135368383613749565b61354b6135416126fa565b6000858585612f53565b505050565b60606000600161355f84613842565b01905060008167ffffffffffffffff81111561357e5761357d613e75565b5b6040519080825280601f01601f1916602001820160405280156135b05781602001600182028036833780820191505090505b509050600082602001820190505b600115613613578080600190039150507f3031323334353637383961626364656600000000000000000000000000000000600a86061a8153600a858161360757613606614d92565b5b049450600085036135be575b819350505050919050565b60007f01ffc9a7000000000000000000000000000000000000000000000000000000007bffffffffffffffffffffffffffffffffffffffffffffffffffffffff1916827bffffffffffffffffffffffffffffffffffffffffffffffffffffffff1916149050919050565b60008073ffffffffffffffffffffffffffffffffffffffff168373ffffffffffffffffffffffffffffffffffffffff161415801561374057508273ffffffffffffffffffffffffffffffffffffffff168473ffffffffffffffffffffffffffffffffffffffff161480613701575061370084846124b5565b5b8061373f57508273ffffffffffffffffffffffffffffffffffffffff16613727836126bd565b73ffffffffffffffffffffffffffffffffffffffff16145b5b90509392505050565b600073ffffffffffffffffffffffffffffffffffffffff168273ffffffffffffffffffffffffffffffffffffffff16036137bb5760006040517f64a0ae920000000000000000000000000000000000000000000000000000000081526004016137b29190613bba565b60405180910390fd5b60006137c983836000612714565b9050600073ffffffffffffffffffffffffffffffffffffffff168173ffffffffffffffffffffffffffffffffffffffff161461383d5760006040517f73c6ac6e0000000000000000000000000000000000000000000000000000000081526004016138349190613bba565b60405180910390fd5b505050565b600080600090507a184f03e93ff9f4daa797ed6e38ed64bf6a1f01000000000000000083106138a0577a184f03e93ff9f4daa797ed6e38ed64bf6a1f010000000000000000838161389657613895614d92565b5b0492506040810190505b6d04ee2d6d415b85acef810000000083106138dd576d04ee2d6d415b85acef810000000083816138d3576138d2614d92565b5b0492506020810190505b662386f26fc10000831061390c57662386f26fc10000838161390257613901614d92565b5b0492506010810190505b6305f5e1008310613935576305f5e100838161392b5761392a614d92565b5b0492506008810190505b612710831061395a5761271083816139505761394f614d92565b5b0492506004810190505b6064831061397d576064838161397357613972614d92565b5b0492506002810190505b600a831061398c576001810190505b80915050919050565b6000604051905090565b600080fd5b600080fd5b60007fffffffff0000000000000000000000000000000000000000000000000000000082169050919050565b6139de816139a9565b81146139e957600080fd5b50565b6000813590506139fb816139d5565b92915050565b600060208284031215613a1757613a1661399f565b5b6000613a25848285016139ec565b91505092915050565b60008115159050919050565b613a4381613a2e565b82525050565b6000602082019050613a5e6000830184613a3a565b92915050565b600081519050919050565b600082825260208201905092915050565b60005b83811015613a9e578082015181840152602081019050613a83565b60008484015250505050565b6000601f19601f8301169050919050565b6000613ac682613a64565b613ad08185613a6f565b9350613ae0818560208601613a80565b613ae981613aaa565b840191505092915050565b60006020820190508181036000830152613b0e8184613abb565b905092915050565b6000819050919050565b613b2981613b16565b8114613b3457600080fd5b50565b600081359050613b4681613b20565b92915050565b600060208284031215613b6257613b6161399f565b5b6000613b7084828501613b37565b91505092915050565b600073ffffffffffffffffffffffffffffffffffffffff82169050919050565b6000613ba482613b79565b9050919050565b613bb481613b99565b82525050565b6000602082019050613bcf6000830184613bab565b92915050565b613bde81613b99565b8114613be957600080fd5b50565b600081359050613bfb81613bd5565b92915050565b60008060408385031215613c1857613c1761399f565b5b6000613c2685828601613b37565b9250506020613c3785828601613bec565b9150509250929050565b60008060408385031215613c5857613c5761399f565b5b6000613c6685828601613bec565b9250506020613c7785828601613b37565b9150509250929050565b600081519050919050565b600082825260208201905092915050565b6000819050602082019050919050565b600082825260208201905092915050565b6000613cc982613a64565b613cd38185613cad565b9350613ce3818560208601613a80565b613cec81613aaa565b840191505092915050565b613d0081613b99565b82525050565b613d0f81613b16565b82525050565b600060c0830160008301518482036000860152613d328282613cbe565b91505060208301518482036020860152613d4c8282613cbe565b91505060408301518482036040860152613d668282613cbe565b91505060608301518482036060860152613d808282613cbe565b9150506080830151613d956080860182613cf7565b5060a0830151613da860a0860182613d06565b508091505092915050565b6000613dbf8383613d15565b905092915050565b6000602082019050919050565b6000613ddf82613c81565b613de98185613c8c565b935083602082028501613dfb85613c9d565b8060005b85811015613e375784840389528151613e188582613db3565b9450613e2383613dc7565b925060208a01995050600181019050613dff565b50829750879550505050505092915050565b60006020820190508181036000830152613e638184613dd4565b905092915050565b600080fd5b600080fd5b7f4e487b7100000000000000000000000000000000000000000000000000000000600052604160045260246000fd5b613ead82613aaa565b810181811067ffffffffffffffff82111715613ecc57613ecb613e75565b5b80604052505050565b6000613edf613995565b9050613eeb8282613ea4565b919050565b600067ffffffffffffffff821115613f0b57613f0a613e75565b5b613f1482613aaa565b9050602081019050919050565b82818337600083830152505050565b6000613f43613f3e84613ef0565b613ed5565b905082815260208101848484011115613f5f57613f5e613e70565b5b613f6a848285613f21565b509392505050565b600082601f830112613f8757613f86613e6b565b5b8135613f97848260208601613f30565b91505092915050565b60008060408385031215613fb757613fb661399f565b5b6000613fc585828601613b37565b925050602083013567ffffffffffffffff811115613fe657613fe56139a4565b5b613ff285828601613f72565b9150509250929050565b6000806000606084860312156140155761401461399f565b5b600061402386828701613bec565b935050602061403486828701613bec565b925050604061404586828701613b37565b9150509250925092565b6000602082840312156140655761406461399f565b5b600061407384828501613bec565b91505092915050565b600081519050919050565b600082825260208201905092915050565b6000819050602082019050919050565b60006140b48383613d06565b60208301905092915050565b6000602082019050919050565b60006140d88261407c565b6140e28185614087565b93506140ed83614098565b8060005b8381101561411e57815161410588826140a8565b9750614110836140c0565b9250506001810190506140f1565b5085935050505092915050565b6000602082019050818103600083015261414581846140cd565b905092915050565b6000806000606084860312156141665761416561399f565b5b600084013567ffffffffffffffff811115614184576141836139a4565b5b61419086828701613f72565b935050602084013567ffffffffffffffff8111156141b1576141b06139a4565b5b6141bd86828701613f72565b925050604084013567ffffffffffffffff8111156141de576141dd6139a4565b5b6141ea86828701613f72565b9150509250925092565b6141fd81613b16565b82525050565b600060208201905061421860008301846141f4565b92915050565b600080600080600060a0868803121561423a5761423961399f565b5b600061424888828901613b37565b955050602086013567ffffffffffffffff811115614269576142686139a4565b5b61427588828901613f72565b945050604086013567ffffffffffffffff811115614296576142956139a4565b5b6142a288828901613f72565b935050606086013567ffffffffffffffff8111156142c3576142c26139a4565b5b6142cf88828901613f72565b925050608086013567ffffffffffffffff8111156142f0576142ef6139a4565b5b6142fc88828901613f72565b9150509295509295909350565b600080604083850312156143205761431f61399f565b5b600061432e85828601613b37565b925050602061433f85828601613b37565b9150509250929050565b600060c08201905081810360008301526143638189613abb565b905081810360208301526143778188613abb565b9050818103604083015261438b8187613abb565b9050818103606083015261439f8186613abb565b90506143ae6080830185613bab565b6143bb60a08301846141f4565b979650505050505050565b60006101808201905081810360008301526143e1818f613abb565b905081810360208301526143f5818e613abb565b90508181036040830152614409818d613abb565b9050614418606083018c6141f4565b614425608083018b613a3a565b61443260a083018a613bab565b61443f60c08301896141f4565b61444c60e08301886141f4565b81810361010083015261445f8187613abb565b905061446f6101208301866141f4565b61447d6101408301856141f4565b8181036101608301526144908184613abb565b90509d9c50505050505050505050505050565b6144ac81613a2e565b81146144b757600080fd5b50565b6000813590506144c9816144a3565b92915050565b600080604083850312156144e6576144e561399f565b5b60006144f485828601613bec565b9250506020614505858286016144ba565b9150509250929050565b600067ffffffffffffffff82111561452a57614529613e75565b5b61453382613aaa565b9050602081019050919050565b600061455361454e8461450f565b613ed5565b90508281526020810184848401111561456f5761456e613e70565b5b61457a848285613f21565b509392505050565b600082601f83011261459757614596613e6b565b5b81356145a7848260208601614540565b91505092915050565b600080600080608085870312156145ca576145c961399f565b5b60006145d887828801613bec565b94505060206145e987828801613bec565b93505060406145fa87828801613b37565b925050606085013567ffffffffffffffff81111561461b5761461a6139a4565b5b61462787828801614582565b91505092959194509250565b6000806040838503121561464a5761464961399f565b5b600061465885828601613bec565b925050602061466985828601613bec565b9150509250929050565b7f4e487b7100000000000000000000000000000000000000000000000000000000600052602260045260246000fd5b600060028204905060018216806146ba57607f821691505b6020821081036146cd576146cc614673565b5b50919050565b7f436f6d696320646f65736e277420657869737400000000000000000000000000600082015250565b6000614709601383613a6f565b9150614714826146d3565b602082019050919050565b60006020820190508181036000830152614738816146fc565b9050919050565b7f4e6f742074686520636f6d69632063726561746f720000000000000000000000600082015250565b6000614775601583613a6f565b91506147808261473f565b602082019050919050565b600060208201905081810360008301526147a481614768565b9050919050565b60008190508160005260206000209050919050565b60006020601f8301049050919050565b600082821b905092915050565b60006008830261480d7fffffffffffffffffffffffffffffffffffffffffffffffffffffffffffffffff826147d0565b61481786836147d0565b95508019841693508086168417925050509392505050565b6000819050919050565b600061485461484f61484a84613b16565b61482f565b613b16565b9050919050565b6000819050919050565b61486e83614839565b61488261487a8261485b565b8484546147dd565b825550505050565b600090565b61489761488a565b6148a2818484614865565b505050565b5b818110156148c6576148bb60008261488f565b6001810190506148a8565b5050565b601f82111561490b576148dc816147ab565b6148e5846147c0565b810160208510156148f4578190505b614908614900856147c0565b8301826148a7565b50505b505050565b600082821c905092915050565b600061492e60001984600802614910565b1980831691505092915050565b6000614947838361491d565b9150826002028217905092915050565b61496082613a64565b67ffffffffffffffff81111561497957614978613e75565b5b61498382546146a2565b61498e8282856148ca565b600060209050601f8311600181146149c157600084156149af578287015190505b6149b9858261493b565b865550614a21565b601f1984166149cf866147ab565b60005b828110156149f7578489015182556001820191506020850194506020810190506149d2565b86831015614a145784890151614a10601f89168261491d565b8355505b6001600288020188555050505b505050505050565b6000606082019050614a3e6000830186613bab565b614a4b60208301856141f4565b614a586040830184613bab565b949350505050565b7f4e487b7100000000000000000000000000000000000000000000000000000000600052601160045260246000fd5b6000614a9a82613b16565b91507fffffffffffffffffffffffffffffffffffffffffffffffffffffffffffffffff8203614acc57614acb614a60565b5b600182019050919050565b600081905092915050565b7f636f6d69632d0000000000000000000000000000000000000000000000000000600082015250565b6000614b18600683614ad7565b9150614b2382614ae2565b600682019050919050565b6000614b3982613a64565b614b438185614ad7565b9350614b53818560208601613a80565b80840191505092915050565b6000614b6a82614b0b565b9150614b768284614b2e565b915081905092915050565b7f4d7573742073656e642045544820746f2070617920666f722070726f6d707400600082015250565b6000614bb7601f83613a6f565b9150614bc282614b81565b602082019050919050565b60006020820190508181036000830152614be681614baa565b9050919050565b6000614bf882613b16565b9150614c0383613b16565b9250828202614c1181613b16565b91508282048414831517614c2857614c27614a60565b5b5092915050565b6000604082019050614c446000830185613bab565b8181036020830152614c568184613abb565b90509392505050565b60006040820190508181036000830152614c798185613abb565b90508181036020830152614c8d8184613abb565b90509392505050565b7f496e73756666696369656e74207061796d656e74000000000000000000000000600082015250565b6000614ccc601483613a6f565b9150614cd782614c96565b602082019050919050565b60006020820190508181036000830152614cfb81614cbf565b9050919050565b7f416c6c20636f706965732068617665206265656e206d696e7465640000000000600082015250565b6000614d38601b83613a6f565b9150614d4382614d02565b602082019050919050565b60006020820190508181036000830152614d6781614d2b565b9050919050565b6000614d7a8285614b2e565b9150614d868284614b2e565b91508190509392505050565b7f4e487b7100000000000000000000000000000000000000000000000000000000600052601260045260246000fd5b6000614dcc82613b16565b9150614dd783613b16565b925082614de757614de6614d92565b5b828204905092915050565b6000614dfd82613b16565b9150614e0883613b16565b9250828203905081811115614e2057614e1f614a60565b5b92915050565b6000614e3182613b16565b9150614e3c83613b16565b925082614e4c57614e4b614d92565b5b828206905092915050565b6000614e6282613b16565b9150614e6d83613b16565b9250828201905080821115614e8557614e84614a60565b5b92915050565b7f4e487b7100000000000000000000000000000000000000000000000000000000600052603260045260246000fd5b600081519050919050565b600082825260208201905092915050565b6000614ee182614eba565b614eeb8185614ec5565b9350614efb818560208601613a80565b614f0481613aaa565b840191505092915050565b6000608082019050614f246000830187613bab565b614f316020830186613bab565b614f3e60408301856141f4565b8181036060830152614f508184614ed6565b905095945050505050565b600081519050614f6a816139d5565b92915050565b600060208284031215614f8657614f8561399f565b5b6000614f9484828501614f5b565b91505092915050565b6000604082019050614fb26000830185613bab565b614fbf60208301846141f4565b939250505056fea2646970667358221220d8cd2b2b6aaa5aa840905f8e91d868861f672a6ff82e4a5c1cd35b91113f6fba64736f6c63430008140033",
  "linkReferences": {},
  "deployedLinkReferences": {}
}