{
  "_format": "hh-sol-artifact-1",
  "contractName": "Characters",
  "sourceName": "contracts/Characters.sol",
  "abi": [
    {
      "inputs": [],
      "stateMutability": "nonpayable",
      "type": "constructor"
    },
    {
      "inputs": [
        {
          "internalType": "address",
          "name": "sender",
          "type": "address"
        },
        {
          "internalType": "uint256",
          "name": "tokenId",
          "type": "uint256"
        },
        {
          "internalType": "address",
          "name": "owner",
          "type": "address"
        }
      ],
      "name": "ERC721IncorrectOwner",
      "type": "error"
    },
    {
      "inputs": [
        {
          "internalType": "address",
          "name": "operator",
          "type": "address"
        },
        {
          "internalType": "uint256",
          "name": "tokenId",
          "type": "uint256"
        }
      ],
      "name": "ERC721InsufficientApproval",
      "type": "error"
    },
    {
      "inputs": [
        {
          "internalType": "address",
          "name": "approver",
          "type": "address"
        }
      ],
      "name": "ERC721InvalidApprover",
      "type": "error"
    },
    {
      "inputs": [
        {
          "internalType": "address",
          "name": "operator",
          "type": "address"
        }
      ],
      "name": "ERC721InvalidOperator",
      "type": "error"
    },
    {
      "inputs": [
        {
          "internalType": "address",
          "name": "owner",
          "type": "address"
        }
      ],
      "name": "ERC721InvalidOwner",
      "type": "error"
    },
    {
      "inputs": [
        {
          "internalType": "address",
          "name": "receiver",
          "type": "address"
        }
      ],
      "name": "ERC721InvalidReceiver",
      "type": "error"
    },
    {
      "inputs": [
        {
          "internalType": "address",
          "name": "sender",
          "type": "address"
        }
      ],
      "name": "ERC721InvalidSender",
      "type": "error"
    },
    {
      "inputs": [
        {
          "internalType": "uint256",
          "name": "tokenId",
          "type": "uint256"
        }
      ],
      "name": "ERC721NonexistentToken",
      "type": "error"
    },
    {
      "inputs": [
        {
          "internalType": "address",
          "name": "owner",
          "type": "address"
        }
      ],
      "name": "OwnableInvalidOwner",
      "type": "error"
    },
    {
      "inputs": [
        {
          "internalType": "address",
          "name": "account",
          "type": "address"
        }
      ],
      "name": "OwnableUnauthorizedAccount",
      "type": "error"
    },
    {
      "anonymous": false,
      "inputs": [
        {
          "indexed": true,
          "internalType": "address",
          "name": "owner",
          "type": "address"
        },
        {
          "indexed": true,
          "internalType": "address",
          "name": "approved",
          "type": "address"
        },
        {
          "indexed": true,
          "internalType": "uint256",
          "name": "tokenId",
          "type": "uint256"
        }
      ],
      "name": "Approval",
      "type": "event"
    },
    {
      "anonymous": false,
      "inputs": [
        {
          "indexed": true,
          "internalType": "address",
          "name": "owner",
          "type": "address"
        },
        {
          "indexed": true,
          "internalType": "address",
          "name": "operator",
          "type": "address"
        },
        {
          "indexed": false,
          "internalType": "bool",
          "name": "approved",
          "type": "bool"
        }
      ],
      "name": "ApprovalForAll",
      "type": "event"
    },
    {
      "anonymous": false,
      "inputs": [
        {
          "indexed": false,
          "internalType": "uint256",
          "name": "newPrice",
          "type": "uint256"
        }
      ],
      "name": "BasePriceUpdated",
      "type": "event"
    },
    {
      "anonymous": false,
      "inputs": [
        {
          "indexed": false,
          "internalType": "uint256",
          "name": "_fromTokenId",
          "type": "uint256"
        },
        {
          "indexed": false,
          "internalType": "uint256",
          "name": "_toTokenId",
          "type": "uint256"
        }
      ],
      "name": "BatchMetadataUpdate",
      "type": "event"
    },
    {
      "anonymous": false,
      "inputs": [
        {
          "indexed": true,
          "internalType": "uint256",
          "name": "tokenId",
          "type": "uint256"
        },
        {
          "indexed": false,
          "internalType": "string",
          "name": "name",
          "type": "string"
        }
      ],
      "name": "CharacterKilled",
      "type": "event"
    },
    {
      "anonymous": false,
      "inputs": [
        {
          "indexed": true,
          "internalType": "uint256",
          "name": "tokenId",
          "type": "uint256"
        },
        {
          "indexed": false,
          "internalType": "string",
          "name": "name",
          "type": "string"
        },
        {
          "indexed": false,
          "internalType": "string",
          "name": "image",
          "type": "string"
        },
        {
          "indexed": false,
          "internalType": "uint256",
          "name": "price",
          "type": "uint256"
        }
      ],
      "name": "CharacterMinted",
      "type": "event"
    },
    {
      "anonymous": false,
      "inputs": [
        {
          "indexed": false,
          "internalType": "uint256",
          "name": "_tokenId",
          "type": "uint256"
        }
      ],
      "name": "MetadataUpdate",
      "type": "event"
    },
    {
      "anonymous": false,
      "inputs": [
        {
          "indexed": true,
          "internalType": "address",
          "name": "previousOwner",
          "type": "address"
        },
        {
          "indexed": true,
          "internalType": "address",
          "name": "newOwner",
          "type": "address"
        }
      ],
      "name": "OwnershipTransferred",
      "type": "event"
    },
    {
      "anonymous": false,
      "inputs": [
        {
          "indexed": true,
          "internalType": "address",
          "name": "from",
          "type": "address"
        },
        {
          "indexed": true,
          "internalType": "address",
          "name": "to",
          "type": "address"
        },
        {
          "indexed": true,
          "internalType": "uint256",
          "name": "tokenId",
          "type": "uint256"
        }
      ],
      "name": "Transfer",
      "type": "event"
    },
    {
      "inputs": [
        {
          "internalType": "address",
          "name": "to",
          "type": "address"
        },
        {
          "internalType": "uint256",
          "name": "tokenId",
          "type": "uint256"
        }
      ],
      "name": "approve",
      "outputs": [],
      "stateMutability": "nonpayable",
      "type": "function"
    },
    {
      "inputs": [
        {
          "internalType": "address",
          "name": "owner",
          "type": "address"
        }
      ],
      "name": "balanceOf",
      "outputs": [
        {
          "internalType": "uint256",
          "name": "",
          "type": "uint256"
        }
      ],
      "stateMutability": "view",
      "type": "function"
    },
    {
      "inputs": [],
      "name": "baseURI",
      "outputs": [
        {
          "internalType": "string",
          "name": "",
          "type": "string"
        }
      ],
      "stateMutability": "view",
      "type": "function"
    },
    {
      "inputs": [
        {
          "internalType": "uint256",
          "name": "",
          "type": "uint256"
        }
      ],
      "name": "characters",
      "outputs": [
        {
          "internalType": "string",
          "name": "name",
          "type": "string"
        },
        {
          "internalType": "string",
          "name": "image",
          "type": "string"
        },
        {
          "internalType": "uint256",
          "name": "createdAt",
          "type": "uint256"
        }
      ],
      "stateMutability": "view",
      "type": "function"
    },
    {
      "inputs": [
        {
          "internalType": "uint256",
          "name": "tokenId",
          "type": "uint256"
        }
      ],
      "name": "checkIsAlive",
      "outputs": [
        {
          "internalType": "bool",
          "name": "",
          "type": "bool"
        }
      ],
      "stateMutability": "view",
      "type": "function"
    },
    {
      "inputs": [
        {
          "internalType": "uint256",
          "name": "tokenId",
          "type": "uint256"
        }
      ],
      "name": "getApproved",
      "outputs": [
        {
          "internalType": "address",
          "name": "",
          "type": "address"
        }
      ],
      "stateMutability": "view",
      "type": "function"
    },
    {
      "inputs": [
        {
          "internalType": "uint256",
          "name": "tokenId",
          "type": "uint256"
        }
      ],
      "name": "getCharacter",
      "outputs": [
        {
          "components": [
            {
              "internalType": "string",
              "name": "name",
              "type": "string"
            },
            {
              "internalType": "string",
              "name": "image",
              "type": "string"
            },
            {
              "internalType": "uint256",
              "name": "createdAt",
              "type": "uint256"
            }
          ],
          "internalType": "struct Characters.Character",
          "name": "",
          "type": "tuple"
        }
      ],
      "stateMutability": "view",
      "type": "function"
    },
    {
      "inputs": [],
      "name": "getMintPrice",
      "outputs": [
        {
          "internalType": "uint256",
          "name": "",
          "type": "uint256"
        }
      ],
      "stateMutability": "view",
      "type": "function"
    },
    {
      "inputs": [
        {
          "internalType": "uint256",
          "name": "",
          "type": "uint256"
        }
      ],
      "name": "isAlive",
      "outputs": [
        {
          "internalType": "bool",
          "name": "",
          "type": "bool"
        }
      ],
      "stateMutability": "view",
      "type": "function"
    },
    {
      "inputs": [
        {
          "internalType": "address",
          "name": "owner",
          "type": "address"
        },
        {
          "internalType": "address",
          "name": "operator",
          "type": "address"
        }
      ],
      "name": "isApprovedForAll",
      "outputs": [
        {
          "internalType": "bool",
          "name": "",
          "type": "bool"
        }
      ],
      "stateMutability": "view",
      "type": "function"
    },
    {
      "inputs": [
        {
          "internalType": "uint256",
          "name": "tokenId",
          "type": "uint256"
        }
      ],
      "name": "killCharacter",
      "outputs": [],
      "stateMutability": "nonpayable",
      "type": "function"
    },
    {
      "inputs": [
        {
          "internalType": "string",
          "name": "name",
          "type": "string"
        },
        {
          "internalType": "string",
          "name": "image",
          "type": "string"
        }
      ],
      "name": "mintCharacter",
      "outputs": [
        {
          "internalType": "uint256",
          "name": "",
          "type": "uint256"
        }
      ],
      "stateMutability": "payable",
      "type": "function"
    },
    {
      "inputs": [],
      "name": "name",
      "outputs": [
        {
          "internalType": "string",
          "name": "",
          "type": "string"
        }
      ],
      "stateMutability": "view",
      "type": "function"
    },
    {
      "inputs": [
        {
          "internalType": "string",
          "name": "",
          "type": "string"
        }
      ],
      "name": "nameToTokenId",
      "outputs": [
        {
          "internalType": "uint256",
          "name": "",
          "type": "uint256"
        }
      ],
      "stateMutability": "view",
      "type": "function"
    },
    {
      "inputs": [],
      "name": "owner",
      "outputs": [
        {
          "internalType": "address",
          "name": "",
          "type": "address"
        }
      ],
      "stateMutability": "view",
      "type": "function"
    },
    {
      "inputs": [
        {
          "internalType": "uint256",
          "name": "tokenId",
          "type": "uint256"
        }
      ],
      "name": "ownerOf",
      "outputs": [
        {
          "internalType": "address",
          "name": "",
          "type": "address"
        }
      ],
      "stateMutability": "view",
      "type": "function"
    },
    {
      "inputs": [],
      "name": "renounceOwnership",
      "outputs": [],
      "stateMutability": "nonpayable",
      "type": "function"
    },
    {
      "inputs": [
        {
          "internalType": "address",
          "name": "from",
          "type": "address"
        },
        {
          "internalType": "address",
          "name": "to",
          "type": "address"
        },
        {
          "internalType": "uint256",
          "name": "tokenId",
          "type": "uint256"
        }
      ],
      "name": "safeTransferFrom",
      "outputs": [],
      "stateMutability": "nonpayable",
      "type": "function"
    },
    {
      "inputs": [
        {
          "internalType": "address",
          "name": "from",
          "type": "address"
        },
        {
          "internalType": "address",
          "name": "to",
          "type": "address"
        },
        {
          "internalType": "uint256",
          "name": "tokenId",
          "type": "uint256"
        },
        {
          "internalType": "bytes",
          "name": "data",
          "type": "bytes"
        }
      ],
      "name": "safeTransferFrom",
      "outputs": [],
      "stateMutability": "nonpayable",
      "type": "function"
    },
    {
      "inputs": [
        {
          "internalType": "address",
          "name": "operator",
          "type": "address"
        },
        {
          "internalType": "bool",
          "name": "approved",
          "type": "bool"
        }
      ],
      "name": "setApprovalForAll",
      "outputs": [],
      "stateMutability": "nonpayable",
      "type": "function"
    },
    {
      "inputs": [
        {
          "internalType": "bytes4",
          "name": "interfaceId",
          "type": "bytes4"
        }
      ],
      "name": "supportsInterface",
      "outputs": [
        {
          "internalType": "bool",
          "name": "",
          "type": "bool"
        }
      ],
      "stateMutability": "view",
      "type": "function"
    },
    {
      "inputs": [],
      "name": "symbol",
      "outputs": [
        {
          "internalType": "string",
          "name": "",
          "type": "string"
        }
      ],
      "stateMutability": "view",
      "type": "function"
    },
    {
      "inputs": [
        {
          "internalType": "uint256",
          "name": "tokenId",
          "type": "uint256"
        }
      ],
      "name": "tokenURI",
      "outputs": [
        {
          "internalType": "string",
          "name": "",
          "type": "string"
        }
      ],
      "stateMutability": "view",
      "type": "function"
    },
    {
      "inputs": [
        {
          "internalType": "address",
          "name": "from",
          "type": "address"
        },
        {
          "internalType": "address",
          "name": "to",
          "type": "address"
        },
        {
          "internalType": "uint256",
          "name": "tokenId",
          "type": "uint256"
        }
      ],
      "name": "transferFrom",
      "outputs": [],
      "stateMutability": "nonpayable",
      "type": "function"
    },
    {
      "inputs": [
        {
          "internalType": "address",
          "name": "newOwner",
          "type": "address"
        }
      ],
      "name": "transferOwnership",
      "outputs": [],
      "stateMutability": "nonpayable",
      "type": "function"
    },
    {
      "inputs": [
        {
          "internalType": "uint256",
          "name": "_newPrice",
          "type": "uint256"
        }
      ],
      "name": "updateBasePrice",
      "outputs": [],
      "stateMutability": "nonpayable",
      "type": "function"
    },
    {
      "inputs": [],
      "name": "withdraw",
      "outputs": [],
      "stateMutability": "nonpayable",
      "type": "function"
    }
  ],
  "bytecode": "0x60806040526000600a553480156200001657600080fd5b50336040518060400160405280601781526020017f576f726c6420436f6d69637320436861726163746572730000000000000000008152506040518060400160405280600381526020017f57434300000000000000000000000000000000000000000000000000000000008152508160009081620000959190620004be565b508060019081620000a79190620004be565b505050600073ffffffffffffffffffffffffffffffffffffffff168173ffffffffffffffffffffffffffffffffffffffff16036200011f5760006040517f1e4fbdf7000000000000000000000000000000000000000000000000000000008152600401620001169190620005ea565b60405180910390fd5b62000130816200017e60201b60201c565b506040518060400160405280601d81526020017f646174613a6170706c69636174696f6e2f6a736f6e3b6261736536342c000000815250600d9081620001779190620004be565b5062000607565b6000600760009054906101000a900473ffffffffffffffffffffffffffffffffffffffff16905081600760006101000a81548173ffffffffffffffffffffffffffffffffffffffff021916908373ffffffffffffffffffffffffffffffffffffffff1602179055508173ffffffffffffffffffffffffffffffffffffffff168173ffffffffffffffffffffffffffffffffffffffff167f8be0079c531659141344cd1fd0a4f28419497f9722a3daafe3b4186f6b6457e060405160405180910390a35050565b600081519050919050565b7f4e487b7100000000000000000000000000000000000000000000000000000000600052604160045260246000fd5b7f4e487b7100000000000000000000000000000000000000000000000000000000600052602260045260246000fd5b60006002820490506001821680620002c657607f821691505b602082108103620002dc57620002db6200027e565b5b50919050565b60008190508160005260206000209050919050565b60006020601f8301049050919050565b600082821b905092915050565b600060088302620003467fffffffffffffffffffffffffffffffffffffffffffffffffffffffffffffffff8262000307565b62000352868362000307565b95508019841693508086168417925050509392505050565b6000819050919050565b6000819050919050565b60006200039f6200039962000393846200036a565b62000374565b6200036a565b9050919050565b6000819050919050565b620003bb836200037e565b620003d3620003ca82620003a6565b84845462000314565b825550505050565b600090565b620003ea620003db565b620003f7818484620003b0565b505050565b5b818110156200041f5762000413600082620003e0565b600181019050620003fd565b5050565b601f8211156200046e576200043881620002e2565b6200044384620002f7565b8101602085101562000453578190505b6200046b6200046285620002f7565b830182620003fc565b50505b505050565b600082821c905092915050565b6000620004936000198460080262000473565b1980831691505092915050565b6000620004ae838362000480565b9150826002028217905092915050565b620004c98262000244565b67ffffffffffffffff811115620004e557620004e46200024f565b5b620004f18254620002ad565b620004fe82828562000423565b600060209050601f83116001811462000536576000841562000521578287015190505b6200052d8582620004a0565b8655506200059d565b601f1984166200054686620002e2565b60005b82811015620005705784890151825560018201915060208501945060208101905062000549565b868310156200059057848901516200058c601f89168262000480565b8355505b6001600288020188555050505b505050505050565b600073ffffffffffffffffffffffffffffffffffffffff82169050919050565b6000620005d282620005a5565b9050919050565b620005e481620005c5565b82525050565b6000602082019050620006016000830184620005d9565b92915050565b613ecf80620006176000396000f3fe60806040526004361061019c5760003560e01c8063715018a6116100ec578063c87b56dd1161008a578063dd00125411610064578063dd001254146105f3578063e985e9c514610630578063f2fde38b1461066d578063fd5baa88146106965761019c565b8063c87b56dd1461053c578063d84b236114610579578063dabb0531146105b65761019c565b806395d89b41116100c657806395d89b4114610494578063a22cb465146104bf578063a7f93ebd146104e8578063b88d4fde146105135761019c565b8063715018a6146104295780638da5cb5b14610440578063909635d11461046b5761019c565b80633ccfd60b116101595780634810bc59116101335780634810bc59146103455780636352211e146103845780636c0360eb146103c157806370a08231146103ec5761019c565b80633ccfd60b146102d5578063416f979e146102ec57806342842e0e1461031c5761019c565b806301ffc9a7146101a157806306fdde03146101de578063081812fc14610209578063095ea7b3146102465780630eb597451461026f57806323b872dd146102ac575b600080fd5b3480156101ad57600080fd5b506101c860048036038101906101c39190612a9f565b6106bf565b6040516101d59190612ae7565b60405180910390f35b3480156101ea57600080fd5b506101f3610720565b6040516102009190612b92565b60405180910390f35b34801561021557600080fd5b50610230600480360381019061022b9190612bea565b6107b2565b60405161023d9190612c58565b60405180910390f35b34801561025257600080fd5b5061026d60048036038101906102689190612c9f565b6107ce565b005b34801561027b57600080fd5b5061029660048036038101906102919190612bea565b6107e4565b6040516102a39190612ae7565b60405180910390f35b3480156102b857600080fd5b506102d360048036038101906102ce9190612cdf565b610837565b005b3480156102e157600080fd5b506102ea610939565b005b61030660048036038101906103019190612e67565b610991565b6040516103139190612eee565b60405180910390f35b34801561032857600080fd5b50610343600480360381019061033e9190612cdf565b610bce565b005b34801561035157600080fd5b5061036c60048036038101906103679190612bea565b610bee565b60405161037b93929190612f09565b60405180910390f35b34801561039057600080fd5b506103ab60048036038101906103a69190612bea565b610d28565b6040516103b89190612c58565b60405180910390f35b3480156103cd57600080fd5b506103d6610d3a565b6040516103e39190612b92565b60405180910390f35b3480156103f857600080fd5b50610413600480360381019061040e9190612f4e565b610dc8565b6040516104209190612eee565b60405180910390f35b34801561043557600080fd5b5061043e610e82565b005b34801561044c57600080fd5b50610455610e96565b6040516104629190612c58565b60405180910390f35b34801561047757600080fd5b50610492600480360381019061048d9190612bea565b610ec0565b005b3480156104a057600080fd5b506104a9610f28565b6040516104b69190612b92565b60405180910390f35b3480156104cb57600080fd5b506104e660048036038101906104e19190612fa7565b610fba565b005b3480156104f457600080fd5b506104fd610fd0565b60405161050a9190612eee565b60405180910390f35b34801561051f57600080fd5b5061053a60048036038101906105359190613088565b611029565b005b34801561054857600080fd5b50610563600480360381019061055e9190612bea565b61104e565b6040516105709190612b92565b60405180910390f35b34801561058557600080fd5b506105a0600480360381019061059b9190612bea565b6110ca565b6040516105ad9190612ae7565b60405180910390f35b3480156105c257600080fd5b506105dd60048036038101906105d89190612bea565b6110ea565b6040516105ea91906131bb565b60405180910390f35b3480156105ff57600080fd5b5061061a600480360381019061061591906131dd565b61128d565b6040516106279190612eee565b60405180910390f35b34801561063c57600080fd5b5061065760048036038101906106529190613226565b6112bb565b6040516106649190612ae7565b60405180910390f35b34801561067957600080fd5b50610694600480360381019061068f9190612f4e565b61134f565b005b3480156106a257600080fd5b506106bd60048036038101906106b89190612bea565b6113d5565b005b6000634906490660e01b7bffffffffffffffffffffffffffffffffffffffffffffffffffffffff1916827bffffffffffffffffffffffffffffffffffffffffffffffffffffffff1916148061071957506107188261141e565b5b9050919050565b60606000805461072f90613295565b80601f016020809104026020016040519081016040528092919081815260200182805461075b90613295565b80156107a85780601f1061077d576101008083540402835291602001916107a8565b820191906000526020600020905b81548152906001019060200180831161078b57829003601f168201915b5050505050905090565b60006107bd82611500565b506107c782611588565b9050919050565b6107e082826107db6115c5565b6115cd565b5050565b60006107ef826115df565b80156108305750600073ffffffffffffffffffffffffffffffffffffffff1661081783610d28565b73ffffffffffffffffffffffffffffffffffffffff1614155b9050919050565b600073ffffffffffffffffffffffffffffffffffffffff168273ffffffffffffffffffffffffffffffffffffffff16036108a95760006040517f64a0ae920000000000000000000000000000000000000000000000000000000081526004016108a09190612c58565b60405180910390fd5b60006108bd83836108b86115c5565b611620565b90508373ffffffffffffffffffffffffffffffffffffffff168173ffffffffffffffffffffffffffffffffffffffff1614610933578382826040517f64283d7b00000000000000000000000000000000000000000000000000000000815260040161092a939291906132c6565b60405180910390fd5b50505050565b610941611873565b610949610e96565b73ffffffffffffffffffffffffffffffffffffffff166108fc479081150290604051600060405180830381858888f1935050505015801561098e573d6000803e3d6000fd5b50565b600080600c846040516109a49190613339565b9081526020016040518091039020549050600081146109c2826118fa565b6040516020016109d291906133c2565b60405160208183030381529060405290610a22576040517f08c379a0000000000000000000000000000000000000000000000000000000008152600401610a199190612b92565b60405180910390fd5b506000610a2d610fd0565b905080341015610a72576040517f08c379a0000000000000000000000000000000000000000000000000000000008152600401610a6990613430565b60405180910390fd5b60086000815480929190610a859061347f565b91905055506000600854905060096000815480929190610aa49061347f565b9190505550604051806060016040528087815260200186815260200142815250600b60008381526020019081526020016000206000820151816000019081610aec9190613673565b506020820151816001019081610b029190613673565b506040820151816002015590505080600c87604051610b219190613339565b90815260200160405180910390208190555060008686610b40426118fa565b604051602001610b52939291906139f1565b60405160208183030381529060405290506000610b6e826119c8565b9050610b7a83826119f5565b610b843384611a51565b827f710aa4629d313ef2cbe4049db1fe839779798f517007fe89bb12fbf599e3f556898987604051610bb893929190612f09565b60405180910390a2829550505050505092915050565b610be983838360405180602001604052806000815250611029565b505050565b600b602052806000526040600020600091509050806000018054610c1190613295565b80601f0160208091040260200160405190810160405280929190818152602001828054610c3d90613295565b8015610c8a5780601f10610c5f57610100808354040283529160200191610c8a565b820191906000526020600020905b815481529060010190602001808311610c6d57829003601f168201915b505050505090806001018054610c9f90613295565b80601f0160208091040260200160405190810160405280929190818152602001828054610ccb90613295565b8015610d185780601f10610ced57610100808354040283529160200191610d18565b820191906000526020600020905b815481529060010190602001808311610cfb57829003601f168201915b5050505050908060020154905083565b6000610d3382611500565b9050919050565b600d8054610d4790613295565b80601f0160208091040260200160405190810160405280929190818152602001828054610d7390613295565b8015610dc05780601f10610d9557610100808354040283529160200191610dc0565b820191906000526020600020905b815481529060010190602001808311610da357829003601f168201915b505050505081565b60008073ffffffffffffffffffffffffffffffffffffffff168273ffffffffffffffffffffffffffffffffffffffff1603610e3b5760006040517f89c62b64000000000000000000000000000000000000000000000000000000008152600401610e329190612c58565b60405180910390fd5b600360008373ffffffffffffffffffffffffffffffffffffffff1673ffffffffffffffffffffffffffffffffffffffff168152602001908152602001600020549050919050565b610e8a611873565b610e946000611b4a565b565b6000600760009054906101000a900473ffffffffffffffffffffffffffffffffffffffff16905090565b610ec8611873565b610ed1816115df565b610f10576040517f08c379a0000000000000000000000000000000000000000000000000000000008152600401610f0790613ad1565b60405180910390fd5b610f24600082610f1f84610d28565b611620565b5050565b606060018054610f3790613295565b80601f0160208091040260200160405190810160405280929190818152602001828054610f6390613295565b8015610fb05780601f10610f8557610100808354040283529160200191610fb0565b820191906000526020600020905b815481529060010190602001808311610f9357829003601f168201915b5050505050905090565b610fcc610fc56115c5565b8383611c10565b5050565b60008060095490506000600a54905060005b8281101561102057670de0b6b3a7640000600a54836110019190613af1565b61100b9190613b62565b915080806110189061347f565b915050610fe2565b50809250505090565b611034848484610837565b61104861103f6115c5565b85858585611d7f565b50505050565b6060611059826115df565b611098576040517f08c379a000000000000000000000000000000000000000000000000000000000815260040161108f90613c05565b60405180910390fd5b600d6110a383611f30565b6040516020016110b4929190613ca8565b6040516020818303038152906040529050919050565b600e6020528060005260406000206000915054906101000a900460ff1681565b6110f26129b5565b6110fb826115df565b61113a576040517f08c379a000000000000000000000000000000000000000000000000000000000815260040161113190613ad1565b60405180910390fd5b600b600083815260200190815260200160002060405180606001604052908160008201805461116890613295565b80601f016020809104026020016040519081016040528092919081815260200182805461119490613295565b80156111e15780601f106111b6576101008083540402835291602001916111e1565b820191906000526020600020905b8154815290600101906020018083116111c457829003601f168201915b505050505081526020016001820180546111fa90613295565b80601f016020809104026020016040519081016040528092919081815260200182805461122690613295565b80156112735780601f1061124857610100808354040283529160200191611273565b820191906000526020600020905b81548152906001019060200180831161125657829003601f168201915b505050505081526020016002820154815250509050919050565b600c818051602081018201805184825260208301602085012081835280955050505050506000915090505481565b6000600560008473ffffffffffffffffffffffffffffffffffffffff1673ffffffffffffffffffffffffffffffffffffffff16815260200190815260200160002060008373ffffffffffffffffffffffffffffffffffffffff1673ffffffffffffffffffffffffffffffffffffffff16815260200190815260200160002060009054906101000a900460ff16905092915050565b611357611873565b600073ffffffffffffffffffffffffffffffffffffffff168173ffffffffffffffffffffffffffffffffffffffff16036113c95760006040517f1e4fbdf70000000000000000000000000000000000000000000000000000000081526004016113c09190612c58565b60405180910390fd5b6113d281611b4a565b50565b6113dd611873565b80600a819055507ffab5bcbec79a8b5888e114fd4b378427aa58d9b237d85056f0ee5b3ea57df8c5816040516114139190612eee565b60405180910390a150565b60007f80ac58cd000000000000000000000000000000000000000000000000000000007bffffffffffffffffffffffffffffffffffffffffffffffffffffffff1916827bffffffffffffffffffffffffffffffffffffffffffffffffffffffff191614806114e957507f5b5e139f000000000000000000000000000000000000000000000000000000007bffffffffffffffffffffffffffffffffffffffffffffffffffffffff1916827bffffffffffffffffffffffffffffffffffffffffffffffffffffffff1916145b806114f957506114f882612043565b5b9050919050565b60008061150c836120ad565b9050600073ffffffffffffffffffffffffffffffffffffffff168173ffffffffffffffffffffffffffffffffffffffff160361157f57826040517f7e2732890000000000000000000000000000000000000000000000000000000081526004016115769190612eee565b60405180910390fd5b80915050919050565b60006004600083815260200190815260200160002060009054906101000a900473ffffffffffffffffffffffffffffffffffffffff169050919050565b600033905090565b6115da83838360016120ea565b505050565b60008073ffffffffffffffffffffffffffffffffffffffff16611601836120ad565b73ffffffffffffffffffffffffffffffffffffffff1614159050919050565b60008073ffffffffffffffffffffffffffffffffffffffff168473ffffffffffffffffffffffffffffffffffffffff160361185f576000600b600085815260200190815260200160002060405180606001604052908160008201805461168590613295565b80601f01602080910402602001604051908101604052809291908181526020018280546116b190613295565b80156116fe5780601f106116d3576101008083540402835291602001916116fe565b820191906000526020600020905b8154815290600101906020018083116116e157829003601f168201915b5050505050815260200160018201805461171790613295565b80601f016020809104026020016040519081016040528092919081815260200182805461174390613295565b80156117905780601f1061176557610100808354040283529160200191611790565b820191906000526020600020905b81548152906001019060200180831161177357829003601f168201915b505050505081526020016002820154815250509050600b6000858152602001908152602001600020600080820160006117c991906129d6565b6001820160006117d991906129d6565b60028201600090555050600c81600001516040516117f79190613339565b9081526020016040518091039020600090556009600081548092919061181c90613ccc565b9190505550837f08292237c5fbd8d89c5af2416be1fd2e3cd605718bd311843b31a3e36cd51cda82600001516040516118559190612b92565b60405180910390a2505b61186a8484846122af565b90509392505050565b61187b6115c5565b73ffffffffffffffffffffffffffffffffffffffff16611899610e96565b73ffffffffffffffffffffffffffffffffffffffff16146118f8576118bc6115c5565b6040517f118cdaa70000000000000000000000000000000000000000000000000000000081526004016118ef9190612c58565b60405180910390fd5b565b606060006001611909846124c9565b01905060008167ffffffffffffffff81111561192857611927612d3c565b5b6040519080825280601f01601f19166020018201604052801561195a5781602001600182028036833780820191505090505b509050600082602001820190505b6001156119bd578080600190039150507f3031323334353637383961626364656600000000000000000000000000000000600a86061a8153600a85816119b1576119b0613b33565b5b04945060008503611968575b819350505050919050565b60606119ee82604051806060016040528060408152602001613e5a60409139600161261c565b9050919050565b80600660008481526020019081526020016000209081611a159190613673565b507ff8e1a15aba9398e019f0b49df1a4fde98ee17ae345cb5f6b5e2c27f5033e8ce782604051611a459190612eee565b60405180910390a15050565b600073ffffffffffffffffffffffffffffffffffffffff168273ffffffffffffffffffffffffffffffffffffffff1603611ac35760006040517f64a0ae92000000000000000000000000000000000000000000000000000000008152600401611aba9190612c58565b60405180910390fd5b6000611ad183836000611620565b9050600073ffffffffffffffffffffffffffffffffffffffff168173ffffffffffffffffffffffffffffffffffffffff1614611b455760006040517f73c6ac6e000000000000000000000000000000000000000000000000000000008152600401611b3c9190612c58565b60405180910390fd5b505050565b6000600760009054906101000a900473ffffffffffffffffffffffffffffffffffffffff16905081600760006101000a81548173ffffffffffffffffffffffffffffffffffffffff021916908373ffffffffffffffffffffffffffffffffffffffff1602179055508173ffffffffffffffffffffffffffffffffffffffff168173ffffffffffffffffffffffffffffffffffffffff167f8be0079c531659141344cd1fd0a4f28419497f9722a3daafe3b4186f6b6457e060405160405180910390a35050565b600073ffffffffffffffffffffffffffffffffffffffff168273ffffffffffffffffffffffffffffffffffffffff1603611c8157816040517f5b08ba18000000000000000000000000000000000000000000000000000000008152600401611c789190612c58565b60405180910390fd5b80600560008573ffffffffffffffffffffffffffffffffffffffff1673ffffffffffffffffffffffffffffffffffffffff16815260200190815260200160002060008473ffffffffffffffffffffffffffffffffffffffff1673ffffffffffffffffffffffffffffffffffffffff16815260200190815260200160002060006101000a81548160ff0219169083151502179055508173ffffffffffffffffffffffffffffffffffffffff168373ffffffffffffffffffffffffffffffffffffffff167f17307eab39ab6107e8899845ad3d59bd9653f200f220920489ca2b5937696c3183604051611d729190612ae7565b60405180910390a3505050565b60008373ffffffffffffffffffffffffffffffffffffffff163b1115611f29578273ffffffffffffffffffffffffffffffffffffffff1663150b7a02868685856040518563ffffffff1660e01b8152600401611dde9493929190613d4a565b6020604051808303816000875af1925050508015611e1a57506040513d601f19601f82011682018060405250810190611e179190613dab565b60015b611e9e573d8060008114611e4a576040519150601f19603f3d011682016040523d82523d6000602084013e611e4f565b606091505b506000815103611e9657836040517f64a0ae92000000000000000000000000000000000000000000000000000000008152600401611e8d9190612c58565b60405180910390fd5b805181602001fd5b63150b7a0260e01b7bffffffffffffffffffffffffffffffffffffffffffffffffffffffff1916817bffffffffffffffffffffffffffffffffffffffffffffffffffffffff191614611f2757836040517f64a0ae92000000000000000000000000000000000000000000000000000000008152600401611f1e9190612c58565b60405180910390fd5b505b5050505050565b6060611f3b82611500565b506000600660008481526020019081526020016000208054611f5c90613295565b80601f0160208091040260200160405190810160405280929190818152602001828054611f8890613295565b8015611fd55780601f10611faa57610100808354040283529160200191611fd5565b820191906000526020600020905b815481529060010190602001808311611fb857829003601f168201915b505050505090506000611fe66127b0565b90506000815103611ffb57819250505061203e565b600082511115612030578082604051602001612018929190613dd8565b6040516020818303038152906040529250505061203e565b612039846127c7565b925050505b919050565b60007f01ffc9a7000000000000000000000000000000000000000000000000000000007bffffffffffffffffffffffffffffffffffffffffffffffffffffffff1916827bffffffffffffffffffffffffffffffffffffffffffffffffffffffff1916149050919050565b60006002600083815260200190815260200160002060009054906101000a900473ffffffffffffffffffffffffffffffffffffffff169050919050565b80806121235750600073ffffffffffffffffffffffffffffffffffffffff168273ffffffffffffffffffffffffffffffffffffffff1614155b1561225757600061213384611500565b9050600073ffffffffffffffffffffffffffffffffffffffff168373ffffffffffffffffffffffffffffffffffffffff161415801561219e57508273ffffffffffffffffffffffffffffffffffffffff168173ffffffffffffffffffffffffffffffffffffffff1614155b80156121b157506121af81846112bb565b155b156121f357826040517fa9fbf51f0000000000000000000000000000000000000000000000000000000081526004016121ea9190612c58565b60405180910390fd5b811561225557838573ffffffffffffffffffffffffffffffffffffffff168273ffffffffffffffffffffffffffffffffffffffff167f8c5be1e5ebec7d5bd14f71427d1e84f3dd0314c0f7b2291e5b200ac8c7c3b92560405160405180910390a45b505b836004600085815260200190815260200160002060006101000a81548173ffffffffffffffffffffffffffffffffffffffff021916908373ffffffffffffffffffffffffffffffffffffffff16021790555050505050565b6000806122bb846120ad565b9050600073ffffffffffffffffffffffffffffffffffffffff168373ffffffffffffffffffffffffffffffffffffffff16146122fd576122fc818486612830565b5b600073ffffffffffffffffffffffffffffffffffffffff168173ffffffffffffffffffffffffffffffffffffffff161461238e5761233f6000856000806120ea565b6001600360008373ffffffffffffffffffffffffffffffffffffffff1673ffffffffffffffffffffffffffffffffffffffff168152602001908152602001600020600082825403925050819055505b600073ffffffffffffffffffffffffffffffffffffffff168573ffffffffffffffffffffffffffffffffffffffff1614612411576001600360008773ffffffffffffffffffffffffffffffffffffffff1673ffffffffffffffffffffffffffffffffffffffff168152602001908152602001600020600082825401925050819055505b846002600086815260200190815260200160002060006101000a81548173ffffffffffffffffffffffffffffffffffffffff021916908373ffffffffffffffffffffffffffffffffffffffff160217905550838573ffffffffffffffffffffffffffffffffffffffff168273ffffffffffffffffffffffffffffffffffffffff167fddf252ad1be2c89b69c2b068fc378daa952ba7f163c4a11628f55a4df523b3ef60405160405180910390a4809150509392505050565b600080600090507a184f03e93ff9f4daa797ed6e38ed64bf6a1f0100000000000000008310612527577a184f03e93ff9f4daa797ed6e38ed64bf6a1f010000000000000000838161251d5761251c613b33565b5b0492506040810190505b6d04ee2d6d415b85acef81000000008310612564576d04ee2d6d415b85acef8100000000838161255a57612559613b33565b5b0492506020810190505b662386f26fc10000831061259357662386f26fc10000838161258957612588613b33565b5b0492506010810190505b6305f5e10083106125bc576305f5e10083816125b2576125b1613b33565b5b0492506008810190505b61271083106125e15761271083816125d7576125d6613b33565b5b0492506004810190505b6064831061260457606483816125fa576125f9613b33565b5b0492506002810190505b600a8310612613576001810190505b80915050919050565b6060600084510361263e576040518060200160405280600081525090506127a9565b6000826126705760036002865160046126579190613af1565b6126619190613dfc565b61266b9190613b62565b612697565b6003600286516126809190613dfc565b61268a9190613b62565b60046126969190613af1565b5b905060008167ffffffffffffffff8111156126b5576126b4612d3c565b5b6040519080825280601f01601f1916602001820160405280156126e75781602001600182028036833780820191505090505b50905060018501602082018788518901602081018051600082525b8284101561275d576003840193508351603f8160121c168701518653600186019550603f81600c1c168701518653600186019550603f8160061c168701518653600186019550603f8116870151865360018601955050612702565b808252891561279d5760038c51066001811461278057600281146127935761279b565b603d6001870353603d600287035361279b565b603d60018703535b505b50505050505080925050505b9392505050565b606060405180602001604052806000815250905090565b60606127d282611500565b5060006127dd6127b0565b905060008151116127fd5760405180602001604052806000815250612828565b80612807846118fa565b604051602001612818929190613dd8565b6040516020818303038152906040525b915050919050565b61283b8383836128f4565b6128ef57600073ffffffffffffffffffffffffffffffffffffffff168373ffffffffffffffffffffffffffffffffffffffff16036128b057806040517f7e2732890000000000000000000000000000000000000000000000000000000081526004016128a79190612eee565b60405180910390fd5b81816040517f177e802f0000000000000000000000000000000000000000000000000000000081526004016128e6929190613e30565b60405180910390fd5b505050565b60008073ffffffffffffffffffffffffffffffffffffffff168373ffffffffffffffffffffffffffffffffffffffff16141580156129ac57508273ffffffffffffffffffffffffffffffffffffffff168473ffffffffffffffffffffffffffffffffffffffff16148061296d575061296c84846112bb565b5b806129ab57508273ffffffffffffffffffffffffffffffffffffffff1661299383611588565b73ffffffffffffffffffffffffffffffffffffffff16145b5b90509392505050565b60405180606001604052806060815260200160608152602001600081525090565b5080546129e290613295565b6000825580601f106129f45750612a13565b601f016020900490600052602060002090810190612a129190612a16565b5b50565b5b80821115612a2f576000816000905550600101612a17565b5090565b6000604051905090565b600080fd5b600080fd5b60007fffffffff0000000000000000000000000000000000000000000000000000000082169050919050565b612a7c81612a47565b8114612a8757600080fd5b50565b600081359050612a9981612a73565b92915050565b600060208284031215612ab557612ab4612a3d565b5b6000612ac384828501612a8a565b91505092915050565b60008115159050919050565b612ae181612acc565b82525050565b6000602082019050612afc6000830184612ad8565b92915050565b600081519050919050565b600082825260208201905092915050565b60005b83811015612b3c578082015181840152602081019050612b21565b60008484015250505050565b6000601f19601f8301169050919050565b6000612b6482612b02565b612b6e8185612b0d565b9350612b7e818560208601612b1e565b612b8781612b48565b840191505092915050565b60006020820190508181036000830152612bac8184612b59565b905092915050565b6000819050919050565b612bc781612bb4565b8114612bd257600080fd5b50565b600081359050612be481612bbe565b92915050565b600060208284031215612c0057612bff612a3d565b5b6000612c0e84828501612bd5565b91505092915050565b600073ffffffffffffffffffffffffffffffffffffffff82169050919050565b6000612c4282612c17565b9050919050565b612c5281612c37565b82525050565b6000602082019050612c6d6000830184612c49565b92915050565b612c7c81612c37565b8114612c8757600080fd5b50565b600081359050612c9981612c73565b92915050565b60008060408385031215612cb657612cb5612a3d565b5b6000612cc485828601612c8a565b9250506020612cd585828601612bd5565b9150509250929050565b600080600060608486031215612cf857612cf7612a3d565b5b6000612d0686828701612c8a565b9350506020612d1786828701612c8a565b9250506040612d2886828701612bd5565b9150509250925092565b600080fd5b600080fd5b7f4e487b7100000000000000000000000000000000000000000000000000000000600052604160045260246000fd5b612d7482612b48565b810181811067ffffffffffffffff82111715612d9357612d92612d3c565b5b80604052505050565b6000612da6612a33565b9050612db28282612d6b565b919050565b600067ffffffffffffffff821115612dd257612dd1612d3c565b5b612ddb82612b48565b9050602081019050919050565b82818337600083830152505050565b6000612e0a612e0584612db7565b612d9c565b905082815260208101848484011115612e2657612e25612d37565b5b612e31848285612de8565b509392505050565b600082601f830112612e4e57612e4d612d32565b5b8135612e5e848260208601612df7565b91505092915050565b60008060408385031215612e7e57612e7d612a3d565b5b600083013567ffffffffffffffff811115612e9c57612e9b612a42565b5b612ea885828601612e39565b925050602083013567ffffffffffffffff811115612ec957612ec8612a42565b5b612ed585828601612e39565b9150509250929050565b612ee881612bb4565b82525050565b6000602082019050612f036000830184612edf565b92915050565b60006060820190508181036000830152612f238186612b59565b90508181036020830152612f378185612b59565b9050612f466040830184612edf565b949350505050565b600060208284031215612f6457612f63612a3d565b5b6000612f7284828501612c8a565b91505092915050565b612f8481612acc565b8114612f8f57600080fd5b50565b600081359050612fa181612f7b565b92915050565b60008060408385031215612fbe57612fbd612a3d565b5b6000612fcc85828601612c8a565b9250506020612fdd85828601612f92565b9150509250929050565b600067ffffffffffffffff82111561300257613001612d3c565b5b61300b82612b48565b9050602081019050919050565b600061302b61302684612fe7565b612d9c565b90508281526020810184848401111561304757613046612d37565b5b613052848285612de8565b509392505050565b600082601f83011261306f5761306e612d32565b5b813561307f848260208601613018565b91505092915050565b600080600080608085870312156130a2576130a1612a3d565b5b60006130b087828801612c8a565b94505060206130c187828801612c8a565b93505060406130d287828801612bd5565b925050606085013567ffffffffffffffff8111156130f3576130f2612a42565b5b6130ff8782880161305a565b91505092959194509250565b600082825260208201905092915050565b600061312782612b02565b613131818561310b565b9350613141818560208601612b1e565b61314a81612b48565b840191505092915050565b61315e81612bb4565b82525050565b60006060830160008301518482036000860152613181828261311c565b9150506020830151848203602086015261319b828261311c565b91505060408301516131b06040860182613155565b508091505092915050565b600060208201905081810360008301526131d58184613164565b905092915050565b6000602082840312156131f3576131f2612a3d565b5b600082013567ffffffffffffffff81111561321157613210612a42565b5b61321d84828501612e39565b91505092915050565b6000806040838503121561323d5761323c612a3d565b5b600061324b85828601612c8a565b925050602061325c85828601612c8a565b9150509250929050565b7f4e487b7100000000000000000000000000000000000000000000000000000000600052602260045260246000fd5b600060028204905060018216806132ad57607f821691505b6020821081036132c0576132bf613266565b5b50919050565b60006060820190506132db6000830186612c49565b6132e86020830185612edf565b6132f56040830184612c49565b949350505050565b600081905092915050565b600061331382612b02565b61331d81856132fd565b935061332d818560208601612b1e565b80840191505092915050565b60006133458284613308565b915081905092915050565b7f436861726163746572206e616d6520616c72656164792065786973747320776960008201527f746820746f6b656e2049443a2000000000000000000000000000000000000000602082015250565b60006133ac602d836132fd565b91506133b782613350565b602d82019050919050565b60006133cd8261339f565b91506133d98284613308565b915081905092915050565b7f496e73756666696369656e74207061796d656e74000000000000000000000000600082015250565b600061341a601483612b0d565b9150613425826133e4565b602082019050919050565b600060208201905081810360008301526134498161340d565b9050919050565b7f4e487b7100000000000000000000000000000000000000000000000000000000600052601160045260246000fd5b600061348a82612bb4565b91507fffffffffffffffffffffffffffffffffffffffffffffffffffffffffffffffff82036134bc576134bb613450565b5b600182019050919050565b60008190508160005260206000209050919050565b60006020601f8301049050919050565b600082821b905092915050565b6000600883026135297fffffffffffffffffffffffffffffffffffffffffffffffffffffffffffffffff826134ec565b61353386836134ec565b95508019841693508086168417925050509392505050565b6000819050919050565b600061357061356b61356684612bb4565b61354b565b612bb4565b9050919050565b6000819050919050565b61358a83613555565b61359e61359682613577565b8484546134f9565b825550505050565b600090565b6135b36135a6565b6135be818484613581565b505050565b5b818110156135e2576135d76000826135ab565b6001810190506135c4565b5050565b601f821115613627576135f8816134c7565b613601846134dc565b81016020851015613610578190505b61362461361c856134dc565b8301826135c3565b50505b505050565b600082821c905092915050565b600061364a6000198460080261362c565b1980831691505092915050565b60006136638383613639565b9150826002028217905092915050565b61367c82612b02565b67ffffffffffffffff81111561369557613694612d3c565b5b61369f8254613295565b6136aa8282856135e6565b600060209050601f8311600181146136dd57600084156136cb578287015190505b6136d58582613657565b86555061373d565b601f1984166136eb866134c7565b60005b82811015613713578489015182556001820191506020850194506020810190506136ee565b86831015613730578489015161372c601f891682613639565b8355505b6001600288020188555050505b505050505050565b7f7b226e616d65223a220000000000000000000000000000000000000000000000600082015250565b600061377b6009836132fd565b915061378682613745565b600982019050919050565b7f222c000000000000000000000000000000000000000000000000000000000000600082015250565b60006137c76002836132fd565b91506137d282613791565b600282019050919050565b7f226465736372697074696f6e223a2241206368617261637465722066726f6d2060008201527f576f726c6420436f6d696373222c000000000000000000000000000000000000602082015250565b6000613839602e836132fd565b9150613844826137dd565b602e82019050919050565b7f22696d616765223a220000000000000000000000000000000000000000000000600082015250565b60006138856009836132fd565b91506138908261384f565b600982019050919050565b7f2261747472696275746573223a5b000000000000000000000000000000000000600082015250565b60006138d1600e836132fd565b91506138dc8261389b565b600e82019050919050565b7f7b2274726169745f74797065223a2243726561746564204174222c2276616c7560008201527f65223a2200000000000000000000000000000000000000000000000000000000602082015250565b60006139436024836132fd565b915061394e826138e7565b602482019050919050565b7f227d000000000000000000000000000000000000000000000000000000000000600082015250565b600061398f6002836132fd565b915061399a82613959565b600282019050919050565b7f5d7d000000000000000000000000000000000000000000000000000000000000600082015250565b60006139db6002836132fd565b91506139e6826139a5565b600282019050919050565b60006139fc8261376e565b9150613a088286613308565b9150613a13826137ba565b9150613a1e8261382c565b9150613a2982613878565b9150613a358285613308565b9150613a40826137ba565b9150613a4b826138c4565b9150613a5682613936565b9150613a628284613308565b9150613a6d82613982565b9150613a78826139ce565b9150819050949350505050565b7f43686172616374657220646f6573206e6f742065786973740000000000000000600082015250565b6000613abb601883612b0d565b9150613ac682613a85565b602082019050919050565b60006020820190508181036000830152613aea81613aae565b9050919050565b6000613afc82612bb4565b9150613b0783612bb4565b9250828202613b1581612bb4565b91508282048414831517613b2c57613b2b613450565b5b5092915050565b7f4e487b7100000000000000000000000000000000000000000000000000000000600052601260045260246000fd5b6000613b6d82612bb4565b9150613b7883612bb4565b925082613b8857613b87613b33565b5b828204905092915050565b7f45524337323155524953746f726167653a2055524920717565727920666f722060008201527f6e6f6e6578697374656e7420746f6b656e000000000000000000000000000000602082015250565b6000613bef603183612b0d565b9150613bfa82613b93565b604082019050919050565b60006020820190508181036000830152613c1e81613be2565b9050919050565b60008154613c3281613295565b613c3c81866132fd565b94506001821660008114613c575760018114613c6c57613c9f565b60ff1983168652811515820286019350613c9f565b613c75856134c7565b60005b83811015613c9757815481890152600182019150602081019050613c78565b838801955050505b50505092915050565b6000613cb48285613c25565b9150613cc08284613308565b91508190509392505050565b6000613cd782612bb4565b915060008203613cea57613ce9613450565b5b600182039050919050565b600081519050919050565b600082825260208201905092915050565b6000613d1c82613cf5565b613d268185613d00565b9350613d36818560208601612b1e565b613d3f81612b48565b840191505092915050565b6000608082019050613d5f6000830187612c49565b613d6c6020830186612c49565b613d796040830185612edf565b8181036060830152613d8b8184613d11565b905095945050505050565b600081519050613da581612a73565b92915050565b600060208284031215613dc157613dc0612a3d565b5b6000613dcf84828501613d96565b91505092915050565b6000613de48285613308565b9150613df08284613308565b91508190509392505050565b6000613e0782612bb4565b9150613e1283612bb4565b9250828201905080821115613e2a57613e29613450565b5b92915050565b6000604082019050613e456000830185612c49565b613e526020830184612edf565b939250505056fe4142434445464748494a4b4c4d4e4f505152535455565758595a6162636465666768696a6b6c6d6e6f707172737475767778797a303132333435363738392b2fa2646970667358221220af337d7e5b25a5ef76c6dee0836cfab8ea577f27629e2b61096ec1da350cc61964736f6c63430008140033",
  "linkReferences": {},
  "deployedLinkReferences": {}
}