{
  "_format": "hh-sol-artifact-1",
  "contractName": "Props",
  "sourceName": "contracts/Props.sol",
  "abi": [
    {
      "inputs": [],
      "stateMutability": "nonpayable",
      "type": "constructor"
    },
    {
      "inputs": [
        {
          "internalType": "address",
          "name": "sender",
          "type": "address"
        },
        {
          "internalType": "uint256",
          "name": "tokenId",
          "type": "uint256"
        },
        {
          "internalType": "address",
          "name": "owner",
          "type": "address"
        }
      ],
      "name": "ERC721IncorrectOwner",
      "type": "error"
    },
    {
      "inputs": [
        {
          "internalType": "address",
          "name": "operator",
          "type": "address"
        },
        {
          "internalType": "uint256",
          "name": "tokenId",
          "type": "uint256"
        }
      ],
      "name": "ERC721InsufficientApproval",
      "type": "error"
    },
    {
      "inputs": [
        {
          "internalType": "address",
          "name": "approver",
          "type": "address"
        }
      ],
      "name": "ERC721InvalidApprover",
      "type": "error"
    },
    {
      "inputs": [
        {
          "internalType": "address",
          "name": "operator",
          "type": "address"
        }
      ],
      "name": "ERC721InvalidOperator",
      "type": "error"
    },
    {
      "inputs": [
        {
          "internalType": "address",
          "name": "owner",
          "type": "address"
        }
      ],
      "name": "ERC721InvalidOwner",
      "type": "error"
    },
    {
      "inputs": [
        {
          "internalType": "address",
          "name": "receiver",
          "type": "address"
        }
      ],
      "name": "ERC721InvalidReceiver",
      "type": "error"
    },
    {
      "inputs": [
        {
          "internalType": "address",
          "name": "sender",
          "type": "address"
        }
      ],
      "name": "ERC721InvalidSender",
      "type": "error"
    },
    {
      "inputs": [
        {
          "internalType": "uint256",
          "name": "tokenId",
          "type": "uint256"
        }
      ],
      "name": "ERC721NonexistentToken",
      "type": "error"
    },
    {
      "inputs": [
        {
          "internalType": "address",
          "name": "owner",
          "type": "address"
        }
      ],
      "name": "OwnableInvalidOwner",
      "type": "error"
    },
    {
      "inputs": [
        {
          "internalType": "address",
          "name": "account",
          "type": "address"
        }
      ],
      "name": "OwnableUnauthorizedAccount",
      "type": "error"
    },
    {
      "anonymous": false,
      "inputs": [
        {
          "indexed": true,
          "internalType": "address",
          "name": "owner",
          "type": "address"
        },
        {
          "indexed": true,
          "internalType": "address",
          "name": "approved",
          "type": "address"
        },
        {
          "indexed": true,
          "internalType": "uint256",
          "name": "tokenId",
          "type": "uint256"
        }
      ],
      "name": "Approval",
      "type": "event"
    },
    {
      "anonymous": false,
      "inputs": [
        {
          "indexed": true,
          "internalType": "address",
          "name": "owner",
          "type": "address"
        },
        {
          "indexed": true,
          "internalType": "address",
          "name": "operator",
          "type": "address"
        },
        {
          "indexed": false,
          "internalType": "bool",
          "name": "approved",
          "type": "bool"
        }
      ],
      "name": "ApprovalForAll",
      "type": "event"
    },
    {
      "anonymous": false,
      "inputs": [
        {
          "indexed": false,
          "internalType": "uint256",
          "name": "newFee",
          "type": "uint256"
        }
      ],
      "name": "BaseFeeUpdated",
      "type": "event"
    },
    {
      "anonymous": false,
      "inputs": [
        {
          "indexed": false,
          "internalType": "uint256",
          "name": "_fromTokenId",
          "type": "uint256"
        },
        {
          "indexed": false,
          "internalType": "uint256",
          "name": "_toTokenId",
          "type": "uint256"
        }
      ],
      "name": "BatchMetadataUpdate",
      "type": "event"
    },
    {
      "anonymous": false,
      "inputs": [
        {
          "indexed": false,
          "internalType": "uint256",
          "name": "_tokenId",
          "type": "uint256"
        }
      ],
      "name": "MetadataUpdate",
      "type": "event"
    },
    {
      "anonymous": false,
      "inputs": [
        {
          "indexed": true,
          "internalType": "address",
          "name": "previousOwner",
          "type": "address"
        },
        {
          "indexed": true,
          "internalType": "address",
          "name": "newOwner",
          "type": "address"
        }
      ],
      "name": "OwnershipTransferred",
      "type": "event"
    },
    {
      "anonymous": false,
      "inputs": [
        {
          "indexed": true,
          "internalType": "uint256",
          "name": "tokenId",
          "type": "uint256"
        },
        {
          "indexed": false,
          "internalType": "string",
          "name": "name",
          "type": "string"
        }
      ],
      "name": "PropKilled",
      "type": "event"
    },
    {
      "anonymous": false,
      "inputs": [
        {
          "indexed": true,
          "internalType": "uint256",
          "name": "tokenId",
          "type": "uint256"
        },
        {
          "indexed": false,
          "internalType": "string",
          "name": "name",
          "type": "string"
        },
        {
          "indexed": false,
          "internalType": "string",
          "name": "image",
          "type": "string"
        }
      ],
      "name": "PropMinted",
      "type": "event"
    },
    {
      "anonymous": false,
      "inputs": [
        {
          "indexed": true,
          "internalType": "address",
          "name": "from",
          "type": "address"
        },
        {
          "indexed": true,
          "internalType": "address",
          "name": "to",
          "type": "address"
        },
        {
          "indexed": true,
          "internalType": "uint256",
          "name": "tokenId",
          "type": "uint256"
        }
      ],
      "name": "Transfer",
      "type": "event"
    },
    {
      "inputs": [],
      "name": "PROP_FEE",
      "outputs": [
        {
          "internalType": "uint256",
          "name": "",
          "type": "uint256"
        }
      ],
      "stateMutability": "view",
      "type": "function"
    },
    {
      "inputs": [
        {
          "internalType": "address",
          "name": "to",
          "type": "address"
        },
        {
          "internalType": "uint256",
          "name": "tokenId",
          "type": "uint256"
        }
      ],
      "name": "approve",
      "outputs": [],
      "stateMutability": "nonpayable",
      "type": "function"
    },
    {
      "inputs": [
        {
          "internalType": "address",
          "name": "owner",
          "type": "address"
        }
      ],
      "name": "balanceOf",
      "outputs": [
        {
          "internalType": "uint256",
          "name": "",
          "type": "uint256"
        }
      ],
      "stateMutability": "view",
      "type": "function"
    },
    {
      "inputs": [],
      "name": "baseURI",
      "outputs": [
        {
          "internalType": "string",
          "name": "",
          "type": "string"
        }
      ],
      "stateMutability": "view",
      "type": "function"
    },
    {
      "inputs": [
        {
          "internalType": "uint256",
          "name": "tokenId",
          "type": "uint256"
        }
      ],
      "name": "checkIsAlive",
      "outputs": [
        {
          "internalType": "bool",
          "name": "",
          "type": "bool"
        }
      ],
      "stateMutability": "view",
      "type": "function"
    },
    {
      "inputs": [
        {
          "internalType": "uint256",
          "name": "tokenId",
          "type": "uint256"
        }
      ],
      "name": "getApproved",
      "outputs": [
        {
          "internalType": "address",
          "name": "",
          "type": "address"
        }
      ],
      "stateMutability": "view",
      "type": "function"
    },
    {
      "inputs": [],
      "name": "getMintPrice",
      "outputs": [
        {
          "internalType": "uint256",
          "name": "",
          "type": "uint256"
        }
      ],
      "stateMutability": "view",
      "type": "function"
    },
    {
      "inputs": [
        {
          "internalType": "uint256",
          "name": "tokenId",
          "type": "uint256"
        }
      ],
      "name": "getProp",
      "outputs": [
        {
          "components": [
            {
              "internalType": "string",
              "name": "name",
              "type": "string"
            },
            {
              "internalType": "string",
              "name": "image",
              "type": "string"
            },
            {
              "internalType": "uint256",
              "name": "createdAt",
              "type": "uint256"
            }
          ],
          "internalType": "struct Props.Prop",
          "name": "",
          "type": "tuple"
        }
      ],
      "stateMutability": "view",
      "type": "function"
    },
    {
      "inputs": [
        {
          "internalType": "uint256",
          "name": "",
          "type": "uint256"
        }
      ],
      "name": "isAlive",
      "outputs": [
        {
          "internalType": "bool",
          "name": "",
          "type": "bool"
        }
      ],
      "stateMutability": "view",
      "type": "function"
    },
    {
      "inputs": [
        {
          "internalType": "address",
          "name": "owner",
          "type": "address"
        },
        {
          "internalType": "address",
          "name": "operator",
          "type": "address"
        }
      ],
      "name": "isApprovedForAll",
      "outputs": [
        {
          "internalType": "bool",
          "name": "",
          "type": "bool"
        }
      ],
      "stateMutability": "view",
      "type": "function"
    },
    {
      "inputs": [
        {
          "internalType": "uint256",
          "name": "tokenId",
          "type": "uint256"
        }
      ],
      "name": "killProp",
      "outputs": [],
      "stateMutability": "nonpayable",
      "type": "function"
    },
    {
      "inputs": [
        {
          "internalType": "string",
          "name": "name",
          "type": "string"
        },
        {
          "internalType": "string",
          "name": "image",
          "type": "string"
        }
      ],
      "name": "mintProp",
      "outputs": [
        {
          "internalType": "uint256",
          "name": "",
          "type": "uint256"
        }
      ],
      "stateMutability": "payable",
      "type": "function"
    },
    {
      "inputs": [],
      "name": "name",
      "outputs": [
        {
          "internalType": "string",
          "name": "",
          "type": "string"
        }
      ],
      "stateMutability": "view",
      "type": "function"
    },
    {
      "inputs": [
        {
          "internalType": "string",
          "name": "",
          "type": "string"
        }
      ],
      "name": "nameToTokenId",
      "outputs": [
        {
          "internalType": "uint256",
          "name": "",
          "type": "uint256"
        }
      ],
      "stateMutability": "view",
      "type": "function"
    },
    {
      "inputs": [],
      "name": "owner",
      "outputs": [
        {
          "internalType": "address",
          "name": "",
          "type": "address"
        }
      ],
      "stateMutability": "view",
      "type": "function"
    },
    {
      "inputs": [
        {
          "internalType": "uint256",
          "name": "tokenId",
          "type": "uint256"
        }
      ],
      "name": "ownerOf",
      "outputs": [
        {
          "internalType": "address",
          "name": "",
          "type": "address"
        }
      ],
      "stateMutability": "view",
      "type": "function"
    },
    {
      "inputs": [
        {
          "internalType": "uint256",
          "name": "",
          "type": "uint256"
        }
      ],
      "name": "props",
      "outputs": [
        {
          "internalType": "string",
          "name": "name",
          "type": "string"
        },
        {
          "internalType": "string",
          "name": "image",
          "type": "string"
        },
        {
          "internalType": "uint256",
          "name": "createdAt",
          "type": "uint256"
        }
      ],
      "stateMutability": "view",
      "type": "function"
    },
    {
      "inputs": [],
      "name": "renounceOwnership",
      "outputs": [],
      "stateMutability": "nonpayable",
      "type": "function"
    },
    {
      "inputs": [
        {
          "internalType": "address",
          "name": "from",
          "type": "address"
        },
        {
          "internalType": "address",
          "name": "to",
          "type": "address"
        },
        {
          "internalType": "uint256",
          "name": "tokenId",
          "type": "uint256"
        }
      ],
      "name": "safeTransferFrom",
      "outputs": [],
      "stateMutability": "nonpayable",
      "type": "function"
    },
    {
      "inputs": [
        {
          "internalType": "address",
          "name": "from",
          "type": "address"
        },
        {
          "internalType": "address",
          "name": "to",
          "type": "address"
        },
        {
          "internalType": "uint256",
          "name": "tokenId",
          "type": "uint256"
        },
        {
          "internalType": "bytes",
          "name": "data",
          "type": "bytes"
        }
      ],
      "name": "safeTransferFrom",
      "outputs": [],
      "stateMutability": "nonpayable",
      "type": "function"
    },
    {
      "inputs": [
        {
          "internalType": "address",
          "name": "operator",
          "type": "address"
        },
        {
          "internalType": "bool",
          "name": "approved",
          "type": "bool"
        }
      ],
      "name": "setApprovalForAll",
      "outputs": [],
      "stateMutability": "nonpayable",
      "type": "function"
    },
    {
      "inputs": [
        {
          "internalType": "bytes4",
          "name": "interfaceId",
          "type": "bytes4"
        }
      ],
      "name": "supportsInterface",
      "outputs": [
        {
          "internalType": "bool",
          "name": "",
          "type": "bool"
        }
      ],
      "stateMutability": "view",
      "type": "function"
    },
    {
      "inputs": [],
      "name": "symbol",
      "outputs": [
        {
          "internalType": "string",
          "name": "",
          "type": "string"
        }
      ],
      "stateMutability": "view",
      "type": "function"
    },
    {
      "inputs": [
        {
          "internalType": "uint256",
          "name": "tokenId",
          "type": "uint256"
        }
      ],
      "name": "tokenURI",
      "outputs": [
        {
          "internalType": "string",
          "name": "",
          "type": "string"
        }
      ],
      "stateMutability": "view",
      "type": "function"
    },
    {
      "inputs": [
        {
          "internalType": "address",
          "name": "from",
          "type": "address"
        },
        {
          "internalType": "address",
          "name": "to",
          "type": "address"
        },
        {
          "internalType": "uint256",
          "name": "tokenId",
          "type": "uint256"
        }
      ],
      "name": "transferFrom",
      "outputs": [],
      "stateMutability": "nonpayable",
      "type": "function"
    },
    {
      "inputs": [
        {
          "internalType": "address",
          "name": "newOwner",
          "type": "address"
        }
      ],
      "name": "transferOwnership",
      "outputs": [],
      "stateMutability": "nonpayable",
      "type": "function"
    },
    {
      "inputs": [
        {
          "internalType": "uint256",
          "name": "_newFee",
          "type": "uint256"
        }
      ],
      "name": "updateBaseFee",
      "outputs": [],
      "stateMutability": "nonpayable",
      "type": "function"
    },
    {
      "inputs": [],
      "name": "withdraw",
      "outputs": [],
      "stateMutability": "nonpayable",
      "type": "function"
    }
  ],
  "bytecode": "0x60806040526000600a553480156200001657600080fd5b50336040518060400160405280601281526020017f576f726c6420436f6d6963732050726f707300000000000000000000000000008152506040518060400160405280600381526020017f57435000000000000000000000000000000000000000000000000000000000008152508160009081620000959190620004be565b508060019081620000a79190620004be565b505050600073ffffffffffffffffffffffffffffffffffffffff168173ffffffffffffffffffffffffffffffffffffffff16036200011f5760006040517f1e4fbdf7000000000000000000000000000000000000000000000000000000008152600401620001169190620005ea565b60405180910390fd5b62000130816200017e60201b60201c565b506040518060400160405280601d81526020017f646174613a6170706c69636174696f6e2f6a736f6e3b6261736536342c000000815250600d9081620001779190620004be565b5062000607565b6000600760009054906101000a900473ffffffffffffffffffffffffffffffffffffffff16905081600760006101000a81548173ffffffffffffffffffffffffffffffffffffffff021916908373ffffffffffffffffffffffffffffffffffffffff1602179055508173ffffffffffffffffffffffffffffffffffffffff168173ffffffffffffffffffffffffffffffffffffffff167f8be0079c531659141344cd1fd0a4f28419497f9722a3daafe3b4186f6b6457e060405160405180910390a35050565b600081519050919050565b7f4e487b7100000000000000000000000000000000000000000000000000000000600052604160045260246000fd5b7f4e487b7100000000000000000000000000000000000000000000000000000000600052602260045260246000fd5b60006002820490506001821680620002c657607f821691505b602082108103620002dc57620002db6200027e565b5b50919050565b60008190508160005260206000209050919050565b60006020601f8301049050919050565b600082821b905092915050565b600060088302620003467fffffffffffffffffffffffffffffffffffffffffffffffffffffffffffffffff8262000307565b62000352868362000307565b95508019841693508086168417925050509392505050565b6000819050919050565b6000819050919050565b60006200039f6200039962000393846200036a565b62000374565b6200036a565b9050919050565b6000819050919050565b620003bb836200037e565b620003d3620003ca82620003a6565b84845462000314565b825550505050565b600090565b620003ea620003db565b620003f7818484620003b0565b505050565b5b818110156200041f5762000413600082620003e0565b600181019050620003fd565b5050565b601f8211156200046e576200043881620002e2565b6200044384620002f7565b8101602085101562000453578190505b6200046b6200046285620002f7565b830182620003fc565b50505b505050565b600082821c905092915050565b6000620004936000198460080262000473565b1980831691505092915050565b6000620004ae838362000480565b9150826002028217905092915050565b620004c98262000244565b67ffffffffffffffff811115620004e557620004e46200024f565b5b620004f18254620002ad565b620004fe82828562000423565b600060209050601f83116001811462000536576000841562000521578287015190505b6200052d8582620004a0565b8655506200059d565b601f1984166200054686620002e2565b60005b82811015620005705784890151825560018201915060208501945060208101905062000549565b868310156200059057848901516200058c601f89168262000480565b8355505b6001600288020188555050505b505050505050565b600073ffffffffffffffffffffffffffffffffffffffff82169050919050565b6000620005d282620005a5565b9050919050565b620005e481620005c5565b82525050565b6000602082019050620006016000830184620005d9565b92915050565b613f5c80620006176000396000f3fe6080604052600436106101b75760003560e01c80638da5cb5b116100ec578063c87b56dd1161008a578063e985e9c511610064578063e985e9c514610637578063f2fde38b14610674578063f3c821b61461069d578063fda54c16146106c6576101b7565b8063c87b56dd14610580578063d84b2361146105bd578063dd001254146105fa576101b7565b806395d89b41116100c657806395d89b41146104d8578063a22cb46514610503578063a7f93ebd1461052c578063b88d4fde14610557576101b7565b80638da5cb5b146104475780638e690186146104725780638e9ec3721461049b576101b7565b80633ccfd60b116101595780636352211e116101335780636352211e1461038b5780636c0360eb146103c857806370a08231146103f3578063715018a614610430576101b7565b80633ccfd60b1461032057806342842e0e14610337578063439bae2914610360576101b7565b8063081812fc11610195578063081812fc14610254578063095ea7b3146102915780630eb59745146102ba57806323b872dd146102f7576101b7565b806301ffc9a7146101bc57806304e7bc3c146101f957806306fdde0314610229575b600080fd5b3480156101c857600080fd5b506101e360048036038101906101de9190612ab1565b610705565b6040516101f09190612af9565b60405180910390f35b610213600480360381019061020e9190612c5a565b610766565b6040516102209190612ceb565b60405180910390f35b34801561023557600080fd5b5061023e6109b9565b60405161024b9190612d85565b60405180910390f35b34801561026057600080fd5b5061027b60048036038101906102769190612dd3565b610a4b565b6040516102889190612e41565b60405180910390f35b34801561029d57600080fd5b506102b860048036038101906102b39190612e88565b610a67565b005b3480156102c657600080fd5b506102e160048036038101906102dc9190612dd3565b610a7d565b6040516102ee9190612af9565b60405180910390f35b34801561030357600080fd5b5061031e60048036038101906103199190612ec8565b610ad0565b005b34801561032c57600080fd5b50610335610bd2565b005b34801561034357600080fd5b5061035e60048036038101906103599190612ec8565b610c2a565b005b34801561036c57600080fd5b50610375610c4a565b6040516103829190612ceb565b60405180910390f35b34801561039757600080fd5b506103b260048036038101906103ad9190612dd3565b610c50565b6040516103bf9190612e41565b60405180910390f35b3480156103d457600080fd5b506103dd610c62565b6040516103ea9190612d85565b60405180910390f35b3480156103ff57600080fd5b5061041a60048036038101906104159190612f1b565b610cf0565b6040516104279190612ceb565b60405180910390f35b34801561043c57600080fd5b50610445610daa565b005b34801561045357600080fd5b5061045c610dbe565b6040516104699190612e41565b60405180910390f35b34801561047e57600080fd5b5061049960048036038101906104949190612dd3565b610de8565b005b3480156104a757600080fd5b506104c260048036038101906104bd9190612dd3565b610e31565b6040516104cf9190612ff8565b60405180910390f35b3480156104e457600080fd5b506104ed610fd4565b6040516104fa9190612d85565b60405180910390f35b34801561050f57600080fd5b5061052a60048036038101906105259190613046565b611066565b005b34801561053857600080fd5b5061054161107c565b60405161054e9190612ceb565b60405180910390f35b34801561056357600080fd5b5061057e60048036038101906105799190613127565b611086565b005b34801561058c57600080fd5b506105a760048036038101906105a29190612dd3565b6110ab565b6040516105b49190612d85565b60405180910390f35b3480156105c957600080fd5b506105e460048036038101906105df9190612dd3565b611127565b6040516105f19190612af9565b60405180910390f35b34801561060657600080fd5b50610621600480360381019061061c91906131aa565b611147565b60405161062e9190612ceb565b60405180910390f35b34801561064357600080fd5b5061065e600480360381019061065991906131f3565b611175565b60405161066b9190612af9565b60405180910390f35b34801561068057600080fd5b5061069b60048036038101906106969190612f1b565b611209565b005b3480156106a957600080fd5b506106c460048036038101906106bf9190612dd3565b61128f565b005b3480156106d257600080fd5b506106ed60048036038101906106e89190612dd3565b6112f7565b6040516106fc93929190613233565b60405180910390f35b6000634906490660e01b7bffffffffffffffffffffffffffffffffffffffffffffffffffffffff1916827bffffffffffffffffffffffffffffffffffffffffffffffffffffffff1916148061075f575061075e82611431565b5b9050919050565b6000600a543410156107ad576040517f08c379a00000000000000000000000000000000000000000000000000000000081526004016107a4906132c4565b60405180910390fd5b60008351116107f1576040517f08c379a00000000000000000000000000000000000000000000000000000000081526004016107e890613330565b60405180910390fd5b6000825111610835576040517f08c379a000000000000000000000000000000000000000000000000000000000815260040161082c9061339c565b60405180910390fd5b60086000815480929190610848906133eb565b91905055506000600854905060096000815480929190610867906133eb565b9190505550604051806060016040528085815260200184815260200142815250600b600083815260200190815260200160002060008201518160000190816108af919061363f565b5060208201518160010190816108c5919061363f565b506040820151816002015590505080600c856040516108e4919061374d565b9081526020016040518091039020819055506000848461090342611513565b60405160200161091593929190613a10565b60405160208183030381529060405290506000610931826115e1565b905061093d838261160e565b610947338461166a565b6001600e600085815260200190815260200160002060006101000a81548160ff021916908315150217905550827f72594a8b76332d9e094513773598cdb6f9afaa3f1634b552ea1b10ab585ded2587876040516109a5929190613aa4565b60405180910390a282935050505092915050565b6060600080546109c890613462565b80601f01602080910402602001604051908101604052809291908181526020018280546109f490613462565b8015610a415780601f10610a1657610100808354040283529160200191610a41565b820191906000526020600020905b815481529060010190602001808311610a2457829003601f168201915b5050505050905090565b6000610a5682611763565b50610a60826117eb565b9050919050565b610a798282610a74611828565b611830565b5050565b6000610a8882611842565b8015610ac95750600073ffffffffffffffffffffffffffffffffffffffff16610ab083610c50565b73ffffffffffffffffffffffffffffffffffffffff1614155b9050919050565b600073ffffffffffffffffffffffffffffffffffffffff168273ffffffffffffffffffffffffffffffffffffffff1603610b425760006040517f64a0ae92000000000000000000000000000000000000000000000000000000008152600401610b399190612e41565b60405180910390fd5b6000610b568383610b51611828565b611883565b90508373ffffffffffffffffffffffffffffffffffffffff168173ffffffffffffffffffffffffffffffffffffffff1614610bcc578382826040517f64283d7b000000000000000000000000000000000000000000000000000000008152600401610bc393929190613adb565b60405180910390fd5b50505050565b610bda611ad5565b610be2610dbe565b73ffffffffffffffffffffffffffffffffffffffff166108fc479081150290604051600060405180830381858888f19350505050158015610c27573d6000803e3d6000fd5b50565b610c4583838360405180602001604052806000815250611086565b505050565b600a5481565b6000610c5b82611763565b9050919050565b600d8054610c6f90613462565b80601f0160208091040260200160405190810160405280929190818152602001828054610c9b90613462565b8015610ce85780601f10610cbd57610100808354040283529160200191610ce8565b820191906000526020600020905b815481529060010190602001808311610ccb57829003601f168201915b505050505081565b60008073ffffffffffffffffffffffffffffffffffffffff168273ffffffffffffffffffffffffffffffffffffffff1603610d635760006040517f89c62b64000000000000000000000000000000000000000000000000000000008152600401610d5a9190612e41565b60405180910390fd5b600360008373ffffffffffffffffffffffffffffffffffffffff1673ffffffffffffffffffffffffffffffffffffffff168152602001908152602001600020549050919050565b610db2611ad5565b610dbc6000611b5c565b565b6000600760009054906101000a900473ffffffffffffffffffffffffffffffffffffffff16905090565b610df0611ad5565b80600a819055507f803bee7e92bbc6ae7a1551f9f4ed3e31a8ea8df32e93332f41b0028f1091f9c381604051610e269190612ceb565b60405180910390a150565b610e396129c7565b610e4282611842565b610e81576040517f08c379a0000000000000000000000000000000000000000000000000000000008152600401610e7890613b5e565b60405180910390fd5b600b6000838152602001908152602001600020604051806060016040529081600082018054610eaf90613462565b80601f0160208091040260200160405190810160405280929190818152602001828054610edb90613462565b8015610f285780601f10610efd57610100808354040283529160200191610f28565b820191906000526020600020905b815481529060010190602001808311610f0b57829003601f168201915b50505050508152602001600182018054610f4190613462565b80601f0160208091040260200160405190810160405280929190818152602001828054610f6d90613462565b8015610fba5780601f10610f8f57610100808354040283529160200191610fba565b820191906000526020600020905b815481529060010190602001808311610f9d57829003601f168201915b505050505081526020016002820154815250509050919050565b606060018054610fe390613462565b80601f016020809104026020016040519081016040528092919081815260200182805461100f90613462565b801561105c5780601f106110315761010080835404028352916020019161105c565b820191906000526020600020905b81548152906001019060200180831161103f57829003601f168201915b5050505050905090565b611078611071611828565b8383611c22565b5050565b6000600a54905090565b611091848484610ad0565b6110a561109c611828565b85858585611d91565b50505050565b60606110b682611842565b6110f5576040517f08c379a00000000000000000000000000000000000000000000000000000000081526004016110ec90613bf0565b60405180910390fd5b600d61110083611f42565b604051602001611111929190613c93565b6040516020818303038152906040529050919050565b600e6020528060005260406000206000915054906101000a900460ff1681565b600c818051602081018201805184825260208301602085012081835280955050505050506000915090505481565b6000600560008473ffffffffffffffffffffffffffffffffffffffff1673ffffffffffffffffffffffffffffffffffffffff16815260200190815260200160002060008373ffffffffffffffffffffffffffffffffffffffff1673ffffffffffffffffffffffffffffffffffffffff16815260200190815260200160002060009054906101000a900460ff16905092915050565b611211611ad5565b600073ffffffffffffffffffffffffffffffffffffffff168173ffffffffffffffffffffffffffffffffffffffff16036112835760006040517f1e4fbdf700000000000000000000000000000000000000000000000000000000815260040161127a9190612e41565b60405180910390fd5b61128c81611b5c565b50565b611297611ad5565b6112a081611842565b6112df576040517f08c379a00000000000000000000000000000000000000000000000000000000081526004016112d690613b5e565b60405180910390fd5b6112f36000826112ee84610c50565b611883565b5050565b600b60205280600052604060002060009150905080600001805461131a90613462565b80601f016020809104026020016040519081016040528092919081815260200182805461134690613462565b80156113935780601f1061136857610100808354040283529160200191611393565b820191906000526020600020905b81548152906001019060200180831161137657829003601f168201915b5050505050908060010180546113a890613462565b80601f01602080910402602001604051908101604052809291908181526020018280546113d490613462565b80156114215780601f106113f657610100808354040283529160200191611421565b820191906000526020600020905b81548152906001019060200180831161140457829003601f168201915b5050505050908060020154905083565b60007f80ac58cd000000000000000000000000000000000000000000000000000000007bffffffffffffffffffffffffffffffffffffffffffffffffffffffff1916827bffffffffffffffffffffffffffffffffffffffffffffffffffffffff191614806114fc57507f5b5e139f000000000000000000000000000000000000000000000000000000007bffffffffffffffffffffffffffffffffffffffffffffffffffffffff1916827bffffffffffffffffffffffffffffffffffffffffffffffffffffffff1916145b8061150c575061150b82612055565b5b9050919050565b606060006001611522846120bf565b01905060008167ffffffffffffffff81111561154157611540612b2f565b5b6040519080825280601f01601f1916602001820160405280156115735781602001600182028036833780820191505090505b509050600082602001820190505b6001156115d6578080600190039150507f3031323334353637383961626364656600000000000000000000000000000000600a86061a8153600a85816115ca576115c9613cb7565b5b04945060008503611581575b819350505050919050565b606061160782604051806060016040528060408152602001613ee7604091396001612212565b9050919050565b8060066000848152602001908152602001600020908161162e919061363f565b507ff8e1a15aba9398e019f0b49df1a4fde98ee17ae345cb5f6b5e2c27f5033e8ce78260405161165e9190612ceb565b60405180910390a15050565b600073ffffffffffffffffffffffffffffffffffffffff168273ffffffffffffffffffffffffffffffffffffffff16036116dc5760006040517f64a0ae920000000000000000000000000000000000000000000000000000000081526004016116d39190612e41565b60405180910390fd5b60006116ea83836000611883565b9050600073ffffffffffffffffffffffffffffffffffffffff168173ffffffffffffffffffffffffffffffffffffffff161461175e5760006040517f73c6ac6e0000000000000000000000000000000000000000000000000000000081526004016117559190612e41565b60405180910390fd5b505050565b60008061176f836123a6565b9050600073ffffffffffffffffffffffffffffffffffffffff168173ffffffffffffffffffffffffffffffffffffffff16036117e257826040517f7e2732890000000000000000000000000000000000000000000000000000000081526004016117d99190612ceb565b60405180910390fd5b80915050919050565b60006004600083815260200190815260200160002060009054906101000a900473ffffffffffffffffffffffffffffffffffffffff169050919050565b600033905090565b61183d83838360016123e3565b505050565b60008073ffffffffffffffffffffffffffffffffffffffff16611864836123a6565b73ffffffffffffffffffffffffffffffffffffffff1614159050919050565b60008073ffffffffffffffffffffffffffffffffffffffff168473ffffffffffffffffffffffffffffffffffffffff1603611ac2576000600b60008581526020019081526020016000206040518060600160405290816000820180546118e890613462565b80601f016020809104026020016040519081016040528092919081815260200182805461191490613462565b80156119615780601f1061193657610100808354040283529160200191611961565b820191906000526020600020905b81548152906001019060200180831161194457829003601f168201915b5050505050815260200160018201805461197a90613462565b80601f01602080910402602001604051908101604052809291908181526020018280546119a690613462565b80156119f35780601f106119c8576101008083540402835291602001916119f3565b820191906000526020600020905b8154815290600101906020018083116119d657829003601f168201915b505050505081526020016002820154815250509050600b600085815260200190815260200160002060008082016000611a2c91906129e8565b600182016000611a3c91906129e8565b60028201600090555050600c8160000151604051611a5a919061374d565b90815260200160405180910390206000905560096000815480929190611a7f90613ce6565b9190505550837f04021611273020b3a821ab179079f8b0f13c11a941c571dacb4701c2d66e8f158260000151604051611ab89190612d85565b60405180910390a2505b611acd8484846125a8565b509392505050565b611add611828565b73ffffffffffffffffffffffffffffffffffffffff16611afb610dbe565b73ffffffffffffffffffffffffffffffffffffffff1614611b5a57611b1e611828565b6040517f118cdaa7000000000000000000000000000000000000000000000000000000008152600401611b519190612e41565b60405180910390fd5b565b6000600760009054906101000a900473ffffffffffffffffffffffffffffffffffffffff16905081600760006101000a81548173ffffffffffffffffffffffffffffffffffffffff021916908373ffffffffffffffffffffffffffffffffffffffff1602179055508173ffffffffffffffffffffffffffffffffffffffff168173ffffffffffffffffffffffffffffffffffffffff167f8be0079c531659141344cd1fd0a4f28419497f9722a3daafe3b4186f6b6457e060405160405180910390a35050565b600073ffffffffffffffffffffffffffffffffffffffff168273ffffffffffffffffffffffffffffffffffffffff1603611c9357816040517f5b08ba18000000000000000000000000000000000000000000000000000000008152600401611c8a9190612e41565b60405180910390fd5b80600560008573ffffffffffffffffffffffffffffffffffffffff1673ffffffffffffffffffffffffffffffffffffffff16815260200190815260200160002060008473ffffffffffffffffffffffffffffffffffffffff1673ffffffffffffffffffffffffffffffffffffffff16815260200190815260200160002060006101000a81548160ff0219169083151502179055508173ffffffffffffffffffffffffffffffffffffffff168373ffffffffffffffffffffffffffffffffffffffff167f17307eab39ab6107e8899845ad3d59bd9653f200f220920489ca2b5937696c3183604051611d849190612af9565b60405180910390a3505050565b60008373ffffffffffffffffffffffffffffffffffffffff163b1115611f3b578273ffffffffffffffffffffffffffffffffffffffff1663150b7a02868685856040518563ffffffff1660e01b8152600401611df09493929190613d64565b6020604051808303816000875af1925050508015611e2c57506040513d601f19601f82011682018060405250810190611e299190613dc5565b60015b611eb0573d8060008114611e5c576040519150601f19603f3d011682016040523d82523d6000602084013e611e61565b606091505b506000815103611ea857836040517f64a0ae92000000000000000000000000000000000000000000000000000000008152600401611e9f9190612e41565b60405180910390fd5b805181602001fd5b63150b7a0260e01b7bffffffffffffffffffffffffffffffffffffffffffffffffffffffff1916817bffffffffffffffffffffffffffffffffffffffffffffffffffffffff191614611f3957836040517f64a0ae92000000000000000000000000000000000000000000000000000000008152600401611f309190612e41565b60405180910390fd5b505b5050505050565b6060611f4d82611763565b506000600660008481526020019081526020016000208054611f6e90613462565b80601f0160208091040260200160405190810160405280929190818152602001828054611f9a90613462565b8015611fe75780601f10611fbc57610100808354040283529160200191611fe7565b820191906000526020600020905b815481529060010190602001808311611fca57829003601f168201915b505050505090506000611ff86127c2565b9050600081510361200d578192505050612050565b60008251111561204257808260405160200161202a929190613df2565b60405160208183030381529060405292505050612050565b61204b846127d9565b925050505b919050565b60007f01ffc9a7000000000000000000000000000000000000000000000000000000007bffffffffffffffffffffffffffffffffffffffffffffffffffffffff1916827bffffffffffffffffffffffffffffffffffffffffffffffffffffffff1916149050919050565b600080600090507a184f03e93ff9f4daa797ed6e38ed64bf6a1f010000000000000000831061211d577a184f03e93ff9f4daa797ed6e38ed64bf6a1f010000000000000000838161211357612112613cb7565b5b0492506040810190505b6d04ee2d6d415b85acef8100000000831061215a576d04ee2d6d415b85acef810000000083816121505761214f613cb7565b5b0492506020810190505b662386f26fc10000831061218957662386f26fc10000838161217f5761217e613cb7565b5b0492506010810190505b6305f5e10083106121b2576305f5e10083816121a8576121a7613cb7565b5b0492506008810190505b61271083106121d75761271083816121cd576121cc613cb7565b5b0492506004810190505b606483106121fa57606483816121f0576121ef613cb7565b5b0492506002810190505b600a8310612209576001810190505b80915050919050565b606060008451036122345760405180602001604052806000815250905061239f565b60008261226657600360028651600461224d9190613e16565b6122579190613e58565b6122619190613e8c565b61228d565b6003600286516122769190613e58565b6122809190613e8c565b600461228c9190613e16565b5b905060008167ffffffffffffffff8111156122ab576122aa612b2f565b5b6040519080825280601f01601f1916602001820160405280156122dd5781602001600182028036833780820191505090505b50905060018501602082018788518901602081018051600082525b82841015612353576003840193508351603f8160121c168701518653600186019550603f81600c1c168701518653600186019550603f8160061c168701518653600186019550603f81168701518653600186019550506122f8565b80825289156123935760038c510660018114612376576002811461238957612391565b603d6001870353603d6002870353612391565b603d60018703535b505b50505050505080925050505b9392505050565b60006002600083815260200190815260200160002060009054906101000a900473ffffffffffffffffffffffffffffffffffffffff169050919050565b808061241c5750600073ffffffffffffffffffffffffffffffffffffffff168273ffffffffffffffffffffffffffffffffffffffff1614155b1561255057600061242c84611763565b9050600073ffffffffffffffffffffffffffffffffffffffff168373ffffffffffffffffffffffffffffffffffffffff161415801561249757508273ffffffffffffffffffffffffffffffffffffffff168173ffffffffffffffffffffffffffffffffffffffff1614155b80156124aa57506124a88184611175565b155b156124ec57826040517fa9fbf51f0000000000000000000000000000000000000000000000000000000081526004016124e39190612e41565b60405180910390fd5b811561254e57838573ffffffffffffffffffffffffffffffffffffffff168273ffffffffffffffffffffffffffffffffffffffff167f8c5be1e5ebec7d5bd14f71427d1e84f3dd0314c0f7b2291e5b200ac8c7c3b92560405160405180910390a45b505b836004600085815260200190815260200160002060006101000a81548173ffffffffffffffffffffffffffffffffffffffff021916908373ffffffffffffffffffffffffffffffffffffffff16021790555050505050565b6000806125b4846123a6565b9050600073ffffffffffffffffffffffffffffffffffffffff168373ffffffffffffffffffffffffffffffffffffffff16146125f6576125f5818486612842565b5b600073ffffffffffffffffffffffffffffffffffffffff168173ffffffffffffffffffffffffffffffffffffffff1614612687576126386000856000806123e3565b6001600360008373ffffffffffffffffffffffffffffffffffffffff1673ffffffffffffffffffffffffffffffffffffffff168152602001908152602001600020600082825403925050819055505b600073ffffffffffffffffffffffffffffffffffffffff168573ffffffffffffffffffffffffffffffffffffffff161461270a576001600360008773ffffffffffffffffffffffffffffffffffffffff1673ffffffffffffffffffffffffffffffffffffffff168152602001908152602001600020600082825401925050819055505b846002600086815260200190815260200160002060006101000a81548173ffffffffffffffffffffffffffffffffffffffff021916908373ffffffffffffffffffffffffffffffffffffffff160217905550838573ffffffffffffffffffffffffffffffffffffffff168273ffffffffffffffffffffffffffffffffffffffff167fddf252ad1be2c89b69c2b068fc378daa952ba7f163c4a11628f55a4df523b3ef60405160405180910390a4809150509392505050565b606060405180602001604052806000815250905090565b60606127e482611763565b5060006127ef6127c2565b9050600081511161280f576040518060200160405280600081525061283a565b8061281984611513565b60405160200161282a929190613df2565b6040516020818303038152906040525b915050919050565b61284d838383612906565b61290157600073ffffffffffffffffffffffffffffffffffffffff168373ffffffffffffffffffffffffffffffffffffffff16036128c257806040517f7e2732890000000000000000000000000000000000000000000000000000000081526004016128b99190612ceb565b60405180910390fd5b81816040517f177e802f0000000000000000000000000000000000000000000000000000000081526004016128f8929190613ebd565b60405180910390fd5b505050565b60008073ffffffffffffffffffffffffffffffffffffffff168373ffffffffffffffffffffffffffffffffffffffff16141580156129be57508273ffffffffffffffffffffffffffffffffffffffff168473ffffffffffffffffffffffffffffffffffffffff16148061297f575061297e8484611175565b5b806129bd57508273ffffffffffffffffffffffffffffffffffffffff166129a5836117eb565b73ffffffffffffffffffffffffffffffffffffffff16145b5b90509392505050565b60405180606001604052806060815260200160608152602001600081525090565b5080546129f490613462565b6000825580601f10612a065750612a25565b601f016020900490600052602060002090810190612a249190612a28565b5b50565b5b80821115612a41576000816000905550600101612a29565b5090565b6000604051905090565b600080fd5b600080fd5b60007fffffffff0000000000000000000000000000000000000000000000000000000082169050919050565b612a8e81612a59565b8114612a9957600080fd5b50565b600081359050612aab81612a85565b92915050565b600060208284031215612ac757612ac6612a4f565b5b6000612ad584828501612a9c565b91505092915050565b60008115159050919050565b612af381612ade565b82525050565b6000602082019050612b0e6000830184612aea565b92915050565b600080fd5b600080fd5b6000601f19601f8301169050919050565b7f4e487b7100000000000000000000000000000000000000000000000000000000600052604160045260246000fd5b612b6782612b1e565b810181811067ffffffffffffffff82111715612b8657612b85612b2f565b5b80604052505050565b6000612b99612a45565b9050612ba58282612b5e565b919050565b600067ffffffffffffffff821115612bc557612bc4612b2f565b5b612bce82612b1e565b9050602081019050919050565b82818337600083830152505050565b6000612bfd612bf884612baa565b612b8f565b905082815260208101848484011115612c1957612c18612b19565b5b612c24848285612bdb565b509392505050565b600082601f830112612c4157612c40612b14565b5b8135612c51848260208601612bea565b91505092915050565b60008060408385031215612c7157612c70612a4f565b5b600083013567ffffffffffffffff811115612c8f57612c8e612a54565b5b612c9b85828601612c2c565b925050602083013567ffffffffffffffff811115612cbc57612cbb612a54565b5b612cc885828601612c2c565b9150509250929050565b6000819050919050565b612ce581612cd2565b82525050565b6000602082019050612d006000830184612cdc565b92915050565b600081519050919050565b600082825260208201905092915050565b60005b83811015612d40578082015181840152602081019050612d25565b60008484015250505050565b6000612d5782612d06565b612d618185612d11565b9350612d71818560208601612d22565b612d7a81612b1e565b840191505092915050565b60006020820190508181036000830152612d9f8184612d4c565b905092915050565b612db081612cd2565b8114612dbb57600080fd5b50565b600081359050612dcd81612da7565b92915050565b600060208284031215612de957612de8612a4f565b5b6000612df784828501612dbe565b91505092915050565b600073ffffffffffffffffffffffffffffffffffffffff82169050919050565b6000612e2b82612e00565b9050919050565b612e3b81612e20565b82525050565b6000602082019050612e566000830184612e32565b92915050565b612e6581612e20565b8114612e7057600080fd5b50565b600081359050612e8281612e5c565b92915050565b60008060408385031215612e9f57612e9e612a4f565b5b6000612ead85828601612e73565b9250506020612ebe85828601612dbe565b9150509250929050565b600080600060608486031215612ee157612ee0612a4f565b5b6000612eef86828701612e73565b9350506020612f0086828701612e73565b9250506040612f1186828701612dbe565b9150509250925092565b600060208284031215612f3157612f30612a4f565b5b6000612f3f84828501612e73565b91505092915050565b600082825260208201905092915050565b6000612f6482612d06565b612f6e8185612f48565b9350612f7e818560208601612d22565b612f8781612b1e565b840191505092915050565b612f9b81612cd2565b82525050565b60006060830160008301518482036000860152612fbe8282612f59565b91505060208301518482036020860152612fd88282612f59565b9150506040830151612fed6040860182612f92565b508091505092915050565b600060208201905081810360008301526130128184612fa1565b905092915050565b61302381612ade565b811461302e57600080fd5b50565b6000813590506130408161301a565b92915050565b6000806040838503121561305d5761305c612a4f565b5b600061306b85828601612e73565b925050602061307c85828601613031565b9150509250929050565b600067ffffffffffffffff8211156130a1576130a0612b2f565b5b6130aa82612b1e565b9050602081019050919050565b60006130ca6130c584613086565b612b8f565b9050828152602081018484840111156130e6576130e5612b19565b5b6130f1848285612bdb565b509392505050565b600082601f83011261310e5761310d612b14565b5b813561311e8482602086016130b7565b91505092915050565b6000806000806080858703121561314157613140612a4f565b5b600061314f87828801612e73565b945050602061316087828801612e73565b935050604061317187828801612dbe565b925050606085013567ffffffffffffffff81111561319257613191612a54565b5b61319e878288016130f9565b91505092959194509250565b6000602082840312156131c0576131bf612a4f565b5b600082013567ffffffffffffffff8111156131de576131dd612a54565b5b6131ea84828501612c2c565b91505092915050565b6000806040838503121561320a57613209612a4f565b5b600061321885828601612e73565b925050602061322985828601612e73565b9150509250929050565b6000606082019050818103600083015261324d8186612d4c565b905081810360208301526132618185612d4c565b90506132706040830184612cdc565b949350505050565b7f496e73756666696369656e74207061796d656e74000000000000000000000000600082015250565b60006132ae601483612d11565b91506132b982613278565b602082019050919050565b600060208201905081810360008301526132dd816132a1565b9050919050565b7f4e616d652063616e6e6f7420626520656d707479000000000000000000000000600082015250565b600061331a601483612d11565b9150613325826132e4565b602082019050919050565b600060208201905081810360008301526133498161330d565b9050919050565b7f496d6167652063616e6e6f7420626520656d7074790000000000000000000000600082015250565b6000613386601583612d11565b915061339182613350565b602082019050919050565b600060208201905081810360008301526133b581613379565b9050919050565b7f4e487b7100000000000000000000000000000000000000000000000000000000600052601160045260246000fd5b60006133f682612cd2565b91507fffffffffffffffffffffffffffffffffffffffffffffffffffffffffffffffff8203613428576134276133bc565b5b600182019050919050565b7f4e487b7100000000000000000000000000000000000000000000000000000000600052602260045260246000fd5b6000600282049050600182168061347a57607f821691505b60208210810361348d5761348c613433565b5b50919050565b60008190508160005260206000209050919050565b60006020601f8301049050919050565b600082821b905092915050565b6000600883026134f57fffffffffffffffffffffffffffffffffffffffffffffffffffffffffffffffff826134b8565b6134ff86836134b8565b95508019841693508086168417925050509392505050565b6000819050919050565b600061353c61353761353284612cd2565b613517565b612cd2565b9050919050565b6000819050919050565b61355683613521565b61356a61356282613543565b8484546134c5565b825550505050565b600090565b61357f613572565b61358a81848461354d565b505050565b5b818110156135ae576135a3600082613577565b600181019050613590565b5050565b601f8211156135f3576135c481613493565b6135cd846134a8565b810160208510156135dc578190505b6135f06135e8856134a8565b83018261358f565b50505b505050565b600082821c905092915050565b6000613616600019846008026135f8565b1980831691505092915050565b600061362f8383613605565b9150826002028217905092915050565b61364882612d06565b67ffffffffffffffff81111561366157613660612b2f565b5b61366b8254613462565b6136768282856135b2565b600060209050601f8311600181146136a95760008415613697578287015190505b6136a18582613623565b865550613709565b601f1984166136b786613493565b60005b828110156136df578489015182556001820191506020850194506020810190506136ba565b868310156136fc57848901516136f8601f891682613605565b8355505b6001600288020188555050505b505050505050565b600081905092915050565b600061372782612d06565b6137318185613711565b9350613741818560208601612d22565b80840191505092915050565b6000613759828461371c565b915081905092915050565b7f7b226e616d65223a220000000000000000000000000000000000000000000000600082015250565b600061379a600983613711565b91506137a582613764565b600982019050919050565b7f222c000000000000000000000000000000000000000000000000000000000000600082015250565b60006137e6600283613711565b91506137f1826137b0565b600282019050919050565b7f226465736372697074696f6e223a22412070726f702066726f6d20576f726c6460008201527f20436f6d696373222c0000000000000000000000000000000000000000000000602082015250565b6000613858602983613711565b9150613863826137fc565b602982019050919050565b7f22696d616765223a220000000000000000000000000000000000000000000000600082015250565b60006138a4600983613711565b91506138af8261386e565b600982019050919050565b7f2261747472696275746573223a5b000000000000000000000000000000000000600082015250565b60006138f0600e83613711565b91506138fb826138ba565b600e82019050919050565b7f7b2274726169745f74797065223a2243726561746564204174222c2276616c7560008201527f65223a2200000000000000000000000000000000000000000000000000000000602082015250565b6000613962602483613711565b915061396d82613906565b602482019050919050565b7f227d000000000000000000000000000000000000000000000000000000000000600082015250565b60006139ae600283613711565b91506139b982613978565b600282019050919050565b7f5d7d000000000000000000000000000000000000000000000000000000000000600082015250565b60006139fa600283613711565b9150613a05826139c4565b600282019050919050565b6000613a1b8261378d565b9150613a27828661371c565b9150613a32826137d9565b9150613a3d8261384b565b9150613a4882613897565b9150613a54828561371c565b9150613a5f826137d9565b9150613a6a826138e3565b9150613a7582613955565b9150613a81828461371c565b9150613a8c826139a1565b9150613a97826139ed565b9150819050949350505050565b60006040820190508181036000830152613abe8185612d4c565b90508181036020830152613ad28184612d4c565b90509392505050565b6000606082019050613af06000830186612e32565b613afd6020830185612cdc565b613b0a6040830184612e32565b949350505050565b7f50726f7020646f6573206e6f7420657869737400000000000000000000000000600082015250565b6000613b48601383612d11565b9150613b5382613b12565b602082019050919050565b60006020820190508181036000830152613b7781613b3b565b9050919050565b7f45524337323155524953746f726167653a2055524920717565727920666f722060008201527f6e6f6e6578697374656e7420746f6b656e000000000000000000000000000000602082015250565b6000613bda603183612d11565b9150613be582613b7e565b604082019050919050565b60006020820190508181036000830152613c0981613bcd565b9050919050565b60008154613c1d81613462565b613c278186613711565b94506001821660008114613c425760018114613c5757613c8a565b60ff1983168652811515820286019350613c8a565b613c6085613493565b60005b83811015613c8257815481890152600182019150602081019050613c63565b838801955050505b50505092915050565b6000613c9f8285613c10565b9150613cab828461371c565b91508190509392505050565b7f4e487b7100000000000000000000000000000000000000000000000000000000600052601260045260246000fd5b6000613cf182612cd2565b915060008203613d0457613d036133bc565b5b600182039050919050565b600081519050919050565b600082825260208201905092915050565b6000613d3682613d0f565b613d408185613d1a565b9350613d50818560208601612d22565b613d5981612b1e565b840191505092915050565b6000608082019050613d796000830187612e32565b613d866020830186612e32565b613d936040830185612cdc565b8181036060830152613da58184613d2b565b905095945050505050565b600081519050613dbf81612a85565b92915050565b600060208284031215613ddb57613dda612a4f565b5b6000613de984828501613db0565b91505092915050565b6000613dfe828561371c565b9150613e0a828461371c565b91508190509392505050565b6000613e2182612cd2565b9150613e2c83612cd2565b9250828202613e3a81612cd2565b91508282048414831517613e5157613e506133bc565b5b5092915050565b6000613e6382612cd2565b9150613e6e83612cd2565b9250828201905080821115613e8657613e856133bc565b5b92915050565b6000613e9782612cd2565b9150613ea283612cd2565b925082613eb257613eb1613cb7565b5b828204905092915050565b6000604082019050613ed26000830185612e32565b613edf6020830184612cdc565b939250505056fe4142434445464748494a4b4c4d4e4f505152535455565758595a6162636465666768696a6b6c6d6e6f707172737475767778797a303132333435363738392b2fa264697066735822122046a9d389338d0f3c4974fc98ffd79771ed58f10e7e8a5272df8c2d6e05c4384064736f6c63430008140033",
  "linkReferences": {},
  "deployedLinkReferences": {}
}